:0A17170000010202030304040505AB
:10084A00E4F513F512F511F510C203C200C202C293
:10085A0001120A247E007F908E428F43754A0075EA
:10086A004BA27540007541AC7548007549DA754C64
:10087A0001754D0890E680E030E70E8540448541D9
:10088A0045854846854947800C85484485494585BC
:10089A004046854147EE54E070030209BD751400D5
:1008AA007515807E007F908E168F17C3742E9FFF5A
:1008BA0074019ECF2402CF3400FEE48F0F8E0EF512
:1008CA000DF50CF50BF50AF509F508AF0FAE0EADEF
:1008DA000DAC0CAB0BAA0AA909A808C3120DEB5060
:1008EA002AE515250BF582E514350AF58374CDF052
:1008FA00E4FAF9F8E50B2401F50BEA350AF50AE9F9
:10090A003509F509E83508F50880C0E4F50BF50A5C
:10091A00F509F508AF0FAE0EAD0DAC0CAB0BAA0A7C
:10092A00A909A808C3120DEB5037E517250BF58264
:10093A00E516350AF583E0FFE515250BF582E51482
:10094A00350AF583EFF0E4FAF9F8E50B2401F50B23
:10095A00EA350AF50AE93509F509E83508F508809E
:10096A00B385144285154374902480FF740034FFC4
:10097A00FEC3E54B9FF54BE54A9EF54AC3E5459F05
:10098A00F545E5449EF544C3E5479FF547E5469E90
:10099A00F546C3E5419FF541E5409EF540C3E5496B
:1009AA009FF549E5489EF548C3E54D9FF54DE54C51
:1009BA009EF54CD2E843D82090E668E04409F090CE
:1009CA00E65CE0443DF0D2AF90E680E020E105D25B
:1009DA000712148F90E680E054F7F0538EF8C203A2
:1009EA003001051205A8C2013003291217975024B5
:1009FA00C2031215E920001690E682E030E704E00F
:100A0A0020E1EF90E682E030E604E020E0E412150F
:090A1A001812179912176780C722
:010A230022B0
:1005A80090E6B9E0700302068414700302072D2454
:1005B800FE70030207C524FB700302067E14700355
:1005C80002067814700302066C1470030206722483
:1005D80005600302083612179B400302084290E6A2
:1005E800BBE024FE602C14604724FD6016146031C3
:1005F80024067066E54290E6B3F0E54390E6B4F071
:10060800020842E54A90E6B3F0E54B90E6B4F00202
:100618000842E54490E6B3F0E54590E6B4F00208F8
:1006280042E54690E6B3F0E54790E6B4F0020842AA
:1006380090E6BAE0FF121544AA06A9077B01EA4929
:100648004B600DEE90E6B3F0EF90E6B4F00208428E
:1006580090E6A0E04401F002084290E6A0E04401E0
:10066800F00208421216CD02084212177002084220
:1006780012134E0208421216BB02084212179D407E
:100688000302084290E6B8E0247F602B14603C2403
:10069800026003020723A200E433FF25E0FFA20261
:1006A800E4334F90E740F0E4A3F090E68AF090E658
:1006B8008B7402F0020842E490E740F0A3F090E661
:1006C8008AF090E68B7402F002084290E6BCE0548F
:1006D8007EFF7E00E0D3948040067C007D0180048C
:1006E8007C007D00EC4EFEED4F2417F58274173E1A
:1006F800F583E493FF3395E0FEEF24A1FFEE34E6A3
:100708008F82F583E0540190E740F0E4A3F090E68F
:100718008AF090E68B7402F002084290E6A0E0446A
:1007280001F002084212179F400302084290E6B8FF
:10073800E024FE601D2402600302084290E6BAE04D
:10074800B40105C20002084290E6A0E04401F002AC
:10075800084290E6BAE0705990E6BCE0547EFF7E0D
:1007680000E0D3948040067C007D0180047C007DFD
:1007780000EC4EFEED4F2417F58274173EF583E426
:1007880093FF3395E0FEEF24A1FFEE34E68F82F568
:1007980083E054FEF090E6BCE05480FF131313543A
:1007A8001FFFE0540F2F90E683F0E04420F002088A
:1007B8004290E6A0E04401F0020842807D1217A1B1
:1007C800507890E6B8E024FE60232402706C90E62E
:1007D800BAE0B40104D200806190E6BAE0B4020441
:1007E8008058805690E6A0E04401F0804D90E6BC29
:1007F800E0547EFF7E00E0D3948040067C007D01BB
:1008080080047C007D00EC4EFEED4F2417F58274C9
:10081800173EF583E493FF3395E0FEEF24A1FFEE46
:1008280034E68F82F583E04401F0800E800C1201DB
:1008380030500790E6A0E04401F090E6A0E0448044
:01084800F0BF
:01084900228C
:0300330002008C3C
:04008C0053D8EF3224
:100090001201000200000040181601830000010256
:1000A00000010A06000200000040010009022E00C3
:1000B000010100A0FA0904000004FF000000070588
:1000C0000102400000070586020002000705020247
:1000D0000002000705810240000009022E00010114
:1000E00000A0FA0904000004FF0000000705010257
:1000F000400000070586024000000705020240009C
:100100000007058102400000040309040E035100AA
:1001100048005900430043004400140351004800C4
:1001200059002D003900530020002000200000005D
:03004300020E00AA
:03005300020E009A
:100E0000021648000216A50002168F0002166000A6
:100E1000021385000213BC000217A3000217A400EE
:100E20000217A5000217A600020EB8000211BD00AD
:100E30000217A7000217A8000217A9000217AA00AC
:100E40000217AB000217A4000217AC000217AD0096
:100E50000217AE000217AF000217B0000217B10070
:100E60000217B2000217A4000217A4000217A40080
:100E70000217B3000217B4000217B5000217B6003C
:100E80000217B7000217B8000217B9000217BA001C
:100E90000217BB000217BC000217BD000217BE00FC
:100EA0000217BF000217C0000217C1000217C200DC
:080EB0000217C3000217C40081
:1015180090E682E030E004E020E60B90E682E030DE
:10152800E119E030E71590E680E04401F07F147E91
:0C1538000012124290E680E054FEF02207
:1015E90090E682E044C0F090E681F0438701000074
:0415F90000000022CC
:10148F0030070990E680E0440AF0800790E680E09C
:10149F004408F07FDC7E0512124290E65D74FFF087
:0F14AF0090E65FF05391EF90E680E054F7F02263
:02154400A907F5
:10154600AE4CAF4D8F828E83A3E064037017AD015E
:1015560019ED7001228F828E83E07C002FFDEC3E18
:09156600FEAF0580DF7E007F006E
:01156F002259
:101242008E1E8F1F90E600E054187012E51F2401D5
:10125200FFE4351EC313F51EEF13F51F801590E64C
:1012620000E05418FFBF100BE51F25E0F51FE51E37
:1012720033F51EE51F151FAE1E7002151E4E6005CA
:061282001215FD80EE22B2
:1015FD007400F58690FDA57C05A3E582458370F901
:01160D0022BA
:10128800022A1A0002250000023A0000023D03F774
:10129800023600000222000002280000012E01018F
:1012A8003400013300013900013C00013200022CF6
:1012B8000000013FA0013100012700013500012F86
:0312C80000C1065C
:100A240090E6007412F090E6017443F00000009028
:100A3400E61074A0F000000000000090E611F00041
:100A4400000000000090E612F0000000E490E613BD
:100A5400F000000090E61474E0F0000000E490E67A
:100A640015F000000090E6047480F00000007402A9
:100A7400F00000007406F0000000E4F000000090B4
:100A8400E60274E6F000000090E60374F8F000005B
:100A94000090E670E04440F0000000E490E609F0C5
:100AA40000000043B20F43B24090E61804F0000087
:100AB400007411F000000090E61A7409F0000000C0
:100AC400E490E671F090E672F075B4FF75B6FF75C8
:100AD400B67F43B18090E65EE04408F0000000E495
:100AE40090E68DF090E65EE04404F0000000E490AF
:100AF400E68FF053B2FED28112178043B120E4FD99
:100B04007F801211367F647E001212427D807F80C6
:100B14001211367F9A7E00121721C2047D0D7F4088
:100B24001211367D787F20121136E4FD7F101211E8
:100B340036E4FD7F081211367DC07F02121136E4BF
:100B4400FD7F0412113612177890E67AE054FEF015
:100B5400E4FD7F9012159AE4F52F12160E12170C6D
:070B64001216F6E4F5302241
:09176700300605120B6BC20622CC
:02179700D3225B
:02179900D32259
:02179B00D32257
:10134E0090E680E030E71590E6247402F00000008D
:10135E00E490E625F0000000D2048013E490E62429
:10136E00F000000090E6257440F0000000C20490EA
:07137E00E6BAE0F538D322C6
:1016BB0090E740E538F0E490E68AF090E68B04F092
:0216CB00D32228
:0817700090E6BAE0F524D32253
:1016CD0090E740E524F0E490E68AF090E68B04F094
:0216DD00D32216
:02179D00D32255
:02179F00D32253
:0217A100D32251
:1001300090E6B9E0244B70030201BD147003020382
:100140009C24F570030203D714700302048B24FD72
:1001500070030204D2147003020535147003020503
:1001600066241460030205A4E490E68AF090E68B0E
:10017000F090E6A0E020E1F990E68BE0F5180000B1
:100180000090E6047480F000000053277FAD27FF45
:1001900012113690E6047406F0000000E4F090E7D7
:1001A00040E0FF7E00121242432780AD277F80127D
:1001B0001136D2061217011216EB0205A6E490E6DC
:1001C0008AF090E68BF090E6A0E020E1F990E68BD3
:1001D000E0F518D3943F4024E4F51974402519F54F
:1001E00082E434E7F583E0FF74002519F582E434F6
:1001F00022F583EFF00519E519B440DF7F9A7E0000
:10020000121721902200E0FF7E0012172B9022008F
:10021000E0FF7E00121735902200E0FF7E001217EB
:100220003F902201E075F004A4FFAEF01217499050
:100230002201E075F004A4FFAEF0121753902201E2
:10024000E075F004A4FFAEF012175D902205E0C344
:10025000940250035327CF902205E0B40208E5270B
:1002600054CF2410F527902205E0B40308E5275465
:10027000CF2420F527902205E0B40408E52754CFC9
:100280002430F527902221E070035327B7902221D4
:10029000E0B40108E527444054F7F527902221E017
:1002A000B40208E52754BF4408F527902226E070E1
:1002B000055327FD8003432702902207E0FD7F407E
:1002C000121136902208E0FD7F2012113690221183
:1002D000E0FD7F10121136902212E0FD7F0812110E
:1002E00036902223E0F534902220E0F5339022244A
:1002F000E0F53990222EE0F532902233E0F531A37B
:10030000E0F53C90223AE0F53F902206E0F52EE53C
:100310002E7003752E0190220BE0FEA3E07C0024DA
:1003200000F526EC3EF525A3E0FEA3E02400F53B16
:10033000EC3EF53A902207E0FEA3E02400F52BEC1A
:100340003EF52AA3E0FEA3E02400F53EEC3EF53D99
:10035000902211E0FEA3E02400F537EC3EF5369044
:10036000220FE0FEA3E02400F529EC3EF5289022C0
:100370002FE0FEA3E02400F523EC3EF52290221DA1
:10038000E0FD7F0212113690221EE0FD7F04121163
:1003900036902235E0540FF52F0205A6E4F51974C6
:1003A000002519F582E43422F583E0FF7440251915
:1003B000F582E434E7F583EFF00519E519B440DF81
:1003C000000000E490E68AF000000090E68B7440A4
:1003D000F01214EB0205A6E490E68AF090E68BF0AA
:1003E00090E6A0E020E1F990E68BE0F518D39400C8
:1003F00050030205A6121787120DFC7FE67E00123D
:1004000012421217877F027E001212427F647E0022
:10041000121678E4F519C374079519FF90E740E0C8
:10042000FEA807088002C313D8FC20E005120DFCCB
:1004300080031217877F0A7E001212427FC77E0157
:100440001216780519E519C3940840CAE4F519C3D2
:1004500074079519FF90E741E0FEA807088002C3E2
:1004600013D8FC20E005120DFC80031217877F0AC9
:100470007E001212427FC77E011216780519E51917
:10048000C3940840CA1217870205A690E74074D9A2
:10049000F0A3740CF0A304F0A37478F0A3740AF032
:1004A000A3740EF0E4A3F0A3F0A37483F03004056A
:1004B000E4A3F0800690E74974FFF0000000E490A8
:1004C000E68AF000000090E68B740AF01214EB024A
:1004D00005A690E678E04480F090E6797491F07F8C
:1004E000647E0012167890E679E090E740F07F6431
:1004F0007E0012167890E679E090E741F07F647E06
:100500000012167890E679E090E742F07F647E0072
:1005100012167890E679E090E743F090E678E044B0
:1005200040F0000000E490E68AF000000090E68BC6
:100530007404F08071E490E68AF090E68BF090E627
:10054000A0E020E1F990E68BE0F518D39401405645
:1005500090E741E0FD7F4212159A90E740E0FD7F71
:100560004E12159A8040E490E68AF090E68BF09067
:10057000E6A0E020E1F990E68BE0F518D394004086
:100580002590E740E0700312008090E740E0B4015E
:1005900007E52F70031216DF90E740E0B402071260
:0705A000160E8002D322C3F6
:0105A7002231
:10164800C0E0C083C082D2015391EF90E65D74017F
:08165800F0D082D083D0E03213
:10168F00C0E0C083C0825391EF90E65D7404F0D048
:06169F0082D083D0E0328E
:1016A500C0E0C083C0825391EF90E65D7402F0D034
:0616B50082D083D0E03278
:10138500C0E0C083C08290E680E030E70E8540442F
:10139500854145854846854947800C8548448549AA
:1013A500458540468541475391EF90E65D7410F0C1
:0713B500D082D083D0E032AA
:10166000C0E0C083C082D2035391EF90E65D74085E
:08167000F0D082D083D0E032FB
:1013BC00C0E0C083C08290E680E030E70E854044F8
:1013CC00854145854846854947800C854844854973
:1013DC00458540468541475391EF90E65D7420F07A
:0713EC00D082D083D0E03273
:0117A3003213
:0117A4003212
:0117A5003211
:0117A6003210
:100EB800C0E0C0F0C083C082C0D075D000C000C000
:100EC80001C002C003C004C005C006C007C2AFE528
:100ED800306402605090E678E04480F090E67974DF
:100EE80091F07F647E0012167890E679E090E7C072
:100EF800F07F647E0012167890E679E090E7C1F002
:100F08007F647E0012167890E679E090E7C2F07F61
:100F1800647E0012167890E679E090E7C3F090E6D8
:100F280078E04440F090E7C0E530F000000090E63B
:100F38008F7404F00000005391EF90E65FE04404E2
:100F4800F0D2AFD007D006D005D004D003D002D05D
:0E0F580001D000D0D0D082D083D0F0D0E032D3
:1011BD00C0E0C0F0C083C082C0D075D000C000C0F8
:0D11CD0001C002C003C004C005C006C00779
:1011DA00C2AF90E6A1E020E1F990E780E0FF700459
:1011EA00F5218025BFFF07752100D205801BE4FD8C
:1011FA007F9012159A90E782E0FD7F4212159A902D
:10120A00E781E0FD7F4E12159A00000090E68DE41A
:0D121A00F05391EF90E65FE04408F0D2AF92
:10122700D007D006D005D004D003D002D001D0001B
:0B123700D0D0D082D083D0F0D0E032C5
:0117A700320F
:0117A800320E
:0117A900320D
:0117AA00320C
:0117AB00320B
:0117AC00320A
:0117AD003209
:0117AE003208
:0117AF003207
:0117B0003206
:0117B1003205
:0117B2003204
:0117B3003203
:0117B4003202
:0117B5003201
:0117B6003200
:0117B70032FF
:0117B80032FE
:0117B90032FD
:0117BA0032FC
:0117BB0032FB
:0117BC0032FA
:0117BD0032F9
:0117BE0032F8
:0117BF0032F7
:0117C00032F6
:0117C10032F5
:0117C20032F4
:0117C30032F3
:0117C40032F2
:10167800AD07AC06ED25E0FDEC33FCED4C6007ED65
:071688001D70011C80F5221A
:060F66008C1A8D1BA90787
:100F6C0075B6FF75B5FF53B07F53010753B1FE7FC4
:100F7C000A7E00121678E4FBFAC374029BFFE9A800
:100F8C0007088002C313D8FC30E00543B10280038C
:100F9C0053B1FD7F0A7E0012167843B10412167805
:100FAC0053B1FB1216780BBB00010AEB64034A70B9
:100FBC00C8E4FAFBC374099BFFE51BAE1AA807082B
:100FCC008005CEC313CE13D8F930E00543B10280AF
:100FDC000353B1FD7F0A7E0012167843B10412163A
:100FEC007853B1FB1216780BBB00010AEB640A4A6A
:100FFC0070C243B1017F0A7E0012167853B1FE1203
:02100C00167854
:01100E0022BF
:0A172100AD07AC06E4FF120F6622CC
:0A172B00AD07AC067F04120F662222
:0A173500AD07AC067F05120F662217
:0A173F00AD07AC067F06120F66220C
:0A174900AD07AC067F01120F662207
:0A175300AD07AC067F02120F6622FC
:0A175D00AD07AC067F03120F6622F1
:041136008F1DA9055B
:10113A00C2A27F017E00121678E4FBFAAF03E9A887
:10114A0007088002C313D8FC30E004D2A18002C28F
:10115A00A17F017E00121678D2A0121678C2A012C0
:10116A0016780BBB00010AEB64084A70CFE4FAFB5D
:10117A00AF03E51DA807088002C313D8FC30E004BA
:10118A00D2A18002C2A17F017E00121678D2A012DB
:10119A001678C2A01216780BBB00010AEB64084A43
:1011AA0070CEC2A2D2A27F017E00121678C2A2120B
:0211BA001678A5
:0111BC002210
:03178B00C2A322D4
:03178E00D2A322C1
:03179100C28322EE
:03179400D28322DB
:0717800012178E12179422CC
:10162E0012178B7F0A7E0012167812179112178EE0
:0A163E001216781217941216782283
:10157000E4F51CF51DE4FBFA12162E0BBB00010A64
:10158000BA02F5BBA8F2051DE51D7002051CC39447
:0915900004E51C6480948040DC39
:01159900222F
:0C0080007D107C277F017E0012130D22F2
:0C16DF007D107C277F017E001212CC22BF
:10100F00E533B4010353B1DFE5317003120080E51E
:10101F0034706F752101902202E075F040A485F0C5
:10102F001CF51DAF217E00AC1CAD1D120DD9D3EFE9
:10103F009400EE940040117FEF7E03121242E51DE3
:10104F00151D7002151C80DB902203E0751C00F546
:10105F001DAF217E00AC1CAD1D120DD9D3EF940036
:10106F00EE940040117F007E01121242E51D151D06
:10107F007002151C80DB902204E0FF7E00121242EA
:10108F008009752101E521640160FAE531700312D1
:0A109F0016DFE533B4010343B1206E
:0110A9002224
:100B6B00753001121701C205E5317007E52F7003CF
:100B7B001216DFE5294528700312157012100F307D
:100B8B000503020C81753002E4F518F519C3E5195C
:100B9B009526E51895255029E4F51AF51BC3E51B99
:100BAB00952E7480F8651A98500D12162E051BE5BC
:100BBB001B7002051A80E60519E5197002051880ED
:100BCB00CCE532D394004005AF321215C3E4F518CF
:100BDB00F519C3E519953EE518953D5030C28130A6
:100BEB0080FDD281E4F51AF51BC3E51B952E7480AD
:100BFB00F8651A98500D12162E051BE51B70020591
:100C0B001A80E60519E5197002051880C5E4F51878
:100C1B00F519C3E5199526E51895255029E4F51A1C
:100C2B00F51BC3E51B952E7480F8651A98500D12B1
:100C3B00162E051BE51B7002051A80E60519E51932
:100C4B007002051880CCE536FD7F40121136E53772
:100C5B00FD7F20121136C2813080FDD281E52AFD45
:100C6B007F40121136E52BFD7F20121136E4F53053
:060C7B0012160E12170C08
:010C81002250
:10159A00AB05AE0790E678E04480F090E679EEF08D
:1015AA007F647E00121678EBF012167890E678E0E7
:0915BA004440F07F64121678220F
:1012CC008C1E8D1FAB07AA06EB4A6034E5A0540FA9
:1012DC002460F5A0AF1FAE1E121678E5A0540F24A3
:1012EC00A0F5A0AF1FAE1E121678E5A0540F2480F7
:1012FC00F5A0AF1FAE1E121678EB1B70011A80C83A
:01130C0022BE
:10130D008C1E8D1FAB07AA06EB4A6034E5A0540F67
:10131D002480F5A0AF1FAE1E121678E5A0540F2441
:10132D0060F5A0AF1FAE1E121678E5A0540F245025
:10133D00F5A0AF1FAE1E121678EB1B70011A80C8F8
:01134D00227D
:10160E00E52FB40109E5A0540F2480F5A022E52FA3
:10161E00B40209E5A0540F2490F5A02253A00F2286
:0B16EB00E53554BFFD7F0112113622CF
:0B16F600E5354440FD7F011211362253
:0B170100E53554DFFD7F011211362298
:0B170C00E5354420FD7F01121136225C
:040DFC0053B17F224E
:0417870043B18022C8
:1014BE00E4F554F55512170C7F327E0012124212CB
:1014CE0017017F327E001212420555E55570020556
:0C14DE0054C39403E5546480948040D90A
:0114EA0022DF
:1014EB00E4F51AF51B1216F67F327E001212421229
:1014FB0016EB7F327E00121242051BE51B700205B4
:0C150B001AC39403E51A6480948040D950
:0115170022B1
:1015C3008F1C432704AD277F80121136E51C600B67
:1015D300C2813080FDD281151C80F15327FBAD27DA
:0615E3007F801211362288
:08177800E4F553D2E9D2AF22DF
:1013F30090E678E020E6F9C2E990E678E04480F0F0
:10140300EF25E090E679F090E678E030E0F990E6B9
:1014130078E04440F090E678E020E6F990E678E062
:0614230030E1D6D2E922FF
:10145D00A90790E678E020E6F9E553702390E67849
:10146D00E04480F0E925E090E679F08D4EAF03A9D8
:10147D0007754F018A508951E4F552755301D322F6
:02148D00C32278
:10142900A90790E678E020E6F9E553702590E6787B
:10143900E04480F0E925E0440190E679F08D4EAF73
:1014490003A907754F018A508951E4F55275530371
:04145900D322C322B5
:03004B00020C8222
:100C8200C0E0C083C082C085C084C086758600C0B3
:100C9200D075D000C000C001C002C003C006C007AA
:100CA20090E678E030E206755306020D6C90E67825
:100CB200E020E10CE55364026006755307020D6CF7
:100CC200E55324FE605F14603624FE7003020D5D5E
:100CD20024FC7003020D6924086003020D6CAB4F03
:100CE200AA50A951AF5205528F82758300120D8A04
:100CF20090E679F0E552654E7070755305806B9001
:100D0200E679E0AB4FAA50A951AE528E82758300AC
:100D1200120DB7755302E54E6401704E90E678E00D
:100D22004420F08045E54E24FEB5520790E678E077
:100D32004420F0E54E14B5520A90E678E04440F0C3
:100D420075530090E679E0AB4FAA50A951AE528E8E
:100D520082758300120DB70552800F90E678E04449
:100D620040F075530080037553005391DFD007D0D4
:100D720006D003D002D001D000D0D0D086D084D00B
:080D820085D082D083D0E0325D
:030000000210AA41
:0C10AA00787FE4F6D8FD7581550210F146
:100D8A00BB010CE58229F582E5833AF583E022501E
:100D9A0006E92582F8E622BBFE06E92582F8E22268
:0D0DAA00E58229F582E5833AF583E4932282
:100DB700F8BB010DE58229F582E5833AF583E8F072
:100DC700225006E92582C8F622BBFE05E92582C81E
:020DD700F22206
:100DD900EF8DF0A4A8F0CF8CF0A428CE8DF0A42E2E
:020DE900FE22E8
:100DEB00EB9FF5F0EA9E42F0E99D42F0E89C45F05E
:010DFB0022D5
:1010B60002084AE493A3F8E493A34003F68001F2FE
:1010C60008DFF48029E493A3F85407240CC8C3333B
:1010D600C4540F4420C8834004F456800146F6DF0A
:1010E600E4800B0102040810204080901288E47E00
:1010F600019360BCA3FF543F30E509541FFEE493FF
:10110600A360010ECF54C025E060A840B8E493A3C5
:10111600FAE493A3F8E493A3C8C582C8CAC583CAF0
:10112600F0A3C8C582C8CAC583CADFE9DEE780BEA8
:0112CB000022
:00000001FF
