:0A1A0F0000010202030304040505B0
:03082E0001600066
:10052800E4F513F512F511F510C203C200C202C2B8
:1005380001121622121936120AC27E117F008E632A
:100548008F64756B11756C1275611175621C756914
:1005580011756A4A756D11756E78EE54E070030274
:1005680006727514007515808E168F17C374A29FB6
:10057800FF74119ECF2402CF3400FEE48F0F8E0E3D
:10058800F50DF50CF50BF50AF509F508AF0FAE0EEC
:10059800AD0DAC0CAB0BAA0AA909A808C312081D1B
:1005A8005026E515250BF582E514350AF58374CD3B
:1005B800F0E50B2401F50BE4350AF50AE43509F5F5
:1005C80009E43508F50880C4E4F50BF50AF509F5E2
:1005D80008AF0FAE0EAD0DAC0CAB0BAA0AA909A85B
:1005E80008C312081D5031AE0AAF0BE5172FF5826C
:1005F800E5163EF583E0FDE5152FF582E5143EF599
:1006080083EDF0EF2401F50BE43EF50AE43509F536
:1006180009E43508F50880B9851463851564740004
:100628002480FF741134FFFEC3E56C9FF56CE56B05
:100638009EF56BC3E5669FF566E5659EF565C3E5C2
:10064800689FF568E5679EF567C3E5629FF562E513
:10065800619EF561C3E56A9FF56AE5699EF569C320
:10066800E56E9FF56EE56D9EF56DD2E843D8209056
:10067800E668E04409F090E65CE0443DF0D2AF90D3
:10068800E680E020E105D20812173490E680E054B5
:10069800F7F0538EF8C203300105120304C201308B
:1006A8000329120EFD5024C2031218B92000169017
:1006B800E682E030E704E020E1EF90E682E030E611
:1006C80004E020E0E41217BE121A9A12132D80C714
:1003040090E6B9E070030203B514700302043224CA
:10031400FE70030204B524FB70030203AF147003E0
:100324000203A914607314607624056003020514A3
:10033400121A9C400302052090E6BBE024FE6022D2
:1003440014603324FD601114602224067048E563B0
:1003540090E6B3F0E5648037E56B90E6B3F0E56CC6
:10036400802DE56590E6B3F0E5668023E56790E6C9
:10037400B3F0E568801990E6BAE0FF1217EAAA061E
:10038400A9077B01EA494B600DEE90E6B3F0EF90CC
:10039400E6B4F00205200205191219D00205201254
:1003A4001A620205201215A80205201219BE0205C0
:1003B40020121A9E400302052090E6B8E0247F60D4
:1003C4001514601924027063A200E43325E0FFA22F
:1003D40002E4334F8041E490E740F0803F90E6BC74
:1003E400E0547EFF7E00E0D394807C0040047D01D5
:1003F40080027D00EC4EFEED4F240FF582741A3E10
:10040400F583E493FF3395E0FEEF24A1FFEE34E699
:100414008F82F583E0540190E740F0E4A3F090E686
:100424008AF090E68B7402F0020520020519121A74
:10043400A0400302052090E6B8E024FE60162402E2
:10044400600302052090E6BAE0B40105C20002058B
:100454002002051990E6BAE0705590E6BCE0547E9F
:10046400FF7E00E0D394807C0040047D0180027D07
:1004740000EC4EFEED4F240FF582741A3EF583E432
:1004840093FF3395E0FEEF24A1FFEE34E68F82F56F
:1004940083E054FEF090E6BCE05480131313541F21
:1004A400FFE0540F2F90E683F0E04420F0806D804D
:1004B40064121AA2506690E6B8E024FE6019240281
:1004C400705A90E6BAE0B40104D200804F90E6BAC4
:1004D400E064026047803E90E6BCE0547EFF7E000C
:1004E400E0D394807C0040047D0180027D00EC4ECA
:1004F400FEED4F240FF582741A3EF583E493FF3327
:1005040095E0FEEF24A1FFEE34E68F82F5838008A8
:10051400120080500790E6A0E04401F090E6A0E0CD
:030524004480F020
:0105270022B1
:03003300021A8E20
:041A8E0053D8EF3208
:10193600E490E608F075C83443985053877F75CB1A
:09194600FF75CA64C298D299220F
:10162200753509E4F53EF53FF52FC28CF58C758AC8
:1016320001E58954F04401F589538EF7C28DD28CAD
:10164200D2A9C28E758DDB758BACE589540F44101F
:0C165200F589438E10C28FD28ED2AB22DD
:03001B0002165E6C
:10165E00C0E0C0D075D000C000C007758DDB758BA3
:10166E00AC30981E63B002E535C394095012AF3505
:10167E0074502FF8A6990535E535B4090375590050
:0B168E00C298D007D000D0D0D0E032CE
:03000B0002122AB4
:0B122A00C0E0C0D075D000C000C007BD
:10123500758C00758A01E52F601030990D152FAF5B
:101245002F743A2FF8E6C299F599E52F7052E53ECD
:101255007046E53F146032249D601924647039306E
:10126500993EE53564097038C29975996EF53E75F4
:101275003F96802C309929C299759973E53F153FA2
:101285007002153E7535008017D299E535C394096E
:101295005003755901753509E53F153F7002153E37
:0912A500D007D000D0D0D0E03217
:101100001201000200000040C01681290000010207
:1011100000010A06000200000040010009022E0042
:1011200001010080FA0904000004FF000000070527
:1011300001024000000705820200020007050202CA
:101140000002000705810240000009022E00010193
:101150000080FA0904000004FF00000007050102F6
:10116000400000070582024000000705020200025D
:101170000007058102400000040309041003510028
:10118000480059002D00430043004400160351005D
:10119000480059002D003600500052004F0020003A
:0411A000200000002B
:10083100608030000302020202020207000000028F
:10084100000002001332120A080C08000000000028
:100851000000003F02020202020202070000000241
:100861000000020013320A12100C08000000000000
:100871000000003F033A03030303030700000002E3
:10088100000002001332120A080C080000000000E8
:100891000000003F033A03030303030700000002C3
:1008A1000000020013320A12100C080000000000C0
:1008B1000000003F602430870000000000000000BD
:1008C1000000000000000000000000000000000027
:1008D10000000000000000000000000047308080A0
:0608E100000000CA4E00F9
:100C5C0090E60174CAF090E6F574FFF0903080E0F5
:100C6C0090E6F3F0903081E090E6C3F0903082E0B3
:100C7C0090E6C1F0903083E090E6C2F0903085E0D1
:100C8C0090E6C0F0903086E090E6F4F075AF077413
:100C9C0030F59A7400F59B759DE4E4F59EFF90E6A3
:100CAC007BE090E67CF00FBF80F490E67174FFF06F
:100CBC00F5B490E672E04480F043B680000000E4A6
:100CCC0090E6C4F000000090E6C5F0903087E0900C
:100CDC00E6C6F0903088E090E6C7F0903089E0905E
:100CEC00E6C8F090308AE090E6C9F090308BE09046
:100CFC00E6CAF090308CE090E6CBF090308DE0902E
:0B0D0C00E6CCF090308EE090E6CDF0D9
:010D170022B9
:03004300020F00A9
:03005300020F0099
:100F000002194F000219950002197F0002196700AB
:100F1000021699000215E500020EFF00021AA40055
:100F2000021AA500021AA6000216CF000213AA0098
:100F3000021AA700021AA800021AA900021AAA009F
:100F4000021AAB00021AA400021AAC00021AAD0089
:100F5000021AAE00021AAF00021AB000021AB10063
:100F6000021AB200021AA400021AA400021AA40073
:100F7000021AB300021AB400021AB500021AB6002F
:100F8000021AB700021AB800021AB900021ABA000F
:100F9000021ABB00021ABC00021ABD00021ABE00EF
:100FA000021ABF00021AC000021AC100021AC200CF
:080FB000021AC300021AC4007A
:1017BE0090E682E030E004E020E60B90E682E03036
:1017CE00E119E030E71590E680E04401F07F147EE9
:0C17DE000012145E90E680E054FEF02241
:1018B90090E682E044C0F090E681F04387010000A1
:0418C90000000022F9
:1017340030080990E680E0440AF0800790E680E0F3
:101744004408F07FDC7E0512145E90E65D74FFF0C1
:0F17540090E65FF05391EF90E680E054F7F022BB
:0217EA00A9074D
:1017EC00AE6DAF6E8F828E83A3E064037017AD0174
:1017FC0019ED7001228F828E83E07C002FFDEC3E70
:09180C00FEAF0580DF7E007F00C5
:0118150022B0
:10145E008E1C8F1D90E600E054187012E51D2401BD
:10146E00FFE4351CC313F51CEF13F51D801590E634
:10147E0000E05418FFBF100BE51D25E0F51DE51C1F
:10148E0033F51CE51D151DAE1C7002151C4E6005B6
:06149E001218CD80EE22C1
:1018CD007400F58690FDA57C05A3E582458370F92E
:0118DD0022E8
:1008E700C186012F00013509023E0000C105022320
:1008F70000000230104001481E014A000146000175
:100907003700025E005702320181045A00000000DE
:1018DE008E1C8F1DE51D451C60177F957E00121313
:1018EE0016000000000000E51D151D70E7151C8098
:0218FE00E322E3
:10152A00E4F5B375B5FF90E60174C8F0E4F518F573
:10153A001943B0027F1E7E0012145E53B0FD7F1E57
:10154A007E0012145E0519E51970020518C3940588
:0E155A00E5186480948040D990E60174CAF0D0
:011568002260
:10156900E4F5B375B5FF90E60174C8F0E4F56FF5DD
:101579007043B0087F0A7E0012145E53B0F77F0AE9
:101589007E0012145E0570E5707002056FC3940544
:0E159900E56F6480948040D990E60174CAF03A
:0115A7002221
:100AC20090E600E054E74410F000000000000090BF
:100AD200E61074A0F000000090E60B7401F090E6BE
:100AE2001274E0F0000000E490E613F000000090C1
:100AF200E614F000000090E615F000000090E61801
:100B0200740CF000000090E6D27402F090E60474D7
:100B120080F00000007402F0000000E4F000000029
:100B2200120C5CE490E671F075B4FF90E672F07519
:100B3200B6FF75B1FF90E670F075B2FFD2A2D2A1F6
:100B42001219AB75230275240000000090E61074A0
:100B5200A0F000000000000090E611F000000090FC
:100B6200E65EE04408F0000000E490E68DF090E6D6
:100B72005EE04404F0000000E490E68FF053B1F729
:100B82007F9AFE121A2312152A90E60174C8F022E7
:10132D00E55D2401F55DE4355CF55CE4355BF55B6D
:10133D00E4355AF55AE47F01FEFDFCAB5DAA5CA9CC
:10134D005BA85AC312081D700312191E7F407E0D33
:10135D007D037C00AB5DAA5CA95BA85AD312081D66
:10136D004009E4F55DF55CF55BF55A30042C90E62B
:10137D000174CAF0E534B40103120FB8E534B402B8
:10138D0003120D18E534B463031211A4E534B464EB
:0D139D0003120DD390E60174C8F0C20422C3
:020EFD00D322FE
:021A9A00D32255
:021A9C00D32253
:1015A80090E680E030E71800000090E6207402F032
:1015B800000000E490E621F0000000D2068016004A
:1015C8000000E490E620F000000090E6217440F06E
:0D15D800000000C20690E6BAE0F547D322FD
:1019BE0090E740E547F0E490E68AF090E68B04F07D
:0219CE00D32222
:081A620090E6BAE0F527D3225B
:1019D00090E740E527F0E490E68AF090E68B04F08B
:0219E000D32210
:021A9E00D32251
:021AA000D3224F
:021AA200D3224D
:10008000E4F518F51990E6B9E0244B6061147003AB
:1000900002023E24F4700302026414700302029A06
:1000A0001470030202CB24116003020300E490E603
:1000B0008AF090E68BF090E6A0E020E1F990E68BE4
:1000C000E0F518E4F5B390E60174CAF0E490E6C3F5
:1000D000F090E6C2F0D20400000090E6047480F0D4
:1000E0000000007402F0000000E4F0020302E4905B
:1000F000E68AF090E68BF090E6A0E020E1F990E649
:100100008BE0F518D3943F4024E4F5197440251989
:10011000F582E434E7F583E0FF74AB2519F582E45A
:100120003430F583EFF00519E519B440DF7F9A7E8E
:1001300000121A239030ABE0FF7E00121A2C903090
:10014000ABE0FF7E00121A359030ABE0FF7E00126C
:100150001A3E9030ACE075F004A4FFAEF0121A47DE
:100160009030ACE075F004A4FFAEF0121A5090305D
:10017000ACE075F004A4FFAEF0121A599030B0E074
:10018000C3940250139030CCE090E6C07005744EDA
:10019000F08016749CF080119030CCE090E6C07036
:1001A00005749FF08003749DF09030CEE0F5399097
:1001B00030CBE0F5389030CFE0F5499030D9E0F51C
:1001C00036A3E0FEA3E07C002400F526EC3EF525F6
:1001D0009030B1E0F534E53470037534019030B6F9
:1001E000E0FEA3E07C002400F529EC3EF528A3E026
:1001F000FEA3E02400F54CEC3EF54B9030B2E0FE5F
:10020000A3E02400F531EC3EF530A3E0FEA3E024AA
:1002100000F54FEC3EF54E9030BCE0FEA3E024002C
:10022000F545EC3EF5449030BAE0FEA3E02400F53D
:100230002EEC3EF52D9030C1E0F537020302E4F5D7
:100240001974AB2519F582E43430F583E0FF74406E
:100250002519F582E434E7F583EFF00519E519B4C3
:100260000ADF805490E74074B5F0A37416F0A374CD
:100270000CF0A37426F0A37407F0A374EEF0A3743B
:1002800001F0A37403F0A37453F0300605E4A3F067
:10029000800690E74974FFF0801EE4F5197450253C
:1002A00019F8E6FF74402519F582E434E7F583EF89
:1002B000F00519E519B40AE5000000E490E68AF0BB
:1002C00000000090E68B740AF08037E490E68AF034
:1002D00090E68BF090E6A0E020E1F990E68BE0F567
:1002E00018D39402401C90E742E0F53A90E741E0D1
:1002F000F53B90E740E0F53C753D78752F048002B2
:03030000D322C342
:0103030022D7
:10194F00C0E0C083C082D2015391EF90E65D740175
:08195F00F0D082D083D0E03209
:10197F00C0E0C083C0825391EF90E65D7404F0D055
:06198F0082D083D0E0329B
:10199500C0E0C083C0825391EF90E65D7402F0D041
:0619A50082D083D0E03285
:10169900C0E0C083C082856965856A668566828582
:1016A9006583A37402F085616785626885688285B0
:1016B9006783A37407F05391EF90E65D7410F0D03F
:0616C90082D083D0E03264
:10196700C0E0C083C082D2035391EF90E65D740854
:08197700F0D082D083D0E032F1
:1015E500C0E0C083C08290E680E030E72085616579
:1015F500856266856682856583A37402F085696761
:10160500856A68856882856783A37407F05391EFBF
:0D16150090E65D7420F0D082D083D0E032EA
:010EFF0032C0
:011AA400320F
:011AA500320E
:011AA600320D
:1016CF00C0E0C083C082C2AF90E7C0E550F0A3E591
:1016DF0051F0A3E556F000000090E68F7403F00080
:1016EF0000005391EF90E65FE04404F0D2AFD08258
:0516FF00D083D0E032B1
:0D13AA00C0E0C083C082C0D075D000C00775
:1013B700C2AF90E6A1E020E1F990E780E0FF70047A
:1013C700F5228027BF011C90E781E06548601CE09B
:1013D700F548753A0585483B85563C753D78752F28
:1013E700048008BFFF05752200D20700000090E6C1
:0F13F7008DE4F05391EF90E65FE04408F0D2AF41
:0B140600D007D0D0D082D083D0E032DD
:011AA700320C
:011AA800320B
:011AA900320A
:011AAA003209
:011AAB003208
:011AAC003207
:011AAD003206
:011AAE003205
:011AAF003204
:011AB0003203
:011AB1003202
:011AB2003201
:011AB3003200
:011AB40032FF
:011AB50032FE
:011AB60032FD
:011AB70032FC
:011AB80032FB
:011AB90032FA
:011ABA0032F9
:011ABB0032F8
:011ABC0032F7
:011ABD0032F6
:011ABE0032F5
:011ABF0032F4
:011AC00032F3
:011AC10032F2
:011AC20032F1
:011AC30032F0
:011AC40032EF
:060B92008F1A8C1B8D1C64
:100B9800531A0753B1FE7F0A7E00121316E4F51D9F
:100BA800F51EC37402951EFFE51AA807088002C344
:100BB80013D8FC30E00543B104800353B1FB7F0A2E
:100BC8007E0012131643B1027F0A7E0012131653D9
:100BD800B1FD7F0A7E00121316051EE51E70020580
:100BE8001DC39403E51D6480948040B6E4F51DF5AB
:100BF8001EC37409951EFFE51CAE1BA807088005D7
:100C0800CEC313CE13D8F930E00543B104800353A3
:100C1800B1FB7F0A7E0012131643B1027F0A7E00E1
:100C280012131653B1FD7F0A7E00121316051EE536
:100C38001E7002051DC3940AE51D6480948040B1AE
:100C480043B1017F0A7E0012131653B1FE7F0A7E5C
:040C5800000213166D
:091A2300AD07AC06E4FF020B92D2
:091A2C00AD07AC067F04020B9229
:091A3500AD07AC067F05020B921F
:091A3E00AD07AC067F06020B9215
:091A4700AD07AC067F01020B9211
:091A5000AD07AC067F02020B9207
:091A5900AD07AC067F03020B92FD
:1012AE007F197E001213161219147F197E00121365
:1012BE0016121A807F197E00121316121A1C7F192D
:1012CE007E00121316121A927F3C7E001213161213
:1012DE001A797F027E00121316121A967F027E0072
:1012EE001213161219FE7F027E0012131612191413
:1012FE007F027E00121316121A877F027E001213CF
:08130E0016121A927F027E0004
:10131600EF7803C333CE33CED8F9FFEF4E6007EF35
:071326001F70F81E80F52284
:071A72005380F75380DF22CF
:10190000121A1C7F107E00121316121A727F197E93
:041910000012131698
:071914005380F743802022FD
:071A79004380084380202296
:071A80005380FE5380FB229E
:031A19001219ABF4
:071A1C005380FE4380042209
:071A870043800143800422AB
:041A920053807F22DC
:0A19F4001210FC7F227E0012131671
:0419FE004380802280
:041A96005380BF2298
:0910F300121A791219FE121A8773
:0410FC0043804022CB
:1019AB00121914121A92121A871210FC4380104348
:0319BB0080022285
:1014E900121A197F021212D81219F41213121219B0
:1014F900007F197E00121316121A807F197E0012BE
:101509001316121A1C7F197E00121316121A967FCF
:101519003C1213001210FC1213127F647E00021396
:0115290016AB
:10181600121A197F021212D81219F4121312121A7E
:101826001C7F107E00121316121A721212AE1210BC
:0B183600FC1213127F647E00021316E8
:101763001219AB121A1C7F021212D81219F4121397
:10177300121219007F197E00121316121A1C12126C
:0E178300C21210FC1213127F647E00021316B5
:101841001219AB121A1C7F021212D81219F41213B8
:1018510012121A1C7F1012190F1212AE1210FC1262
:0918610013127F647E00021316CD
:03191B0012186A35
:10191E00121A1C121A79121A961219FE1219141290
:08192E001A87121A920210FC44
:1019E200E4FFFE12191E0FBF00010EBE01F5BF2A51
:0119F200F202
:0119F30022D1
:081A6A00C2A1121312D2A12245
:10091800EF2BFBEE3AFAED39F9EC38F89030AFE00E
:10092800FFE4FCFDFEEB2FF543EE3AF542ED39F519
:0A09380041EC38F540C207752201BA
:10094200E4FFFEE541FDE4FCFB7A01F9F8120775CC
:10095200E4FB7A01F9F81207758F2AE4FFE542FEFB
:10096200E4FDFCFB7A01F9F81207758F2CE543FFD1
:100972008F2BE52E452D7003121A6AE538B4010259
:10098200C2A2752201E52A75F040A485F01AF51B72
:10099200AF227E00AC1AAD1B1206D8D3EF9400EE44
:1009A200940040117F007E041218DEE51B151B70B7
:1009B200DF151A80DB751A00852C1BAF227E00AC76
:1009C2001AAD1B1206D8D3EF9400EE940040117FAB
:1009D200007E011218DEE51B151B70DF151A80DB85
:0E09E200AF2B7E0012145EE538B40102D2A2E3
:0109F00022E4
:04170400AF45AE44FB
:10170800AD07AC06D3ED9400EC9400401E00000039
:10171800EE90E6D0F0000000ED90E6D1F000000079
:0C17280075BB04000000E5BB30E7FB22AD
:0E14A4001219E243B1087D287C007F1C7E03F4
:0814B2008C1A8D1BAB07AA0682
:1014BA00E4FDFCC3ED951BEC951A5022EA90E6D0A8
:1014CA00F0000000EB90E6D1F000000075BB0600CA
:0E14DA000000E5BB30E7FB0DBD00010C80D526
:0114E80022E1
:04179100AF26AE25AC
:10179500AD07AC06000000ED25E0EC3390E6D0F097
:1017A500000000ED25E090E6D1F000000075BB04D7
:0917B500000000E5BB30E7FB2257
:10186A00000000E53125E0E5303390E6D0F00000D5
:10187A0000E53125E090E6D1F000000075BB0400D8
:08188A000000E5BB30E7FB2282
:100FB8009030AEE0FFE4FCFDFEFB7A01F9F8120682
:100FC800EAC004C005C006C0079030ADE0FFE4FCED
:100FD800FDFEFBFA7901F81206EAD003D002D0012F
:100FE800D000EF2BFBEE3AFAED39F9EC38F89030F7
:100FF800AFE0FFE4FCFDFEEB2FF543EE3AF542EDE2
:1010080039F541EC38F5409030CCE07018AE32AF8D
:1010180033AB43AA42A941A840D312081D403CAEB5
:1010280032AF338019AE5EAF5FE4FCFDAB43AA423A
:10103800A941A840D312081D4021AE5EAF5FAB079F
:10104800AA06E5439BF543E5429AF542E54194003B
:0F105800F541E5409400F540020E8E121411226E
:100D18009030AEE0FFE4FCFDFEFB7A01F9F8120624
:100D2800EAC004C005C006C0079030ADE0FFE4FC8F
:100D3800FDFEFBFA7901F81206EAD003D002D001D1
:100D4800D0001209181219E21214E920077CE4F500
:100D580018F519C3E5199529E5189528500D1219A4
:100D68001E0519E51970EC051880E89030CCE07084
:100D78000843B1087D28FC800743B1087DC87C0082
:100D88001214AE53B1F7D3E5269400E5259400403C
:100D980003121791E4FFFEC3EF954FEE954E500AEC
:100DA80012191B0FBF00010E80EDE4F518F519C3E9
:100DB800E519954CE518954B500D12191E0519E5C6
:0A0DC8001970EC051880E8121704FA
:010DD20022FE
:100DD3009030AEE0FFE4FCFDFEFB7A01F9F8120669
:100DE300EAC004C005C006C0079030ADE0FFE4FCD4
:100DF300FDFEFBFA7901F81206EAD003D002D00116
:100E0300D0001209181219E21214E920077CE4F544
:100E130018F519C3E5199529E5189528500D1219E8
:100E23001E0519E51970EC051880E89030CCE070C8
:100E33000843B1087D32FC800743B1087DC87C00BC
:100E43001214AE53B1F7D3E5269400E52594004080
:100E530003121791E4FFFEC3EF954FEE954E500A30
:100E630012191B0FBF00010E80EDE4F518F519C32D
:100E7300E519954CE518954B500D12191E0519E50A
:0A0E83001970EC051880E81217043E
:010E8D002242
:1009F100E4FFFEE541FDE4FCFB7A01F9F81207751D
:100A0100E4FB7A01F9F81207758F2AE4FFE542FE4B
:100A1100E4FDFCFB7A01F9F81207758F2CE543FF21
:100A21008F2BE52E452D7003121A6AE538B40102A9
:100A3100C2A29030CCE07006AF33AE328004AF5F1B
:100A4100AE5E12145E121763121914121A92121A60
:100A51001C1210FC752201E52A75F040A485F018DE
:100A6100F519AF227E00AC18AD191206D8D3EF9458
:100A710000EE940040117F007E041218DEE5191586
:100A81001970DF151880DB751800852C19AF227ECF
:100A910000AC18AD191206D8D3EF9400EE940040C3
:100AA100117F007E011218DEE519151970DF151886
:100AB10080DBAF2B7E001218DEE538B40102D2A232
:010AC1002212
:100E8E001210F3C2077522011209F11219E2903005
:100E9E00CCE0700843B1087D23FC800743B1087D88
:100EAE00C87C001214AE53B1F712184120073FD37D
:100EBE00E5269400E52594004003121791E4FFFE09
:100ECE0012186A12191E0FBF00010EBE01F2BF2AC0
:100EDE00EF1219E2121763E4FEFF12186A12191EBE
:0E0EEE000FBF00010EBE01F2BF2AEF12170463
:010EFC0022D3
:101411001210F31209421214A453B1F7121841E445
:10142100FFFE12186A12191E0FBF00010EBE01F253
:10143100BF2AEF1210F31209421214A453B1F7128A
:101441001763E4FEFF12186A12191E0FBF00010E86
:0D145100BE01F2BF2AEFAF45AE44021708FE
:1011A4009030AEE0FFE4FCFDFEFB7A01F9F8120694
:1011B400EAC004C005C006C0079030ADE0FFE4FCFF
:1011C400FDFEFBFA7901F81206EAD003D002D00141
:1011D400D0001209181219E243B1087D321214AC7E
:1011E40053B1F712184120073CD3E5269400E525B6
:1011F40094004003121791E4FFFE12186A12191E9C
:101204000FBF00010EBE01F2BF2AEF121763E4FE06
:10121400FF12186A12191E0FBF00010EBE01F2BFA1
:051224002AEF1217047F
:0112290022A2
:0D1A0200309902C2998F993099FDC2992246
:1018920090000020981CA3AF82AE83E4FCFD7BFA8B
:1018A2007AFFF9F8C31208075004D2058004C20572
:0618B20080E1C298AF992D
:0118B800220D
:0300000002106784
:0C106700787FE4F6D8FD7581700210AEB1
:1006D800EF8DF0A4A8F0CF8CF0A428CE8DF0A42E36
:0206E800FE22F0
:1006EA00E88FF0A4CC8BF0A42CFCE98EF0A42CFCAF
:1006FA008AF0EDA42CFCEA8EF0A4CDA8F08BF0A42D
:10070A002DCC3825F0FDE98FF0A42CCD35F0FCEB8B
:10071A008EF0A4FEA9F0EB8FF0A4CFC5F02ECD3950
:0F072A00FEE43CFCEAA42DCE35F0FDE43CFC22BD
:1007390075F008758200EF2FFFEE33FECD33CDCC77
:1007490033CCC58233C5829BED9AEC99E5829840FA
:100759000CF582EE9BFEED9AFDEC99FC0FD5F0D6D7
:10076900E4CEFBE4CDFAE4CCF9A88222B800C1B901
:100779000059BA002DEC8BF084CFCECDFCE5F0CB3F
:10078900F97818EF2FFFEE33FEED33FDEC33FCEB78
:1007990033FB10D703994004EB99FB0FD8E5E4F933
:1007A900FA227818EF2FFFEE33FEED33FDEC33FC20
:1007B900C933C910D7059BE99A4007EC9BFCE99A14
:1007C900F90FD8E0E4C9FAE4CCFB2275F010EF2F59
:1007D900FFEE33FEED33FDCC33CCC833C810D70759
:1007E9009BEC9AE899400AED9BFDEC9AFCE899F894
:0E07F9000FD5F0DAE4CDFBE4CCFAE4C8F92227
:10080700EB9FF5F0EA9E42F0E99D42F0EC6480C868
:0608170064809845F02208
:10081D00EB9FF5F0EA9E42F0E99D42F0E89C45F031
:01082D0022A8
:10107300020528E493A3F8E493A34003F68001F266
:1010830008DFF48029E493A3F85407240CC8C3337E
:10109300C4540F4420C8834004F456800146F6DF4D
:1010A300E4800B010204081020408090082EE47EA7
:1010B300019360BCA3FF543F30E509541FFEE49342
:1010C300A360010ECF54C025E060A840B8E493A309
:1010D300FAE493A3F8E493A3C8C582C8CAC583CA34
:1010E300F0A3C8C582C8CAC583CADFE9DEE780BEEC
:0109170000DF
:00000001FF
