:0A1CE70000010202030304040505D6
:100AEB00E4F55AF559F558F557C20AC207C209C2BF
:100AFB0008121C30120DF57E167F008E0A8F0B75B7
:100B0B00121675131275081675091C7510167511CA
:100B1B004A751416751578EE54E07003020C347593
:100B2B005B00755C808E5D8F5EC374A29FFF741635
:100B3B009ECF2402CF3400FEE48F568E55F554F52C
:100B4B0053F552F551F550F54FAF56AE55AD54AC7C
:100B5B0053AB52AA51A950A84FC312088F5026E588
:100B6B005C2552F582E55B3551F58374CDF0E5528A
:100B7B002401F552E43551F551E43550F550E43587
:100B8B004FF54F80C4E4F552F551F550F54FAF5684
:100B9B00AE55AD54AC53AB52AA51A950A84FC3128A
:100BAB00088F5033E55E2552F582E55D3551F583AF
:100BBB00E0FFE55C2552F582E55B3551F583EFF0FF
:100BCB00E5522401F552E43551F551E43550F55019
:100BDB00E4354FF54F80B7855B0A855C0B740024B9
:100BEB0080FF741634FFFEC3E5139FF513E5129EC9
:100BFB00F512C3E50D9FF50DE50C9EF50CC3E50F46
:100C0B009FF50FE50E9EF50EC3E5099FF509E50867
:100C1B009EF508C3E5119FF511E5109EF510C3E590
:100C2B00159FF515E5149EF514D2E843D82090E6F0
:100C3B0068E04409F090E65CE0443DF0D2AF90E60A
:100C4B0080E020E105D20B1219C690E680E054F744
:100C5B00F0538EF8C20A3008051208C6C208300AD3
:100C6B0029121D7C5024C20A121B7620071690E60F
:100C7B0082E030E704E020E1EF90E682E030E6042A
:0F0C8B00E020E0E4121A50121D7E1213B880C749
:1008C60090E6B9E070030209771470030209F42474
:1008D600FE7003020A7724FB700302097114700389
:1008E60002096B14607314607624056003020AD74C
:1008F600121D804003020AE390E6BBE024FE60225C
:1009060014603324FD601114602224067048E50A41
:1009160090E6B3F0E50B8037E51290E6B3F0E51309
:10092600802DE50C90E6B3F0E50D8023E50E90E60C
:10093600B3F0E50F801990E6BAE0FF121A7CAA061A
:10094600A9077B01EA494B600DEE90E6B3F0EF9004
:10095600E6B4F0020AE3020ADC121CB6020AE3124B
:100966001D39020AE3121811020AE3121CA4020A34
:10097600E3121D824003020AE390E6B8E0247F609A
:100986001514601924027063A207E43325E0FFA260
:1009960009E4334F8041E490E740F0803F90E6BCA5
:1009A600E0547EFF7E00E0D394807C0040047D010D
:1009B60080027D00EC4EFEED4F24E7F582741C3E6E
:1009C600F583E493FF3395E0FEEF24A1FFEE34E6D2
:1009D6008F82F583E0540190E740F0E4A3F090E6BF
:1009E6008AF090E68B7402F0020AE3020ADC121D1A
:1009F600844003020AE390E6B8E024FE601624026F
:100A06006003020AE390E6BAE0B40105C207020AEF
:100A1600E3020ADC90E6BAE0705590E6BCE0547E4C
:100A2600FF7E00E0D394807C0040047D0180027D3F
:100A360000EC4EFEED4F24E7F582741C3EF583E490
:100A460093FF3395E0FEEF24A1FFEE34E68F82F5A7
:100A560083E054FEF090E6BCE05480131313541F59
:100A6600FFE0540F2F90E683F0E04420F0806E8084
:100A760065121D86506790E6B8E024FE601A2402CF
:100A8600705B90E6BAE0B40104D207805090E6BAF3
:100A9600E0B402028047803E90E6BCE0547EFF7ED2
:100AA60000E0D394807C0040047D0180027D00EC50
:100AB6004EFEED4F24E7F582741C3EF583E493FF6A
:100AC6003395E0FEEF24A1FFEE34E68F82F58380B6
:100AD60008120080500790E6A0E04401F090E6A0DE
:040AE600E04480F078
:010AEA0022E9
:030033000215FCB7
:0415FC0053D8EF329F
:101C3000758CE0758AC0E58954F04401F589758E8C
:081C400003D28CD2A9D2AF221D
:03000B0002146973
:10146900C0E0C0F0C083C082C0D075D000C000C049
:1014790001C002C003C004C005C006C007758CE0E6
:10148900758AC0D28CE47F607EEAFDFCAB4EAA4D22
:10149900A94CA84BC312088F5019AF4EAE4DAD4C95
:1014A900AC4BEF2401F54EE43EF54DE43DF54CE43B
:1014B9003CF54BE47F01FEFDFCAB4EAA4DA94CA8BF
:1014C9004BC312088F7008E5A054F02534F5A0E548
:1014D9002B2401FFE4352AFEE4FCFDAB4EAA4DA9FD
:1014E9004CA84BC312088F700553A0F0C28CD007CB
:1014F900D006D005D004D003D002D001D000D0D07E
:09150900D082D083D0F0D0E03292
:1016000012010002000000401816234000000102F1
:1016100000010A06000200000040010009022E003D
:1016200001010080FA0904000004FF000000070522
:1016300001024000000705820200020007050202C5
:101640000002000705810240000009022E0001018E
:101650000080FA0904000004FF00000007050102F1
:101660004000000705820240000007050202000258
:101670000007058102400000040309041003510023
:10168000480059002D004300430044001603510058
:10169000480059002D0037002000200020002000C5
:0416A0002000000026
:101028006080280002050202020202070000000296
:10103800000002000A2B0B1311151111000000000B
:101048000000003F0205020202020207000000023F
:10105800000002000A2B130B0915111100000000F3
:101068000000003F032A03030303030700000002F4
:10107800000002000A2B2B131115111100000000AB
:101088000000003F032A03030303030700000002D4
:10109800000002000A2B130B0915111100000000B3
:1010A8000000003F602428870000000000000000C6
:1010B8000000000000000000000000000000000028
:1010C80000000000000000000000000047288080A9
:0610D800000011CA4E00E9
:1011BE0090E60174CAF090E6F574FFF0902880E096
:1011CE0090E6F3F0902881E090E6C3F0902882E05C
:1011DE0090E6C1F0902883E090E6C2F0902885E07A
:1011EE0090E6C0F0902886E090E6F4F075AF0774B4
:1011FE0028F59A7400F59B759DE4E4F59EFF90E644
:10120E007BE090E67CF00FBF80F490E67174FFF007
:10121E00F5B490E672E04480F043B680000000E43E
:10122E0090E6C4F000000090E6C5F0902887E090AC
:10123E00E6C6F0902888E090E6C7F0902889E09006
:10124E00E6C8F090288AE090E6C9F090288BE090EE
:10125E00E6CAF090288CE090E6CBF090288DE090D6
:0B126E00E6CCF090288EE090E6CDF07A
:011279002252
:03004300021300A5
:0300530002130095
:10130000021C4800021C8E00021C7800021C6000B7
:101310000218C20002184E00021D8800021D89003A
:10132000021D8A00021D8B000217B90002127A000A
:10133000021D8C00021D8D00021D8E00021D8F00FB
:10134000021D9000021D8900021D9100021D9200E5
:10135000021D9300021D9400021D9500021D9600BF
:10136000021D9700021D8900021D8900021D8900CF
:10137000021D9800021D9900021D9A00021D9B008B
:10138000021D9C00021D9D00021D9E00021D9F006B
:10139000021DA000021DA100021DA200021DA3004B
:1013A000021DA400021DA500021DA600021DA7002B
:0813B000021DA800021DA900A6
:101A500090E682E030E004E020E60B90E682E030A1
:101A6000E119E030E71590E680E04401F07F147E54
:0C1A7000001215B690E680E054FEF02253
:101B760090E682E044C0F090E681F04387010000E1
:041B86000000002239
:1019C600300B0990E680E0440AF0800790E680E05C
:1019D6004408F07FDC7E051215B690E65D74FFF0D4
:0F19E60090E65FF05391EF90E680E054F7F02227
:021A7C00A907B8
:101A7E00AE14AF158F828E83A3E064037017AD0191
:101A8E0019ED7001228F828E83E07C002FFDEC3EDB
:091A9E00FEAF0580DF7E007F0031
:011AA700221C
:1015B6008E658F6690E600E054187012E566240189
:1015C600FFE43565C313F565EF13F566801590E600
:1015D60000E05418FFBF100BE56625E0F566E565EB
:1015E60033F565E5661566AE65700215654E6005F0
:0615F600121B8A80EE22A8
:101B8A007400F58690FDA57C05A3E582458370F96E
:011B9A002228
:1010DE00C1820223000002311040C100C106C105C9
:0E10EE00C104044700000000043A00000000A6
:081AD40090E679F07F057E0029
:101ADC008E658F66E566456560177F957E00121BE7
:101AEC00C7000000000000E566156670E71565800C
:021AFC00E322E3
:100DF50090E600E054E74410F00000000000009089
:100E0500E61074A0F000000090E60B7401F090E687
:100E15001274E0F0000000E490E613F0000000908A
:100E2500E614F000000090E615F000000090E618CA
:100E3500740CF000000090E6D27402F090E60474A1
:100E450080F00000007402F0000000E4F0000000F3
:100E55001211BEE490E671F075B4FF90E672F0757C
:100E6500B6BF75B1BF90E670F075B2FFC28CD28780
:100E7500121D5975230275240000000090E61074B8
:100E8500A0F000000000000090E611F000000090C6
:100E9500E65EE04408F0000000E490E68DF090E6A0
:100EA5005EE04404F0000000E490E68FF0121A239F
:100EB500C2A1D2867F9A7E00121CF1752800752981
:100EC500B47542017543907531107532B875450694
:100ED50075462C121D5190E67AE054FEF0E4FD7F34
:100EE500901219627F647E001215B67DFF7F421253
:100EF50019627F647E001215B67D827F4E121962DB
:100F05001212E97535FFE4F53890E782E535F09082
:0B0F1500E781E538F0121D72021D5943
:10173000E538D3940040037535FFD20590E678E094
:101740004480F07491121AD490E679E090E7C012C8
:101750001AD790E679E090E7C1121AD790E679E0BF
:1017600090E7C2121AD790E679E090E7C3121AD731
:1017700090E678E04440121AD790E678E04480F092
:101780007442121AD490E679E535121AD790E678A9
:10179000E04440121AD790E678E04480F090E67971
:1017A000744E121AD790E679E538121AD790E67877
:0917B000E04440121AD7C20522E0
:1013B800E54A2401F54AE43549F549E43548F54854
:1013C800E43547F547E47FE87E03FDFCAB4AAA49CC
:1013D800A948A847C312088F7006FD7F90121962AA
:1013E800E4FB7A08F9F8AF4AAE49AD48AC471207B2
:1013F800E7E4FB7A08F9F812075CC3E54A9FFFE5C2
:10140800499EFEE5489DFDE5479CFCE4FBFAF9F89A
:10141800C312088F7003121C16E47F207E4EFDFC59
:10142800AB4AAA49A948A847C312088F7009121DD8
:101438006E121730121D72E47F407E9CFDFCAB4A91
:10144800AA49A948A847D312088F400CE4F54AF5E1
:1014580049F548F547121C16300105120C9AC201CD
:011468002261
:021D7C00D32270
:021D7E00D3226E
:021D8000D3226C
:1018110090E680E030E71800000090E6207402F0C6
:10182100000000E490E621F0000000D202801600E2
:101831000000E490E620F000000090E6217440F002
:0D184100000000C20290E6BAE0F540D3229C
:101CA40090E740E540F0E490E68AF090E68B04F09B
:021CB400D32239
:081D390090E6BAE0F527D32281
:101CB60090E740E527F0E490E68AF090E68B04F0A2
:021CC600D32227
:021D8200D3226A
:021D8400D32268
:021D8600D32266
:10008000E4F55FF56090E6B9E01208A000B4B300B3
:10009000F9B50247B6027FC102FDC20348C503ACF1
:1000A000C603E1C90466CA049ACB0529CC0573CD01
:1000B00000000601E490E68AF090E68BF090E6A05E
:1000C000E020E1F990E68BE0F55FE4F5B5F5B3905B
:1000D000E60174CAF0E490E6C3F090E6C27411F051
:1000E000D20100000090E6047480F0000000740269
:1000F000F0000000E4F0020603E490E68AF090E6E7
:100100008BF090E6A0E020E1F990E68BE0F55FD37C
:10011000943F4024E4F56074402560F582E434E7C0
:10012000F583E0FF74AB2560F582E43428F583EFB6
:10013000F00560E560B440DF7F8A7E00121CF1901C
:1001400028ABE0FF7E00121CFA9028ABE0FF7E0097
:10015000121D039028ABE0FF7E00121D0C9028AC0E
:10016000E075F004A4FFAEF0121D159028ACE07508
:10017000F004A4FFAEF0121D1E9028ACE075F00450
:10018000A4FFAEF0121D279028B0E0C394025013D4
:100190009028CCE090E6C07005744EF08016749CF8
:1001A000F080119028CCE090E6C07005749FF0803C
:1001B00003749DF09028CEE0F5399028CBE0F53718
:1001C0009028CFE0F5419028D9E0F536A3E0FEA3D2
:1001D000E07C002400F526EC3EF5259028B1E0F502
:1001E00033E53370037533019028B6E0FEA3E07C5D
:1001F000002400F529EC3EF528A3E0FEA3E024004E
:10020000F543EC3EF5429028B2E0FEA3E02400F571
:1002100032EC3EF531A3E0FEA3E02400F546EC3ECF
:10022000F5459028BCE0FEA3E02400F53FEC3EF548
:100230003E9028BAE0FEA3E02400F530EC3EF52F16
:10024000E4FD7F900203DBE4F56074AB2560F5828A
:10025000E43428F583E0FF74402560F582E434E758
:10026000F583EFF00560E560B40ADF000000E4907C
:10027000E68AF000000090E68B740AF0020603E4C0
:1002800090E68AF090E68BF090E6A0E020E1F9900D
:10029000E68BE0F55FC298D394005003020603900A
:1002A000E740E0940A5007E02430FF121CDA90E7A0
:1002B00040E0B40A057F61121CDA90E740E0B40B1D
:1002C000057F62121CDA90E740E0B40C057F6312F0
:1002D0001CDA90E740E0B40D057F64121CDA90E769
:1002E00040E0B40E057F65121CDA90E740E0640F31
:1002F00060030206037F66121CDA02060390E740E1
:1003000074C9F0A37403F0A3740CF0A37426F0A3D3
:100310007407F0A374EEF0A37401F0A37403F0A3C8
:100320007453F0300205E4A3F0800690E74974FFAF
:10033000F0000000E490E68AF000000090E68B7484
:100340000AF0121A2302060390E678E04480F09047
:10035000E6797491F07F647E00121BC790E679E025
:1003600090E740F07F647E00121BC790E679E09032
:10037000E741F07F647E00121BC790E679E090E7CA
:1003800042F07F647E00121BC790E679E090E7435D
:10039000F090E678E04440F0000000E490E68AF057
:1003A00000000090E68B7404F0020603E490E68AF5
:1003B000F090E68BF090E6A0E020E1F990E68BE08B
:1003C000F55FD39401500302060390E741E0FD7FFF
:1003D0004212196290E740E0FD7F4E121962020658
:1003E00003E490E68AF090E68BF090E6A0E020E14E
:1003F000F990E68BE0F55FD3940150030206039079
:10040000E740E05480C4131313540124FF92A3E087
:100410005440C41313540324FF92A2E05420C41385
:10042000540724FF92A1E05410C4540F24FF92A05B
:10043000A3E075F00AA4FFAEF01215B690E740E015
:100440005408131313541F24FF92A3E054041313EE
:10045000543F24FF92A2E05402C31324FF92A1E070
:100460001392A002060390E6BCE0756100F56220DD
:1004700005FDAD6290E6BEE0FB7EE77566E7756759
:10048000407FA0121B9BAD6290E6BEE0FB7EE7754D
:1004900066E77567407FA002055AE490E68AF0900F
:1004A000E68BF090E6A0E020E1F990E6BCE0D39482
:1004B0000750030206032005FD78EB7C287D017BB5
:1004C000017AE679BC7E007F011206D590E6BEE097
:1004D000FF7E0078EC7C287D017B017AE779401271
:1004E00006D590E6BEE004FD7A287BEB7F50121B18
:1004F000FA78EB7C287D017B017AE679BC7E007F6F
:10050000011206D590E6BEE0FF7E0078EC7C287DE7
:10051000017B017AE779401206D590E6BEE004FD42
:100520007A287BEB7F500205FC90E6BCE075610009
:10053000F5622005FDAD6290E6BEE0FB7EE77566E4
:10054000E77567407FA2121B9BAD6290E6BEE0FBA1
:100550007EE77566E77567407FA2121B9BE490E615
:100560008AF000000090E6BEE090E68BF00000000C
:10057000020603E490E68AF090E68BF090E6A0E0B5
:1005800020E1F990E6BCE0D3940740772005FD78A0
:10059000EB7C287D017B017AE679BC7E007F01122D
:1005A00006D590E6BEE0FF7E0078EC7C287D017BDE
:1005B000017AE779401206D590E6BEE004FD7A287C
:1005C0007BEB7F51121BFA78EB7C287D017B017A53
:1005D000E679BC7E007F011206D590E6BEE0FF7E84
:1005E0000078EC7C287D017B017AE779401206D502
:1005F00090E6BEE004FD7A287BEB7F51121BFA8067
:0406000002D322C33C
:0106040022D3
:101C4800C0E0C083C082D2085391EF90E65D740172
:081C5800F0D082D083D0E0320D
:101C7800C0E0C083C0825391EF90E65D7404F0D059
:061C880082D083D0E0329F
:101C8E00C0E0C083C0825391EF90E65D7402F0D045
:061C9E0082D083D0E03289
:1018C200C0E0C083C08285100C85110D850D828514
:1018D2000C83A37402F085080E85090F850F82859B
:1018E2000E83A37407F05391EF90E65D7410F0D06D
:0618F20082D083D0E03239
:101C6000C0E0C083C082D20A5391EF90E65D740851
:081C7000F0D082D083D0E032F5
:10184E00C0E0C083C08290E680E030E72085080CBF
:10185E0085090D850D82850C83A37402F085100E0B
:10186E0085110F850F82850E83A37407F05391EFB8
:0D187E0090E65D7420F0D082D083D0E0327F
:011D88003228
:011D89003227
:011D8A003226
:011D8B003225
:1017B900C0E0C0F0C083C082C0D075D000C000C0F6
:1017C90001C002C003C004C005C006C007C2AF12F1
:1017D9001D6E00000090E68F7404F0000000539124
:1017E900EF90E65FE04404F0121D72D2AFD007D04B
:1017F90006D005D004D003D002D001D000D0D0D07B
:0818090082D083D0F0D0E03260
:0D127A00C0E0C083C082C0D075D000C007A6
:10128700C2AF90E6A1E020E1F990E780E014601298
:101297002404601C14601D14602414702675220039
:1012A700802190E782E0F53590E781E0F5388013FB
:1012B700C28C800F90E781E024FF9206800575229B
:1012C70000D20300000090E68DE4F05391EF90E622
:0712D7005FE04408F0D2AF14
:0B12DE00D007D0D0D082D083D0E03207
:011D8C003224
:011D8D003223
:011D8E003222
:011D8F003221
:011D90003220
:011D9100321F
:011D9200321E
:011D9300321D
:011D9400321C
:011D9500321B
:011D9600321A
:011D97003219
:011D98003218
:011D99003217
:011D9A003216
:011D9B003215
:011D9C003214
:011D9D003213
:011D9E003212
:011D9F003211
:011DA0003210
:011DA100320F
:011DA200320E
:011DA300320D
:011DA400320C
:011DA500320B
:011DA600320A
:011DA7003209
:011DA8003208
:011DA9003207
:061512008F638C648D65FF
:1015180053630753A0BF121BC3E4F566F567C37492
:10152800029567FFE563A807088002C313D8FC305B
:10153800E00543A020800353A0DF121BC3121BC089
:1015480053A0EF121BC30567E56770020566C394D5
:1015580003E5666480948040C5E4F566F567C37466
:10156800099567FFE565AE64A807088005CEC31333
:10157800CE13D8F930E00543A020800353A0DF1232
:101588001BC3121BC053A0EF121BC30567E567708E
:10159800020566C3940AE5666480948040C043A04F
:0E15A80040121BC353A0BF7F0A7E00021BC768
:091CF100AD07AC06E4FF02151278
:091CFA00AD07AC067F04021512CF
:091D0300AD07AC067F05021512C4
:091D0C00AD07AC067F06021512BA
:091D1500AD07AC067F01021512B6
:091D1E00AD07AC067F02021512AC
:091D2700AD07AC067F03021512A2
:101962008D63AD0790E678E04480F090E679EDF083
:101972007F647E00121BC790E679E563F07F647E88
:1019820000121BC790E678E04440F07F647E0002BC
:021992001BC771
:071BC00043A0107F0A7E0024
:101BC700EF7803C333CE33CED8F9FFEF4E6007EF7C
:071BD7001F70F81E80F522CB
:031D7600C2822204
:031D7900D28222F1
:051D5F00C280D28122C8
:051D6400D280D28122B3
:051D6900C280C28122CE
:061D5900121D76021D645C
:101C1600121D5F121D797F037E00121BC7121D76EF
:0A1C2600121D647F037E00021BC73D
:101CC800E4FDFC121C160DBD00010CBC08F5BD1886
:011CD800F219
:011CD90022E8
:1019F500121D5F7F057E00121BC7121D69121D791E
:101A05007F057E00121BC7121D5F121D767F057EA6
:0E1A150000121BC7121D647F057E00021BC756
:081D4100C286121BC3D28622E8
:101A2300E4F563F56443B1807F1E7E001215B6535F
:101A3300B17F7F1E7E001215B60564E56470020552
:0C1A430063C39405E5636480948040D97F
:011A4F002274
:041D6E0043B18022DB
:041D720053B17F22C8
:091D30007F4F121CDA43B120229E
:081D490053B1DF7F43021CDAF5
:1010FD00E4FFFEE53BFDE4FCFB7A01F9F81207E79E
:10110D00E4FB7A01F9F81207E78F2CE4FFE53CFECA
:10111D00E4FDFCFB7A01F9F81207E78F2EE53DFFA0
:10112D008F2DE537B40102C287121D30E539706D80
:10113D00752201E52C75F040A485F063F564AF22AE
:10114D007E00AC63AD6412074AD3EF9400EE9400B9
:10115D0040147FC47E03121ADC121730E564156447
:10116D0070DC156380D8756300852E64AF227E0018
:10117D00AC63AD6412074AD3EF9400EE94004014B3
:10118D007FC47E00121ADC121730E564156470DC22
:10119D00156380D8AF2D7E001215B680097522011A
:1011AD00E522640160FA121D49E537B40102D287C8
:0111BD00220F
:101AA800AD07AC06D3ED9400EC9400401E00000096
:101AB800EE90E6D0F0000000ED90E6D1F0000000D6
:0C1AC80075BB04000000E5BB30E7FB220A
:08188B008C638D64AB07AA0613
:10189300E4FDFCC3ED9564EC95635022EA90E6D039
:1018A300F0000000EB90E6D1F000000075BB0600ED
:0E18B3000000E5BB30E7FB0DBD00010C80D549
:0118C1002204
:101AFE00AD07AC06000000ED25E0EC3390E6D0F02B
:101B0E00000000ED25E090E6D1F000000075BB046A
:091B1E00000000E5BB30E7FB22EA
:100C9A00C2A3121D72C2039028AEE0FFE4FCFDFE5F
:100CAA00FB7A01F9F812075CC004C005C006C00748
:100CBA009028ADE0FFE4FCFDFEFBFA7901F812078B
:100CCA005CD003D002D001D000EF2BFBEE3AFAED54
:100CDA0039F9EC38F89028AFE0FFE4FCFDFEEB2F81
:100CEA00FFEE3AFEED39FDEC388F3D8E3C8D3BF53B
:100CFA003AE47F6CFEFDAB3DAA3CA93BA83AD3126D
:100D0A00088F4029E53D2494F53DE53C34FFF53C48
:100D1A00E53B34FFF53BE53A34FFF53A121D411243
:100D2A0010FDE530452F7014121CC8800FE53045C0
:100D3A002F7003121CC8121D411210FD1219F51250
:100D4A001D6E300303020DF4E4F561F562C3E5623A
:100D5A009529E5619528500D121C160562E5627009
:100D6A00EC056180E8E536D39400400CE536FD7C5D
:100D7A0000AF32AE3112188BD3E5269400E52594E4
:100D8A00004007AF26AE25121AFEE4F55FF560C3F0
:100D9A00E5609546E55F9545502C121B27E4F56101
:100DAA00F562C3E56295337480F8656198500D1257
:100DBA001C160562E56270EA056180E60560E56079
:100DCA0070CD055F80C9E4F561F562C3E5629543BC
:100DDA00E5619542500D121C160562E56270EC053C
:0A0DEA006180E8AF3FAE3E121AA888
:010DF40022DC
:101B2700000000E53225E0E5313390E6D0F0000013
:101B370000E53225E090E6D1F000000075BB040017
:081B47000000E5BB30E7FB22C2
:1012E900E490E608F075C83443985053877FC2AC40
:0712F90075CBFF75CA6422EA
:0D1CDA00309902C2998F993099FDC299226C
:101B4F0090000020981CA3AF82AE83E4FCFD7BFACB
:101B5F007AFFF9F8C31208795004D2008004C2004A
:061B6F0080E1C298AF996D
:011B7500224D
:041B9B008F638B6564
:101B9F0090290BEDF0E563C313FF7A297B0B7D01D1
:101BAF00121BFAE563C313FFAB67AA66AD65021B91
:011BBF00DE47
:081D5100E4F51BD2E9D2AF2238
:1018F80090E678E020E6F9C2E990E678E04480F0E6
:10190800EF25E090E679F090E678E030E0F990E6AF
:1019180078E04440F090E678E020E6F990E678E058
:0619280030E1D6D2E922F5
:10199400A90790E678E020E6F9E51B702390E67845
:1019A400E04480F0E925E090E679F08D16AF03A9D4
:1019B400077517018A188919E4F51A751B01D322D2
:0219C400C3223C
:10192E00A90790E678E020E6F9E51B702590E678A9
:10193E00E04480F0E925E0440190E679F08D16AFA1
:10194E0003A9077517018A188919E4F51A751B037F
:04195E00D322C322AB
:03004B00020F2081
:100F2000C0E0C083C082C085C084C086758600C012
:100F3000D075D000C000C001C002C003C006C00709
:100F400090E678E030E206751B0602100A90E6781B
:100F5000E020E10CE51B64026006751B0702100A25
:100F6000E51B24FE605F14603624FE7003020FFB55
:100F700024FC70030210072408600302100AAB1758
:100F8000AA18A919AF1A051A8F827583001206FBD9
:100F900090E679F0E51A65167070751B05806B9008
:100FA000E679E0AB17AA18A919AE1A8E82758300EC
:100FB000120728751B02E5166401704E90E678E072
:100FC0004420F08045E51624FEB51A0790E678E047
:100FD0004420F0E51614B51A0A90E678E04440F093
:100FE000751B0090E679E0AB17AA18A919AE1A8E06
:100FF00082758300120728051A800F90E678E04476
:1010000040F0751B008003751B005391DFD007D0A3
:1010100006D003D002D001D000D0D0D086D084D06A
:0810200085D082D083D0E032BC
:101BDE0012192EE51B24FA600E146006240770F30A
:0C1BEE00D322E4F51BD322E4F51BD32224
:101BFA00121994E51B24FA600E146006240770F388
:0C1C0A00D322E4F51BD322E4F51BD32207
:030000000216A441
:0C16A400787FE4F6D8FD7581670216EB34
:10060500E709F608DFFA8046E709F208DFFA803ED7
:1006150088828C83E709F0A3DFFA8032E309F608C4
:10062500DFFA8078E309F208DFFA807088828C832C
:10063500E309F0A3DFFA806489828A83E0A3F608E0
:10064500DFFA805889828A83E0A3F208DFFA804CBA
:1006550080D280FA80C680D4806980F28033801091
:1006650080A680EA809A80A880DA80E280CA8033FA
:1006750089828A83ECFAE493A3C8C582C8CCC58372
:10068500CCF0A3C8C582C8CCC583CCDFE9DEE78042
:100695000D89828A83E493A3F608DFF9ECFAA9F0C1
:1006A500EDFB2289828A83ECFAE0A3C8C582C8CC17
:1006B500C583CCF0A3C8C582C8CCC583CCDFEADE30
:1006C500E880DB89828A83E493A3F208DFF980CC92
:1006D50088F0EF60010E4E60C388F0ED2402B4048B
:1006E5000050B9F582EB2402B4040050AF23234532
:0606F500822390065573FC
:1006FB00BB010CE58229F582E5833AF583E02250B4
:10070B0006E92582F8E622BBFE06E92582F8E222FD
:0D071B00E58229F582E5833AF583E4932217
:10072800F8BB010DE58229F582E5833AF583E8F007
:10073800225006E92582C8F622BBFE05E92582C8B3
:02074800F2229B
:10074A00EF8DF0A4A8F0CF8CF0A428CE8DF0A42EC3
:02075A00FE227D
:10075C00E88FF0A4CC8BF0A42CFCE98EF0A42CFC3C
:10076C008AF0EDA42CFCEA8EF0A4CDA8F08BF0A4BA
:10077C002DCC3825F0FDE98FF0A42CCD35F0FCEB19
:10078C008EF0A4FEA9F0EB8FF0A4CFC5F02ECD39DE
:0F079C00FEE43CFCEAA42DCE35F0FDE43CFC224B
:1007AB0075F008758200EF2FFFEE33FECD33CDCC05
:1007BB0033CCC58233C5829BED9AEC99E582984088
:1007CB000CF582EE9BFEED9AFDEC99FC0FD5F0D665
:1007DB00E4CEFBE4CDFAE4CCF9A88222B800C1B98F
:1007EB000059BA002DEC8BF084CFCECDFCE5F0CBCD
:1007FB00F97818EF2FFFEE33FEED33FDEC33FCEB06
:10080B0033FB10D703994004EB99FB0FD8E5E4F9C0
:10081B00FA227818EF2FFFEE33FEED33FDEC33FCAD
:10082B00C933C910D7059BE99A4007EC9BFCE99AA1
:10083B00F90FD8E0E4C9FAE4CCFB2275F010EF2FE6
:10084B00FFEE33FEED33FDCC33CCC833C810D707E6
:10085B009BEC9AE899400AED9BFDEC9AFCE899F821
:0E086B000FD5F0DAE4CDFBE4CCFAE4C8F922B4
:10087900EB9FF5F0EA9E42F0E99D42F0EC6480C8F6
:0608890064809845F02296
:10088F00EB9FF5F0EA9E42F0E99D42F0E89C45F0BF
:01089F002236
:1008A000D083D082F8E4937012740193700DA3A3E7
:1008B00093F8740193F5828883E4737402936860FB
:0608C000EFA3A3A380DFFB
:1016B000020AEBE493A3F8E493A34003F68001F25B
:1016C00008DFF48029E493A3F85407240CC8C3333B
:1016D000C4540F4420C8834004F456800146F6DF0A
:1016E000E4800B0102040810204080901028E47E62
:1016F000019360BCA3FF543F30E509541FFEE493FF
:10170000A360010ECF54C025E060A840B8E493A3C5
:10171000FAE493A3F8E493A3C8C582C8CAC583CAF0
:10172000F0A3C8C582C8CAC583CADFE9DEE780BEA8
:0110FC0000F3
:00000001FF
