:0A1B7E000001020203030404050540
:1006F700E4F513F512F511F510C209C206C208C2D6
:1007070007121A37120A487E127F008E4C8F4D75DA
:100717005412755512754A12754B1C755212755342
:100727004A755612755778EE54E0700302083E7505
:1007370014007515808E168F17C374A29FFF74124D
:100747009ECF2402CF3400FEE48F0F8E0EF50DF5F9
:100757000CF50BF50AF509F508AF0FAE0EAD0DACAC
:100767000CAB0BAA0AA909A808C3120A115026E55F
:1007770015250BF582E514350AF58374CDF0E50BE5
:100787002401F50BE4350AF50AE43509F509E435E2
:1007970008F50880C4E4F50BF50AF509F508AF0F6D
:1007A700AE0EAD0DAC0CAB0BAA0AA909A808C31273
:1007B7000A115031AE0AAF0BE5172FF582E5163E49
:1007C700F583E0FDE5152FF582E5143EF583EDF0A1
:1007D700EF2401F50BE43EF50AE43509F509E435A4
:1007E70008F50880B985144C85154D74002480FFE1
:1007F700741234FFFEC3E5559FF555E5549EF55435
:10080700C3E54F9FF54FE54E9EF54EC3E5519FF566
:1008170051E5509EF550C3E54B9FF54BE54A9EF5D4
:100827004AC3E5539FF553E5529EF552C3E5579FDB
:10083700F557E5569EF556D2E843D82090E668E08E
:100847004409F090E65CE0443DF0D2AF90E680E0EA
:1008570020E105D20A1217BE90E680E054F7F05364
:100867008EF8C2093007051204D3C20730092912CE
:100877001BFA5024C2091219B920061690E682E025
:1008870030E704E020E1EF90E682E030E604E02084
:0D089700E0E412181C121BFC1212A480C712
:1004D30090E6B9E070030205841470030206012458
:1004E300FE700302068424FB700302057E1470036E
:1004F300020578146073146076240560030206E332
:10050300121BFE40030206EF90E6BBE024FE6022CE
:1005130014603324FD601114602224067048E54CF6
:1005230090E6B3F0E54D8037E55490E6B3F0E5553A
:10053300802DE54E90E6B3F0E54F8023E55090E63D
:10054300B3F0E551801990E6BAE0FF121848AA0605
:10055300A9077B01EA494B600DEE90E6B3F0EF90FB
:10056300E6B4F00206EF0206E8121B1A0206EF12C7
:1005730011F80206EF1215D10206EF121B0802064C
:10058300EF121C0040030206EF90E6B8E0247F6000
:100593001514601924027063A206E43325E0FFA258
:1005A30008E4334F8041E490E740F0803F90E6BC9D
:1005B300E0547EFF7E00E0D394807C0040047D0104
:1005C30080027D00EC4EFEED4F247EF582741B3ECF
:1005D300F583E493FF3395E0FEEF24A1FFEE34E6C9
:1005E3008F82F583E0540190E740F0E4A3F090E6B6
:1005F3008AF090E68B7402F00206EF0206E8121C02
:100603000240030206EF90E6B8E024FE60162402DF
:1006130060030206EF90E6BAE0B40105C2060206E3
:10062300EF0206E890E6BAE0705590E6BCE0547E2F
:10063300FF7E00E0D394807C0040047D0180027D36
:1006430000EC4EFEED4F247EF582741B3EF583E4F1
:1006530093FF3395E0FEEF24A1FFEE34E68F82F59E
:1006630083E054FEF090E6BCE05480131313541F50
:10067300FFE0540F2F90E683F0E04420F0806D807C
:1006830064121C04506690E6B8E024FE601924024C
:10069300705A90E6BAE0B40104D206804F90E6BAED
:1006A300E064026047803E90E6BCE0547EFF7E003B
:1006B300E0D394807C0040047D0180027D00EC4EF9
:1006C300FEED4F247EF582741B3EF583E493FF33E6
:1006D30095E0FEEF24A1FFEE34E68F82F5838008D8
:1006E300120080500790E6A0E04401F090E6A0E0FD
:0306F3004480F050
:0106F60022E1
:03003300021BE2CB
:041BE20053D8EF32B3
:101A3700758CE0758AC0E58954F04401F589758E87
:081A470003D28CD2A9D2AF2218
:03000B000210B828
:1010B800C0E0C0F0C083C082C0D075D000C000C0FE
:1010C80001C002C003C004C005C006C007758CE09B
:1010D800758AC0D28CE47F607EEAFDFCAB49AA48E1
:1010E800A947A846C3120A115019AF49AE48AD47DF
:1010F800AC46EF2401F549E43EF548E43DF547E404
:101108003CF546E47F01FEFDFCAB49AA48A947A887
:1011180046C3120A117008E5A054F02531F5A0E580
:101128002B2401FFE4352AFEE4FCFDAB49AA48A9BB
:1011380047A846C3120A11700553A0F0C28CD00705
:10114800D006D005D004D003D002D001D000D0D032
:09115800D082D083D0F0D0E03247
:1012000012010002000000401816118300000102C4
:1012100000010A06000200000040010009022E0041
:1012200001010080FA0904000004FF000000070526
:1012300001024000000705820200020007050202C9
:101240000002000705810240000009022E00010192
:101250000080FA0904000004FF00000007050102F5
:10126000400000070582024000000705020200025C
:101270000007058102400000040309041003510027
:10128000480059002D00430043004400160351005C
:10129000480059002D0039004C002000200020009B
:0412A000200000002A
:100CBC0060802800030A03030202030700000002FD
:100CCC00000002000A2B0B1311151111000000007B
:100CDC000000003F020A03030303030700000002A5
:100CEC00000002000A2B130B11151111000000005B
:100CFC000000003F032D0303030303070000000261
:100D0C00000002000A2B0B1311151111000000003A
:100D1C000000003F02280303030303070000000246
:100D2C00000002000A2B130B091511110000000022
:100D3C000000003F60242887000000000000000035
:100D4C000000000000000000000000000000000097
:100D5C000000000000000000000000004728808018
:060D6C00000011CA4E0058
:100E590090E60174CAF090E6F574FFF0902880E0FE
:100E690090E6F3F0902881E090E6C3F0902882E0C4
:100E790090E6C1F0902883E090E6C2F0902885E0E2
:100E890090E6C0F0902886E090E6F4F075AF07741C
:100E990028F59A7400F59B759DE4E4F59EFF90E6AC
:100EA9007BE090E67CF00FBF80F490E67174FFF070
:100EB900F5B490E672E04480F043B680000000E4A7
:100EC90090E6C4F000000090E6C5F0902887E09015
:100ED900E6C6F0902888E090E6C7F0902889E0906F
:100EE900E6C8F090288AE090E6C9F090288BE09057
:100EF900E6CAF090288CE090E6CBF090288DE0903F
:0B0F0900E6CCF090288EE090E6CDF0E2
:010F140022BA
:03004300021000A8
:0300530002100098
:10100000021A4F00021AF200021ADC00021A6700EC
:101010000216B90002160E00021C0600021C070090
:10102000021C0800021C090002196B000214D900FE
:10103000021C0A00021C0B00021C0C00021C0D000A
:10104000021C0E00021C0700021C0F00021C1000F4
:10105000021C1100021C1200021C1300021C1400CE
:10106000021C1500021C0700021C0700021C0700DE
:10107000021C1600021C1700021C1800021C19009A
:10108000021C1A00021C1B00021C1C00021C1D007A
:10109000021C1E00021C1F00021C2000021C21005A
:1010A000021C2200021C2300021C2400021C25003A
:0810B000021C2600021C2700AF
:10181C0090E682E030E004E020E60B90E682E030D7
:10182C00E119E030E71590E680E04401F07F147E8A
:0C183C000012154890E680E054FEF022F7
:1019B90090E682E044C0F090E681F04387010000A0
:0419C90000000022F8
:1017BE00300A0990E680E0440AF0800790E680E067
:1017CE004408F07FDC7E0512154890E65D74FFF04C
:0F17DE0090E65FF05391EF90E680E054F7F02231
:02184800A907EE
:10184A00AE56AF578F828E83A3E064037017AD0143
:10185A0019ED7001228F828E83E07C002FFDEC3E11
:09186A00FEAF0580DF7E007F0067
:011873002252
:101548008E1E8F1F90E600E054187012E51F2401CC
:10155800FFE4351EC313F51EEF13F51F801590E643
:1015680000E05418FFBF100BE51F25E0F51FE51E2E
:1015780033F51EE51F151FAE1E7002151E4E6005C1
:061588001219CD80EE22D5
:1019CD007400F58690FDA57C05A3E582458370F92D
:0119DD0022E7
:100D7200C18202230000022E1040C100013C00C1CA
:0C0D820005C1040442000000000139001B
:0818A00090E679F07F057E005F
:1018A8008E1E8F1FE51F451E60177F957E0012193B
:1018B8002C000000000000E51F151F70E7151E80B2
:0218C800E32219
:100A480090E600E054E74410F00000000000009039
:100A5800E61074A0F000000090E60B7401F090E638
:100A68001274E0F0000000E490E613F0000000903B
:100A7800E614F000000090E615F000000000000009
:100A880090E6D27402F090E6047480F000000074DE
:100A980002F0000000E4F0000000120E5990E61881
:100AA8007408F000000090E619F000000090E61AC3
:100AB800F000000090E61BF0000000E490E671F002
:100AC80075B4FF90E672F075B67F75B1FF90E67069
:100AD800F075B2FF75B5FFC28CD2A0121BD6752374
:100AE8000275240000000090E61074A0F0000000D9
:100AF80000000090E611F000000090E65EE0440877
:100B0800F0000000E490E68DF090E65EE04404F02A
:100B1800000000E490E68FF053A0FD7F9AFE121BC0
:100B2800887528007529B4753D01753E90752E109D
:100B3800752FB875400675412C121BC790E67AE0F0
:100B480054FEF0E4FD7F901218F37F647E001215C6
:100B5800487DFF7F421218F37F647E001215487D9E
:100B6800827F4E1218F37532FFE4F53590E782E57F
:100B780032F090E781E535F0121A97121BD6121A57
:100B8800C57F887E1312192C121AC57F887E13120E
:100B9800192C121AC57F887E1312192C121BEA12FF
:0C0BA800145C7FF012164BE4FF021725CE
:1013D300E535D3940040037532FF90E678E044800E
:1013E300F074911218A090E679E090E7C01218A368
:1013F30090E679E090E7C11218A390E679E090E7D0
:10140300C21218A390E679E090E7C31218A390E6FE
:1014130078E044401218A390E678E04480F07442E8
:101423001218A090E679E5321218A390E678E0440A
:10143300401218A390E678E04480F090E679744E69
:101443001218A390E679E5351218A390E678E044E4
:0914530040F07F057E000218A89C
:1012A400E5452401F545E43544F544E43543F54387
:1012B400E43542F542E47FE87E03FDFCAB45AA44F5
:1012C400A943A842C3120A117006FD7F901218F3B5
:1012D4007FA07E867D017C00AB45AA44A943A84239
:1012E400C3120A1170031213D37F407E0D7D037C59
:1012F40000AB45AA44A943A842D3120A11400CE406
:10130400F545F544F543F5421219DE3001347539DB
:1013140001E5B130E6032005F8120F15C201E4F52A
:1013240039121AC57F887E1312192C121AC57F88A8
:101334007E1312192C121AC57F887E1312192C12CF
:031344001BEA227F
:021BFA00D322F4
:021BFC00D322F2
:021BFE00D322F0
:1015D10090E680E030E71800000090E6207402F009
:1015E100000000E490E621F0000000D20280160025
:1015F1000000E490E620F000000090E6217440F045
:0D160100000000C20290E6BAE0F53AD322E4
:101B080090E740E53AF0E490E68AF090E68B04F03E
:021B1800D322D6
:0811F80090E6BAE0F527D322CE
:101B1A0090E740E527F0E490E68AF090E68B04F03F
:021B2A00D322C4
:021C0000D322ED
:021C0200D322EB
:021C0400D322E9
:10008000E4F518F51990E6B9E0120A2200AEB300C3
:10009000E6B50234B6025BBB02A2BC034EC1030646
:1000A000C203CCC50419C6044EC9000004CFE490B5
:1000B000E68AF090E68BF090E6A0E020E1F990E689
:1000C0008BE0F518E4F5B390E60174CAF0D20100B4
:1000D000000090E6047480F00000007402F000005C
:1000E00000E4F00204D1E490E68AF090E68BF09010
:1000F000E6A0E020E1F990E68BE0F518D3943F40CC
:1001000024E4F51974402519F582E434E7F583E019
:10011000FF74AB2519F582E43428F583EFF0051957
:10012000E519B440DF7F8A7E00121B889028ABE07F
:10013000FF7E00121B919028ABE0FF7E00121B9AFD
:100140009028ABE0FF7E00121BA39028ACE075F076
:1001500004A4FFAEF0121BAC9028ACE075F004A430
:10016000FFAEF0121BB59028ACE075F004A4FFAE12
:10017000F0121BBE9028B0E0C3940250139028CC1C
:10018000E090E6C07005744EF08016749CF080110B
:100190009028CCE090E6C07005749FF08003749DB9
:1001A000F09028CEE0F5369028CBE0F5349028CFBB
:1001B000E0F53B9028D9E0F533A3E0FEA3E07C0016
:1001C0002400F526EC3EF5259028B1E0F530E53029
:1001D00070037530019028B6E0FEA3E07C00240097
:1001E000F529EC3EF528A3E0FEA3E02400F53EEC63
:1001F0003EF53D9028B2E0FEA3E02400F52FEC3E52
:10020000F52EA3E0FEA3E02400F541EC3EF540907E
:1002100028BCE0FEA3E02400F538EC3EF53790283A
:10022000BAE0FEA3E02400F52DEC3EF52CE4FD7FC2
:1002300090020448E4F51974AB2519F582E43428DA
:10024000F583E0FF74402519F582E434E7F583EF88
:10025000F00519E519B40ADF02033AE490E68AF0E2
:1002600090E68BF090E6A0E020E1F978EB7C287D29
:10027000017B017AE679BC7E007F0112097490E669
:10028000BEE0FF7E0078EC7C287D017B017AE77977
:100290004012097490E6BAE0C313FF90E6BEE00492
:1002A0008059E490E68AF090E68BF090E6A0E0209A
:1002B000E1F978EB7C287D017B017AE679BD7E004F
:1002C0007F0112097478EC7C287D017B017AE67944
:1002D000BC7E007F0112097490E6BEE0FF7E0078CC
:1002E000ED7C287D017B017AE7794012097490E664
:1002F000BAE0C313FF90E6BEE02402FD7A287BEB50
:10030000121A1B0204D190E74074D4F0A37412F0C7
:10031000A3740CF0A37426F0A37407F0A374EEF09A
:10032000A37401F0A37403F0A37453F0300205E446
:10033000A3F0800690E74974FFF0000000E490E627
:100340008AF000000090E68B740AF00204D1E49079
:10035000E68AF090E68BF090E6A0E020E1F990E6E6
:100360008BE0F518C298D3940050030204D190E7B3
:1003700040E0940A5007E02430FF121B4C90E74005
:10038000E0B40A057F61121B4C90E740E0B40B0516
:100390007F62121B4C90E740E0B40C057F63121B98
:1003A0004C90E740E0B40D057F64121B4C90E74091
:1003B000E0B40E057F65121B4C90E740E0640F60CF
:1003C000030204D17F66121B4C0204D190E678E050
:1003D0004480F0749112192490E679E090E740127D
:1003E000192790E679E090E74112192790E679E025
:1003F00090E74212192790E679E090E743F090E603
:1004000078E04440F0000000E490E68AF00000004C
:1004100090E68B7404F00204D1E490E68AF090E652
:100420008BF090E6A0E020E1F990E68BE0F518D3A0
:10043000940150030204D190E741E0FD7F4212187D
:10044000F390E740E0FD7F4E1218F30204D1E490F0
:10045000E68AF090E68BF090E6A0E020E1F990E6E5
:100460008BE0F518D39401406890E740E05480C4D5
:10047000131313540124FF92A3E05440C4131354E4
:100480000324FF92A2E05420C413540724FF92A136
:10049000E05410C4540F24FF92A0A3E075F00AA406
:1004A000FFAEF012154890E740E0540813131354C0
:1004B0001F24FF92A3E054041313543F24FF92A27D
:1004C000E05402C31324FF92A1E01392A08002D350
:0204D00022C345
:0104D2002207
:101A4F00C0E0C083C082D2075391EF90E65D74016E
:081A5F00F0D082D083D0E03208
:101ADC00C0E0C083C0825391EF90E65D7404F0D0F7
:061AEC0082D083D0E0323D
:101AF200C0E0C083C0825391EF90E65D7402F0D0E3
:061B020082D083D0E03226
:1016B900C0E0C083C08285524E85534F854F8285D5
:1016C9004E83A37402F0854A50854B51855182851A
:1016D9005083A37407F05391EF90E65D7410F0D036
:0616E90082D083D0E03244
:101A6700C0E0C083C082D2095391EF90E65D74084D
:081A7700F0D082D083D0E032F0
:10160E00C0E0C083C08290E680E030E720854A4E7D
:10161E00854B4F854F82854E83A37402F0855250C1
:10162E00855351855182855083A37407F05391EFF2
:0D163E0090E65D7420F0D082D083D0E032C1
:011C060032AB
:011C070032AA
:011C080032A9
:011C090032A8
:10196B00C0E0C083C082C2AF00000090E68F740459
:10197B00F00000005391EF90E65FE04404F0D2AF2B
:07198B00D082D083D0E032CE
:0D14D900C0E0C083C082C0D075D000C00745
:1014E600C2AF90E6A1E020E1F990E780E014601237
:1014F6002404601C14601D146024147026752200D8
:10150600802190E782E0F53290E781E0F53580139F
:10151600C28C800F90E781E024FF9205800575223A
:1015260000D20300000090E68DE4F05391EF90E6C0
:071536005FE04408F0D2AFB2
:0B153D00D007D0D0D082D083D0E032A5
:011C0A0032A7
:011C0B0032A6
:011C0C0032A5
:011C0D0032A4
:011C0E0032A3
:011C0F0032A2
:011C100032A1
:011C110032A0
:011C1200329F
:011C1300329E
:011C1400329D
:011C1500329C
:011C1600329B
:011C1700329A
:011C18003299
:011C19003298
:011C1A003297
:011C1B003296
:011C1C003295
:011C1D003294
:011C1E003293
:011C1F003292
:011C20003291
:011C21003290
:011C2200328F
:011C2300328E
:011C2400328D
:011C2500328C
:011C2600328B
:011C2700328A
:060D8F008F1A8C1B8D1C65
:100D9500531A0753A0BF7F0A7E0012192CE4F51DD4
:100DA500F51EC37402951EFFE51AA807088002C345
:100DB50013D8FC30E00543A020800353A0DF7F0A51
:100DC5007E0012192C43A0107F0A7E0012192C53A5
:100DD500A0EF7F0A7E0012192C051EE51E70020584
:100DE5001DC39403E51D6480948040B6E4F51DF5AC
:100DF5001EC37409951EFFE51CAE1BA807088005D8
:100E0500CEC313CE13D8F930E00543A02080035399
:100E1500A0DF7F0A7E0012192C43A0107F0A7E00F6
:100E250012192C53A0EF7F0A7E0012192C051EE51E
:100E35001E7002051DC3940AE51D6480948040B1AF
:100E450043A0407F0A7E0012192C53A0BF7F0A7E63
:040E55000002192C52
:091B8800AD07AC06E4FF020D8F6D
:091B9100AD07AC067F04020D8FC4
:091B9A00AD07AC067F05020D8FBA
:091BA300AD07AC067F06020D8FB0
:091BAC00AD07AC067F01020D8FAC
:091BB500AD07AC067F02020D8FA2
:091BBE00AD07AC067F03020D8F98
:1018F3008D1AAD0790E678E04480F090E679ED121A
:10190300192790E679E51A12192790E678E0444002
:08191300F07F647E0002192C34
:10158E0012191B90E679740212192790E67974806D
:10159E0012192790E678E0444012192712191BE41D
:1015AE0090E679F07F64FE12192CE490E679F07FD4
:1015BE0064FE12192C90E678E04440F07F647E00C1
:0315CE0002192CD3
:10175A008F1B90E678E04480F090E679747812194D
:10176A0027E490E679F07F64FE12192C90E679E579
:10177A001B12192790E678E04440F07F647E00024D
:02178A00192C18
:1017ED008F1B90E678E04480F090E67974781219BA
:1017FD002790E679744012192790E679E51B1219A6
:0F180D002790E678E04440F07F647E0002192CBB
:10145C007FAE12175AE4FF12175A7F1012175A7FD9
:10146C004012175A7FB012175A7F8112175A7FCF2A
:10147C0012175A7FA112175A7FA612175A7FA81259
:10148C00175A7F3F12175A7FC812175A7FD3121759
:10149C005AE4FF12175A7FD512175A7F8012175A27
:1014AC007FD912175A7F1112175A7FDA12175A7FE7
:1014BC000212175A7F8D12175A7F1412175A7FDB9C
:0D14CC0012175A7F2012175A7FAF02175ACD
:02164B008F18F6
:10164D00E4FF12175A7F1012175A7FB012175A75EE
:10165D001A04E51A24B0FF12175AE4F519AF18123F
:10166D0017ED0519E519C3948040F2051AE51AC363
:04167D00940840DEAF
:011681002246
:10191B0090E678E04480F0745090E679F07F647E36
:01192B0000BB
:10192C00EF7803C333CE33CED8F9FFEF4E6007EF19
:07193C001F70F81E80F52268
:031BEE00C282228E
:031BF100D282227B
:031BF400C2852285
:031BF700D2852272
:061BD600121BF1021BF7D7
:1019DE00121BEE7F027E0012192C121BF4121BF149
:1019EE007F027E0012192C121BF77F027E00021955
:0119FE002CBC
:101B2C00E4FDFC1219DE0DBD00010CBC0DF5BDF67B
:011B3C00F2B6
:011B3D002285
:011C28002299
:071BCF00121B6643B1402226
:061BDC0053B1BF021AAE76
:10116100E534B40102C2A0121BCFE53670757522B9
:10117100019028ADE075F040A485F01CF51DAF226B
:101181007E00AC1CAD1D1209E9D3EF9400EE940072
:1011910040147FC47E031218A81213D3E51D151D38
:1011A10070DC151C80D89028AEE0751C00F51DAFD1
:1011B100227E00AC1CAD1D1209E9D3EF9400EE9420
:1011C1000040147FC47E001218A81213D3E51D1528
:1011D1001D70DC151C80D89028AFE0FF7E00121531
:1011E100488009752201E522640160FA121BDCE5E1
:0611F10034B40102D2A09B
:0111F70022D5
:10187400AD07AC06D3ED9400EC9400401E000000CC
:10188400EE90E6D0F0000000ED90E6D1F00000000C
:0C18940075BB04000000E5BB30E7FB2240
:081682008C1C8D1DAB07AA06AC
:10168A00E4FDFCC3ED951DEC951C5022EA90E6D0D2
:10169A00F0000000EB90E6D1F000000075BB0600F8
:0E16AA000000E5BB30E7FB0DBD00010C80D554
:0116B800220F
:1018CA00AD07AC06000000ED25E0EC3390E6D0F061
:1018DA00000000ED25E090E6D1F000000075BB04A1
:0918EA00000000E5BB30E7FB2221
:100F1500C203121B2C753902121161753903300396
:100F250003020FCBE4F51AF51BC3E51B9529E51A5A
:100F35009528500D1219DE051BE51B70EC051A806E
:100F4500E8E533D39400400CE533FD7C00AF2FAECC
:100F55002E121682D3E5269400E52594004007AFAE
:100F650026AE251218CAE4F518F519C3E5199541F9
:100F7500E5189540502C121943E4F51AF51BC3E505
:100F85001B95307480F8651A98500D1219DE051BF3
:100F9500E51B70EA051A80E60519E51970CD0518F7
:100FA50080C9E4F51AF51BC3E51B953EE51A953D89
:100FB500500D1219DE051BE51B70EC051A80E8AF14
:060FC50038AE371218746B
:010FCB002203
:10194300000000E52F25E0E52E3390E6D0F00000FF
:1019530000E52F25E090E6D1F000000075BB040000
:081963000000E5BB30E7FB22A8
:101A9700E490E608F075C83443985053877FC2AC8A
:071AA70075CBFF75CA642234
:0D1B4C00309902C2998F993099FDC29922FB
:1019920090000020981CA3AF82AE83E4FCFD7BFA8A
:1019A2007AFFF9F8C31209FB5004D2008004C20086
:0619B20080E1C298AF992C
:0119B800220C
:0A1B3E00121BE67FD07E0712192C5F
:041B480075B0092249
:041BE60075B00322B1
:101A7F00121B487FD07E0712192C121BE67FD07ED7
:041A8F000712192CF5
:041A930075B0062202
:071B73007FD07E0712192C40
:041B7A0075B00C2214
:041BEA00E4F5B0224C
:101AAE00121B7A7FD07E0712192C121A7F121B730B
:071ABE007FD07E0702192C06
:101AC500121B7A121A8C7FD07E0712192C121B3E1C
:071AD5007FD07E0702192CEF
:0D1B5900121B3E121B737FD07E0702192C59
:0D1B6600121A7F7FD07E0712192C021B7A05
:10172500AD0712191B74021219277480121927901C
:10173500E678E0444012192712191EE4F07F64FE92
:1017450012192CED12192790E678E04440F07F64D9
:051755007E0002192CCA
:081BC700E4F55DD2E9D2AF2282
:1016EF0090E678E020E6F9C2E990E678E04480F0F1
:1016FF00EF25E090E679F090E678E030E0F990E6BB
:10170F0078E04440F090E678E020E6F990E678E063
:06171F0030E1D6D2E92200
:10178C00A90790E678E020E6F9E55D702390E6780D
:10179C00E04480F0E925E090E679F08D58AF03A99C
:1017AC00077559018A5A895BE4F55C755D01D32292
:0217BC00C32246
:100FCC00A90790E678E020E6F9E55D702590E678D3
:100FDC00E04480F0E925E0440190E679F08D58AFCB
:100FEC0003A9077559018A5A895BE4F55C755D03A1
:040FFC00D322C32217
:03004B00020BB4F1
:100BB400C0E0C083C082C085C084C086758600C082
:100BC400D075D000C000C001C002C003C006C00779
:100BD40090E678E030E206755D06020C9E90E678B9
:100BE400E020E10CE55D64026006755D07020C9E81
:100BF400E55D24FE605F14603624FE7003020C8FF2
:100C040024FC7003020C9B24086003020C9EAB5965
:100C1400AA5AA95BAF5C055C8F8275830012099A9E
:100C240090E679F0E55C65587070755D05806B90B1
:100C3400E679E0AB59AA5AA95BAE5C8E8275830053
:100C44001209C7755D02E5586401704E90E678E0BC
:100C54004420F08045E55824FEB55C0790E678E032
:100C64004420F0E55814B55C0A90E678E04440F07E
:100C7400755D0090E679E0AB59AA5AA95BAE5C8E2B
:100C8400827583001209C7055C800F90E678E04402
:100C940040F0755D008003755D005391DFD007D08F
:100CA40006D003D002D001D000D0D0D086D084D0DA
:080CB40085D082D083D0E0322C
:1019FF00120FCCE55D24FA600E146006240770F315
:0C1A0F00D322E4F55DD322E4F55DD32280
:101A1B0012178CE55D24FA600E146006240770F330
:0C1A2B00D322E4F55DD322E4F55DD32264
:03000000021347A1
:0C134700787FE4F6D8FD75815D02138EFE
:1008A400E709F608DFFA8046E709F208DFFA803E36
:1008B40088828C83E709F0A3DFFA8032E309F60823
:1008C400DFFA8078E309F208DFFA807088828C838B
:1008D400E309F0A3DFFA806489828A83E0A3F6083F
:1008E400DFFA805889828A83E0A3F208DFFA804C19
:1008F40080D280FA80C680D4806980F280338010F0
:1009040080A680EA809A80A880DA80E280CA803358
:1009140089828A83ECFAE493A3C8C582C8CCC583D0
:10092400CCF0A3C8C582C8CCC583CCDFE9DEE780A0
:100934000D89828A83E493A3F608DFF9ECFAA9F01F
:10094400EDFB2289828A83ECFAE0A3C8C582C8CC75
:10095400C583CCF0A3C8C582C8CCC583CCDFEADE8E
:10096400E880DB89828A83E493A3F208DFF980CCF0
:1009740088F0EF60010E4E60C388F0ED2402B404E9
:100984000050B9F582EB2402B4040050AF23234590
:0609940082239008F473B9
:10099A00BB010CE58229F582E5833AF583E0225012
:1009AA0006E92582F8E622BBFE06E92582F8E2225C
:0D09BA00E58229F582E5833AF583E4932276
:1009C700F8BB010DE58229F582E5833AF583E8F066
:1009D700225006E92582C8F622BBFE05E92582C812
:0209E700F222FA
:1009E900EF8DF0A4A8F0CF8CF0A428CE8DF0A42E22
:0209F900FE22DC
:1009FB00EB9FF5F0EA9E42F0E99D42F0EC6480C873
:060A0B0064809845F02212
:100A1100EB9FF5F0EA9E42F0E99D42F0E89C45F03B
:010A210022B2
:100A2200D083D082F8E4937012740193700DA3A363
:100A320093F8740193F5828883E473740293686077
:060A4200EFA3A3A380DF77
:101353000206F7E493A3F8E493A34003F68001F2B3
:1013630008DFF48029E493A3F85407240CC8C3339B
:10137300C4540F4420C8834004F456800146F6DF6A
:10138300E4800B0102040810204080900CBCE47E32
:10139300019360BCA3FF543F30E509541FFEE4935F
:1013A300A360010ECF54C025E060A840B8E493A326
:1013B300FAE493A3F8E493A3C8C582C8CAC583CA51
:1013C300F0A3C8C582C8CAC583CADFE9DEE780BE09
:010D8E000064
:00000001FF
