:0A251600000102020303040405059E
:100BFD00E4F56BF56AF569F568C209C206C208C26B
:100C0D00071223391208097E187F008E0A8F0B7583
:100C1D00121875131275081875091C7510187511B1
:100C2D005175161875177FEE54E07003020D44755B
:100C3D006C00756D808E6E8F6FC374A99FFF7418D5
:100C4D009ECF2402CF3400FEE48F678E66F565F5E6
:100C5D0064F563F562F561F560AF67AE66AD65ACE1
:100C6D0064AB63AA62A961A860C3120B825026E52A
:100C7D006D2563F582E56C3562F58374CDF0E56322
:100C8D002401F563E43562F562E43561F561E4351F
:100C9D0060F56080C4E4F563F562F561F560AF67FA
:100CAD00AE66AD65AC64AB63AA62A961A860C31200
:100CBD000B825031AE62AF63E56F2FF582E56E3E6C
:100CCD00F583E0FDE56D2FF582E56C3EF583EDF0E6
:100CDD00EF2401F563E43EF562E43561F561E43539
:100CED0060F56080B9856C0A856D0B74002480FFFA
:100CFD00741834FFFEC3E5139FF513E5129EF5122C
:100D0D00C3E50D9FF50DE50C9EF50CC3E50F9FF5A5
:100D1D000FE50E9EF50EC3E5099FF509E5089EF555
:100D2D0008C3E5119FF511E5109EF510C3E5179F5A
:100D3D00F517E5169EF516D2E843D82090E668E043
:100D4D004409F090E65CE0443DF0D2AFD288D28AFF
:100D5D00C2A8C2AA43E808D2FB90E680E020E105D4
:100D6D00D20A12203190E680E054F7F0538EF8C28B
:100D7D00093007051205E5C2073009291225AB50C8
:100D8D0024C20912222A20061690E682E030E704DA
:100D9D00E020E1EF90E682E030E604E020E0E412AE
:0A0DAD00208E1225AD12118380C7BD
:1005E50090E6B9E07003020696147003020713241F
:1005F500FE700302079624FB700302069014700335
:1006050002068A146073146076240560030207F5F8
:100615001225AF400302080190E6BBE024FE6022EC
:1006250014603324FD601114602224067048E50A25
:1006350090E6B3F0E50B8037E51290E6B3F0E513ED
:10064500802DE50C90E6B3F0E50D8023E50E90E6F0
:10065500B3F0E50F801990E6BAE0FF1220BAAA06BA
:10066500A9077B01EA494B600DEE90E6B3F0EF90E8
:10067500E6B4F00208010207FA1223FD020801128E
:10068500255F020801121BBD0208011223EB0208B7
:10069500011225B1400302080190E6B8E0247F600D
:1006A5001514601924027063A206E43325E0FFA245
:1006B50008E4334F8041E490E740F0803F90E6BC8A
:1006C500E0547EFF7E00E0D394807C0040047D01F1
:1006D50080027D00EC4EFEED4F2416F58274253E1A
:1006E500F583E493FF3395E0FEEF24A1FFEE34E6B6
:1006F5008F82F583E0540190E740F0E4A3F090E6A3
:100705008AF090E68B7402F00208010207FA1225BE
:10071500B3400302080190E6B8E024FE6016240207
:10072500600302080190E6BAE0B40105C2060208BA
:10073500010207FA90E6BAE0705590E6BCE0547EF7
:10074500FF7E00E0D394807C0040047D0180027D23
:1007550000EC4EFEED4F2416F58274253EF583E43C
:1007650093FF3395E0FEEF24A1FFEE34E68F82F58B
:1007750083E054FEF090E6BCE05480131313541F3D
:10078500FFE0540F2F90E683F0E04420F0806D8069
:10079500641225B5506690E6B8E024FE601924027F
:1007A500705A90E6BAE0B40104D206804F90E6BADA
:1007B500E064026047803E90E6BCE0547EFF7E0028
:1007C500E0D394807C0040047D0180027D00EC4EE6
:1007D500FEED4F2416F58274253EF583E493FF3331
:1007E50095E0FEEF24A1FFEE34E68F82F5838008C5
:1007F500120080500790E6A0E04401F090E6A0E0EA
:030805004480F03C
:0108080022CD
:030033000217FCB5
:0417FC0053D8EF329D
:10233900758CE0758AC0E58954F04401F589758E7C
:0823490003D28CD2A9D2AF220D
:03003B00021AF4B2
:101AF400C0E0C083C082C0D075D000C006C007302B
:101B0400C041C2C085C114052EE52E7002052DD337
:101B1400E52E94F4E52D648094814006752D0075BE
:101B24002E00AE2DAF2EEE90F800F0AE2DAF2EEFBE
:101B3400A3F0AE2DAF2E74012FF58274F83EF58319
:101B4400E514F030C105C2C185C114D007D006D058
:081B5400D0D082D083D0E03232
:03002300021C1CA0
:101C1C00C0E0C083C082C0D075D000C007309836F9
:101C2C00C298859915052CE52C7002052BD3E52C53
:101C3C00940EE52B648094804006752B00752C0067
:101C4C00AF2C90E7F0EFF0AF2C74F02FF582E4346A
:101C5C00E7F583E515F0D007D0D0D082D083D0E063
:011C6C003245
:03005B0002195334
:0D195300C0E0C083C082C0D075D000C007C6
:10196000AF91530780EF6480707B53917F90292360
:10197000E06401606B902922E0FFB4013590291EDC
:10198000E0B401109028B17430F0902922E4F09076
:1019900028B204F0D39028FBE094409028FAE09419
:1019A00006500690291E7401F09028FAE4F0A3F086
:1019B000802EEF64027029902921E0B40122902842
:1019C000B1E004F0E0B438037430F09028B3E0FFE5
:1019D0009028B1E0B50709902922E4F0902921F080
:0519E000902923E4F052
:0B19E500D007D0D0D082D083D0E032F9
:10180000120100020000004018163116000001020B
:1018100000010A0600020000004001000902350034
:1018200001010080FA0904000005FF00000007051F
:101830000102400000070582020002000705810244
:1018400040000007058602000200070508020002AA
:101850000009022E0001010080FA0904000004FFC3
:101860000000000705010240000007058202400059
:101870000007050202000200070581024000000483
:1018800003090410035100480059002D0043004390
:101890000044001603490043002D00310036003893
:0B18A00000300033002000200000009A
:100F540060802800030A0303020203070000000262
:100F6400000002000A2B0B131115111100000000E0
:100F74000000003F020A030303030307000000020A
:100F8400000002000A2B130B1115111100000000C0
:100F94000000003F032D03030303030700000002C6
:100FA400000002000A2B0B131115111100000000A0
:100FB4000000003F030A0A0A0A0A0A0700000002A6
:100FC400000002000A2B130B111511110000000080
:100FD4000000003F6024288700000000000000009B
:100FE40000000000000000000000000000000000FD
:100FF400000000000000000000000000472880807E
:06100400000011CA4E00BD
:1014D40090E60174CAF090E6F574FFF0902880E07D
:1014E40090E6F3F0902881E090E6C3F0902882E043
:1014F40090E6C1F0902883E090E6C2F0902885E061
:1015040090E6C0F0902886E090E6F4F075AF07749A
:1015140028F59A7400F59B759DE4E4F59EFF90E62A
:101524007BE090E67CF00FBF80F490E67174FFF0EE
:10153400F5B490E672E04480F043B680000000E425
:1015440090E6C4F000000090E6C5F0902887E09093
:10155400E6C6F0902888E090E6C7F0902889E090ED
:10156400E6C8F090288AE090E6C9F090288BE090D5
:10157400E6CAF090288CE090E6CBF090288DE090BD
:0B158400E6CCF090288EE090E6CDF061
:01158F002239
:03004300021600A2
:0300530002160092
:10160000022351000223AE00022398000223690046
:10161000021EFA00021DD1000225B7000225B80003
:101620000225B9000225BA00021E4B00020DB700C8
:101630000225BB000225BC00021D4B000212660001
:101640000225BD000225B8000225BE000225BF000C
:101650000225C0000225C1000225C2000225C300E8
:101660000225C4000225B8000225B8000225B800F2
:101670000225C5000225C6000225C7000225C800B4
:101680000225C9000225CA000225CB000225CC0094
:101690000225CD000225CE000225CF000225D00074
:1016A0000225D1000225D2000225D3000225D40054
:0816B0000225D5000225D60039
:10208E0090E682E030E004E020E60B90E682E0305D
:10209E00E119E030E71590E680E04401F07F147E10
:0C20AE0000121D0590E680E054FEF022B8
:10222A0090E682E044C0F090E681F0438701000026
:04223A00000000227E
:10203100300A0990E680E0440AF0800790E680E0EB
:102041004408F07FDC7E05121D0590E65D74FFF00B
:0F20510090E65FF05391EF90E680E054F7F022B5
:0220BA00A90774
:1020BC00AE16AF178F828E83A3E064037017AD0149
:1020CC0019ED7001228F828E83E07C002FFDEC3E97
:0920DC00FEAF0580DF7E007F00ED
:0120E50022D8
:101D05008E748F7590E600E054187012E575240105
:101D1500FFE43574C313F574EF13F575801590E67C
:101D250000E05418FFBF100BE57525E0F575E57467
:101D350033F574E5751575AE74700215744E60054E
:061D450012223E80EE2296
:10223E007400F58690FDA57C05A3E582458370F9B3
:01224E00226D
:10100A00C18202331040C100014A00C105C1040473
:10101A0050000000000147000125000441000000C3
:10102A00000439000000000137004129220141284B
:10103A00B3FF4128B1304228FA000042291F0000BC
:10104A004428AB000000004428F60000C3504228A0
:10105A00AF001941291E00412923014128B200414C
:10106A0029210041291D004128FC004228F40000E2
:04200000AF30AE2F20
:102004008E758F769028FD7403F0E4A3F07A287B14
:10201400FD7D027F411222E89028FD7401F0A3E5C2
:0D20240076F07A287BFD7D027F410222E8E4
:05243300122438AF0582
:0B243800C2B6C2B58FB1D2B5D2B62239
:0B250B00D2B6C2B58FB1D2B5D2B62255
:0C248700AE077FA0122438AF06022438F4
:0C249300AE077FA1122438AF06022438E7
:0C249F00AE077FA2122438AF06022438DA
:07256F00EF44A4FF02243831
:07257600EF44AEFF02243820
:0C24AB00AE077FAD122438AF06022438C3
:0C24B700AE077FA8122438AF06022438BC
:0C24C300AE077FB0122438AF06022438A8
:0C24CF00AE077FB1122438AF060224389B
:0C24DB00AE077FBB122438AF0602243885
:0C24E700AE077FB3122438AF0602243881
:10229200AE07AC037F8A122438AF061224387F8B34
:0D22A2001224337F8C122438AF040224383C
:0C24F300AE077F87122438AF06022438A1
:1022AF00AE07AC037F81122438AF061224387F8229
:0D22BF001224337F83122438AF0402243828
:0C24FF00AE077FBE122438AF060224385E
:0E244300AE05AD077F15122433AF0602243814
:0E245100AE05AD077F75122433AF06022438A6
:04218E00AC05AB07EA
:102192007D5FE4FF1224437D3FFF122451FEE4FDE4
:1021A200AF0312250BAF0412250B0DBD60F20EBE5C
:0221B20040ECFF
:0121B4002208
:061CBE008B5B8A5C895D6E
:101CC400E4F55EF55FEF4E700C7D5FFF1224437DFB
:101CD4003FFF022451E4F55EF55FAB5BAA5CA95DAE
:101CE400855F82855E83120B1DFF12250B055FE560
:101CF4005F7002055EC39480E55E6480948140DA7F
:011D040022BC
:101B5C00C2B47FC87E00121DBAD2B4E4FF1225763F
:101B6C007F72122487E4FF122493FF12249FFF122A
:101B7C00256F7F3F1224B77F8E1224AB7F0B12246C
:101B8C00C37F311224CF7FF01224E77B647D787FF2
:101B9C00641222927F3A1224DB7F3E1224FF7F06CE
:101BAC001224F37B7D7D507F911222AF7F010225A1
:011BBC0076B2
:1008090090E600E054E74410F0000000000000907A
:10081900E61074A0F000000090E60B7401F090E679
:100829001274E0F0000000E490E613F0000000907C
:10083900E61474E2F000000090E61574A0F00000E0
:100849000090E6D27402F090E6047480F000000093
:100859007402F00000007406F00000007408F00053
:100869000000E4F00000001214D490E6187408F0B7
:1008790000000090E619F000000090E61AF0000070
:100889000090E61BF0000000E490E671F075B4FFFB
:1008990075A0FF90E672F075B6FF75B1FF90E6702E
:1008A900F075B2FF75B5FFC28CD2B01215FA90E699
:1008B9001074A0F000000090E611F000000090E62E
:1008C9005EE04408F0000000E490E68DF0000000CE
:1008D90090E65EE04404F0000000E490E7C0F09088
:1008E900E7C4F0A3F0A3F0A3F090E7F0F090E68F4F
:1008F9007440F000000090E65EE04440F000000023
:100909007E027F0090F800E4F0A3DFFCDEFA90E6B7
:10091900987402F0000000E490E699F00000007E6F
:10092900027F0090F800E4F0A3DFFCDEFA90E65EB7
:10093900E04480F0000000E490E69CF000000090A4
:10094900E69DF00000007F9AFE12252075270075AC
:1009590028B4754B01754C907533107534B8754EC4
:1009690006754F2C12256790E67AE054FEF0E4FDF7
:100979007F9012240F7F647E00121D057DFF7F4248
:1009890012240F7F647E00121D057D827F4E122482
:100999000F7538FF752F007530F4122000E4F53F0C
:1009A90090E782E538F090E781E53FF0122381E492
:1009B900F52BF52C122166E4F52DF52E1215FA907A
:1009C90029237401F0902922F09028F6120BA60031
:1009D900030D409028AFE4F0A37464F0121E0E7F5B
:1009E900887E13121DBA121E0E7F887E13121DBA3D
:1009F900121E0E7F887E13121DBA12247A121B5CF6
:100A09007DFF7FFF12218ED2F9C2F8E4F54790E706
:0E0A1900C0E547F04330FCAF30AE2F022004A2
:0E245F00EF2401FBE43EFA7D047F480222CC0C
:101A7C00E53FC313FFC374809FF574E53FD3940017
:101A8C0040097538FF4330F4122000E53F700853CD
:101A9C0030FBF52F1220007E297F2412245F902921
:101AAC0025E090E7C1F0902926E090E7C2F090285D
:101ABC00FDE538F07A287BFD7D017F211222E8902C
:101ACC0028FD7402F0A37480F07A287BFD7D027FE0
:101ADC00281222E8E49028FDF0A3E574F07A287B24
:081AEC00FD7D027F280222E8C3
:10118300E5532401F553E43552F552E43551F55155
:10119300E43550F550902920E004F0700690291FA3
:1011A300E004F09028F6E0FCA3E0FDA3E0FEA3E05A
:1011B300FFAB53AA52A951A850C3120B82700C1251
:1011C3001A7CE4F553F552F551F550902922E0FFCE
:1011D30090E7C8F09028B1E090E7C9F09028FCE0D0
:1011E30090E7CAF09028AFE0FCA3E0FD90291FE050
:1011F300B5042CA3E0B50527EF601124FE600804B5
:10120300701612224F8011121F66800C53A00F53C9
:1012130030F7752F00122000E490291FF0A3F0305F
:10122300014075470190E7C0E547F0E5B130E703BA
:101233002005F8121411C201E4F54790E7C0E54711
:10124300F0121E0E7F887E13121DBA121E0E7F88A7
:101253007E13121DBA121E0E7F887E13121DBA1240
:03126300247A22C8
:0225AB00D32239
:0225AD00D32237
:0225AF00D32235
:101BBD0090E680E030E73A00000090E6207402F0F5
:101BCD00000000E490E621F000000090E62474028D
:101BDD00F0000000E490E625F000000090E6267489
:101BED0002F0000000E490E627F0000000D2028031
:101BFD0016000000E490E620F000000090E621744D
:0F1C0D0040F0000000C20290E6BAE0F548D32292
:1023EB0090E740E548F0E490E68AF090E68B04F045
:0223FB00D322EB
:08255F0090E6BAE0F526D32254
:1023FD0090E740E526F0E490E68AF090E68B04F055
:02240D00D322D8
:0225B100D32233
:0225B300D32231
:0225B500D3222F
:10008000E4F570F57190E6B9E0120BD700B4B30057
:10009000ECB50269B602A1BB02E8BC0391C10349F9
:1000A000C2040FC5042EC60463CA04A5CB0511D033
:1000B000000005E1E490E68AF090E68BF090E6A07F
:1000C000E020E1F990E68BE0F570E4F5B390E6010D
:1000D00074CAF0D20100000090E6047480F00000C1
:1000E000007402F0000000E4F00205E3E490E68A08
:1000F000F090E68BF090E6A0E020E1F990E68BE04E
:10010000F570D3943F4024E4F57174402571F58275
:10011000E434E7F583E0FF74B42571F582E4342814
:10012000F583EFF00571E571B440DF7F8A7E001240
:1001300025209028B4E0FF7E001225299028B4E005
:10014000FF7E001225329028B4E0FF7E0012253B8E
:100150009028B5E075F004A4FFAEF0122544902875
:10016000B5E075F004A4FFAEF012254D9028B5E07F
:1001700075F004A4FFAEF01225569028B9E0C394A0
:100180000250139028D5E090E6C07005744EF080C0
:1001900016749CF080119028D5E090E6C07005742C
:1001A0009FF08003749DF09028D7E0F5409028D40C
:1001B000E0F53E9028D8E0F5499028E2E0F53DA32F
:1001C000E0FEA3E07C002400F524EC3EF52390281B
:1001D000BAE0F535E53570037535019028BFE0FECE
:1001E000A3E07C002400F528EC3EF527A3E0FEA365
:1001F000E02400F54CEC3EF54B9028BBE0FEA3E07C
:100200002400F534EC3EF533A3E0FEA3E02400F532
:100210004FEC3EF54E9028C5E0FEA3E02400F546E5
:10022000EC3EF5459028C3E0FEA3E02400F532EC57
:100230003EF5319028E9E0540FF537E4FD7F901248
:10024000240F9028B5E0FCA3E0FDA3E0FEA3E0F5B9
:10025000448E438D428C41E544F544E543F543E546
:1002600042F542E4F5410205E3E4F57174B4257109
:10027000F582E43428F583E0FF74402571F582E4CB
:1002800034E7F583EFF00571E571B440DF0000005D
:10029000E490E68AF000000090E68B7440F00205DE
:1002A000E3E490E68AF090E68BF090E6A0E020E1AF
:1002B000F978FD7C287D017B017AE679BC7E007FA0
:1002C00001120AF790E6BEE0FF7E0078FE7C287DF2
:1002D000017B017AE77940120AF790E6BAE0C3138E
:1002E000FF90E6BEE0048059E490E68AF090E68B49
:1002F000F090E6A0E020E1F978FD7C287D017B010B
:100300007AE679BD7E007F01120AF778FE7C287DAF
:10031000017B017AE679BC7E007F01120AF790E644
:10032000BEE0FF7E0078FF7C287D017B017AE779C3
:1003300040120AF790E6BAE0C313FF90E6BEE0244D
:1003400002FD7A287BFD02050B90E74074F4F0A3D0
:100350007417F0A3740CF0A37426F0A37407F0A331
:1003600074EEF0A37401F0A37403F0A37453F0309F
:100370000205E4A3F0800690E74974FFF000000056
:10038000E490E68AF000000090E68B740AF0020523
:10039000E3E490E68AF090E68BF090E6A0E020E1BE
:1003A000F990E68BE0F570C298D3940050030205F3
:1003B000E390E740E0940A5007E02430FF12231254
:1003C00090E740E0B40A057F6112231290E740E015
:1003D000B40B057F6212231290E740E0B40C057F56
:1003E0006312231290E740E0B40D057F64122312DC
:1003F00090E740E0B40E057F6512231290E740E0DD
:10040000640F60030205E37F661223120205E37A9C
:10041000E77B407D047F481222CC000000E490E698
:100420008AF000000090E68B7404F00205E3E4908B
:10043000E68AF090E68BF090E6A0E020E1F990E605
:100440008BE0F570D3940150030205E390E741E09F
:10045000FD7F4212240F90E740E0FD7F4E12240FF3
:100460000205E390E6BCE0902924F07A297B247D04
:10047000017F501222E87A297B247D017F501222CD
:10048000E890E6BEE0FD7AE77B407F501222CCE4A4
:1004900090E68AF000000090E6BEE090E68BF00067
:1004A00000000205E3E490E68AF000000090E68B8D
:1004B000F000000090E6A0E020E1F990E6BCE0D377
:1004C000940750030205E378FD7C287D017B017AC7
:1004D000E679BC7E007F01120AF790E6BEE0FF7E5F
:1004E0000078FE7C287D017B017AE77940120AF7CB
:1004F00090E6BEE004FD7A287BFD7F501222E89052
:10050000E6BEE004FD7A287BFD7F501222E802055A
:10051000E3E490E68AF090E68BF090E6A0E020E13C
:10052000F990E68BE0F571C29890E740E0C3943013
:100530004006E0D39438400A90E740E0F4600302BC
:1005400005E3902922E060030205E34330F812201E
:100550000090E740E0B4FF1753A0F043A04090297B
:10056000237401F0902922F0E490291EF080749009
:10057000E740E09028B3F0E0FF9028B1E06F6063BF
:1005800053A0F043A040E4902921F090E740E0B46C
:100590000A069028B37461F090E740E0B40B06902F
:1005A00028B37462F090E740E0B40C069028B3746E
:1005B00063F090E740E0B40D069028B37464F090C7
:1005C000E740E0B40E069028B37465F090E740E091
:1005D000B40F069028B37466F09029227402F0805C
:0405E00002D322C35D
:0105E40022F4
:10235100C0E0C083C082D2075391EF90E65D740163
:08236100F0D082D083D0E032FD
:10239800C0E0C083C0825391EF90E65D7404F0D032
:0623A80082D083D0E03278
:1023AE00C0E0C083C0825391EF90E65D7402F0D01E
:0623BE0082D083D0E03262
:101EFA00C0E0C083C08285100C85110D850D8285D6
:101F0A000C83A37402F085080E85090F850F82855C
:101F1A000E83A37407F05391EF90E65D7410F0D02E
:061F2A0082D083D0E032FA
:10236900C0E0C083C082D2095391EF90E65D740842
:08237900F0D082D083D0E032E5
:101DD100C0E0C083C08290E680E030E72085080C37
:101DE10085090D850D82850C83A37402F085100E83
:101DF10085110F850F82850E83A37407F05391EF30
:0D1E010090E65D7420F0D082D083D0E032F6
:0125B70032F1
:0125B80032F0
:0125B90032EF
:0125BA0032EE
:101E4B00C0E0C083C08290E65EE054FBF00000006F
:101E5B0090E68F7440F0000000752B00752C0090FD
:101E6B00E7F0E4F05391EF90E65FE04404F090E686
:0C1E7B005EE04404F0D082D083D0E0325E
:100DB700C0E0C0F0C083C082C0D075D000C000C002
:0D0DC70001C002C003C004C005C006C00783
:100DD40090E65EE054F7F090E6A1E020E1F990E7B8
:100DE40080E0FF120BD70E09000E0F010E1E300E0D
:100DF4004E310E92320ECE330EFF340F11FE0F1B06
:100E0400FF00000F20752200020F2090E782E0F51A
:100E14003890E781E0F53F020F20755900755A01BB
:100E240090E68DE0FFC3E55A9F7480F865599840B9
:100E340003020F207480255AF582E434E712230E4E
:100E4400055AE55A70DA055980D690E781E07006B4
:100E5400758DB2020F2090E781E0B40106758D64B0
:100E6400020F2090E781E0B40206758DD9020F20AD
:100E740090E781E0B40306758DE6020F2090E781C8
:100E8400E064046003020F20758DF3020F2090E7E5
:100E940081E07006121E0E020F2090E781E0B4017B
:100EA4000512231F807690E781E0B40205122060CA
:100EB400806A90E781E0B40305121590805E90E7A4
:100EC40081E0F4705712247A8052755900755A01E2
:100ED40090E68DE0FFC3E55A9F7480F865599850F9
:100EE4003B7480255AF582E434E7F583E0FF12244D
:100EF4006D055AE55A70D9055980D590E781E0FF10
:100F04007E007B017AE77982121CBE800F90E78114
:100F1400E024FF92058005752200D20300000090B2
:100F2400E68DE4F05391EF90E65FE04408F090E63C
:050F34005EE04408F03E
:100F3900D007D006D005D004D003D002D001D0000C
:0B0F4900D0D0D082D083D0F0D0E032B6
:0125BB0032ED
:0125BC0032EC
:101D4B00C0E0C083C08290E65EE054BFF0000000AC
:101D5B0090E6987402F000000090E699E4F0000021
:101D6B0000F52DF52E90F800F0A3F05391EF90E6CF
:101D7B005FE04440F090E65EE04440F0D082D083D8
:031D8B00D0E03273
:10126600C0E0C0F0C083C082C0D075D000C000C04E
:0D12760001C002C003C004C005C006C007CF
:1012830090E65EE0547FF090E6A6E020E1F990E678
:101293009CE0FE90E69DE07C002400F55AEC3EF5D0
:1012A30059E55A64054559703F90FC00E0B4EE14CB
:1012B300A3E0B4440FA3E0B4880AA3E07006A3E05C
:1012C30064336048755B00755C00C3E55C955AE563
:1012D300596480F8E55B6480985031122304055CFF
:1012E300E55C70E6055B80E2755B00755C00C3E559
:1012F3005C955AE5596480F8E55B648098500D125B
:101303002304055CE55C70E6055B80E20000009069
:10131300E69CE4F090E69DF05391EF90E65FE044A5
:0913230080F090E65EE04480F0E9
:10132C00D007D006D005D004D003D002D001D00015
:0B133C00D0D0D082D083D0F0D0E032BF
:0125BD0032EB
:0125BE0032EA
:0125BF0032E9
:0125C00032E8
:0125C10032E7
:0125C20032E6
:0125C30032E5
:0125C40032E4
:0125C50032E3
:0125C60032E2
:0125C70032E1
:0125C80032E0
:0125C90032DF
:0125CA0032DE
:0125CB0032DD
:0125CC0032DC
:0125CD0032DB
:0125CE0032DA
:0125CF0032D9
:0125D00032D8
:0125D10032D7
:0125D20032D6
:0125D30032D5
:0125D40032D4
:0125D50032D3
:0125D60032D2
:061347008F728C738D749F
:10134D0053720753B0F77F0A7E00121DBAE4F5758C
:10135D00F576C374029576FFE572A807088002C37F
:10136D0013D8FC30E00543800280035380FD7F0AD3
:10137D007E00121DBA4380017F0A7E00121DBA53F2
:10138D0080FE7F0A7E00121DBA0576E57670020595
:10139D0075C39403E5756480948040B6E4F575F5E6
:1013AD0076C374099576FFE574AE73A807088005BA
:1013BD00CEC313CE13D8F930E0054380028003531A
:1013CD0080FD7F0A7E00121DBA4380017F0A7E00D8
:1013DD00121DBA5380FE7F0A7E00121DBA0576E5F6
:1013ED007670020575C3940AE5756480948040B1EA
:1013FD0043B0087F0A7E00121DBA53B0F77F0A7EF4
:04140D0000021DBA02
:09252000AD07AC06E4FF0213470D
:09252900AD07AC067F0402134764
:09253200AD07AC067F050213475A
:09253B00AD07AC067F0602134750
:09254400AD07AC067F010213474C
:09254D00AD07AC067F0202134742
:09255600AD07AC067F0302134738
:10240F009028FDEDF0EFC313FF7A287BFD7D0102CD
:02241F0022E8B1
:1021B5009028FD7402F0A37480F07A287BFD7D02DF
:1021C5007F281222E8E49028FDF0A3F07A287BFD11
:0721D5007D027F280222E8D1
:1023D800E49028FDF0A3EFF07A287BFD7D027F3C96
:0323E8000222E8E6
:1023C4009028FD7440F0A3EFF07A287BFD7D027F16
:0423D4003C0222E8BD
:101770007FAE1223D87F041223D87F101223D87F84
:10178000401223D87FB01223D87F811223D87F80C4
:101790001223D87FA11223D87FA61223D87FA812A4
:1017A00023D87F3F1223D87FAD1223D87F8B1223FB
:1017B000D87F301223D87FC81223D87FD31223D8E2
:1017C000E4FF1223D87FD51223D87F801223D87F3D
:1017D000D91223D87F221223D87FDA1223D87F028E
:1017E0001223D87F8D1223D87F141223D87FDB12C7
:0C17F00023D87F401223D87FAF0223D8FB
:021E87008F7753
:101E8900E4FF1223D87F101223D8E4F579E57924E9
:101E9900B6FF1223D8E4FF1223D87F101223D8E407
:101EA900F578AF771223C40578E578C3946040F2DA
:091EB9000579E579C3940240D4D7
:011EC20022FD
:101D8E007FF47E01121DBA12257D7FF47E01121D95
:101D9E00BA1225817FF47E01121DBA1225857FF4B9
:0C1DAE007E01121DBA1225897FF47E010F
:101DBA00EF7803C333CE33CED8F9FFEF4E6007EF87
:071DCA001F70F81E80F522D6
:03259900C28422D7
:03259C00D28422C4
:03259F00C28322D2
:0325A200D28322BF
:0615FA001225A202259C4F
:1022710012259F7F127E00121DBA1225991225A2E6
:102281007F127E00121DBA12259C7F127E00021D54
:01229100BA92
:10242100E4FDFC1222710DBD00010CBC10F5BD20B4
:01243100F2B8
:012432002287
:0325A50002231FEF
:0325A80002159089
:1016B80085443C85433B85423A854139E53EB40142
:1016C80002C2B01225A5E540600302175C7522012D
:1016D800E47FE87E03FDFCAB3CAA3BA93AA839C3EA
:1016E800120B824061E5226401705B7FDD7E03128C
:1016F8001D05121A7CE53C2418F53CE53B34FCF545
:101708003BE53A34FFF53AE53934FFF539E4FFFEB5
:10171800FDE539FC7818120B9390E7C4EFF0E4FF6D
:10172800FEE53AFDE4FC7810120B93A3EFF0E4FF1A
:10173800E53BFEE4FDFC7808120B93A3EFF0E53CD3
:10174800FFA3EFF0808AE522B40112AE3BAF3C1252
:101758001D058009752201E522640160FA1225A899
:08176800E53EB40102D2B022FB
:1020E600AD07AC06D3ED9400EC9400401E00000052
:1020F600EE90E6D0F0000000ED90E6D1F000000092
:0C21060075BB04000000E5BB30E7FB22C5
:081EC3008C748D75AB07AA06B3
:101ECB00E4FDFCC3ED9575EC95745022EA90E6D0D9
:101EDB00F0000000EB90E6D1F000000075BB0500B0
:0E1EEB000000E5BB30E7FB0DBD00010C80D50B
:011EF90022C6
:10213D00AD07AC06000000ED25E0EC3390E6D0F0E5
:10214D00000000ED25E090E6D1F000000075BB0425
:09215D00000000E5BB30E7FB22A5
:10141100C20312242175470290E7C0E547F0121676
:10142100B875470390E7C0E547F03003030214D3D2
:10143100E4F572F573C3E5739528E5729527500DB0
:101441001222710573E57370EC057280E8E53DD3F6
:101451009400400CE53DFD7C00AF34AE33121EC359
:10146100D3E5249400E52394004007AF24AE231272
:10147100213DE4F570F571C3E571954FE570954E29
:10148100502C122112E4F572F573C3E5739535748E
:1014910080F8657298500D1222710573E57370EA38
:1014A100057280E60571E57170CD057080C9E4F5BE
:1014B10072F573C3E573954CE572954B500D12228D
:1014C100710573E57370EC057280E8AF46AE4512A5
:0214D10020E613
:0114D30022F6
:10211200000000E53425E0E5333390E6D0F000001E
:1021220000E53425E090E6D1F000000075BB040024
:0B2132000000E5BB20E7033003F822AB
:10238100E490E608F075C83443985053877FD2AC87
:0723910075CBFF75CA642241
:0D246D00309902C2998F993099FDC29922D1
:1021DC0090000020981CA3AF82AE83E4FCFD7BFA38
:1021EC007AFFF9F8C3120B6C5004D2008004C200C1
:0621FC0080E1C298AF99DA
:0122020022B9
:10216600E490E608F0D28E53897F5389BF438920D5
:102176005389EF438E10758DB243C05043D880C249
:08218600C0C2C1D2AED2AF22EB
:0E2304007400255CF58274FC355BF583E0FF08
:0D23120030C102C2C18FC130C1FDC2C12265
:1022030090000020C01CA3AF82AE83E4FCFD7BFAE8
:102213007AFFF9F8C3120B6C5004D2008004C20099
:0622230080E1C2C0AFC162
:012229002292
:04257D0075A009221A
:0425810075A001221E
:0425850075A0032218
:0425890075A0022215
:04258D0075A006220D
:0425910075A004220B
:101C6D007F587E02121DBA1225917F587E02121DD9
:101C7D00BA12258D7F587E02121DBA1225897F5802
:101C8D007E02121DBA1225857F587E02121DBA12D0
:101C9D0025817F587E02121DBA12257D7F587E0246
:0D1CAD00121DBA1225957F587E02121DBA35
:041CBA0075A00C22E3
:0425950075A0082203
:0D247A00E4F5A07525FF90E7CBE525F022E5
:101E0E00121D9512258D121DB6122591121DB61298
:101E1E001CBA121DB6122595121D8E12258D121D7D
:101E2E00B6122591121DB6121CBA121DB6122595A8
:0D1E3E00121DB6E4F52590E7CBE525F02256
:10159000122595121DB6121CBA121DB612259112F3
:1015A0001DB612258D121DAC122585121DB61225F1
:1015B00081121DB612257D121DB6122595121DB67B
:1015C000121CBA121DB6122591121DB612258D12CB
:1015D0001DAC122585121DB6122581121DB61225CD
:1015E0007D121DB6122595121DB6121CBA121DB61B
:0A15F00075250390E7CBE525F022F6
:10231F00121CB0121C6D121C6D7F587E02121DBA5A
:0A232F0075250190E7CBE525F022AB
:1020600012257D121DB6122581121DB6122585126C
:102070001DB6122589121D8E12257D121DB6122540
:0E20800081121DB675250290E7CBE525F022F2
:1018AB009028F5E004F070069028F4E004F09028FE
:1018BB00F4E07004A3E0640870069028F4F0A3F041
:1018CB009028F4E0FEA3E0FF4E700843A01053A055
:1018DB00DF805DEF64014E700543A0108009EF645B
:1018EB00024E700B53A0EF53A0DF43A0408055EF87
:1018FB0064034E700B53A0EF53A0DF43A040802036
:10190B00EF64044E700B53A0EF53A0DF53A0BF80C6
:10191B000FEF64054E700D53A0EF43A02053A0BFF3
:10192B0043A08022EF64064E700B53A0EF43A02020
:10193B0053A0BF800FEF64074E700C43A01043A061
:08194B002053A0BF53A07F222E
:10224F00E49028B2F0902922E0FF60156405601138
:10225F001218AB9028FBE004F070069028FAE00407
:02226F00F0225B
:101F6600902922E0FF602C640560289028FBE0049D
:101F7600F070069028FAE004F01218AB9028FAE008
:101F86007004A3E064A0700B9028FAF0A3F09029E7
:041F96002104F02210
:08256700E4F51DD2E9D2AF2218
:101F300090E678E020E6F9C2E990E678E04480F0A7
:101F4000EF25E090E679F090E678E030E0F990E671
:101F500078E04440F090E678E020E6F990E678E01A
:061F600030E1D6D2E922B7
:101FCE00A90790E678E020E6F9E51D702390E67803
:101FDE00E04480F0E925E090E679F08D18AF03A992
:101FEE00077519018A1A891BE4F51C751D01D32288
:021FFE00C322FC
:101F9A00A90790E678E020E6F9E51D702590E67835
:101FAA00E04480F0E925E0440190E679F08D18AF2D
:101FBA0003A9077519018A1A891BE4F51C751D0303
:041FCA00D322C32239
:03004B0002107B25
:10107B00C0E0C083C082C085C084C086758600C0B6
:10108B00D075D000C000C001C002C003C006C007AD
:10109B0090E678E030E206751D0602116590E67861
:1010AB00E020E10CE51D64026006751D0702116569
:1010BB00E51D24FE605F14603624FE70030211569A
:1010CB0024FC700302116224086003021165AB1942
:1010DB00AA1AA91BAF1C051C8F82758300120B1D4E
:1010EB0090E679F0E51C65187070751D05806B90A6
:1010FB00E679E0AB19AA1AA91BAE1C8E8275830088
:10110B00120B4A751D02E5186401704E90E678E0EB
:10111B004420F08045E51824FEB51C0790E678E0E6
:10112B004420F0E51814B51C0A90E678E04440F032
:10113B00751D0090E679E0AB19AA1AA91BAE1C8E9F
:10114B0082758300120B4A051C800F90E678E044F1
:10115B0040F0751D008003751D005391DFD007D043
:10116B0006D003D002D001D000D0D0D086D084D00E
:08117B0085D082D083D0E03260
:1022CC00121F9AE51D24FA600E146006240770F3A1
:0C22DC00D322E4F51DD322E4F51DD3222B
:1022E800121FCEE51D24FA600E146006240770F351
:0C22F800D322E4F51DD322E4F51DD3220F
:030000000219F0F2
:0C19F000787FE4F6D8FD758179021A3783
:100A2700E709F608DFFA8046E709F208DFFA803EB1
:100A370088828C83E709F0A3DFFA8032E309F6089E
:100A4700DFFA8078E309F208DFFA807088828C8306
:100A5700E309F0A3DFFA806489828A83E0A3F608BA
:100A6700DFFA805889828A83E0A3F208DFFA804C94
:100A770080D280FA80C680D4806980F2803380106B
:100A870080A680EA809A80A880DA80E280CA8033D4
:100A970089828A83ECFAE493A3C8C582C8CCC5834C
:100AA700CCF0A3C8C582C8CCC583CCDFE9DEE7801C
:100AB7000D89828A83E493A3F608DFF9ECFAA9F09B
:100AC700EDFB2289828A83ECFAE0A3C8C582C8CCF1
:100AD700C583CCF0A3C8C582C8CCC583CCDFEADE0A
:100AE700E880DB89828A83E493A3F208DFF980CC6C
:100AF70088F0EF60010E4E60C388F0ED2402B40465
:100B07000050B9F582EB2402B4040050AF2323450B
:060B17008223900A7773AF
:100B1D00BB010CE58229F582E5833AF583E022508D
:100B2D0006E92582F8E622BBFE06E92582F8E222D7
:0D0B3D00E58229F582E5833AF583E49322F1
:100B4A00F8BB010DE58229F582E5833AF583E8F0E1
:100B5A00225006E92582C8F622BBFE05E92582C88D
:020B6A00F22275
:100B6C00EB9FF5F0EA9E42F0E99D42F0EC6480C800
:060B7C0064809845F022A0
:100B8200EB9FF5F0EA9E42F0E99D42F0E89C45F0C9
:010B92002240
:100B9300E8600FECC313FCED13FDEE13FEEF13FF40
:030BA300D8F12264
:100BA600A8828583F0D083D082120BBD120BBD12B2
:100BB6000BBD120BBDE473E493A3C583C5F0C583D7
:100BC600C8C582C8F0A3C583C5F0C583C8C582C899
:010BD60022FC
:100BD700D083D082F8E4937012740193700DA3A3AD
:100BE70093F8740193F5828883E4737402936860C1
:060BF700EFA3A3A380DFC1
:1019FC00020BFDE493A3F8E493A34003F68001F2F9
:101A0C0008DFF48029E493A3F85407240CC8C333EB
:101A1C00C4540F4420C8834004F456800146F6DFBA
:101A2C00E4800B0102040810204080900F54E47EE7
:101A3C00019360BCA3FF543F30E509541FFEE493AF
:101A4C00A360010ECF54C025E060A840B8E493A376
:101A5C00FAE493A3F8E493A3C8C582C8CAC583CAA1
:101A6C00F0A3C8C582C8CAC583CADFE9DEE780BE59
:01107A000075
:00000001FF
