:0A198300000102020303040405053D
:1009FC00E4F564F563F562F561C203C200C202C29C
:100A0C0001120D427E127F008E0F8F107519127518
:100A1C001A12750D12750E1C751512751658751B5C
:100A2C0012751C71EE54E07003020B407565007575
:100A3C0066808E678F68C374AD9FFF74129ECF243F
:100A4C0002CF3400FEE48F608E5FF55EF55DF55CE1
:100A5C00F55BF55AF559AF60AE5FAD5EAC5DAB5C66
:100A6C00AA5BA95AA859C3120CF85026E566255C56
:100A7C00F582E565355BF58374CDF0E55C2401F515
:100A8C005CE4355BF55BE4355AF55AE43559F559B8
:100A9C0080C4E4F55CF55BF55AF559AF60AE5FAD1B
:100AAC005EAC5DAB5CAA5BA95AA859C3120CF8509A
:100ABC0031AE5BAF5CE5682FF582E5673EF583E010
:100ACC00FDE5662FF582E5653EF583EDF0EF24013B
:100ADC00F55CE43EF55BE4355AF55AE43559F559C5
:100AEC0080B985650F85661074002480FF741234FC
:100AFC00FFFEC3E51A9FF51AE5199EF519C3E51219
:100B0C009FF512E5119EF511C3E5149FF514E5133D
:100B1C009EF513C3E50E9FF50EE50D9EF50DC3E591
:100B2C00169FF516E5159EF515C3E51C9FF51CE5FE
:100B3C001B9EF51BD2E843D82090E668E04409F0F0
:100B4C0090E65CE0443DF0D2AFD288D28AC2A8C213
:100B5C00AA43E808D2FB90E680E020E105D2081217
:100B6C00167790E680E054F7F0538EF8C20330010C
:100B7C00051205FBC2013003291210FE5024C203DA
:100B8C0012174B20001690E682E030E704E020E1DB
:100B9C00EF90E682E030E604E020E0E41216A612C4
:070BAC0011FE12081F80C7B3
:1005FB0090E6B9E070030206AC14700302072924DD
:10060B00FE70030207AC24FB70030206A6147003F2
:10061B000206A01460731460762405600302080BB5
:10062B001219A1400302081790E6BBE024FE6022DA
:10063B0014603324FD601114602224067048E50F0A
:10064B0090E6B3F0E5108037E51990E6B3F0E51AC4
:10065B00802DE51190E6B3F0E5128023E51390E6CB
:10066B00B3F0E514801990E6BAE0FF1216D2AA0691
:10067B00A9077B01EA494B600DEE90E6B3F0EF90D2
:10068B00E6B4F002081702081012195502081712E7
:10069B00198D0208171219080208171219430208BC
:1006AB00171219A3400302081790E6B8E0247F60E5
:1006BB001514601924027063A200E43325E0FFA235
:1006CB0002E4334F8041E490E740F0803F90E6BC7A
:1006DB00E0547EFF7E00E0D394807C0040047D01DB
:1006EB0080027D00EC4EFEED4F2483F58274193EA3
:1006FB00F583E493FF3395E0FEEF24A1FFEE34E6A0
:10070B008F82F583E0540190E740F0E4A3F090E68C
:10071B008AF090E68B7402F0020817020810121987
:10072B00A5400302081790E6B8E024FE60162402E9
:10073B00600302081790E6BAE0B40105C200020894
:10074B001702081090E6BAE0705590E6BCE0547EB4
:10075B00FF7E00E0D394807C0040047D0180027D0D
:10076B0000EC4EFEED4F2483F58274193EF583E4C5
:10077B0093FF3395E0FEEF24A1FFEE34E68F82F575
:10078B0083E054FEF090E6BCE05480131313541F27
:10079B00FFE0540F2F90E683F0E04420F0806D8053
:1007AB00641219A7506690E6B8E024FE6019240283
:1007BB00705A90E6BAE0B40104D200804F90E6BACA
:1007CB00E064026047803E90E6BCE0547EFF7E0012
:1007DB00E0D394807C0040047D0180027D00EC4ED0
:1007EB00FEED4F2483F58274193EF583E493FF33BA
:1007FB0095E0FEEF24A1FFEE34E68F82F5838008AF
:10080B00120080500790E6A0E04401F090E6A0E0D3
:03081B004480F026
:01081E0022B7
:03005B0002144745
:09144700C0E0C0D075D000C00760
:10145000AF91530780EF6480705453917FE55064DF
:10146000016048E54FB40124E54AB40109752C3008
:10147000754F00752D01D3E53794E0E536940150A2
:1014800003754A01753600753700801FE54FB402B9
:101490001AE54DB40115052CE52CB43A03752C3032
:0E14A000E52CB52E06754F00754D00755000F9
:0714AE00D007D0D0D0E032DE
:030003000213D114
:1013D100C0E0C083C082C0D075D000C004C005C0C9
:1013E10006C00790E6017443F0E54E7041053EE505
:1013F1003EB4090375380190F00074AAF0A374118A
:10140100F0A374CCF0A374EEF090E690E4F090E6D3
:10141100917405F0300419AF3CAE3BAD3AAC398F55
:101421000C8E0B8D0A8C0975080FD2078002154EA0
:10143100A283B39283D007D006D005D004D0D0D0F8
:0614410082D083D0E032EE
:03000B000212AF2F
:1012AF00C0E0C0F0C083C082C0D075D000C000C005
:1012BF0001C002C003C004C005C006C00785278C4B
:1012CF0085288AE5086016D2831508E508704C90CA
:1012DF00E600E054FDF0000000C283803E30073B83
:1012EF00AF0CAE0BAD0AAC09EF24FFF50CEE34FFDB
:1012FF00F50BED34FFF50AEC34FFF509E4FFFEFDC5
:10130F00FCAB0CAA0BA90AA809C3120CF8700CC2EB
:10131F000790E600E04402F0000000D007D006D0AE
:10132F0005D004D003D002D001D000D0D0D082D0CD
:06133F0083D0F0D0E03283
:0300330002199D12
:04199D0053D8EF32FA
:1014B5000127D101284A014400043900000000C178
:1014C50007C104012B00044500000000043F000093
:1014D50000000143BA014FFF012EFF012C300236F7
:1014E5000000045400000000024B0000042300002B
:1014F500000004320000C35002290064014A0001C3
:0F1505002D00014D00013E00013800022F0000B3
:1018C60085278C85288AE58954F04401F589438E5D
:0618D60008D28CD2A92209
:06186600C2817F647E00D8
:10186C00EF25E0FFEE33FEEF4E6007EF1F70F81E22
:03187C0080F522D2
:1017F400AD07AC06ED4C60147F957E0012186C00AA
:0D1804000000000000ED1D70EB1C80E822CC
:1017B60090E6187408F000000090E619F0000000AA
:0F17C60090E61AF000000090E61BF000000022F1
:1017D50090E6187409F000000090E619F00000008A
:0F17E50090E61AF000000090E61BF000000022D2
:0E196700902013EDF07D137B017A0002184AE8
:100D420090E6007412F090E60B7403F0000000903D
:100D5200E6047480F00000007402F00000007404E5
:100D6200F00000007406F00000007408F0000000BB
:100D7200E4F000000000000090E61274E8F00000C9
:100D820000E490E613F000000090E614F00000008A
:100D920090E615F000000090E6187408F0000000DC
:100DA20090E619F000000090E61AF000000090E6CC
:100DB2001BF000000090E6097404F000000090E6C9
:100DC20070E04401F0000000E490E672F0000000E0
:100DD20090E6207402F0000000E490E621F00000AA
:100DE2000090E602F000000090E603F090E6017445
:100DF20043F000000090E61174A0F000000090E6BD
:100E02005EE04404F000000090E68F7440F00000C1
:100E12000090E61074A0F000000090E65EE0440846
:100E2200F0000000E490E68DF043AF01D20043B23F
:100E32000843B20275B6FF75B1F075B4FF12199589
:100E4200121866D2811218C67570207571337B0232
:100E52007D107FA0121726902033E0F553A3E0F512
:100E620031E55364066005E553B40705754320D2A6
:100E720006E4F54ED28375500153A0F043A04043DF
:100E8200E808754F01902013F07A207B137D017FD3
:040E92004802184AB0
:0E197500EF2401FBE43EFA7D027F4802182EAB
:10191D00851E82851D83EFF0AB1EAA1D7D017F21E3
:03192D0002184A53
:10193000857A82857983EFF0AB7AAA797D017F275A
:0319400002184A40
:10151500E544D39400401A753DFF43A080E544138C
:10152500FFC3747F9FF569E544B4010C75697F803D
:1015350007E544700353A07F7EE77FC012197590BD
:1015450020137402F0A37480F07A207B137D027F50
:101555002812184AE4902013F0A3E569F07A207B5D
:08156500137D027F2802184AE1
:10081F00E5572401F557E43556F556E43555F555AA
:10082F00E43554F554054CE54C7002054BAF35AE2D
:10083F0034AD33AC32AB57AA56A955A854C3120CDA
:10084F00F8700C121515E4F557F556F555F554904B
:10085F00E7C8E54FF0A3E52CF0A3E538F0E54CB57C
:10086F002A28E54BB52923E54F601124FE600804C3
:10087F0070131218AF800E121793800953B10F53D4
:10088F00A0BF43A00FE4F54BF54CE52B6401703688
:10089F00FFFEFDE545FC7818120D0990E7C4EFF057
:1008AF00E4FFFEE546FDE4FC7810120D09A3EFF01E
:1008BF00E4FFE547FEE4FDFC7808120D09A3EFF015
:1008CF00E548FFA3EFF0E52B640260030209FBFF8D
:1008DF00FEFDE545FC7818120D0990E7C4EFF0E432
:1008EF00FFFEE546FDE4FC7810120D09A3EFF0E4DE
:1008FF00FFE547FEE4FDFC7808120D09A3EFF0E5D4
:10090F0048FFA3EFF0C2832080FD7F057E00121108
:10091F00B890E600E054FDF0E4F526F525F524F552
:10092F002385484285474185464085453FE47F649E
:10093F00FEFDFCAB42AA41A940A83FD3120CF850D0
:10094F00030209E07F647E001211B8E542249CF592
:10095F0042E54134FFF541E54034FFF540E53F34D2
:10096F00FFF53FE4FFFEFDE53FFC7818120D0990FF
:10097F00E7C4EFF0E4FFFEE540FDE4FC7810120D54
:10098F0009A3EFF0E4FFE541FEE4FDFC7808120D4A
:10099F0009A3EFF0E542FFA3EFF0E47F0AFEFDFCB1
:1009AF00AB26AA25A924A823C3120CF8700BF52691
:1009BF00F525F524F523121515E5262401F526E472
:1009CF003525F525E43524F524E43523F5230209EF
:1009DF003CAE41AF421211B890E6017440F090E680
:0D09EF0000E04402F0D2A8C283E4F52B2200
:0210FE00D322FB
:0211FE00D322FA
:0219A100D3224F
:1019080090E680E030E704D2058002C20590E6BA8E
:05191800E0F549D322B7
:1019430090E740E549F0E490E68AF090E68B04F0F6
:02195300D3229D
:08198D0090E6BAE0F522D32236
:1019550090E740E522F0E490E68AF090E68B04F00B
:02196500D3228B
:0219A300D3224D
:0219A500D3224B
:0219A700D32249
:1000800090E6B9E0120D1C00C7B300EBB70131B820
:100090000192B901B0BB0269BD02ABBF02BAC00296
:1000A000EDC10409C2044CC50467C6048EC804B57A
:1000B000C90538CA0565CB05B8CD05E7CF0348D0DB
:1000C00003F1D1000005F7C2A890E6017440F000EA
:1000D000000090E6047480F00000007402F000005C
:1000E00000E4F0000000D2A80205D790E6BDE0FED3
:1000F00090E6BCE07C002400F56AEC3EF569200641
:1001000017AD6A90E6BEE0FB7EE77570E77571405B
:10011000AF4312172602055490E6BEE0FB7EE7755A
:1001200071E7757240AD6AAC69AF431216FE020505
:1001300054E490E68AF090E68BF090E6A0E020E1AF
:10014000F9E4F56BF56CAF6C74402FF582E434E79D
:10015000F583E0FE74002FF582E43420F583EEF0A1
:10016000056CE56C7002056B6413456B70D89020CC
:1001700000E07003120000902000E0B401031200C0
:1001800000902000E0640260030205F91200000202
:1001900005F9E490E68AF090E68BF090E6A0E02086
:1001A000E1F9E543C313FF7AE77B407D030205B322
:1001B000E490E68AF090E68BF090E6A0E020E1F98A
:1001C00020063B78137C207D017B017AE679BC7E9A
:1001D000007F01120C8390E6BEE0FF7E0078147C65
:1001E000207D017B017AE77940120C83E543C3133C
:1001F000FF90E6BEE004FD7A207B130205B390E693
:10020000BDE0FE90E6BCE07C002400FFEC3EFEBEBC
:100210003E08BFE405E4F538F53E78137C207D0107
:100220007B017AE679BD7E007F01120C8378147C15
:10023000207D017B017AE679BC7E007F01120C8370
:1002400090E6BEE0FF7E0078157C207D017B017A80
:10025000E77940120C83E543C313FF90E6BEE02428
:1002600002FD7A207B130205B3E490E68AF090E663
:100270008BF090E6A0E020E1F990E740E0FCA3E0FD
:10028000FDA3E0FEA3E0F53C8E3B8D3A8C39E4FF04
:10029000FEFDFCAB3CAA3BA93AA839C3120CF8708E
:1002A00005C20402032BD20402032BE4F508C207A3
:1002B00090E600E04402F000000090E6BAE030E092
:1002C0001190E6BCE05490C4540FFFE5B154F64FD2
:1002D000F5B190E6BAE030E11190E6BCE05460C4BC
:1002E000540FFFE5B154F94FF5B10205ECE490E687
:1002F0008AF090E68BF090E6A0E020E1F990E740EC
:10030000E0FCA3E0FDA3E0FEA3E0F53C8E3B8D3ACC
:100310008C39E4FFFEFDFCAB3CAA3BA93AA839C3EB
:10032000120CF87004C2048002D204E4F508C2077B
:10033000754E0190E600E04402F0000000E490E613
:100340008AF00000000205F1E490E68AF090E68B66
:10035000F090E6A0E020E1F990E68BE0756B00F507
:100360006CC29890E740E0C394304006E0D39438E4
:10037000400A90E740E0F460030205F9E54F6003AE
:100380000205F990E740E0B4FF1253A0F043A0400B
:10039000755001754F01E4F54A0205F990E740E018
:1003A000F52E652C70030205F953A0F043A040E43C
:1003B000F54DE0B40A03752E6190E740E0B40B03FD
:1003C000752E6290E740E0B40C03752E6390E74011
:1003D000E0B40D03752E6490E740E0B40E03752E73
:1003E0006590E740E0B40F03752E66754F02020575
:1003F000F990E740E52DF0000000E490E68AF00077
:10040000000090E68B040205E190E74074F1F0A350
:10041000740EF0E4A3F0A3F0A3F0A20633A3F0A3BC
:10042000E531F0A3E543F0A3E553F0300505E4A37F
:10043000F0800690E74974FFF0000000E490E68A3F
:10044000F000000090E68B740A0205E17EE77F4031
:10045000121975000000E490E68AF000000090E6B2
:100460008B7404F00205F9E490E68AF090E68BF0D4
:1004700090E6A0E020E1F990E740E0FD7F4E121900
:100480006790E741E0FD7F421219670205F9E490A9
:10049000E68AF090E68BF090E6A0E020E1F990E7A4
:1004A00040E014600C14600B240260030205F98024
:1004B000258041805FE490E68AF090E68BF090E63C
:1004C000A0E020E1F990E740E014602814604524A2
:1004D0000260030205F97527F475285390E600744D
:1004E00002F0E47535507534C3F533F532F52975EE
:1004F0002A19803E7527E87528A590E600740AF051
:100500007535A0753486753301753200752900750F
:100510002A32801E7527D175284A90E6007412F0A1
:1005200075354075340D75330375320075290075C6
:100530002A641219950205F990E6BCE0756900F588
:100540006AFD90E6BEE0FB7EE77570E77571407F5F
:10055000A0121726E490E68AF000000090E6BEE0C4
:1005600090E68B807CE490E68AF090E68BF090E653
:10057000A0E020E1F990E6BCE0D39407407B78133B
:100580007C207D017B017AE679BC7E007F01120C24
:100590008390E6BEE0FF7E0078147C207D017B0125
:1005A0007AE77940120C8390E6BEE004FD7A207B66
:1005B000137F5012184A8041E490E68AF090E68B4F
:1005C000F090E6A0E020E1F990E740E07005121716
:1005D000B680031217D5E490E68AF000000090E69A
:1005E0008BF00000008012121866D281E490E68A37
:0A05F000F090E68BF08002D322C3E6
:0105FA0022DE
:10187F00C0E0C083C082D2015391EF90E65D740146
:08188F00F0D082D083D0E032DA
:1018DC00C0E0C083C0825391EF90E65D7404F0D0F9
:0618EC0082D083D0E0323F
:1018F200C0E0C083C0825391EF90E65D7402F0D0E5
:0619020082D083D0E03228
:10156D00C0E0C083C08290E680E030E70E850D11AB
:10157D00850E12851513851614800C85151185168B
:10158D0012850D13850E145391EF90E65D7410F0D6
:07159D00D082D083D0E032C0
:10189700C0E0C083C082D2035391EF90E65D740825
:0818A700F0D082D083D0E032C2
:1015A400C0E0C083C08290E680E030E70E850D1174
:1015B400850E12851513851614800C851511851654
:1015C40012850D13850E145391EF90E65D7420F08F
:0715D400D082D083D0E03289
:0119A900320B
:0119AA00320A
:0119AB003209
:0119AC003208
:10177000C0E0C083C08200000090E68F7440F0009B
:1017800000005391EF90E65FE04404F0D082D083F4
:03179000D0E03274
:100F9E00C0E0C083C082C0D075D000C004C005C000
:030FAE0006C00773
:100FB10090E6A1E020E1F990E780E014601324F1CC
:100FC100601D14603114605E241360031470688026
:100FD1005A90E782E0F53D90E781E0F54480589032
:100FE100E781E0FCA3E0FDA3E0FEA3E0F5488E4726
:100FF1008D468C458041752B01C2A8D28390E600B5
:10100100E04402F000000090E6017440F0000000AE
:1010110090E6047480F00000007402F0000000E427
:10102100F00000008011752B02800C75426475413F
:1010310000754000753F0000000090E68DE4F0531C
:0910410091EF90E65FE04408F035
:10104A00D007D006D005D004D0D0D082D083D0E04B
:01105A003263
:0119AD003207
:0119AE003206
:0119AF003205
:0119B0003204
:0119B1003203
:0119B2003202
:0119B3003201
:0119B4003200
:0119B50032FF
:0119B60032FE
:0119B70032FD
:0119B80032FC
:0119B90032FB
:0119BA0032FA
:0119BB0032F9
:0119BC0032F8
:0119BD0032F7
:0119BE0032F6
:0119BF0032F5
:0119C00032F4
:0119C10032F3
:0119C20032F2
:0119C30032F1
:0119C40032F0
:0119C50032EF
:0119C60032EE
:0119C70032ED
:0119C80032EC
:0119C90032EB
:0119CA0032EA
:041726008F6D8B6FC9
:10172A00902035EDF0E56DC313FF7A207B357D01FE
:10173A0012184AE56DC313FFAB71AA70AD6F021898
:01174A002E70
:0416FE008F6D8B70F1
:10170200EC902035F0EDA3F0E56DC313FF7A207B5A
:10171200357D0212184AE56DC313FFAB72AA71AD93
:041722007002182E0B
:10181100A907EC902013F0EDA3F0EAA3F0EBA3F0FD
:0D182100E9C313FF7A207B137D0402184AEF
:10105B000530E5307002052F6408452F7004F52F1D
:10106B00F530E530452F700843B12053B1EF80695F
:10107B00E5306401452F700543B120800BE53064EA
:10108B0002452F700B53B1DF53B1EF43B140805F7B
:10109B00E5306403452F700B53B1DF53B1EF43B110
:1010AB00408024E5306404452F700B53B1DF53B1FE
:1010BB00EF53B1BF8011E5306405452F700D53B16F
:1010CB00DF43B11053B1BF43B18022E53064064515
:1010DB002F700B53B1DF43B11053B1BF8011E5300B
:1010EB006407452F700C43B12043B11053B1BF536C
:0310FB00B17F22A0
:1018AF00E4F52DE54F600F6405600B12105B0537F3
:0718BF00E537700205362237
:10179300E54F601E6405601A0537E53770020536AC
:1017A30012105BE53764A045367007F536F53775DB
:0317B3004D0122C3
:10120000120100020000004018163109000001021E
:1012100000010A06000200000040010009023C0033
:1012200001010080FA0904000006FF000000070524
:101230008202000200070501020002000705020207
:1012400000020007050602000200070581020002F5
:101250000007058602000200090219000101008052
:10126000FA0904000001FF000000070582024000A7
:10127000000403090414035100480043002D0043F7
:10128000004300440020002000240351004800597E
:10129000002D006D0069006E006900430061006D63
:0F12A0000035002000200020002000200000006A
:1016A60090E682E030E004E020E60B90E682E0304F
:1016B600E119E030E71590E680E04401F07F147E02
:0C16C600001211B890E680E054FEF02203
:10174B0090E682E044C0F090E681F0438701000010
:04175B000000002268
:1016770030080990E680E0440AF0800790E680E0B1
:101687004408F07FDC7E051211B890E65D74FFF028
:0F16970090E65FF05391EF90E680E054F7F02279
:1011B8008E698F6A90E600E054187012E56A24017F
:1011C800FFE43569C313F569EF13F56A801590E6F6
:1011D80000E05418FFBF100BE56A25E0F56AE569E1
:1011E80033F569E56A156AAE69700215694E6005DE
:0611F80012175F80EE22D9
:08199500E4F578D2E9D2AF229B
:1015DB0090E678E020E6F9C2E990E678E04480F006
:1015EB00EF25E090E679F090E678E030E0F990E6D0
:1015FB0078E04440F090E678E020E6F990E678E079
:06160B0030E1D6D2E92215
:10164500A90790E678E020E6F9E578702390E6783A
:10165500E04480F0E925E090E679F08D73AF03A9C9
:10166500077574018A758976E4F577757801D32253
:02167500C3228E
:10161100A90790E678E020E6F9E578702590E6786C
:10162100E04480F0E925E0440190E679F08D73AF64
:1016310003A9077574018A758976E4F577757803CE
:04164100D322C322CB
:03004B00020E960C
:100E9600C0E0C083C082C085C084C086758600C09D
:100EA600D075D000C000C001C002C003C006C00794
:100EB60090E678E030E206757806020F8090E678D4
:100EC600E020E10CE57864026006757807020F8081
:100ED600E57824FE605F14603624FE7003020F710D
:100EE60024FC7003020F7D24086003020F80AB749C
:100EF600AA75A976AF7705778F82758300120CA93C
:100F060090E679F0E57765737070757805806B907B
:100F1600E679E0AB74AA75A976AE778E8275830002
:100F2600120CD6757802E5736401704E90E678E08F
:100F36004420F08045E57324FEB5770790E678E017
:100F46004420F0E57314B5770A90E678E04440F063
:100F560075780090E679E0AB74AA75A976AE778EBF
:100F660082758300120CD60577800F90E678E044F0
:100F760040F075780080037578005391DFD007D074
:100F860006D003D002D001D000D0D0D086D084D0F5
:080F960085D082D083D0E03247
:0216D200A90766
:1016D400AE1BAF1C8F828E83A3E064037017AD0131
:1016E40019ED7001228F828E83E07C002FFDEC3E89
:0916F400FEAF0580DF7E007F00DF
:0116FD0022CA
:10182E00121611E57824FA600E146006240770F380
:0C183E00D322E4F578D322E4F578D3221D
:10184A00121645E57824FA600E146006240770F330
:0C185A00D322E4F578D322E4F578D32201
:10175F007400F58690FDA57C05A3E582458370F99D
:01176F002257
:03004300021100A7
:0300530002110097
:1011000002187F000218F2000218DC000218970093
:1011100002156D000215A4000219A9000219AA0007
:101120000219AB000219AC0002177000020F9E00FA
:101130000219AD000219AE000219AF000219B00089
:101140000219B1000219AA000219B2000219B30073
:101150000219B4000219B5000219B6000219B7004D
:101160000219B8000219AA000219AA000219AA005D
:101170000219B9000219BA000219BB000219BC0019
:101180000219BD000219BE000219BF000219C000F9
:101190000219C1000219C2000219C3000219C400D9
:1011A0000219C5000219C6000219C7000219C800B9
:0811B0000219C9000219CA006E
:03000000021345A3
:0C134500787FE4F6D8FD75817A02138CE5
:100BB300E709F608DFFA8046E709F208DFFA803E24
:100BC30088828C83E709F0A3DFFA8032E309F60811
:100BD300DFFA8078E309F208DFFA807088828C8379
:100BE300E309F0A3DFFA806489828A83E0A3F6082D
:100BF300DFFA805889828A83E0A3F208DFFA804C07
:100C030080D280FA80C680D4806980F280338010DD
:100C130080A680EA809A80A880DA80E280CA803346
:100C230089828A83ECFAE493A3C8C582C8CCC583BE
:100C3300CCF0A3C8C582C8CCC583CCDFE9DEE7808E
:100C43000D89828A83E493A3F608DFF9ECFAA9F00D
:100C5300EDFB2289828A83ECFAE0A3C8C582C8CC63
:100C6300C583CCF0A3C8C582C8CCC583CCDFEADE7C
:100C7300E880DB89828A83E493A3F208DFF980CCDE
:100C830088F0EF60010E4E60C388F0ED2402B404D7
:100C93000050B9F582EB2402B4040050AF2323457E
:060CA3008223900C037394
:100CA900BB010CE58229F582E5833AF583E0225000
:100CB90006E92582F8E622BBFE06E92582F8E2224A
:0D0CC900E58229F582E5833AF583E4932264
:100CD600F8BB010DE58229F582E5833AF583E8F054
:100CE600225006E92582C8F622BBFE05E92582C800
:020CF600F222E8
:100CF800EB9FF5F0EA9E42F0E99D42F0E89C45F052
:010D080022C8
:100D0900E8600FECC313FCED13FDEE13FEEF13FFC8
:030D1900D8F122EC
:100D1C00D083D082F8E4937012740193700DA3A366
:100D2C0093F8740193F5828883E47374029368607A
:060D3C00EFA3A3A380DF7A
:101351000209FCE493A3F8E493A34003F68001F2AD
:1013610008DFF48029E493A3F85407240CC8C3339D
:10137100C4540F4420C8834004F456800146F6DF6C
:10138100E4800B01020408102040809014B5E47E33
:10139100019360BCA3FF543F30E509541FFEE49361
:1013A100A360010ECF54C025E060A840B8E493A328
:1013B100FAE493A3F8E493A3C8C582C8CAC583CA53
:1013C100F0A3C8C582C8CAC583CADFE9DEE780BE0B
:0115140000D6
:00000001FF
