:0A1C190000010202030304040505A4
:100CE000E4F567F566F565F564C203C200C202C2A9
:100CF00001120E977E157F008E0F8F1075191575D6
:100D00001A12750D15750E1C751515751658751B6F
:100D100015751C71EE54E07003020E2475680075A1
:100D200069808E6A8F6BC374AD9FFF74159ECF244C
:100D300002CF3400FEE48F638E62F561F560F55FEB
:100D4000F55EF55DF55CAF63AE62AD61AC60AB5F67
:100D5000AA5EA95DA85CC3120A5D5026E569255FFD
:100D6000F582E568355EF58374CDF0E55F2401F525
:100D70005FE4355EF55EE4355DF55DE4355CF55CBC
:100D800080C4E4F55FF55EF55DF55CAF63AE62AD22
:100D900061AC60AB5FAA5EA95DA85CC3120A5D503E
:100DA00031AE5EAF5FE56B2FF582E56A3EF583E01D
:100DB000FDE5692FF582E5683EF583EDF0EF24014E
:100DC000F55FE43EF55EE4355DF55DE4355CF55CCC
:100DD00080B985680F85691074002480FF7415340C
:100DE000FFFEC3E51A9FF51AE5199EF519C3E51232
:100DF0009FF512E5119EF511C3E5149FF514E51357
:100E00009EF513C3E50E9FF50EE50D9EF50DC3E5AA
:100E1000169FF516E5159EF515C3E51C9FF51CE517
:100E20001B9EF51BD2E843D82090E668E04409F009
:100E300090E65CE0443DF0D2AFD288D28AC2A8C22C
:100E4000AA43E808D2FB90E680E020E105D2081230
:100E5000194C90E680E054F7F0538EF8C20330014D
:100E6000051206BEC2013003291214FE5024C2032B
:100E70001219F820001690E682E030E704E020E145
:100E8000EF90E682E030E604E020E0E412197B1205
:070E90001C37120AFC80C7A9
:1006BE0090E6B9E0700302076F1470030207EC2492
:1006CE00FE700302086F24FB7003020769147003A7
:1006DE00020763146073146076240560030208CE6B
:1006EE00121C3940030208DA90E6BBE024FE6022B9
:1006FE0014603324FD601114602224067048E50F47
:10070E0090E6B3F0E5108037E51990E6B3F0E51A00
:10071E00802DE51190E6B3F0E5128023E51390E607
:10072E00B3F0E514801990E6BAE0FF1219A7AA06F5
:10073E00A9077B01EA494B600DEE90E6B3F0EF900E
:10074E00E6B4F00208DA0208D3121BDB0208DA1252
:10075E001C230208DA121B7B0208DA121BC90208DC
:10076E00DA121C3B40030208DA90E6B8E0247F6000
:10077E001514601924027063A200E43325E0FFA271
:10078E0002E4334F8041E490E740F0803F90E6BCB6
:10079E00E0547EFF7E00E0D394807C0040047D0117
:1007AE0080027D00EC4EFEED4F2419F582741C3E46
:1007BE00F583E493FF3395E0FEEF24A1FFEE34E6DC
:1007CE008F82F583E0540190E740F0E4A3F090E6C9
:1007DE008AF090E68B7402F00208DA0208D3121C3B
:1007EE003D40030208DA90E6B8E024FE60162402CB
:1007FE0060030208DA90E6BAE0B40105C20002080E
:10080E00DA0208D390E6BAE0705590E6BCE0547E6A
:10081E00FF7E00E0D394807C0040047D0180027D49
:10082E0000EC4EFEED4F2419F582741C3EF583E468
:10083E0093FF3395E0FEEF24A1FFEE34E68F82F5B1
:10084E0083E054FEF090E6BCE05480131313541F63
:10085E00FFE0540F2F90E683F0E04420F0806D808F
:10086E0064121C3F506690E6B8E024FE6019240224
:10087E00705A90E6BAE0B40104D200804F90E6BA06
:10088E00E064026047803E90E6BCE0547EFF7E004E
:10089E00E0D394807C0040047D0180027D00EC4E0C
:1008AE00FEED4F2419F582741C3EF583E493FF335D
:1008BE0095E0FEEF24A1FFEE34E68F82F5838008EB
:1008CE00120080500790E6A0E04401F090E6A0E010
:0308DE004480F063
:0108E10022F4
:03005B00020FEFA2
:0F0FEF00C0E0C083C082C0D075D000C006C0076C
:100FFE00AF91530780EF6480600302111853917F05
:10100E00E55564017003021115E55464017048D36F
:10101E00E53A9464E5399400500302111590203797
:10102E00E551F0A3E552F0D39464E5519400401ECF
:10103E00D3E55294DCE55194005013E53A948AE5D9
:10104E003994025009752C01755400752D0185399E
:10105E0051853A5202110FE55464027065C3E53AA8
:10106E009464E53994004048D3E53A9464E53994A4
:10107E00004010D3E53A94DCE53994005005752C08
:10108E00008027D3E53A94DCE5399400400FD3E590
:10109E003A9452E53994035004052C800DD3E53A69
:1010AE009452E53994034008052C753900753A00C1
:1010BE00E52C652F7002E52E704DF554F539F53A95
:1010CE008045E554B40540D3E53A9401E5399400E2
:1010DE004035E53825E0FFE53733FE74352FF582D0
:1010EE0074203EF583E539F0A3E53AF00538E5388E
:1010FE0070020537052CE52CB41406755400752CBA
:0A110E0000753900753A00755500B0
:0D111800D007D006D0D0D082D083D0E032F6
:030003000217746D
:10177400C0E0C083C082C0D075D000C004C005C022
:1017840006C00790E6017443F0E55370410541E556
:1017940041B40903753B0190F00074AAF0A37411DD
:1017A400F0A374CCF0A374EEF090E690E4F090E62D
:1017B400917405F0300419AF3FAE3EAD3DAC3C8FA3
:1017C4000C8E0B8D0A8C0975080FD20780021553F5
:1017D400A283B39283D007D006D005D004D0D0D052
:0617E40082D083D0E03248
:03000B0002165288
:10165200C0E0C0F0C083C082C0D075D000C000C05E
:1016620001C002C003C004C005C006C00785278CA4
:1016720085288AE5086016D2831508E508704C9023
:10168200E600E054FDF0000000C283803E30073BDC
:10169200AF0CAE0BAD0AAC09EF24FFF50CEE34FF34
:1016A200F50BED34FFF50AEC34FFF509E4FFFEFD1E
:1016B200FCAB0CAA0BA90AA809C3120A5D700CC2E2
:1016C2000790E600E04402F0000000D007D006D008
:1016D20005D004D003D002D001D000D0D0D082D027
:0616E20083D0F0D0E032DD
:03003300021C3379
:041C330053D8EF3261
:10122D00608020350000000000000000000000007C
:10123D0000000000000000000000000000000000A1
:10124D000000000000000000000000000000000091
:10125D000000000000000000000000000000000081
:10126D000000000000000000000000000000000071
:10127D000000000000000000000000000000000061
:10128D000000000000000000000000000000000051
:10129D000000000000000000000000000000000041
:1012AD0000000000023700000127D101284A014744
:1012BD0000043C00000000C107C104012B000448DC
:1012CD00000000000442000000000146BA0154FF76
:1012DD00022EFFFF012C30023900000251000004E4
:1012ED005700000000024E0000042300000000041F
:1012FD00330000C35002290064014D00012D00018F
:0C130D005000014100013B0002300000D4
:101B390085278C85288AE58954F04401F589438EE7
:061B490008D28CD2A92293
:061AF000C2817F647E004C
:101AF600EF25E0FFEE33FEEF4E6007EF1F70F81E96
:031B060080F52245
:101A7E00AD07AC06ED4C60147F957E00121AF60091
:0D1A8E000000000000ED1D70EB1C80E82240
:101A400090E6187408F000000090E619F00000001D
:0F1A500090E61AF000000090E61BF00000002264
:101A5F0090E6187409F000000090E619F0000000FD
:0F1A6F0090E61AF000000090E61BF00000002245
:0E1BFD00902013EDF07D137B017A00021AD4C4
:100E970090E6007412F090E60B7403F000000090E7
:100EA700E6047480F00000007402F000000074048F
:100EB700F00000007406F00000007408F000000065
:100EC700E4F000000000000090E61274E8F0000073
:100ED70000E490E613F000000090E614F000000034
:100EE70090E615F000000090E6187408F000000086
:100EF70090E619F000000090E61AF000000090E676
:100F07001BF000000090E6097404F000000090E672
:100F170070E04401F0000000E490E672F000000089
:100F270090E6207402F0000000E490E621F0000053
:100F37000090E602F000000090E603F090E60174EE
:100F470043F000000090E61174A0F000000090E666
:100F57005EE04404F000000090E68F7440F000006B
:100F67000090E61074A0F000000090E65EE04408F0
:100F7700F0000000E490E68DF043AF01D20043B2E9
:100F87000843B20275B6FF75B1F075B4FF121C2B9A
:100F9700121AF0D281121B397575207576337B02D0
:100FA7007D107FA01219D3902033E0F556A3E0F50A
:100FB70032E55664066005E556B40705754620D246
:100FC70006E4F553D283755501F539F53A53A0F088
:100FD70043A04043E808755401902013F07A207B22
:080FE700137D017F48021AD4BA
:0E1C0B00EF2401FBE43EFA7D027F48021AB886
:101B9000851E82851D83EFF0AB1EAA1D7D017F216E
:031BA000021AD452
:101BA300857F82857E83EFF0AB7FAA7E7D017F27D1
:031BB300021AD43F
:1017EA00E547D39400401A7540FF43A080E54713AC
:1017FA00FFC3747F9FF56CE547B4010C756C7F805D
:10180A0007E547700353A07F7EE77FC0121C0B9049
:10181A0020137402F0A37480F07A207B137D027F78
:10182A0028121AD4E4902013F0A3E56CF07A207BF6
:08183A00137D027F28021AD47D
:100AFC00E55A2401F55AE43559F559E43558F558B9
:100B0C00E43557F557054FE54F7002054EAF36AE3D
:100B1C0035AD34AC33AB5AAA59A958A857C3120AED
:100B2C005D700C1217EAE4F55AF559F558F5579023
:100B3C00E7C8E554F0A3E52CF0A3E53BF0E54F65E1
:100B4C002A7004E54E65297028E554601624FE6071
:100B5C000D24FD600924047013121BB6800E121BA9
:100B6C00ED800953B10F53A0BF43A00FE4F54EF530
:100B7C004FE52B64017036FFFEFDE548FC7818123A
:100B8C000A6E90E7C4EFF0E4FFFEE549FDE4FC7863
:100B9C0010120A6EA3EFF0E4FFE54AFEE4FDFC78C8
:100BAC0008120A6EA3EFF0E54BFFA3EFF0E52B6400
:100BBC00026003020CDFFFFEFDE548FC7818120A08
:100BCC006E90E7C4EFF0E4FFFEE549FDE4FC78101D
:100BDC00120A6EA3EFF0E4FFE54AFEE4FDFC780890
:100BEC00120A6EA3EFF0E54BFFA3EFF0C283208057
:100BFC00FD7F057E001214B890E600E054FDF0E491
:100C0C00F526F525F524F523854B45854A4485497C
:100C1C0043854842E47F64FEFDFCAB45AA44A943EE
:100C2C00A842D3120A5D5003020CC47F647E0012EA
:100C3C0014B8E545249CF545E54434FFF544E543FB
:100C4C0034FFF543E54234FFF542E4FFFEFDE54297
:100C5C00FC7818120A6E90E7C4EFF0E4FFFEE5434F
:100C6C00FDE4FC7810120A6EA3EFF0E4FFE544FEFD
:100C7C00E4FDFC7808120A6EA3EFF0E545FFA3EF44
:100C8C00F0E47F0AFEFDFCAB26AA25A924A823C309
:100C9C00120A5D700BF526F525F524F5231217EADB
:100CAC00E5262401F526E43525F525E43524F5243F
:100CBC00E43523F523020C20AE44AF451214B89052
:100CCC00E6017440F090E600E04402F0D2A8C28342
:040CDC00E4F52B22EE
:0214FE00D322F7
:021C3700D322B6
:021C3900D322B4
:101B7B0090E680E030E704D2058002C20590E6BA19
:051B8B00E0F54CD3223F
:101BC90090E740E54CF0E490E68AF090E68B04F06B
:021BD900D32215
:081C230090E6BAE0F522D3229D
:101BDB0090E740E522F0E490E68AF090E68B04F083
:021BEB00D32203
:021C3B00D322B2
:021C3D00D322B0
:021C3F00D322AE
:10008000E4F570F57190E6B9E0120A8100CFB30093
:10009000F3B70139B8019AB901B8BB0271BD02B317
:1000A000BF02C2C002F5C104CCC2050FC5052AC6F5
:1000B0000551C80578C905FBCA0628CB067BCD06C5
:1000C000AACF0350D004B4D10442D2000006BAC271
:1000D000A890E6017440F000000090E6047480F0FF
:1000E0000000007402F0000000E4F0000000D2A85C
:1000F00002069A90E6BDE0FE90E6BCE07C0024009B
:10010000F56DEC3EF56C200617AD6D90E6BEE0FB9C
:100110007EE77575E7757640AF461219D30206176C
:1001200090E6BEE0FB7EE77576E7757740AD6DAC97
:100130006CAF461213D7020617E490E68AF090E6F9
:100140008BF090E6A0E020E1F9E4F56EF56FAF6F7B
:1001500074402FF582E434E7F583E0FE74002FF558
:1001600082E43420F583EEF0056FE56F7002056ED2
:100170006413456E70D8902000E070031200009068
:100180002000E0B40103120000902000E06402604F
:10019000030206BC1200000206BCE490E68AF0905E
:1001A000E68BF090E6A0E020E1F9E546C313FF7A84
:1001B000E77B407D03020676E490E68AF090E68BCA
:1001C000F090E6A0E020E1F920063B78137C207D4A
:1001D000017B017AE679BC7E007F011209B290E6CC
:1001E000BEE0FF7E0078147C207D017B017AE779F8
:1001F000401209B2E546C313FF90E6BEE004FD7A63
:10020000207B1302067690E6BDE0FE90E6BCE07C23
:10021000002400FFEC3EFEBE3E08BFE405E4F53BD3
:10022000F54178137C207D017B017AE679BD7E0063
:100230007F011209B278147C207D017B017AE67976
:10024000BC7E007F011209B290E6BEE0FF7E00781E
:10025000157C207D017B017AE779401209B2E546E1
:10026000C313FF90E6BEE02402FD7A207B13020652
:1002700076E490E68AF090E68BF090E6A0E020E14C
:10028000F990E740E0FCA3E0FDA3E0FEA3E0F53F2A
:100290008E3E8D3D8C3CE4FFFEFDFCAB3FAA3EA9AB
:1002A0003DA83CC3120A5D7005C204020333D204A8
:1002B000020333E4F508C20790E600E04402F000D0
:1002C000000090E6BAE030E01190E6BCE05490C443
:1002D000540FFFE5B154F64FF5B190E6BAE030E1C6
:1002E0001190E6BCE05460C4540FFFE5B154F94FDF
:1002F000F5B10206AFE490E68AF090E68BF090E666
:10030000A0E020E1F990E740E0FCA3E0FDA3E0FEDF
:10031000A3E0F53F8E3E8D3D8C3CE4FFFEFDFCAB43
:100320003FAA3EA93DA83CC3120A5D7004C20480E6
:1003300002D204E4F508C20775530190E600E044D8
:1003400002F0000000E490E68AF00000000206B42B
:10035000E490E68AF090E68BF090E6A0E020E1F9E8
:1003600090E68BE0756E00F56FC29890E740E0C3B1
:1003700094304006E0D39438400A90E740E0F460BF
:1003800003020424E554600302042490E740E0F4EF
:10039000600AE0B43017E52C6401601153A0F0430B
:1003A000A040755501755401E4F54D807790E74004
:1003B000E0C39431406EE0D394385068E024D1F526
:1003C0002FE434FFF52EE52C652F7002E52E6054E6
:1003D00053A0F043A040E0B40A06752E00752F61CB
:1003E00090E740E0B40B06752E00752F6290E74051
:1003F000E0B40C06752E00752F6390E740E0B40D55
:1004000006752E00752F6490E740E0B40E06752E39
:1004100000752F6590E740E0B40F06752E00752F2C
:100420006675540290E740E0642060030206BCE574
:100430005460030206BC53A0F043A040755405026B
:1004400006BCC3E5719414E570648094805052AE8C
:1004500070AF717C007D02120A27EF25E0FDEE33BC
:10046000FC74352DF58274203CF583E0FFAE717489
:10047000402EF582E434E7F583EFF074352DF582F4
:1004800074203CF583A3E0FF74412EF582E434E749
:10049000F583EFF074022571F571E43570F5708025
:1004A000A1000000E490E68AF000000090E68B7462
:1004B000280206A490E740E52DF0000000E490E655
:1004C0008AF000000090E68B040206A490E74074D6
:1004D000F7F0A3740EF0E4A3F0A3F0A3F0A20633A8
:1004E000A3F0A3E532F0A3E546F0A3E556F030050E
:1004F00005E4A3F0800690E74974FFF0000000E4F3
:1005000090E68AF000000090E68B740A0206A47E52
:10051000E77F40121C0B000000E490E68AF0000028
:100520000090E68B7404F00206BCE490E68AF0903A
:10053000E68BF090E6A0E020E1F990E740E0FD7F57
:100540004E121BFD90E741E0FD7F42121BFD0206AB
:10055000BCE490E68AF090E68BF090E6A0E020E123
:10056000F990E740E014600C14600B240260030271
:1005700006BC80258041805FE490E68AF090E68B9F
:10058000F090E6A0E020E1F990E740E01460281444
:100590006045240260030206BC7527F47528539059
:1005A000E6007402F0E47536507535C3F534F53362
:1005B000F529752A19803E7527E87528A590E6006B
:1005C000740AF07536A0753586753401753300757B
:1005D0002900752A32801E7527D175284A90E600B9
:1005E0007412F075364075350D753403753300752A
:1005F0002900752A64121C2B0206BC90E6BCE0752B
:100600006C00F56DFD90E6BEE0FB7EE77575E77565
:1006100076407FA01219D3E490E68AF000000090A3
:10062000E6BEE090E68B807CE490E68AF090E68B74
:10063000F090E6A0E020E1F990E6BCE0D39407401A
:100640007B78137C207D017B017AE679BC7E007F7C
:10065000011209B290E6BEE0FF7E0078147C207D96
:10066000017B017AE779401209B290E6BEE004FD11
:100670007A207B137F50121AD48041E490E68AF0EE
:1006800090E68BF090E6A0E020E1F990E740E07082
:1006900005121A408003121A5FE490E68AF0000007
:1006A0000090E68BF00000008012121AF0D281E474
:0D06B00090E68AF090E68BF08002D322C322
:0106BD00221A
:101B0900C0E0C083C082D2015391EF90E65D7401B9
:081B1900F0D082D083D0E0324D
:101B4F00C0E0C083C0825391EF90E65D7404F0D083
:061B5F0082D083D0E032C9
:101B6500C0E0C083C0825391EF90E65D7402F0D06F
:061B750082D083D0E032B3
:10184200C0E0C083C08290E680E030E70E850D11D3
:10185200850E12851513851614800C8515118516B3
:1018620012850D13850E145391EF90E65D7410F0FE
:07187200D082D083D0E032E8
:101B2100C0E0C083C082D2035391EF90E65D740898
:081B3100F0D082D083D0E03235
:10187900C0E0C083C08290E680E030E70E850D119C
:10188900850E12851513851614800C85151185167C
:1018990012850D13850E145391EF90E65D7420F0B7
:0718A900D082D083D0E032B1
:0113FF0032BB
:011C41003270
:011C4200326F
:011C4300326E
:101A1D00C0E0C083C08200000090E68F7440F000EB
:101A2D0000005391EF90E65FE04404F0D082D08344
:031A3D00D0E032C4
:10131A00C0E0C083C082C0D075D000C004C005C080
:03132A0006C007F3
:10132D0090E6A1E020E1F990E780E014601324F14C
:10133D00601D14603114605E2413600314706880A6
:10134D005A90E782E0F54090E781E0F547805890AC
:10135D00E781E0FCA3E0FDA3E0FEA3E0F54B8E4AA0
:10136D008D498C488041752B01C2A8D28390E6002F
:10137D00E04402F000000090E6017440F00000002F
:10138D0090E6047480F00000007402F0000000E4A8
:10139D00F00000008011752B02800C7545647544BA
:1013AD000075430075420000000090E68DE4F05397
:0913BD0091EF90E65FE04408F0B6
:1013C600D007D006D005D004D0D0D082D083D0E0CC
:0113D60032E4
:011C4400326D
:011C4500326C
:011C4600326B
:011C4700326A
:011C48003269
:011C49003268
:011C4A003267
:011C4B003266
:011C4C003265
:011C4D003264
:011C4E003263
:011C4F003262
:011C50003261
:011C51003260
:011C5200325F
:011C5300325E
:011C5400325D
:011C5500325C
:011C5600325B
:011C5700325A
:011C58003259
:011C59003258
:011C5A003257
:011C5B003256
:011C5C003255
:011C5D003254
:011C5E003253
:011C5F003252
:011C60003251
:011C61003250
:0419D3008F728B7410
:1019D7009020B5EDF0E572C313FF7A207BB57D014A
:1019E700121AD4E572C313FFAB76AA75AD74021A47
:0119F700B837
:0413D7008F728B7511
:1013DB00EC9020B5F0EDA3F0E572C313FF7A207B00
:1013EB00B57D02121AD4E572C313FFAB77AA76ADA3
:0413FB0075021AB8A5
:101A9B00A907EC902013F0EDA3F0EAA3F0EBA3F071
:0D1AAB00E9C313FF7A207B137D04021AD4D7
:1015AF000531E53170020530640845307004F530BF
:1015BF00F531E5314530700843B12053B1EF806903
:1015CF00E53164014530700543B120800BE531648E
:1015DF00024530700B53B1DF53B1EF43B140805F21
:1015EF00E53164034530700B53B1DF53B1EF43B1B5
:1015FF00408024E53164044530700B53B1DF53B1A3
:10160F00EF53B1BF8011E53164054530700D53B113
:10161F00DF43B11053B1BF43B18022E531640645BA
:10162F0030700B53B1DF43B11053B1BF8011E531AF
:10163F0064074530700C43B12043B11053B1BF5311
:03164F00B17F2246
:101BB600E4F52DE554600B1215AF053AE53A7002CF
:031BC600053922BC
:101BED00E554600B053AE53A700205391215AF223E
:10150000120100020000004018163109000001021B
:1015100000010A06000200000040010009023C0030
:1015200001010080FA0904000006FF000000070521
:101530008202000200070501020002000705020204
:1015400000020007050602000200070581020002F2
:10155000000705860200020009021900010100804F
:10156000FA0904000001FF000000070582024000A4
:10157000000403090414035100480043002D0043F4
:10158000004300440020002000240351004800597B
:10159000002D006D0069006E006900430061006D60
:0F15A00000350020002000200020002000000067
:10197B0090E682E030E004E020E60B90E682E03077
:10198B00E119E030E71590E680E04401F07F147E2A
:0C199B00001214B890E680E054FEF02228
:1019F80090E682E044C0F090E681F0438701000061
:041A080000000022B8
:10194C0030080990E680E0440AF0800790E680E0D9
:10195C004408F07FDC7E051214B890E65D74FFF04D
:0F196C0090E65FF05391EF90E680E054F7F022A1
:1014B8008E6C8F6D90E600E054187012E56D240173
:1014C800FFE4356CC313F56CEF13F56D801590E6EA
:1014D80000E05418FFBF100BE56D25E0F56DE56CD5
:1014E80033F56CE56D156DAE6C7002156C4E6005CC
:0614F800121A0C80EE2226
:081C2B00E4F57DD2E9D2AF22FD
:1018B00090E678E020E6F9C2E990E678E04480F02E
:1018C000EF25E090E679F090E678E030E0F990E6F8
:1018D00078E04440F090E678E020E6F990E678E0A1
:0618E00030E1D6D2E9223E
:10191A00A90790E678E020E6F9E57D702390E6785D
:10192A00E04480F0E925E090E679F08D78AF03A9EC
:10193A00077579018A7A897BE4F57C757D01D32262
:02194A00C322B6
:1018E600A90790E678E020E6F9E57D702590E67890
:1018F600E04480F0E925E0440190E679F08D78AF88
:1019060003A9077579018A7A897BE4F57C757D03DD
:04191600D322C322F3
:03004B000211257A
:10112500C0E0C083C082C085C084C086758600C00B
:10113500D075D000C000C001C002C003C006C00702
:1011450090E678E030E206757D0602120F90E678AB
:10115500E020E10CE57D64026006757D0702120F53
:10116500E57D24FE605F14603624FE7003021200E4
:1011750024FC700302120C2408600302120FAB79E1
:10118500AA7AA97BAF7C057C8F827583001209D86A
:1011950090E679F0E57C65787070757D05806B90DB
:1011A500E679E0AB79AA7AA97BAE7C8E827583005D
:1011B500120A05757D02E5786401704E90E678E0C7
:1011C5004420F08045E57824FEB57C0790E678E07C
:1011D5004420F0E57814B57C0A90E678E04440F0C8
:1011E500757D0090E679E0AB79AA7AA97BAE7C8E15
:1011F50082758300120A05057C800F90E678E0442D
:1012050040F0757D008003757D005391DFD007D0D8
:1012150006D003D002D001D000D0D0D086D084D063
:0812250085D082D083D0E032B5
:0219A700A9078E
:1019A900AE1BAF1C8F828E83A3E064037017AD0159
:1019B90019ED7001228F828E83E07C002FFDEC3EB1
:0919C900FEAF0580DF7E007F0007
:0119D20022F2
:101AB8001218E6E57D24FA600E146006240770F318
:0C1AC800D322E4F57DD322E4F57DD32287
:101AD40012191AE57D24FA600E146006240770F3C7
:0C1AE400D322E4F57DD322E4F57DD3226B
:101A0C007400F58690FDA57C05A3E582458370F9ED
:011A1C0022A7
:03004300021400A4
:0300530002140094
:10140000021B0900021B6500021B4F00021B21008A
:1014100002184200021879000213FF00021C41006A
:10142000021C4200021C4300021A1D0002131A0093
:10143000021C4400021C4500021C4600021C47001E
:10144000021C4800021C4100021C4900021C4A0008
:10145000021C4B00021C4C00021C4D00021C4E00E2
:10146000021C4F00021C4100021C4100021C4100F2
:10147000021C5000021C5100021C5200021C5300AE
:10148000021C5400021C5500021C5600021C57008E
:10149000021C5800021C5900021C5A00021C5B006E
:1014A000021C5C00021C5D00021C5E00021C5F004E
:0814B000021C6000021C610037
:030000000216E8FD
:0C16E800787FE4F6D8FD75817F02172F93
:1008E200E709F608DFFA8046E709F208DFFA803EF8
:1008F20088828C83E709F0A3DFFA8032E309F608E5
:10090200DFFA8078E309F208DFFA807088828C834C
:10091200E309F0A3DFFA806489828A83E0A3F60800
:10092200DFFA805889828A83E0A3F208DFFA804CDA
:1009320080D280FA80C680D4806980F280338010B1
:1009420080A680EA809A80A880DA80E280CA80331A
:1009520089828A83ECFAE493A3C8C582C8CCC58392
:10096200CCF0A3C8C582C8CCC583CCDFE9DEE78062
:100972000D89828A83E493A3F608DFF9ECFAA9F0E1
:10098200EDFB2289828A83ECFAE0A3C8C582C8CC37
:10099200C583CCF0A3C8C582C8CCC583CCDFEADE50
:1009A200E880DB89828A83E493A3F208DFF980CCB2
:1009B20088F0EF60010E4E60C388F0ED2402B404AB
:1009C2000050B9F582EB2402B4040050AF23234552
:0609D2008223900932733C
:1009D800BB010CE58229F582E5833AF583E02250D4
:1009E80006E92582F8E622BBFE06E92582F8E2221E
:0D09F800E58229F582E5833AF583E4932238
:100A0500F8BB010DE58229F582E5833AF583E8F027
:100A1500225006E92582C8F622BBFE05E92582C8D3
:020A2500F222BB
:100A2700C2D5EC30E709B2D5E4C39DFDE49CFCEEEA
:100A370030E715B2D5E4C39FFFE49EFE120AA7C3B1
:100A4700E49DFDE49CFC8003120AA730D507C3E4AC
:060A57009FFFE49EFE2259
:100A5D00EB9FF5F0EA9E42F0E99D42F0E89C45F0EF
:010A6D002266
:100A6E00E8600FECC313FCED13FDEE13FEEF13FF66
:030A7E00D8F1228A
:100A8100D083D082F8E4937012740193700DA3A304
:100A910093F8740193F5828883E473740293686018
:060AA100EFA3A3A380DF18
:1016F400020CE0E493A3F8E493A34003F68001F220
:1017040008DFF48029E493A3F85407240CC8C333F6
:10171400C4540F4420C8834004F456800146F6DFC5
:10172400E4800B010204081020408090122DE47E16
:10173400019360BCA3FF543F30E509541FFEE493BA
:10174400A360010ECF54C025E060A840B8E493A381
:10175400FAE493A3F8E493A3C8C582C8CAC583CAAC
:10176400F0A3C8C582C8CAC583CADFE9DEE780BE64
:0113190000D3
:100AA700BC000BBE0029EF8DF084FFADF022E4CC33
:100AB700F875F008EF2FFFEE33FEEC33FCEE9DECFC
:100AC700984005FCEE9DFE0FD5F0E9E4CEFD22ED42
:100AD700F8F5F0EE8420D21CFEADF075F008EF2F8C
:100AE700FFED33FD4007985006D5F0F222C398FD7D
:050AF7000FD5F0EA221A
:00000001FF
