:0A2286000001020203030404050531
:100BF900E4F569F568F567F566C20CC209C20BC26E
:100C09000A1221441208307E197F008E0A8F0B7553
:100C1900121975131275081975091C7510197511B2
:100C29005175141975157FEE54E07003020D407566
:100C39006A00756B808E6C8F6DC374A99FFF7419E0
:100C49009ECF2402CF3400FEE48F658E64F563F5F0
:100C590062F561F560F55FF55EAF65AE64AD63ACF5
:100C690062AB61AA60A95FA85EC3120AC15026E5FA
:100C79006B2561F582E56A3560F58374CDF0E56130
:100C89002401F561E43560F560E4355FF55FE4352D
:100C99005EF55E80C4E4F561F560F55FF55EAF650C
:100CA900AE64AD63AC62AB61AA60A95FA85EC31212
:100CB9000AC15031AE60AF61E56D2FF582E56C3E3A
:100CC900F583E0FDE56B2FF582E56A3EF583EDF0EE
:100CD900EF2401F561E43EF560E4355FF55FE43545
:100CE9005EF55E80B9856A0A856B0B74002480FF06
:100CF900741934FFFEC3E5139FF513E5129EF5122F
:100D0900C3E50D9FF50DE50C9EF50CC3E50F9FF5A9
:100D19000FE50E9EF50EC3E5099FF509E5089EF559
:100D290008C3E5119FF511E5109EF510C3E5159F60
:100D3900F515E5149EF514D2E843D82090E668E04D
:100D49004409F090E65CE0443DF0D2AFD288D28A03
:100D5900C2A8C2AA43E808D2FB90E680E020E105D8
:100D6900D20D121F7390E680E054F7F0538EF8C24B
:100D79000C300A0512060CC20A300C291218FE5052
:100D890024C20C1220CA20091690E682E030E7043A
:100D9900E020E1EF90E682E030E604E020E0E412B2
:0A0DA9001FA21222CD1214D380C73E
:10060C0090E6B9E070030206BD14700302073A24A9
:10061C00FE70030207BD24FB70030206B7147003BF
:10062C000206B11460731460762405600302081C82
:10063C001222CF400302082890E6BBE024FE602281
:10064C0014603324FD601114602224067048E50AFE
:10065C0090E6B3F0E50B8037E51290E6B3F0E513C6
:10066C00802DE50C90E6B3F0E50D8023E50E90E6C9
:10067C00B3F0E50F801990E6BAE0FF121FCEAA0680
:10068C00A9077B01EA494B600DEE90E6B3F0EF90C1
:10069C00E6B4F00208280208211221F00208281200
:1006AC0022AB020828121C6F0208281221DE020855
:1006BC00281222D1400302082890E6B8E0247F607B
:1006CC001514601924027063A209E43325E0FFA21B
:1006DC000BE4334F8041E490E740F0803F90E6BC60
:1006EC00E0547EFF7E00E0D394807C0040047D01CA
:1006FC0080027D00EC4EFEED4F2486F58274223E86
:10070C00F583E493FF3395E0FEEF24A1FFEE34E68E
:10071C008F82F583E0540190E740F0E4A3F090E67B
:10072C008AF090E68B7402F002082802082112224B
:10073C00D3400302082890E6B8E024FE6016240299
:10074C00600302082890E6BAE0B40105C209020869
:10075C002802082190E6BAE0705590E6BCE0547E81
:10076C00FF7E00E0D394807C0040047D0180027DFC
:10077C0000EC4EFEED4F2486F58274223EF583E4A8
:10078C0093FF3395E0FEEF24A1FFEE34E68F82F564
:10079C0083E054FEF090E6BCE05480131313541F16
:1007AC00FFE0540F2F90E683F0E04420F0806D8042
:1007BC00641222D5506690E6B8E024FE601924023B
:1007CC00705A90E6BAE0B40104D209804F90E6BAB0
:1007DC00E064026047803E90E6BCE0547EFF7E0001
:1007EC00E0D394807C0040047D0180027D00EC4EBF
:1007FC00FEED4F2486F58274223EF583E493FF339D
:10080C0095E0FEEF24A1FFEE34E68F82F58380089D
:10081C00120080500790E6A0E04401F090E6A0E0C2
:03082C004480F015
:01082F0022A6
:030033000217FCB5
:0417FC0053D8EF329D
:10214400758CE0758AC0E58954F04401F589758E73
:0821540003D28CD2A9D2AF2204
:03005B000210B4DC
:0D10B400C0E0C083C082C0D075D000C0076E
:1010C100AF91530780EF648060030211BC53917F9D
:1010D1003008030211BAE54D64017043D3E53B9436
:1010E100C8E53A940050030211BA90290CE54CF07E
:1010F100D394C8E54B9400401DD3E54C9408E54BCF
:1011010094075012E53B9404E53A94105008752D6C
:1011110001754D00D201853A4B853B4C0211B4E576
:101121004D64027061C3E53B94C8E53A94004048C0
:10113100D3E53B94C8E53A94004010D3E53B9408CD
:10114100E53A94075005752D008027D3E53B9408B7
:10115100E53A9407400FD3E53B9444E53A941650A1
:1011610004052D800DD3E53B9444E53A94164008DF
:10117100052D753A00753B00E52D652E703BF54D4B
:10118100F53AF53B8033E54DB4052ED3E53B9401AB
:10119100E53A94004023740B2536F582E43429F5B1
:1011A10083E53BF00536052DE52DB41406754D009C
:0B11B100752D00753A00753B00C20868
:0B11BC00D007D0D0D082D083D0E0322A
:101900001201000200000040181623160000010218
:1019100000010A0600020000004001000902350033
:1019200001010080FA0904000005FF00000007051E
:101930000102400000070582020002000705810243
:1019400040000007058602000200070508020002A9
:101950000009022E0001010080FA0904000004FFC2
:101960000000000705010240000007058202400058
:101970000007050202000200070581024000000482
:1019800003090410035100480059002D004300438F
:10199000004400160351004800590031003600325F
:0B19A00000300030002000200000009C
:100F61006080280002030101020101070000000264
:100F7100000002000A0B2B131115151100000000CF
:100F81000000003F0304010102010107000000020B
:100F9100000002000A2B130B1115151100000000AF
:100FA1000000003F030A03040403030700000002DA
:100FB100000002000A2B0B13111511110000000093
:100FC1000000003F020F03030403020700000000BA
:100FD100020002000A2B0B130B1515110000000073
:100FE1000000003F6024288700000000000000008E
:100FF10000000000000000000000000000000000F0
:101001000000000000000000000000004728808070
:06101100000011CA4E00B0
:10166F0090E60174CAF090E6F574FFF0902880E0E0
:10167F0090E6F3F0902881E090E6C3F0902882E0A6
:10168F0090E6C1F0902883E090E6C2F0902885E0C4
:10169F0090E6C0F0902886E090E6F4F075AF0774FE
:1016AF0028F59A7400F59B759DE4E4F59EFF90E68E
:1016BF007BE090E67CF00FBF80F490E67174FFF052
:1016CF00F5B490E672E04480F043B680000000E489
:1016DF0090E6C4F000000090E6C5F0902887E090F7
:1016EF00E6C6F0902888E090E6C7F0902889E09051
:1016FF00E6C8F090288AE090E6C9F090288BE09039
:10170F00E6CAF090288CE090E6CBF090288DE09020
:0B171F00E6CCF090288EE090E6CDF0C4
:01172A00229C
:03004300021800A0
:0300530002180090
:1018000002215C000221A20002218C00022174004E
:10181000021E7000021DFC000222D7000222D80026
:101820000222D9000222DA00021F4200021B290014
:101830000222DB000222DC00021DBD00021A37007A
:101840000222DD000222D8000222DE000222DF0096
:101850000222E0000222E1000222E2000222E30072
:101860000222E4000222D8000222D8000222D8007C
:101870000222E5000222E6000222E7000222E8003E
:101880000222E9000222EA000222EB000222EC001E
:101890000222ED000222EE000222EF000222F000FE
:1018A0000222F1000222F2000222F3000222F400DE
:0818B0000222F5000222F600FD
:101FA20090E682E030E004E020E60B90E682E0304A
:101FB200E119E030E71590E680E04401F07F147EFD
:0C1FC200001218B890E680E054FEF022F7
:1020CA0090E682E044C0F090E681F0438701000088
:0420DA0000000022E0
:101F7300300D0990E680E0440AF0800790E680E0A7
:101F83004408F07FDC7E051218B890E65D74FFF01C
:0F1F930090E65FF05391EF90E680E054F7F02274
:021FCE00A90761
:101FD000AE14AF158F828E83A3E064037017AD013A
:101FE00019ED7001228F828E83E07C002FFDEC3E84
:091FF000FEAF0580DF7E007F00DA
:011FF90022C5
:1018B8008E728F7390E600E054187012E57324015D
:1018C800FFE43572C313F572EF13F573801590E6D4
:1018D80000E05418FFBF100BE57325E0F573E572BF
:1018E80033F572E5731573AE72700215724E6005AA
:0618F8001220DE80EE224A
:1020DE007400F58690FDA57C05A3E582458370F915
:0120EE0022CF
:10101700C18202321040C105C10401470001250009
:101027004429500000000044294C00000000013909
:101037000041294B006040290B0000000000000020
:101047000000000000000000000000000000000099
:101057000000000000000000000000000000000089
:101067000000000000000000000000000000000079
:10107700000000000000000000013600014D0101E2
:101087002EFF012D00023A0000024B0000014A002A
:10109700025300000234C350012C19C106C188C194
:0C10A70001C107013E00013C00013100C6
:101FFA008F6E9028EB7403F0E4A3F07A287BEB7DD4
:10200A00027F411221289028EB7401F0A3E56EF0BB
:0B201A007A287BEB7D027F4102212829
:0B227000C2B6C2B48FB1D2B4D2B62205
:0B227B00D2B6C2B48FB1D2B4D2B622EA
:1021B800AE05AD077F15122270AF05122270AF066B
:0321C80002227080
:1021CB00AE05AD077F75122270AF05122270AF06F8
:0321DB000222706D
:0420A300AC05AB07D6
:1020A7007D5FE4FF1221B87D3FFF1221CBFEE4FDE7
:1020B700AF0312227BAF0412227B0DBD60F20EBE6E
:0220C70040ECEB
:0120C90022F4
:061D28008B598A5A895B09
:101D2E00E4F55CF55D900001120A23FC700C7D5FFA
:101D3E00FF1221B87D3FFF0221CBBCFF2DD2B6751D
:101D4E005C00755D02C2B4AB59AA5AA95B855D826F
:101D5E00855C83120A23F5B1D2B4055DE55D700290
:0A1D6E00055CB482E0E55CB401DB23
:011D78002248
:1015AC00C2B77FC87E00121C58D2B77FAE12227011
:1015BC007FA01222707F721222707FA1122270E41F
:1015CC00FF1222707FA2122270FF1222707FA412CF
:1015DC0022707FA81222707F3F1222707FAD1222E0
:1015EC00707F8E1222707FB01222707F0B122270CD
:1015FC007FB11222707F311222707FB31222707F62
:10160C00F01222707F8A1222707F641222707F8BFC
:10161C001222707F781222707F8C1222707F6412DB
:10162C0022707FBB1222707F3A1222707FBE122270
:10163C00707F3E1222707F871222707F06122270FA
:10164C007F811222707F911222707F821222707F12
:10165C00501222707F831222707F7D1222707FAF16
:03166C00022270E7
:1008300090E600E054E74410F00000000000009053
:10084000E61074A0F000000090E60B7401F090E652
:100850001274E0F0000000E490E613F00000009055
:10086000E61474E2F000000090E61574A0F00000B9
:100870000090E6D27402F090E6047480F00000006C
:100880007402F00000007406F00000007408F0002C
:100890000000E4F000000012166F90E6187408F0F3
:1008A00000000090E619F000000090E61AF0000049
:1008B0000090E61BF0000000E490E671F075B47F54
:1008C00075A07F90E672F075B6FF75B1FF90E67087
:1008D000F075B2FF75B5FFC28CD2B01222C890E697
:1008E0001074A0F000000090E611F000000090E607
:1008F0005EE04408F0000000E490E68DF0000000A7
:1009000090E65EE04404F0000000E490E7C0F09060
:10091000E7C4F0A3F0A3F0A3F090E7F0F090E68F27
:100920007440F000000090E65EE04440F0000000FB
:100930007E027F0090F800E4F0A3DFFCDEFA90E690
:10094000987402F0000000E490E699F00000007E48
:10095000027F0090F800E4F0A3DFFCDEFA90E65E90
:10096000E04480F0000000E490E69CF0000000907D
:10097000E69DF00000007F9AFE1222907527007518
:1009800028B4754E01754F907532107533B8755196
:100990000675522C1222B390E67AE054FEF0E4FD84
:1009A0007F901222027F647E001218B87DFF7F4282
:1009B0001222027F647E001218B87D827F4E1222BE
:1009C00002753DFF43A020E4F54190E782E53DF04C
:1009D00090E781E541F01222C8D208754D017534C7
:1009E00027753510752C05121B9B7F887E13121CF2
:1009F00058121B9B7F887E13121C587FB87E0B12E7
:100A00001C581222561215AC7DFFE4FF1220A3D20F
:100A1000F9C2F8E4F54790E7C0E547F043A010536A
:020A2000917FC4
:010A220022B1
:0E224800EF2401FBE43EFA7D047F4802210CE6
:100DB300E541C313FFC374809FF576E541D39400E7
:100DC3004006753DFF43A020E541700353A0DF7E3D
:100DD300287FEB1222489028ECE090E7C1F090289E
:100DE300EDE090E7C2F09028EB74E5F07A287BEB16
:100DF3007D017F411221287A287BEB7D027F4112FE
:100E0300210C9028EBE0FEA3E07C002400FFEC3EE5
:100E1300FEE48F758E74F573F5727F097E3DFDAB2D
:100E230075AA74A973A872120A72780D120AE5EFF3
:100E33002490F575EE34E8F574ED34FFF573EC3476
:100E4300FFF572E4FB7A01F9F8AF75AE74AD73ACDC
:100E530072121D7990E7CCEFF0E4FB7A01F9F8AF59
:100E630075AE74AD73AC72121D7990E7CDEBF09053
:100E730028EB7450F0A3742EF07A287BEB7D027F6D
:100E8300411221289028EB74EEF07A287BEB7D0148
:100E93007F411221287A287BEB7D027F4112210CAE
:100EA3009028EBE0FEA3E07C002400FFEC3EFEE490
:100EB3008F758E74F573F5729028EB7450F0A374EC
:100EC3000FF07A287BEB7D027F41122128E47FCD4E
:100ED3007E55FDFCAB75AA74A973A872120A7278C9
:100EE3000D120AE5EF24FEF575EE3448F574ED3482
:100EF300FFF573EC34FFF572E4FB7A01F9F8AF7593
:100F0300AE74AD73AC72121D7990E7CEEFF0E4FBD3
:100F13007A01F9F8AF75AE74AD73AC72121D7990A6
:100F2300E7CFEBF09028EBE53DF07A287BEB7D01F2
:100F33007F211221289028EB7402F0A37480F07AA9
:100F4300287BEB7D027F28122128E49028EBF0A375
:0E0F5300E576F07A287BEB7D027F28022128CC
:1014D3000554E55470020553054AB53510E553B577
:1014E300340B120DB3E4F553F5541220EF90E7C813
:1014F300E54DF0A3E52DF0E54AB52C25E54D601645
:1015030024FE600D24FD600924047012122226803B
:101513000D1222388008E4FF121FFA53A0EFE4F5FE
:101523004A2000030215AB75470190E7C0E547F079
:10153300E5A030E7032005F87FAE12227090F0009B
:1015430074AAF0A37411F0A374CCF0A374EEF0E4C6
:1015530090E690F090E6917405F01213D790F000A6
:1015630074AAF0A37411F0A374CCF0A374EEF0E4A6
:1015730090E690F090E6917405F07FAF122270C26E
:1015830000E4F54790E7C0E547F0121B9B7FB87E68
:101593000B121C58121B9B7F887E13121C587F88CA
:0915A3007E13121C58122256227C
:0218FE00D322F3
:0222CD00D3221A
:0222CF00D32218
:101C6F0090E680E030E73A00000090E6207402F042
:101C7F00000000E490E621F000000090E6247402DA
:101C8F00F0000000E490E625F000000090E62674D6
:101C9F0002F0000000E490E627F0000000D202807E
:101CAF0016000000E490E620F000000090E621749A
:0F1CBF0040F0000000C20290E6BAE0F548D322E0
:1021DE0090E740E548F0E490E68AF090E68B04F054
:0221EE00D322FA
:0822AB0090E6BAE0F526D3220B
:1021F00090E740E526F0E490E68AF090E68B04F064
:02220000D322E7
:0222D100D32216
:0222D300D32214
:0222D500D32212
:10008000E4F56EF56FF57090E6B9E0120B0500B976
:10009000B300F1B502A3B602DBBB032DBC038EC2D5
:1000A00003D6C503E0C60415C70434CA0472CB04E2
:1000B000E6D005B1D200000608E490E68AF090E6AA
:1000C0008BF090E6A0E020E1F990E68BE0F56EE49D
:1000D000F5B390E60174CAF0D20000000090E60487
:1000E0007480F00000007402F0000000E4F00206EA
:1000F0000AE490E68AF090E68BF090E6A0E020E13A
:10010000F990E68BE0F56ED3943F4024E4F56F74EC
:1001100040256FF582E434E7F583E0FF74AB256F8B
:10012000F582E43428F583EFF0056FE56FB440DF26
:100130007F8A7E001222909028ABE0FF7E00122280
:10014000999028ACE075F004A4FFAEF01222A290C2
:1001500028B0E0C3940250139028CCE090E6C07021
:1001600005744EF08016749CF080119028CCE090BD
:10017000E6C07005749FF08003749DF09028CEE077
:10018000F5429028CBE0F5409028CFE0F549902843
:10019000D9E0F53FA3E0FEA3E07C002400F524ECC9
:1001A0003EF5239028DEE090294BF09028B1E0F551
:1001B00037E53770037537019028B6E0FEA3E07C81
:1001C000002400F528EC3EF527A3E0FEA3E0240080
:1001D000F54FEC3EF54E9028B2E0FEA3E02400F58A
:1001E00033EC3EF532A3E0FEA3E02400F552EC3EF2
:1001F000F5519028E6E0FFE4FDFEFBFAF9780112E4
:100200000A72A804A905AA06AB079028BCE0FEA3C1
:10021000E07C002400FFEC3EFEE4FDEB2FFFEA3E15
:10022000FEED39FDEC38FCC004C005C006C00790E7
:1002300028E7E0FFE4FCFDFEFBFA7901F8120A7200
:10024000D003D002D001D000EF2BF546EE3AF545B1
:10025000ED39F544EC38F5439028BAE0FEA3E07C94
:10026000002400F530EC3EF52F9028E0E0540FF527
:1002700039E4FD7F901222029028ACE0FCA3E0FD5F
:10028000A3E0FEA3E0FF902950120AF9902950A3A1
:10029000E0FDA3E0FEA3E0FFE4FC902950120AF980
:1002A00002060AE4F56F74AB256FF582E43428F595
:1002B00083E0FF7440256FF582E434E7F583EFF0C7
:1002C000056FE56FB440DF000000E490E68AF000BF
:1002D000000090E68B7440F002060AE490E68AF093
:1002E00090E68BF090E6A0E020E1F990E6BCE0908B
:1002F00028EBF0E4F56F90E6BEE0FFE56FC39F509A
:100300001E7440256FF582E434E7F583E0FF74EC5A
:10031000256FF582E43428F583EFF0056F80D790E0
:10032000E6BAE0C313FF90E6BEE0048059E490E62D
:100330008AF090E68BF090E6A0E020E1F990E6BD2F
:10034000E09028EBF090E6BCE09028ECF0E4F56F4C
:1003500090E6BEE0FFE56FC39F501E7440256FF529
:1003600082E434E7F583E0FF74ED256FF582E43431
:1003700028F583EFF0056F80D790E6BAE0C313FF4E
:1003800090E6BEE02402FD7A287BEB0204E090E7D1
:10039000407406F0A3740FF0A3740CF0A37426F05D
:1003A000A37407F0A374EEF0A37401F0A37403F038
:1003B000A37453F0300205E4A3F0800690E749747B
:1003C000FFF0000000E490E68AF000000090E68B69
:1003D000740AF002060A7AE77B407D047F48803D7C
:1003E000E490E68AF090E68BF090E6A0E020E1F958
:1003F00090E68BE0F56ED39401500302060A90E775
:1004000041E0FD7F4212220290E740E0FD7F4E1264
:10041000220202060A7A287BEB7D027F4112210C20
:10042000000000E490E68AF000000090E68B74047F
:10043000F002060A90E6BCE0902954F07A297B5439
:100440007D017F501221287A297B547D017F501233
:10045000212890E6BEE0FD7AE77B407F5012210C18
:10046000E490E68AF000000090E6BEE090E68B02A1
:100470000602E490E68AF000000090E68BF00000AF
:100480000090E6A0E020E1F990E6BCE0D3940750AC
:100490000302060AE09028EBF0E4F56F90E6BEE078
:1004A000FFE56FC39F501E7440256FF582E434E76B
:1004B000F583E0FF74EC256FF582E43428F583EFD3
:1004C000F0056F80D790E6BEE004FD7A287BEB7FD5
:1004D0005012212890E6BEE004FD7A287BEB7F5085
:1004E00012212802060AE490E68AF090E68BF0904A
:1004F000E6A0E020E1F990E68BE0F56FC29890E786
:1005000040E0C394304006E0D39436400A90E74080
:10051000E0F4600302059DE54D600302059D43A0E4
:100520001090E740E0F4600AE0B43010E52D64017B
:10053000600AD208754D01C20602060A90E740E043
:10054000C39431500302060AE0D3943440030206F8
:100550000AE024D1F52E652D700302060AC207E0D9
:10056000B40A03752E6190E740E0B40B03752E6268
:1005700090E740E0B40C03752E6390E740E0B40DC3
:1005800003752E6490E740E0B40E03752E6590E786
:1005900040E0B40F03752E66754D02806D90E74004
:1005A000E064207065E54D706143A010754D0580D5
:1005B00059E570C39414503AE570C313FD240BF54C
:1005C00082E43429F58374402570F582E434E7F53C
:1005D00083E4F0740B2DF582E43429F583E0FF7495
:1005E000412570F582E434E7F583EFF0057005707E
:1005F00080BF000000E490E68AF000000090E68BE7
:0B0600007428F00000008002D322C329
:01060B0022CC
:10215C00C0E0C083C082D20A5391EF90E65D740157
:08216C00F0D082D083D0E032F4
:10218C00C0E0C083C0825391EF90E65D7404F0D040
:06219C0082D083D0E03286
:1021A200C0E0C083C0825391EF90E65D7402F0D02C
:0621B20082D083D0E03270
:101E7000C0E0C083C08285100C85110D850D828560
:101E80000C83A37402F085080E85090F850F8285E7
:101E90000E83A37407F05391EF90E65D7410F0D0B9
:061EA00082D083D0E03285
:10217400C0E0C083C082D20C5391EF90E65D740836
:08218400F0D082D083D0E032DC
:101DFC00C0E0C083C08290E680E030E72085080C0C
:101E0C0085090D850D82850C83A37402F085100E57
:101E1C0085110F850F82850E83A37407F05391EF04
:0D1E2C0090E65D7420F0D082D083D0E032CB
:0122D70032D4
:0122D80032D3
:0122D90032D2
:0122DA0032D1
:101F4200C0E0C083C08290E65EE054FBF000000077
:101F520090E68F7440F00000005391EF90E65FE04E
:101F62004404F090E65EE04404F0D082D083D0E0F6
:011F7200323C
:0D1B2900C0E0C083C082C0D075D000C007EE
:101B360090E65EE054F7F090E6A1E020E1F990E748
:101B460080E014600F24036019146020147022755D
:101B56002200801D90E782E0F53D90E781E0F541A7
:101B6600800F90E781E024FF92058005752200D260
:101B76000300000090E68DE4F05391EF90E65FE0FD
:0A1B86004408F090E65EE04408F029
:0B1B9000D007D0D0D082D083D0E0324C
:0122DB0032D0
:0122DC0032CF
:101DBD00C0E0C083C08290E65EE054BFF00000003A
:101DCD0090E6987402F000000090E699E4F00000AF
:101DDD000090F800F0A3F05391EF90E65FE04440DF
:0F1DED00F090E65EE04440F0D082D083D0E03248
:101A3700C0E0C083C082C0D075D000C000C001C064
:0B1A470002C003C004C005C006C007B9
:101A520090E65EE0547FF090E6A6E020E1F990E6A1
:101A62009CE0FE90E69DE07C002400FFEC3EFEBE82
:101A7200010CBF82097B017AFC7900121D2800004B
:101A82000090E69CE4F090E69DF05391EF90E65FC3
:0B1A9200E04480F090E65EE04480F04D
:101A9D00D007D006D005D004D003D002D001D0009D
:091AAD00D0D0D082D083D0E03209
:0122DD0032CE
:0122DE0032CD
:0122DF0032CC
:0122E00032CB
:0122E10032CA
:0122E20032C9
:0122E30032C8
:0122E40032C7
:0122E50032C6
:0122E60032C5
:0122E70032C4
:0122E80032C3
:0122E90032C2
:0122EA0032C1
:0122EB0032C0
:0122EC0032BF
:0122ED0032BE
:0122EE0032BD
:0122EF0032BC
:0122F00032BB
:0122F10032BA
:0122F20032B9
:0122F30032B8
:0122F40032B7
:0122F50032B6
:0122F60032B5
:06172B008F718C728D73BA
:1017310053710753B0F77F0A7E00121C58E4F57409
:10174100C374029574FFE571A807088002C313D81A
:10175100FC30E00543800280035380FD7F0A7E0058
:10176100121C584380017F0A7E00121C585380FED0
:101771007F0A7E00121C580574E574C3940340C0AF
:10178100E4F574C374099574FFE573AE72A8070894
:101791008005CEC313CE13D8F930E0054380028013
:1017A100035380FD7F0A7E00121C584380017F0A8B
:1017B1007E00121C585380FE7F0A7E00121C5805C1
:1017C10074E574C3940A40BB43B0087F0A7E0012DB
:0C17D1001C5853B0F77F0A7E00021C5821
:09229000AD07AC06E4FF02172BB8
:09229900AD07AC067F0402172B0F
:0922A200AD07AC067F0102172B09
:102202009028EBEDF0EFC313FF7A287BEB7D010200
:02221200212881
:101C0D0053A0F043A0087FC47E09121C5853A0F0C6
:101C1D0043A00C7FC47E09121C5853A0F043A004AE
:101C2D007FC47E09121C5853A0F043A0067FC47ECA
:101C3D0009121C5853A0F043A0027FC47E09121C48
:0B1C4D005853A0F043A0037FC47E09A1
:101C5800EF7803C333CE33CED8F9FFEF4E6007EFEA
:071C68001F70F81E80F52239
:0522C800D283D2842244
:1020EF00C2837F027E00121C58C284D2837F027E7D
:0D20FF0000121C58D2847F027E00021C5883
:10221400E4FDFC1220EF0DBD00010CBC0EF5BD74F5
:01222400F2C7
:012225002296
:0722BB001217DD43A04022D1
:0622C20053A0BF022263DD
:1020500053A0BF53A0F043A0047FD07E07121C58AA
:1020600053A0F043A00C7FD07E07121C5853A0F061
:0A20700043A0087FD07E07021C5831
:1011C700902950E0FCA3E0FDA3E0FEA3E0FF9029F7
:1011D7004C120AF9E540B40102C2B090294BE07005
:1011E700031222BBE54260030212B5752201E47FB8
:1011F700E87E03FDFC90294CE0F8A3E0F9A3E0FAB0
:10120700A3E0FBC3120AC150030212A3E522640143
:1012170060030212A37FDD7E031218B8120DB3908C
:10122700294CE0FCA3E0FDA3E0FEA3E02418FFEEB9
:1012370034FCFEED34FFFDEC34FFFC90294C120A20
:10124700F990294CE0FCA3A3A3E4FFFEFDEC78187A
:10125700120AD290E7C4EFF090294CA3E0FDA3A3B4
:10126700E4FFFEE4FC7810120AD290E7C5EFF09095
:10127700294CA3A3E0FEA3E4FFE4FDFC7808120ACF
:10128700D290E7C6EFF090294CE0FCA3E0FDA3E085
:10129700FEA3E0FF90E7C7EFF00211F5E522B401E6
:1012A7001690294EE0FEA3E0FF1218B880097522B8
:1012B70001E522640160FA90294BE070031222C213
:0812C700E540B40102D2B0229F
:101AB6008F758E748D738C72E4FFFEFDFCAB75AA78
:101AC60074A973A872D3120AC14057000000E4FF3C
:101AD600FEFDE572FC7818120AD290E6CEEFF00011
:101AE6000000E4FFFEE573FDE4FC7810120AD290D4
:101AF600E6CFEFF0000000E4FFE574FEE4FDFC78BD
:101B060008120AD290E6D0EFF0000000E575FF90CB
:101B1600E6D1EFF000000075BB04000000E5BB3025
:031B2600E7FB22B8
:081E39008C728D73AB07AA0641
:101E4100E4FDFCC3ED9573EC95725022EA90E6D067
:101E5100F0000000EB90E6D1F000000075BB05003A
:0E1E61000000E5BB30E7FB0DBD00010C80D595
:011E6F002250
:10207A00AD07AC06000000ED25E0EC3390E6D0F0A9
:10208A00000000ED25E090E6D1F000000075BB04E9
:09209A00000000E5BB30E7FB2269
:1013D700C20353A0F043A0047FD07E07121C5853CA
:1013E700A0F043A00C7FD07E07121C5853A0F043F7
:1013F700A0087FD07E07121C5890294BE0B4010744
:10140700E539700312205012221475470290E7C085
:10141700E547F01211C775470390E7C0E547F0307D
:1014270003030214D2E4F570F571C3E5719528E55D
:10143700709527500D1220EF0571E57170EC05705E
:1014470080E8E53FD39400400CE53FFD7C00AF33D7
:10145700AE32121E39D3E5249400E52394004007E9
:10146700AF24AE2312207AE4F56EF56FC3E56F95CE
:1014770052E56E9551502C122025E4F570F571C395
:10148700E57195377480F8657098500D1220EF0557
:1014970071E57170EA057080E6056FE56F70CD053F
:1014A7006E80C9E4F570F571C3E571954FE57095E8
:1014B7004E500D1220EF0571E57170EC057080E854
:0B14C700AF46AE45AD44AC43121AB670
:0114D20022F7
:10202500000000E53325E0E5323390E6D0F000000E
:1020350000E53325E090E6D1F000000075BB040013
:0B2045000000E5BB20E7033003F82299
:0D22560053A0F07525FF90E7CBE525F022A1
:101B9B0053A0F043A0097F287E0A121C5853A0F0D3
:101BAB0043A0017F287E0A121C5853A0F043A003C8
:101BBB007F287E0A121C5853A0F043A0027F287E78
:101BCB000A121C5853A0F043A0067F287E0A121C51
:101BDB005853A0F043A0047F287E0A121C5853A030
:101BEB00F043A00C7F287E0A121C5853A0F043A090
:101BFB00087F287E0A121C58E4F52590E7CBE525D3
:021C0B00F022C5
:0D226300121C0D75250390E7CBE525F02238
:1017DD00121C0D53A0F043A001121C5453A0F04352
:0F17ED00A009121C5475250190E7CBE525F022C9
:101CCE000531E531B40803E4F531E53170047F08E0
:101CDE00803DE531B401047F0A8034E531B402045D
:101CEE007F02802BE531B403047F038022E531B4FB
:101CFE0004047F018019E531B405047F058010E5E9
:101D0E0031B406047F048007E531B4070C7F0C1252
:0A1D1E001FFA7F2D7E00121C5822D0
:10222600C201E54D600B121CCE053BE53B70020575
:022236003A224A
:10223800E54D600B053BE53B7002053A121CCE22CA
:0822B300E4F51BD2E9D2AF22D1
:101EA60090E678E020E6F9C2E990E678E04480F032
:101EB600EF25E090E679F090E678E030E0F990E6FC
:101EC60078E04440F090E678E020E6F990E678E0A5
:061ED60030E1D6D2E92242
:101F1000A90790E678E020E6F9E51B702390E678C3
:101F2000E04480F0E925E090E679F08D16AF03A952
:101F3000077517018A188919E4F51A751B01D32250
:021F4000C322BA
:101EDC00A90790E678E020E6F9E51B702590E678F6
:101EEC00E04480F0E925E0440190E679F08D16AFEE
:101EFC0003A9077517018A188919E4F51A751B03CC
:041F0C00D322C322F7
:03004B000212CFCF
:1012CF00C0E0C083C082C085C084C086758600C060
:1012DF00D075D000C000C001C002C003C006C00757
:1012EF0090E678E030E206751B060213B990E678B7
:1012FF00E020E10CE51B64026006751B070213B9C1
:10130F00E51B24FE605F14603624FE70030213AAEF
:10131F0024FC70030213B6240860030213B9AB1741
:10132F00AA18A919AF1A051A8F82758300120A23FA
:10133F0090E679F0E51A65167070751B05806B9055
:10134F00E679E0AB17AA18A919AE1A8E8275830039
:10135F00120A50751B02E5166401704E90E678E094
:10136F004420F08045E51624FEB51A0790E678E094
:10137F004420F0E51614B51A0A90E678E04440F0E0
:10138F00751B0090E679E0AB17AA18A919AE1A8E53
:10139F0082758300120A50051A800F90E678E04498
:1013AF0040F0751B008003751B005391DFD007D0F1
:1013BF0006D003D002D001D000D0D0D086D084D0B8
:0813CF0085D082D083D0E0320A
:10210C00121EDCE51B24FA600E146006240770F323
:0C211C00D322E4F51BD322E4F51BD322F0
:10212800121F10E51B24FA600E146006240770F3D2
:0C213800D322E4F51BD322E4F51BD322D4
:030000000219AB37
:0C19AB00787FE4F6D8FD7581760219F211
:100A2300BB010CE58229F582E5833AF583E0225088
:100A330006E92582F8E622BBFE06E92582F8E222D2
:0D0A4300E58229F582E5833AF583E49322EC
:100A5000F8BB010DE58229F582E5833AF583E8F0DC
:100A6000225006E92582C8F622BBFE05E92582C888
:020A7000F22270
:100A7200E88FF0A4CC8BF0A42CFCE98EF0A42CFC23
:100A82008AF0EDA42CFCEA8EF0A4CDA8F08BF0A4A1
:100A92002DCC3825F0FDE98FF0A42CCD35F0FCEB00
:100AA2008EF0A4FEA9F0EB8FF0A4CFC5F02ECD39C5
:0F0AB200FEE43CFCEAA42DCE35F0FDE43CFC2232
:101D7900C2D5E830E70FB2D5E4C39BFBE49AFAE495
:101D890099F9E498F8EC30E717B2D5121DAF120BA8
:101D990067E4C39BFBE49AFAE499F9E498F88003B1
:101DA900120B6730D50DE4C39FFFE49EFEE49DFD51
:041DB900E49CFC2288
:100AC100EB9FF5F0EA9E42F0E99D42F0E89C45F08B
:010AD1002202
:100AD200E8600FECC313FCED13FDEE13FEEF13FF02
:030AE200D8F12226
:100AE500E86010ECA2E713FCED13FDEE13FEEF1327
:040AF500FFD8F02214
:0C0AF900ECF0A3EDF0A3EEF0A3EFF02270
:100B0500D083D082F8E4937012740193700DA3A37F
:100B150093F8740193F5828883E473740293686093
:060B2500EFA3A3A380DF93
:1019B700020BF9E493A3F8E493A34003F68001F242
:1019C70008DFF48029E493A3F85407240CC8C33331
:1019D700C4540F4420C8834004F456800146F6DF00
:1019E700E4800B0102040810204080900F61E47E20
:1019F700019360BCA3FF543F30E509541FFEE493F5
:101A0700A360010ECF54C025E060A840B8E493A3BB
:101A1700FAE493A3F8E493A3C8C582C8CAC583CAE6
:101A2700F0A3C8C582C8CAC583CADFE9DEE780BE9E
:0110B300003C
:100B2B0075F008758200EF2FFFEE33FECD33CDCC81
:100B3B0033CCC58233C5829BED9AEC99E582984004
:100B4B000CF582EE9BFEED9AFDEC99FC0FD5F0D6E1
:100B5B00E4CEFBE4CDFAE4CCF9A88222B800C1B90B
:100B6B000059BA002DEC8BF084CFCECDFCE5F0CB49
:100B7B00F97818EF2FFFEE33FEED33FDEC33FCEB82
:100B8B0033FB10D703994004EB99FB0FD8E5E4F93D
:100B9B00FA227818EF2FFFEE33FEED33FDEC33FC2A
:100BAB00C933C910D7059BE99A4007EC9BFCE99A1E
:100BBB00F90FD8E0E4C9FAE4CCFB2275F010EF2F63
:100BCB00FFEE33FEED33FDCC33CCC833C810D70763
:100BDB009BEC9AE899400AED9BFDEC9AFCE899F89E
:0E0BEB000FD5F0DAE4CDFBE4CCFAE4C8F92231
:00000001FF
