:0A207F00000102020303040405053A
:100AEA00E4F569F568F567F566C209C206C208C287
:100AFA0007121F2E1207317E177F008E0A8F0B7581
:100B0A00121775131275081775091C7510177511C8
:100B1A005175161775177FEE54E07003020C317584
:100B2A006A00756B808E6C8F6DC374A99FFF7417F2
:100B3A009ECF2402CF3400FEE48F658E64F563F500
:100B4A0062F561F560F55FF55EAF65AE64AD63AC05
:100B5A0062AB61AA60A95FA85EC3120DF25026E5D6
:100B6A006B2561F582E56A3560F58374CDF0E56140
:100B7A002401F561E43560F560E4355FF55FE4353D
:100B8A005EF55E80C4E4F561F560F55FF55EAF651C
:100B9A00AE64AD63AC62AB61AA60A95FA85EC31222
:100BAA000DF25031AE60AF61E56D2FF582E56C3E16
:100BBA00F583E0FDE56B2FF582E56A3EF583EDF0FE
:100BCA00EF2401F561E43EF560E4355FF55FE43555
:100BDA005EF55E80B9856A0A856B0B74002480FF16
:100BEA00741734FFFEC3E5139FF513E5129EF51241
:100BFA00C3E50D9FF50DE50C9EF50CC3E50F9FF5BA
:100C0A000FE50E9EF50EC3E5099FF509E5089EF569
:100C1A0008C3E5119FF511E5109EF510C3E5179F6E
:100C2A00F517E5169EF516D2E843D82090E668E057
:100C3A004409F090E65CE0443DF0D2AF90E680E0F3
:100C4A0020E105D20A121C7E90E680E054F7F053A8
:100C5A008EF8C20930070512050DC207300929129C
:100C6A0020F35024C209121E4D20061690E682E097
:100C7A0030E704E020E1EF90E682E030E604E0208D
:0D0C8A00E0E4121CAD1220F512112880C705
:10050D0090E6B9E070030205BE14700302063B24A9
:10051D00FE70030206BE24FB70030205B8147003BF
:10052D000205B21460731460762405600302071D82
:10053D001220F7400302072990E6BBE024FE60225B
:10054D0014603324FD601114602224067048E50AFE
:10055D0090E6B3F0E50B8037E51290E6B3F0E513C6
:10056D00802DE50C90E6B3F0E50D8023E50E90E6C9
:10057D00B3F0E50F801990E6BAE0FF121CD9AA0678
:10058D00A9077B01EA494B600DEE90E6B3F0EF90C1
:10059D00E6B4F0020729020722121FF20207291200
:1005AD0014F802072912190F020729121FE002077A
:1005BD00291220F9400302072990E6B8E0247F6054
:1005CD001514601924027063A206E43325E0FFA21E
:1005DD0008E4334F8041E490E740F0803F90E6BC63
:1005ED00E0547EFF7E00E0D394807C0040047D01CA
:1005FD0080027D00EC4EFEED4F247FF58274203E8F
:10060D00F583E493FF3395E0FEEF24A1FFEE34E68E
:10061D008F82F583E0540190E740F0E4A3F090E67B
:10062D008AF090E68B7402F002072902072212204D
:10063D00FB400302072990E6B8E024FE6016240271
:10064D00600302072990E6BAE0B40105C20602076D
:10065D002902072290E6BAE0705590E6BCE0547E80
:10066D00FF7E00E0D394807C0040047D0180027DFC
:10067D0000EC4EFEED4F247FF58274203EF583E4B1
:10068D0093FF3395E0FEEF24A1FFEE34E68F82F564
:10069D0083E054FEF090E6BCE05480131313541F16
:1006AD00FFE0540F2F90E683F0E04420F0806D8042
:1006BD00641220FD506690E6B8E024FE6019240215
:1006CD00705A90E6BAE0B40104D206804F90E6BAB3
:1006DD00E064026047803E90E6BCE0547EFF7E0001
:1006ED00E0D394807C0040047D0180027D00EC4EBF
:1006FD00FEED4F247FF58274203EF583E493FF33A6
:10070D0095E0FEEF24A1FFEE34E68F82F58380089D
:10071D00120080500790E6A0E04401F090E6A0E0C2
:03072D004480F015
:0107300022A6
:030033000216FCB6
:0416FC0053D8EF329E
:101F2E00758CE0758AC0E58954F04401F589758E8B
:081F3E0003D28CD2A9D2AF221C
:03000B0002144F8D
:10144F00C0E0C0F0C083C082C0D075D000C000C063
:10145F0001C002C003C004C005C006C007758CE000
:10146F00758AC0D28CE47F607EEAFDFCAB59AA5826
:10147F00A957A856C3120DF25019AF59AE58AD5710
:10148F00AC56EF2401F559E43EF558E43DF557E429
:10149F003CF556E47F01FEFDFCAB59AA58A957A8AD
:1014AF0056C3120DF27008E5A054F02534F5A0E5EF
:1014BF002A2401FFE43529FEE4FCFDAB59AA58A903
:1014CF0057A856C3120DF2700553A0F0C28CD00767
:1014DF00D006D005D004D003D002D001D000D0D098
:0914EF00D082D083D0F0D0E032AD
:03003B000218A701
:1018A700C0E0C083C082C0D075D000C006C007307A
:1018B700C041C2C085C114052EE52E7002052DD387
:1018C700E52E94F4E52D648094814006752D00750E
:1018D7002E00AE2DAF2EEE90F800F0AE2DAF2EEF0E
:1018E700A3F0AE2DAF2E74012FF58274F83EF58369
:1018F700E514F030C105C2C185C114D007D006D0A8
:08190700D0D082D083D0E03281
:0300230002196E51
:10196E00C0E0C083C082C0D075D000C007309836AA
:10197E00C298859915052CE52C7002052BD3E52C04
:10198E00940EE52B648094804006752B00752C0018
:10199E00AF2C90E7F0EFF0AF2C74F02FF582E4341B
:1019AE00E7F583E515F0D007D0D0D082D083D0E014
:0119BE0032F6
:1017000012010002000000401816512900000102D9
:1017100000010A0600020000004001000902350035
:1017200001010080FA0904000005FF000000070520
:101730000102400000070582020002000705810245
:1017400040000007058602000200070508020002AB
:101750000009022E0001010080FA0904000004FFC4
:10176000000000070501024000000705820240005A
:101770000007050202000200070581024000000484
:1017800003090410035100480059002D0043004391
:10179000004400160351004800590032003900206F
:0B17A0000020002000200020000000BE
:1010410060802800030A0303020203070000000274
:10105100000002000B2A0A121014101000000000F8
:101061000000003F020A030303030307000000021C
:10107100000002000B2A120A1014101000000000D8
:101081000000003F032D03030303030700000002D8
:10109100000002000B2A0A121014101000000000B8
:1010A1000000003F030A0A0A0A0A0A0700000002B8
:1010B100000002000B2A120A101410100000000098
:1010C1000000003F602428870000000000000000AD
:1010D100000000000000000000000000000000000F
:1010E1000000000000000000000000004728808090
:0610F100000010CA4E00D1
:1013930090E60174CAF090E6F574FFF0902880E0BF
:1013A30090E6F3F0902881E090E6C3F0902882E085
:1013B30090E6C1F0902883E090E6C2F0902885E0A3
:1013C30090E6C0F0902886E090E6F4F075AF0774DD
:1013D30028F59A7400F59B759DE4E4F59EFF90E66D
:1013E3007BE090E67CF00FBF80F490E67174FFF031
:1013F300F5B490E672E04480F043B680000000E468
:1014030090E6C4F000000090E6C5F0902887E090D5
:10141300E6C6F0902888E090E6C7F0902889E0902F
:10142300E6C8F090288AE090E6C9F090288BE09017
:10143300E6CAF090288CE090E6CBF090288DE090FF
:0B144300E6CCF090288EE090E6CDF0A3
:01144E00227B
:03004300021500A3
:0300530002150093
:10150000021F4600021FA300021F8D00021F5E0083
:10151000021B7A00021A8E000220FF000221000046
:101520000221010002210200021ACB0002092E0052
:101530000221030002210400021A4B00020F4400A2
:1015400002210500022100000221060002210700FD
:10155000022108000221090002210A0002210B00D9
:1015600002210C00022100000221000002210000E3
:1015700002210D0002210E0002210F0002211000A5
:101580000221110002211200022113000221140085
:101590000221150002211600022117000221180065
:1015A0000221190002211A0002211B0002211C0045
:0815B00002211D0002211E00B2
:101CAD0090E682E030E004E020E60B90E682E03042
:101CBD00E119E030E71590E680E04401F07F147EF5
:0C1CCD00001219BF90E680E054FEF022E7
:101E4D0090E682E044C0F090E681F0438701000007
:041E5D00000000225F
:101C7E00300A0990E680E0440AF0800790E680E0A2
:101C8E004408F07FDC7E051219BF90E65D74FFF00C
:0F1C9E0090E65FF05391EF90E680E054F7F0226C
:021CD900A90759
:101CDB00AE16AF178F828E83A3E064037017AD012E
:101CEB0019ED7001228F828E83E07C002FFDEC3E7C
:091CFB00FEAF0580DF7E007F00D2
:011D040022BC
:1019BF008E728F7390E600E054187012E573240155
:1019CF00FFE43572C313F572EF13F573801590E6CC
:1019DF0000E05418FFBF100BE57325E0F573E572B7
:1019EF0033F572E5731573AE72700215724E6005A2
:0619FF00121E6180EE22C1
:101E61007400F58690FDA57C05A3E582458370F994
:011E7100224E
:1010F700C18202311040C100014C00C105C1040486
:1011070052000000000437000000000149000125DB
:1011170000044300000000043B000000000135000C
:0B206900E5B15440C413135403FF22E0
:1007310090E600E054E74410F00000000000009053
:10074100E61074A0F000000090E60B7401F090E652
:100751001274E0F0000000E490E613F00000009055
:10076100E61474E2F000000090E61574A0F00000B9
:100771000090E6D27402F090E6047480F00000006C
:100781007402F00000007406F00000007408F0002C
:100791000000E4F000000012139390E6187408F0D2
:1007A10000000090E619F000000090E61AF0000049
:1007B1000090E61BF0000000E490E670F075B2FFD7
:1007C1007580FF90E671F075B47F75A0FF90E672B9
:1007D100F075B6BF75B11FC28CD28753A0FD122030
:1007E100E390E61074A0F000000090E611F0000024
:1007F1000090E65EE04408F0000000E490E68DF031
:1008010000000090E65EE04404F0000000E490E7A0
:10081100C0F090E7C4F0A3F0A3F0A3F090E7F0F0EC
:1008210090E68F7440F000000090E65EE04440F0F6
:100831000000007E027F0090F800E4F0A3DFFCDE00
:10084100FA90E6987402F0000000E490E699F00056
:1008510000007E027F0090F800E4F0A3DFFCDEFAE6
:1008610090E65EE04480F0000000E490E69CF00039
:10087100000090E69DF00000007F9AFE1220937523
:1008810027007528B4754D01754E9075311075327C
:10089100B875500675512C1220DB90E67AE054FEB3
:1008A100F0E4FD7F901220047F647E001219BF7D69
:1008B100FF7F421220047F647E001219BF7D827F78
:1008C1004E1220047536FF43B108E4F54190E782EA
:1008D100E536F090E781E541F0121F76E4F52BF55E
:1008E1002C121DB0E4F52DF52E1220E3121EB87F57
:1008F100887E13121E80121EB87F887E13121E80FE
:10090100121EB87F887E13121E801220501216709C
:100911007F55121B077F887E13121E80D2F9C2F801
:0C092100E4F54990E7C0E549F053A0F769
:01092D0022A7
:0E202800EF2401FBE43EFA7D047F48021EF621
:10183700E541C313FFC374809FF572E541D394005C
:1018470040067536FF43B108E541700353B1F77E93
:10185700297F0B12202890290CE090E7C1F09029EE
:101867000DE090E7C2F09028EBE536F07A287BEBA5
:101877007D017F21121F129028EB7402F0A3748060
:10188700F07A287BEB7D027F28121F12E49028EB69
:10189700F0A3E572F07A287BEB7D027F28021F1206
:10112800E5552401F555E43554F554E43553F553A4
:10113800E43552F552E53A2401F53AE43539F53902
:10114800E43538F538E43537F537E47FE87E03FDD4
:10115800FCAB55AA54A953A852C3120DF2700F90B4
:1011680028EBF07A287BEB7D017F48121F127FA0C5
:101178007E867D017C00AB55AA54A953A852C312A0
:101188000DF27016F555F554F553F55212183790BF
:10119800E6907402F0E490E691F0E47F2C7E01FD85
:1011A800FCAB3AAA39A938A837C3120DF2700BF56F
:1011B8003AF539F538F537121C1A30013A754901F4
:1011C800E5B130E6032005F81212CAC201E4F54978
:1011D80090E7C0E549F0121EB87F887E13121E8082
:1011E800121EB87F887E13121E80121EB87F887E5A
:0811F80013121E801220502288
:0220F300D322F6
:0220F500D322F4
:0220F700D322F2
:10190F0090E680E030E73A00000090E6207402F0A5
:10191F00000000E490E621F000000090E62474023D
:10192F00F0000000E490E625F000000090E6267439
:10193F0002F0000000E490E627F0000000D20280E1
:10194F0016000000E490E620F000000090E62174FD
:0F195F0040F0000000C20290E6BAE0F54AD32241
:101FE00090E740E54AF0E490E68AF090E68B04F052
:021FF000D322FA
:0814F80090E6BAE0F526D322CC
:101FF20090E740E526F0E490E68AF090E68B04F064
:02200200D322E7
:0220F900D322F0
:0220FB00D322EE
:0220FD00D322EC
:10008000E4F56EF56F90E6B9E0120E1600B1B3001C
:10009000E9B50266B6029EBB02E5BC038EC103460B
:1000A000C2040CC5042BC60460CA04A1CB00000521
:1000B00009E490E68AF090E68BF090E6A0E020E17B
:1000C000F990E68BE0F56EE4F5B390E60174CAF0C2
:1000D000D20100000090E6047480F0000000740279
:1000E000F0000000E4F002050BE490E68AF090E6F0
:1000F0008BF090E6A0E020E1F990E68BE0F56ED37E
:10010000943F4024E4F56F7440256FF582E434E7B2
:10011000F583E0FF74AB256FF582E43428F583EFB7
:10012000F0056FE56FB440DF7F8A7E001220939068
:1001300028ABE0FF7E0012209C9028ABE0FF7E0001
:100140001220A59028ABE0FF7E001220AE9028ACD4
:10015000E075F004A4FFAEF01220B79028ACE07573
:10016000F004A4FFAEF01220C09028ACE075F004BB
:10017000A4FFAEF01220C99028B0E0C3940250133F
:100180009028CCE090E6C07005744EF08016749C08
:10019000F080119028CCE090E6C07005749FF0804C
:1001A00003749DF09028CEE0F5429028CBE0F54016
:1001B0009028CFE0F54B9028D9E0F53FA3E0FEA3CF
:1001C000E07C002400F524EC3EF5239028B1E0F516
:1001D00033E53370037533019028B6E0FEA3E07C6D
:1001E000002400F528EC3EF527A3E0FEA3E0240060
:1001F000F54EEC3EF54D9028B2E0FEA3E02400F56C
:1002000032EC3EF531A3E0FEA3E02400F551EC3ED4
:10021000F5509028BCE0FEA3E02400F548EC3EF544
:10022000479028BAE0FEA3E02400F530EC3EF52F1D
:100230009028E0E0540FF535E4FD7F901220049003
:1002400028ACE0FCA3E0FDA3E0FEA3E0F5468E456C
:100250008D448C43E546F546E545F545E544F544D2
:10026000E4F54302050BE4F56F74AB256FF582E40A
:100270003428F583E0FF7440256FF582E434E7F518
:1002800083EFF0056FE56FB440DF000000E490E617
:100290008AF000000090E68B7440F002050BE490B9
:1002A000E68AF090E68BF090E6A0E020E1F978EBAA
:1002B0007C287D017B017AE679BC7E007F01120DEE
:1002C0006790E6BEE0FF7E0078EC7C287D017B0134
:1002D0007AE77940120D6790E6BAE0C313FF90E623
:1002E000BEE0048059E490E68AF090E68BF090E658
:1002F000A0E020E1F978EB7C287D017B017AE679AA
:10030000BD7E007F01120D6778EC7C287D017B01AA
:100310007AE679BC7E007F01120D6790E6BEE0FFB1
:100320007E0078ED7C287D017B017AE77940120D13
:100330006790E6BAE0C313FF90E6BEE02402FD7AC0
:10034000287BEB02050490E74074F4F0A37418F0E6
:10035000A3740CF0A37426F0A37407F0A374EEF05A
:10036000A37401F0A37403F0A37453F0300205E406
:10037000A3F0800690E74974FFF0000000E490E6E7
:100380008AF000000090E68B740AF002050BE490FE
:10039000E68AF090E68BF090E6A0E020E1F990E6A6
:1003A0008BE0F56EC298D39400500302050B90E7E2
:1003B00040E0940A5007E02430FF12203690E740D6
:1003C000E0B40A057F6112203690E740E0B40B05E7
:1003D0007F6212203690E740E0B40C057F63122064
:1003E0003690E740E0B40D057F6412203690E74078
:1003F000E0B40E057F6512203690E740E0640F60A0
:100400000302050B7F6612203602050B7AE77B405C
:100410007D047F48121EF6000000E490E68AF0009A
:10042000000090E68B7404F002050BE490E68AF07D
:1004300090E68BF090E6A0E020E1F990E68BE0F505
:100440006ED39401500302050B90E741E0FD7F421B
:1004500012200490E740E0FD7F4E12200402050BBD
:1004600090E6BCE090290BF07A297B0B7D017F5050
:10047000121F127A297B0B7D017F50121F1290E60A
:10048000BEE0FD7AE77B407F50121EF6E490E68ADC
:10049000F000000090E6BEE090E68BF000000080E7
:1004A0006AE490E68AF000000090E68BF00000001D
:1004B00090E6A0E020E1F990E6BCE0D39407404B41
:1004C00078EB7C287D017B017AE679BC7E007F0198
:1004D000120D6790E6BEE0FF7E0078EC7C287D017F
:1004E0007B017AE77940120D6790E6BEE004FD7A61
:1004F000287BEB7F50121F1290E6BEE004FD7A28A5
:0C0500007BEB7F50121F128002D322C33D
:01050C0022CC
:101F4600C0E0C083C082D2075391EF90E65D740172
:081F5600F0D082D083D0E0320C
:101F8D00C0E0C083C0825391EF90E65D7404F0D041
:061F9D0082D083D0E03287
:101FA300C0E0C083C0825391EF90E65D7402F0D02D
:061FB30082D083D0E03271
:101B7A00C0E0C083C08285100C85110D850D828559
:101B8A000C83A37402F085080E85090F850F8285E0
:101B9A000E83A37407F05391EF90E65D7410F0D0B2
:061BAA0082D083D0E0327E
:101F5E00C0E0C083C082D2095391EF90E65D740851
:081F6E00F0D082D083D0E032F4
:101A8E00C0E0C083C08290E680E030E72085080C7D
:101A9E0085090D850D82850C83A37402F085100EC9
:101AAE0085110F850F82850E83A37407F05391EF76
:0D1ABE0090E65D7420F0D082D083D0E0323D
:0120FF0032AE
:0121000032AC
:0121010032AB
:0121020032AA
:101ACB00C0E0C083C08290E65EE054FBF0000000F3
:101ADB0090E68F7440F0000000752B00752C009081
:101AEB00E7F0E4F05391EF90E65FE04404F090E60A
:0C1AFB005EE04404F0D082D083D0E032E2
:10092E00C0E0C0F0C083C082C0D075D000C000C08F
:0D093E0001C002C003C004C005C006C00710
:10094B0090E65EE054F7F090E6A1E020E1F990E745
:10095B0080E0FF120E160980000986010995300907
:10096B00C9310A0D320A4B330A7C340AA7FE0AB18D
:10097B00FF00000AB6752200020AB690E782E0F586
:10098B003690E781E0F541020AB6755A00755B01B6
:10099B0090E68DE0FFC3E55B9F7480F8655A984045
:1009AB0003020AB67480255BF582E434E7F583E035
:1009BB00FF122043055BE55B70D6055A80D290E7AA
:1009CB0081E07006758DB2020AB690E781E0B40142
:1009DB0006758D64020AB690E781E0B40206758D48
:1009EB00D9020AB690E781E0B40306758DE6020AD8
:1009FB00B690E781E064046003020AB6758DF302DA
:100A0B000AB690E781E07006121EB8020AB690E7AC
:100A1B0081E0B40106121E97020AB690E781E0B49A
:100A2B000206121D5C020AB690E781E0B4030512C0
:100A3B001ED7807790E781E0F47070122050806BA6
:100A4B00755A00755B0190E68DE0FFC3E55B9F7403
:100A5B0080F8655A9850547480255BF582E434E72E
:100A6B00F583E0FF122036055BE55B70D9055A80F4
:100A7B00D590E781E0F46011E024B0FF121FCDE4C4
:100A8B00FF121FCD7F10121FCD90E7817440F07ABB
:100A9B00E77B817D217F3C121F12800F90E781E065
:100AAB0024FF92058005752200D20300000090E61A
:100ABB008DE4F05391EF90E65FE04408F090E65E32
:040ACB00E04408F00B
:100ACF00D007D006D005D004D003D002D001D0007B
:0B0ADF00D0D0D082D083D0F0D0E03225
:0121030032A9
:0121040032A8
:101A4B00C0E0C083C08290E65EE054BFF0000000AF
:101A5B0090E6987402F000000090E699E4F0000024
:101A6B0000F52DF52E90F800F0A3F05391EF90E6D2
:101A7B005FE04440F090E65EE04440F0D082D083DB
:031A8B00D0E03276
:100F4400C0E0C0F0C083C082C0D075D000C000C073
:0D0F540001C002C003C004C005C006C007F4
:100F610090E65EE0547FF090E6A6E020E1F990E69D
:100F71009CE0FE90E69DE07C002400F55BEC3EF5F4
:100F81005AE55B6405455A704D90FC00E0B4EE14DF
:100F9100A3E0B4440FA3E0B4880AA3E07006A3E081
:100FA10064336064755C00755D00C3E55D955BE568
:100FB1005A6480F8E55C648098504D7400255DF5B5
:100FC1008274FC355CF583E0FF122043055DE55D2D
:100FD10070D8055C80D4755C00755D00C3E55D95D6
:100FE1005BE55A6480F8E55C648098501B740025C9
:100FF1005DF58274FC355CF583E0FF122043055DED
:10100100E55D70D8055C80D400000090E69CE4F0BA
:1010110090E69DF05391EF90E65FE04480F090E61A
:051021005EE04480F0D8
:10102600D007D006D005D004D003D002D001D0001E
:0B103600D0D0D082D083D0F0D0E032C8
:0121050032A7
:0121060032A6
:0121070032A5
:0121080032A4
:0121090032A3
:01210A0032A2
:01210B0032A1
:01210C0032A0
:01210D00329F
:01210E00329E
:01210F00329D
:01211000329C
:01211100329B
:01211200329A
:012113003299
:012114003298
:012115003297
:012116003296
:012117003295
:012118003294
:012119003293
:01211A003292
:01211B003291
:01211C003290
:01211D00328F
:01211E00328E
:061200008F708C718D72ED
:1012060053700753A0BF7F0A7E00121E80E4F57359
:10121600F574C374029574FFE570A807088002C3CD
:1012260013D8FC30E00543A020800353A0DF7F0ADB
:101236007E00121E8043A0107F0A7E00121E80537D
:10124600A0EF7F0A7E00121E800574E57470020509
:1012560073C39403E5736480948040B6E4F573F534
:1012660074C374099574FFE572AE71A8070880050A
:10127600CEC313CE13D8F930E00543A02080035324
:10128600A0DF7F0A7E00121E8043A0107F0A7E0028
:10129600121E8053A0EF7F0A7E00121E800574E5A1
:1012A6007470020573C3940AE5736480948040B138
:1012B60043A0407F0A7E00121E8053A0BF7F0A7E95
:0412C60000021E8084
:09209300AD07AC06E4FF021200E7
:09209C00AD07AC067F040212003E
:0920A500AD07AC067F0502120034
:0920AE00AD07AC067F060212002A
:0920B700AD07AC067F0102120026
:0920C000AD07AC067F020212001C
:0920C900AD07AC067F0302120012
:102004009028EBEDF0EFC313FF7A287BEB7D010200
:022014001F1299
:101DD8009028EB7402F0A37480F07A287BEB7D02E4
:101DE8007F28121F12E49028EBF0A3F07A287BEBEF
:071DF8007D027F28021F128B
:101FCD00E49028EBF0A3EFF07A287BEB7D027F3CC9
:031FDD00021F12CE
:101FB9009028EB7440F0A3EFF07A287BEB7D027F49
:041FC9003C021F12A5
:101670007FAE121FCD7F04121FCD7F10121FCD7FB2
:1016800040121FCD7FB0121FCD7F81121FCD7F80F2
:10169000121FCD7FA1121FCD7FA6121FCD7FA812D2
:1016A0001FCD7F3F121FCD7FAD121FCD7F8B121F2D
:1016B000CD7F30121FCD7FC8121FCD7FD3121FCD1B
:1016C000E4FF121FCD7FD5121FCD7F80121FCD7F6B
:1016D000D9121FCD7F22121FCD7FDA121FCD7F02BC
:1016E000121FCD7F8D121FCD7F14121FCD7FDB12F5
:0C16F0001FCD7F40121FCD7FAF021FCD29
:021B07008F6EDF
:101B0900E4FF121FCD7F10121FCDE4F570E570249C
:101B1900B6FF121FCDE4FF121FCD7F10121FCDE4B7
:101B2900F56FAF6E121FB9056FE56FC3946040F290
:091B39000570E570C3940240D46C
:011B42002280
:0E1E72007FFC7E08121E8012207B7FFC7E0803
:101E8000EF7803C333CE33CED8F9FFEF4E6007EFC0
:071E90001F70F81E80F5220F
:01211F00229D
:01212000229C
:01212100229B
:01212200229A
:0420E3007580E322FF
:101A05007580E37F027E00121E807580EA7F027E6C
:101A150000121E807580CE7F0A7E00121E807580A2
:101A2500EC7F027E00121E807580CE7F0A7E00123A
:101A35001E807580C77F027E00121E807580E37F41
:061A4500027E00021E807B
:101C1A007580E37F027E00121E807580EA7F027E55
:101C2A0000121E807580CE7F027E00121E80758093
:101C3A00C77F027E00121E807580E37F027E00024B
:021C4A001E80FA
:10201600E4FDFC121C1A0DBD00010CBC11F5BD64DB
:01202600F2C7
:012027002296
:0C205D00C2867F057E00121E80D2862203
:0A208900121E9712205043B12022CE
:0920D20053B1DF121ED7022050A9
:1015B80085463E85453D85443C85433BE540B40131
:1015C80002C287122089E542600302165C75220177
:1015D800E47FE87E03FDFCAB3EAA3DA93CA83BC3E3
:1015E800120DF24061E5226401705B7FDD7E03121B
:1015F80019BF121837E53E2418F53EE53D34FCF5D1
:101608003DE53C34FFF53CE53B34FFF53BE4FFFEAC
:10161800FDE53BFC7818120E0390E7C4EFF0E4FFF9
:10162800FEE53CFDE4FC7810120E03A3EFF0E4FFA6
:10163800E53DFEE4FDFC7808120E03A3EFF0E53E5D
:10164800FFA3EFF0808AE522B40112AE3DAF3E124F
:1016580019BF8009752201E522640160FA1220D2BF
:08166800E540B40102D2872223
:101D0500AD07AC06D3ED9400EC9400401E00000036
:101D1500EE90E6D0F0000000ED90E6D1F000000076
:0C1D250075BB04000000E5BB30E7FB22AA
:081B43008C728D73AB07AA063A
:101B4B00E4FDFCC3ED9573EC95725022EA90E6D060
:101B5B00F0000000EB90E6D1F000000075BB050033
:0E1B6B000000E5BB30E7FB0DBD00010C80D58E
:011B79002249
:101D8700AD07AC06000000ED25E0EC3390E6D0F09F
:101D9700000000ED25E090E6D1F000000075BB04DF
:091DA700000000E5BB30E7FB225F
:1012CA00C20375490290E7C0E549F012205D121584
:1012DA00B8122016121A0575490390E7C0E549F0BD
:1012EA00300303021392E4F570F571C3E571952892
:1012FA00E5709527500D121C1A0571E57170EC0501
:10130A007080E8E53FD39400400CE53FFD7C00AFD8
:10131A0032AE31121B43D3E5249400E523940040F6
:10132A0007AF24AE23121D87E4F56EF56FC3E56F90
:10133A009551E56E9550502C121D31E4F570F571FA
:10134A00C3E57195337480F8657098500D121C1AB4
:10135A000571E57170EA057080E6056FE56F70CD7D
:10136A00056E80C9E4F570F571C3E571954EE570B7
:10137A00954D500D121C1A0571E57170EC057080BF
:08138A00E8AF48AE47121D0553
:011392002238
:101D3100000000E53225E0E5313390E6D0F0000007
:101D410000E53225E090E6D1F000000075BB04000B
:0B1D51000000E5BB20E7033003F82290
:101F7600E490E608F075C83443985053877FD2AC96
:071F860075CBFF75CA642250
:0D203600309902C2998F993099FDC299220C
:101DFF0090000020981CA3AF82AE83E4FCFD7BFA19
:101E0F007AFFF9F8C3120DDC5004D2008004C2002F
:061E1F0080E1C298AF99BA
:011E2500229A
:101DB000E490E608F0D28E53897F5389BF4389208F
:101DC0005389EF438E10758DB243C05043D880C203
:081DD000C0C2C1D2AED2AF22A5
:0D20430030C102C2C18FC130C1FDC2C12237
:101E260090000020C01CA3AF82AE83E4FCFD7BFAC9
:101E36007AFFF9F8C3120DDC5004D2008004C20008
:061E460080E1C2C0AFC143
:011E4C002273
:0420E70075B00922A5
:0420EB0075B00322A7
:0420EF0075B00622A0
:072074007FC47E09121E80EB
:04207B0075B00C220E
:0D205000E4F5B07525FF90E7CBE525F02203
:101EB800121E791220E7121E7C1220EB121E7C12D1
:0F1EC80020EF121E72E4F52590E7CBE525F022FE
:101ED700121E791220EF121E7C1220EB121E7C12AA
:0F1EE70020E7121E7275250390E7CBE525F02248
:101E97001220EB7FC47E09121E801220E7122074E5
:101EA7007FC47E09121E8075250190E7CBE525F0DA
:011EB7002208
:101D5C001220E77FC47E09121E801220EB7FC47E06
:101D6C0009121E801220EF1220747FC47E09121EED
:0B1D7C008075250290E7CBE525F022E2
:0820DB00E4F51DD2E9D2AF22A9
:101BB00090E678E020E6F9C2E990E678E04480F02B
:101BC000EF25E090E679F090E678E030E0F990E6F5
:101BD00078E04440F090E678E020E6F990E678E09E
:061BE00030E1D6D2E9223B
:101C4C00A90790E678E020E6F9E51D702390E67888
:101C5C00E04480F0E925E090E679F08D18AF03A917
:101C6C00077519018A1A891BE4F51C751D01D3220D
:021C7C00C32281
:101BE600A90790E678E020E6F9E51D702590E678ED
:101BF600E04480F0E925E0440190E679F08D18AFE5
:101C060003A9077519018A1A891BE4F51C751D03BA
:041C1600D322C322F0
:03004B00020E3C66
:100E3C00C0E0C083C082C085C084C086758600C0F7
:100E4C00D075D000C000C001C002C003C006C007EE
:100E5C0090E678E030E206751D06020F2690E678E3
:100E6C00E020E10CE51D64026006751D07020F26EB
:100E7C00E51D24FE605F14603624FE7003020F171C
:100E8C0024FC7003020F2324086003020F26AB1905
:100E9C00AA1AA91BAF1C051C8F82758300120D8D1D
:100EAC0090E679F0E51C65187070751D05806B90E7
:100EBC00E679E0AB19AA1AA91BAE1C8E82758300C9
:100ECC00120DBA751D02E5186401704E90E678E0BB
:100EDC004420F08045E51824FEB51C0790E678E028
:100EEC004420F0E51814B51C0A90E678E04440F074
:100EFC00751D0090E679E0AB19AA1AA91BAE1C8EE1
:100F0C0082758300120DBA051C800F90E678E044C0
:100F1C0040F0751D008003751D005391DFD007D084
:100F2C0006D003D002D001D000D0D0D086D084D04F
:080F3C0085D082D083D0E032A1
:101EF600121BE6E51D24FA600E146006240770F333
:0C1F0600D322E4F51DD322E4F51DD32204
:101F1200121C4CE51D24FA600E146006240770F3AF
:0C1F2200D322E4F51DD322E4F51DD322E8
:030000000217AB39
:0C17AB00787FE4F6D8FD7581740217F217
:100C9700E709F608DFFA8046E709F208DFFA803E3F
:100CA70088828C83E709F0A3DFFA8032E309F6082C
:100CB700DFFA8078E309F208DFFA807088828C8394
:100CC700E309F0A3DFFA806489828A83E0A3F60848
:100CD700DFFA805889828A83E0A3F208DFFA804C22
:100CE70080D280FA80C680D4806980F280338010F9
:100CF70080A680EA809A80A880DA80E280CA803362
:100D070089828A83ECFAE493A3C8C582C8CCC583D9
:100D1700CCF0A3C8C582C8CCC583CCDFE9DEE780A9
:100D27000D89828A83E493A3F608DFF9ECFAA9F028
:100D3700EDFB2289828A83ECFAE0A3C8C582C8CC7E
:100D4700C583CCF0A3C8C582C8CCC583CCDFEADE97
:100D5700E880DB89828A83E493A3F208DFF980CCF9
:100D670088F0EF60010E4E60C388F0ED2402B404F2
:100D77000050B9F582EB2402B4040050AF23234599
:060D87008223900CE773CB
:100D8D00BB010CE58229F582E5833AF583E022501B
:100D9D0006E92582F8E622BBFE06E92582F8E22265
:0D0DAD00E58229F582E5833AF583E493227F
:100DBA00F8BB010DE58229F582E5833AF583E8F06F
:100DCA00225006E92582C8F622BBFE05E92582C81B
:020DDA00F22203
:100DDC00EB9FF5F0EA9E42F0E99D42F0EC6480C88E
:060DEC0064809845F0222E
:100DF200EB9FF5F0EA9E42F0E99D42F0E89C45F057
:010E020022CD
:100E0300E8600FECC313FCED13FDEE13FEEF13FFCD
:030E1300D8F122F1
:100E1600D083D082F8E4937012740193700DA3A36B
:100E260093F8740193F5828883E47374029368607F
:060E3600EFA3A3A380DF7F
:1017B700020AEAE493A3F8E493A34003F68001F254
:1017C70008DFF48029E493A3F85407240CC8C33333
:1017D700C4540F4420C8834004F456800146F6DF02
:1017E700E4800B0102040810204080901041E47E41
:1017F700019360BCA3FF543F30E509541FFEE493F7
:10180700A360010ECF54C025E060A840B8E493A3BD
:10181700FAE493A3F8E493A3C8C582C8CAC583CAE8
:10182700F0A3C8C582C8CAC583CADFE9DEE780BEA0
:0111270000C7
:00000001FF
