:0A206A00000102020303040405054F
:100AE900E4F565F564F563F562C209C206C208C298
:100AF900071214E51207307E167F008E0A8F0B75D8
:100B0900121675131275081675091C7510167511CC
:100B19005175161675177FEE54E07003020C307587
:100B290066007567808E688F69C374A99FFF741604
:100B39009ECF2402CF3400FEE48F618E60F55FF50D
:100B49005EF55DF55CF55BF55AAF61AE60AD5FAC26
:100B59005EAB5DAA5CA95BA85AC3120DF15026E5EC
:100B690067255DF582E566355CF58374CDF0E55D55
:100B79002401F55DE4355CF55CE4355BF55BE43552
:100B89005AF55A80C4E4F55DF55CF55BF55AAF6139
:100B9900AE60AD5FAC5EAB5DAA5CA95BA85AC3123F
:100BA9000DF15031AE5CAF5DE5692FF582E5683E28
:100BB900F583E0FDE5672FF582E5663EF583EDF007
:100BC900EF2401F55DE43EF55CE4355BF55BE43566
:100BD9005AF55A80B985660A85670B74002480FF27
:100BE900741634FFFEC3E5139FF513E5129EF51243
:100BF900C3E50D9FF50DE50C9EF50CC3E50F9FF5BB
:100C09000FE50E9EF50EC3E5099FF509E5089EF56A
:100C190008C3E5119FF511E5109EF510C3E5179F6F
:100C2900F517E5169EF516D2E843D82090E668E058
:100C39004409F090E65CE0443DF0D2AF90E680E0F4
:100C490020E105D20A121C6390E680E054F7F053C4
:100C59008EF8C20930070512050CC207300929129E
:100C690014FD5024C209121E2F20061690E682E0B8
:100C790030E704E020E1EF90E682E030E604E0208E
:0D0C8900E0E4121C921215FE1212B480C796
:10050C0090E6B9E070030205BD14700302063A24AC
:10051C00FE70030206BD24FB70030205B7147003C2
:10052C000205B11460731460762405600302071C85
:10053C001220DE400302072890E6BBE024FE602276
:10054C0014603324FD601114602224067048E50AFF
:10055C0090E6B3F0E50B8037E51290E6B3F0E513C7
:10056C00802DE50C90E6B3F0E50D8023E50E90E6CA
:10057C00B3F0E50F801990E6BAE0FF121CBEAA0694
:10058C00A9077B01EA494B600DEE90E6B3F0EF90C2
:10059C00E6B4F0020728020721121FBC020728123A
:1005AC0020C6020728121944020728121FAA0207A4
:1005BC00281220E0400302072890E6B8E0247F6070
:1005CC001514601924027063A206E43325E0FFA21F
:1005DC0008E4334F8041E490E740F0803F90E6BC64
:1005EC00E0547EFF7E00E0D394807C0040047D01CB
:1005FC0080027D00EC4EFEED4F246AF58274203EA5
:10060C00F583E493FF3395E0FEEF24A1FFEE34E68F
:10061C008F82F583E0540190E740F0E4A3F090E67C
:10062C008AF090E68B7402F0020728020721122050
:10063C00E2400302072890E6B8E024FE601624028C
:10064C00600302072890E6BAE0B40105C20602076F
:10065C002802072190E6BAE0705590E6BCE0547E83
:10066C00FF7E00E0D394807C0040047D0180027DFD
:10067C0000EC4EFEED4F246AF58274203EF583E4C7
:10068C0093FF3395E0FEEF24A1FFEE34E68F82F565
:10069C0083E054FEF090E6BCE05480131313541F17
:1006AC00FFE0540F2F90E683F0E04420F0806D8043
:1006BC00641220E4506690E6B8E024FE601924022F
:1006CC00705A90E6BAE0B40104D206804F90E6BAB4
:1006DC00E064026047803E90E6BCE0547EFF7E0002
:1006EC00E0D394807C0040047D0180027D00EC4EC0
:1006FC00FEED4F246AF58274203EF583E493FF33BC
:10070C0095E0FEEF24A1FFEE34E68F82F58380089E
:10071C00120080500790E6A0E04401F090E6A0E0C3
:03072C004480F016
:01072F0022A7
:030033000220D6D2
:0420D60053D8EF32BA
:1014E500758CE0758AC0E58954F04401F589758EDF
:0814F50003D28CD2A9D2AF2270
:03000B000216AB2F
:1016AB00C0E0C0F0C083C082C0D075D000C000C005
:1016BB0001C002C003C004C005C006C007758CE0A2
:1016CB00758AC0D28CE47F607EEAFDFCAB55AA54D0
:1016DB00A953A852C3120DF15019AF55AE54AD53C7
:1016EB00AC52EF2401F555E43EF554E43DF553E4DB
:1016FB003CF552E47F01FEFDFCAB55AA54A953A85F
:10170B0052C3120DF17008E5A054F02534F5A0E595
:10171B002A2401FFE43529FEE4FCFDAB55AA54A9AC
:10172B0053A852C3120DF1700553A0F0C28CD00711
:10173B00D006D005D004D003D002D001D000D0D039
:09174B00D082D083D0F0D0E0324E
:03003B000218DCCC
:1018DC00C0E0C083C082C0D075D000C006C0073045
:1018EC00C041C2C085C114052EE52E7002052DD352
:1018FC00E52E94F4E52D648094814006752D0075D9
:10190C002E00AE2DAF2EEE90F800F0AE2DAF2EEFD8
:10191C00A3F0AE2DAF2E74012FF58274F83EF58333
:10192C00E514F030C105C2C185C114D007D006D072
:08193C00D0D082D083D0E0324C
:030023000219A31C
:1019A300C0E0C083C082C0D075D000C00730983675
:1019B300C298859915052CE52C7002052BD3E52CCF
:1019C300940EE52B648094804006752B00752C00E3
:1019D300AF2C90E7F0EFF0AF2C74F02FF582E434E6
:1019E300E7F583E515F0D007D0D0D082D083D0E0DF
:0119F30032C1
:1016000012010002000000401816711600000102CD
:1016100000010A0600020000004001000902350036
:1016200001010080FA0904000005FF000000070521
:101630000102400000070582020002000705810246
:1016400040000007058602000200070508020002AC
:101650000009022E0001010080FA0904000004FFC5
:10166000000000070501024000000705820240005B
:101670000007050202000200070581024000000485
:1016800003090410035100480059002D0043004392
:101690000044001603510048005900320038002071
:0B16A0000020002000200020000000BF
:1010400060802800030A0303020203070000000275
:10105000000002000B2A0A121014101000000000F9
:101060000000003F020A030303030307000000021D
:10107000000002000B2A120A1014101000000000D9
:101080000000003F032D03030303030700000002D9
:10109000000002000B2A0A121014101000000000B9
:1010A0000000003F030A0A0A0A0A0A0700000002B9
:1010B000000002000B2A120A101410100000000099
:1010C0000000003F602428870000000000000000AE
:1010D0000000000000000000000000000000000010
:1010E0000000000000000000000000004728808091
:0610F000000010CA4E00D2
:1013710090E60174CAF090E6F574FFF0902880E0E1
:1013810090E6F3F0902881E090E6C3F0902882E0A7
:1013910090E6C1F0902883E090E6C2F0902885E0C5
:1013A10090E6C0F0902886E090E6F4F075AF0774FF
:1013B10028F59A7400F59B759DE4E4F59EFF90E68F
:1013C1007BE090E67CF00FBF80F490E67174FFF053
:1013D100F5B490E672E04480F043B680000000E48A
:1013E10090E6C4F000000090E6C5F0902887E090F8
:1013F100E6C6F0902888E090E6C7F0902889E09052
:10140100E6C8F090288AE090E6C9F090288BE09039
:10141100E6CAF090288CE090E6CBF090288DE09021
:0B142100E6CCF090288EE090E6CDF0C5
:01142C00229D
:03004300021500A3
:0300530002150093
:10150000021F1000021F6D00021F5700021F28005B
:10151000021B5F00021A37000214FF000220E600DF
:101520000220E7000220E800021A740002092D00E0
:101530000220E9000220EA000219F400020F430031
:101540000220EB000220E6000220EC000220ED0069
:101550000220EE000220EF000220F0000220F10045
:101560000220F2000220E6000220E6000220E6004F
:101570000220F3000220F4000220F5000220F60011
:101580000220F7000220F8000220F9000220FA00F1
:101590000220FB000220FC000220FD000220FE00D1
:1015A0000220FF00022100000221010002210200AE
:0815B0000221030002210400E6
:101C920090E682E030E004E020E60B90E682E0305D
:101CA200E119E030E71590E680E04401F07F147E10
:0C1CB200001215B890E680E054FEF0220D
:101E2F0090E682E044C0F090E681F0438701000025
:041E3F00000000227D
:101C6300300A0990E680E0440AF0800790E680E0BD
:101C73004408F07FDC7E051215B890E65D74FFF032
:0F1C830090E65FF05391EF90E680E054F7F02287
:021CBE00A90774
:101CC000AE16AF178F828E83A3E064037017AD0149
:101CD00019ED7001228F828E83E07C002FFDEC3E97
:091CE000FEAF0580DF7E007F00ED
:011CE90022D8
:1015B8008E6E8F6F90E600E054187012E56F24016C
:1015C800FFE4356EC313F56EEF13F56F801590E6E3
:1015D80000E05418FFBF100BE56F25E0F56FE56ECE
:1015E80033F56EE56F156FAE6E7002156E4E6005C1
:0615F800121E4380EE22EA
:101E43007400F58690FDA57C05A3E582458370F9B2
:011E5300226C
:1010F600C18202311040C100014800C105C104048B
:101106004E00000000014500012500043F000000DC
:0A111600000437000000000135005E
:0B203300E5B15440C413135403FF2216
:1007300090E600E054E74410F00000000000009054
:10074000E61074A0F000000090E60B7401F090E653
:100750001274E0F0000000E490E613F00000009056
:10076000E61474E2F000000090E61574A0F00000BA
:100770000090E6D27402F090E6047480F00000006D
:100780007402F00000007406F00000007408F0002D
:100790000000E4F000000012137190E6187408F0F5
:1007A00000000090E619F000000090E61AF000004A
:1007B0000090E61BF0000000E490E670F075B2FFD8
:1007C0007580FF90E671F075B47F75A0FF90E672BA
:1007D000F075B6BF75B11FC28CD28753A0FD122031
:1007E000DA90E61074A0F000000090E611F000002E
:1007F0000090E65EE04408F0000000E490E68DF032
:1008000000000090E65EE04404F0000000E490E7A1
:10081000C0F090E7C4F0A3F0A3F0A3F090E7F0F0ED
:1008200090E68F7440F000000090E65EE04440F0F7
:100830000000007E027F0090F800E4F0A3DFFCDE01
:10084000FA90E6987402F0000000E490E699F00057
:1008500000007E027F0090F800E4F0A3DFFCDEFAE7
:1008600090E65EE04480F0000000E490E69CF0003A
:10087000000090E69DF00000007F9AFE12207E7539
:1008800027007528B4754901754A90753110753285
:10089000B8754C06754D2C1220CE90E67AE054FEC9
:1008A000F0E4FD7F90121FCE7F647E001215B87DAC
:1008B000FF7F42121FCE7F647E001215B87D827FBB
:1008C0004E121FCE7536FF43B108E4F53D90E78226
:1008D000E536F090E781E53DF0121F40E4F52BF599
:1008E0002C121D6AE4F52DF52E1220DA121E797FE6
:1008F000887E13121B11121E797F887E13121B1122
:10090000121E797F887E13121B1112201A1217549F
:100910007F55121AB07F887E13121B11D2F9C2F8CC
:0C092000E4F54590E7C0E545F053A0F772
:01092C0022A8
:0E1FF200EF2401FBE43EFA7D047F48021ED876
:10186C00E53DC313FFC374809FF56EE53DD3940033
:10187C0040067536FF43B108E53D700353B1F77E62
:10188C00297F0B121FF290290CE090E7C1F09029F0
:10189C000DE090E7C2F09028EBE536F07A287BEB70
:1018AC007D017F21121EF49028EB7402F0A374804A
:1018BC00F07A287BEB7D027F28121EF4E49028EB53
:1018CC00F0A3E56EF07A287BEB7D027F28021EF4F4
:1012B400E5512401F551E43550F550E4354FF54F2F
:1012C400E4354EF54EE47FE87E03FDFCAB51AA50B5
:1012D400A94FA84EC3120DF1700F9028EBF07A2895
:1012E4007BEB7D017F48121EF47FA07E867D017C0E
:1012F40000AB51AA50A94FA84EC3120DF1700E12A3
:10130400186C90E6907402F0E490E691F07F407ED1
:101314000D7D037C00AB51AA50A94FA84ED3120DEA
:10132400F1400CE4F551F550F54FF54E121EB9306D
:10133400013A754501E5B130E6032005F81211EBD9
:10134400C201E4F54590E7C0E545F0121E797F88B7
:101354007E13121B11121E797F887E13121B111229
:0D1364001E797F887E13121B1112201A22A1
:0214FD00D322F8
:0215FE00D322F6
:0220DE00D3220B
:1019440090E680E030E73A00000090E6207402F070
:10195400000000E490E621F000000090E624740208
:10196400F0000000E490E625F000000090E6267404
:1019740002F0000000E490E627F0000000D20280AC
:1019840016000000E490E620F000000090E62174C8
:0F19940040F0000000C20290E6BAE0F546D32210
:101FAA0090E740E546F0E490E68AF090E68B04F08C
:021FBA00D32230
:0820C60090E6BAE0F526D322F2
:101FBC0090E740E526F0E490E68AF090E68B04F09A
:021FCC00D3221E
:0220E000D32209
:0220E200D32207
:0220E400D32205
:10008000E4F56AF56B90E6B9E0120E1500B1B30025
:10009000E9B50266B6029EBB02E5BC038DC103460C
:1000A000C2040BC5042AC6045FCA04A0CB00000525
:1000B00008E490E68AF090E68BF090E6A0E020E17C
:1000C000F990E68BE0F56AE4F5B390E60174CAF0C6
:1000D000D20100000090E6047480F0000000740279
:1000E000F0000000E4F002050AE490E68AF090E6F1
:1000F0008BF090E6A0E020E1F990E68BE0F56AD382
:10010000943F4024E4F56B7440256BF582E434E7BA
:10011000F583E0FF74AB256BF582E43428F583EFBB
:10012000F0056BE56BB440DF7F8A7E0012207E9085
:1001300028ABE0FF7E001220879028ABE0FF7E0016
:100140001220909028ABE0FF7E001220999028ACFE
:10015000E075F004A4FFAEF01220A29028ACE07588
:10016000F004A4FFAEF01220AB9028ACE075F004D0
:10017000A4FFAEF01220B49028B0E0C39402501354
:100180009028CCE090E6C07005744EF08016749C08
:10019000F080119028CCE090E6C07005749FF0804C
:1001A00003749DF09028CEE0F53E9028CBE0F53C1E
:1001B0009028CFE0F5479028D9E0F53BA3E0FEA3D7
:1001C000E07C002400F524EC3EF5239028B1E0F516
:1001D00033E53370037533019028B6E0FEA3E07C6D
:1001E000002400F528EC3EF527A3E0FEA3E0240060
:1001F000F54AEC3EF5499028B2E0FEA3E02400F574
:1002000032EC3EF531A3E0FEA3E02400F54DEC3ED8
:10021000F54C9028BCE0FEA3E02400F544EC3EF54C
:10022000439028BAE0FEA3E02400F530EC3EF52F21
:100230009028E0E0540FF535E4FD7F90121FCE903A
:1002400028ACE0FCA3E0FDA3E0FEA3E0F5428E4174
:100250008D408C3FE542F542E541F541E540F540F2
:10026000E4F53F02050AE4F56B74AB256BF582E417
:100270003428F583E0FF7440256BF582E434E7F51C
:1002800083EFF0056BE56BB440DF000000E490E61F
:100290008AF000000090E68B7440F002050AE490BA
:1002A000E68AF090E68BF090E6A0E020E1F978EBAA
:1002B0007C287D017B017AE679BC7E007F01120DEE
:1002C0006690E6BEE0FF7E0078EC7C287D017B0135
:1002D0007AE77940120D6690E6BAE0C313FF90E624
:1002E000BEE0048059E490E68AF090E68BF090E658
:1002F000A0E020E1F978EB7C287D017B017AE679AA
:10030000BD7E007F01120D6678EC7C287D017B01AB
:100310007AE679BC7E007F01120D6690E6BEE0FFB2
:100320007E0078ED7C287D017B017AE77940120D13
:100330006690E6BAE0C313FF90E6BEE02402FD7AC1
:10034000287BEB02050390E74074F4F0A3740DF0F2
:10035000A314F0A37426F0A37407F0A374EEF0A323
:100360007401F0A37403F0A37453F0300205E4A306
:10037000F0800690E74974FFF0000000E490E68A00
:10038000F000000090E68B740AF002050AE490E6A3
:100390008AF090E68BF090E6A0E020E1F990E68B01
:1003A000E0F56AC298D39400500302050A90E74032
:1003B000E0940A5007E02430FF12200090E740E06C
:1003C000B40A057F6112200090E740E0B40B057F7E
:1003D0006212200090E740E0B40C057F6312200019
:1003E00090E740E0B40D057F6412200090E740E004
:1003F000B40E057F6512200090E740E0640F6003B3
:1004000002050A7F6612200002050A7AE77B407D1A
:10041000047F48121ED8000000E490E68AF0000035
:100420000090E68B7404F002050AE490E68AF090EE
:10043000E68BF090E6A0E020E1F990E68BE0F56A2B
:10044000D39401500302050A90E741E0FD7F421278
:100450001FCE90E740E0FD7F4E121FCE02050A90AE
:10046000E6BCE090290BF07A297B0B7D017F5012CE
:100470001EF47A297B0B7D017F50121EF490E6BE9C
:10048000E0FD7AE77B407F50121ED8E490E68AF0C8
:1004900000000090E6BEE090E68BF0000000806A6D
:1004A000E490E68AF000000090E68BF000000090F7
:1004B000E6A0E020E1F990E6BCE0D39407404B7859
:1004C000EB7C287D017B017AE679BC7E007F0112FE
:1004D0000D6690E6BEE0FF7E0078EC7C287D017B17
:1004E000017AE77940120D6690E6BEE004FD7A28B5
:1004F0007BEB7F50121EF490E6BEE004FD7A287B71
:0B050000EB7F50121EF48002D322C3D8
:01050B0022CD
:101F1000C0E0C083C082D2075391EF90E65D7401A8
:081F2000F0D082D083D0E03242
:101F5700C0E0C083C0825391EF90E65D7404F0D077
:061F670082D083D0E032BD
:101F6D00C0E0C083C0825391EF90E65D7402F0D063
:061F7D0082D083D0E032A7
:101B5F00C0E0C083C08285100C85110D850D828574
:101B6F000C83A37402F085080E85090F850F8285FB
:101B7F000E83A37407F05391EF90E65D7410F0D0CD
:061B8F0082D083D0E03299
:101F2800C0E0C083C082D2095391EF90E65D740887
:081F3800F0D082D083D0E0322A
:101A3700C0E0C083C08290E680E030E72085080CD4
:101A470085090D850D82850C83A37402F085100E20
:101A570085110F850F82850E83A37407F05391EFCD
:0D1A670090E65D7420F0D082D083D0E03294
:0114FF0032BA
:0120E60032C7
:0120E70032C6
:0120E80032C5
:101A7400C0E0C083C08290E65EE054FBF00000004A
:101A840090E68F7440F0000000752B00752C0090D8
:101A9400E7F0E4F05391EF90E65FE04404F090E661
:0C1AA4005EE04404F0D082D083D0E03239
:10092D00C0E0C0F0C083C082C0D075D000C000C090
:0D093D0001C002C003C004C005C006C00711
:10094A0090E65EE054F7F090E6A1E020E1F990E746
:10095A0080E0FF120E15097F00098501099430090C
:10096A00C8310A0C320A4A330A7B340AA6FE0AB094
:10097A00FF00000AB5752200020AB590E782E0F589
:10098A003690E781E0F53D020AB5755600755701C4
:10099A0090E68DE0FFC3E5579F7480F8655698404E
:1009AA0003020AB574802557F582E434E7F583E03B
:1009BA00FF12200D0557E55770D6055680D290E7ED
:1009CA0081E07006758DB2020AB590E781E0B40144
:1009DA0006758D64020AB590E781E0B40206758D4A
:1009EA00D9020AB590E781E0B40306758DE6020ADA
:1009FA00B590E781E064046003020AB5758DF302DD
:100A0A000AB590E781E07006121E79020AB590E7EE
:100A1A0081E0B40106121D92020AB590E781E0B4A2
:100A2A000206121BFF020AB590E781E0B403051221
:100A3A001E99807790E781E0F4707012201A806B1B
:100A4A0075560075570190E68DE0FFC3E5579F7410
:100A5A0080F8655698505474802557F582E434E737
:100A6A00F583E0FF1220000557E55770D905568037
:100A7A00D590E781E0F46011E024B0FF121F97E4FB
:100A8A00FF121F977F10121F9790E7817440F07A28
:100A9A00E77B817D217F3C121EF4800F90E781E085
:100AAA0024FF92058005752200D20300000090E61B
:100ABA008DE4F05391EF90E65FE04408F090E65E33
:040ACA00E04408F00C
:100ACE00D007D006D005D004D003D002D001D0007C
:0B0ADE00D0D0D082D083D0F0D0E03226
:0120E90032C4
:0120EA0032C3
:1019F400C0E0C083C08290E65EE054BFF000000007
:101A040090E6987402F000000090E699E4F000007B
:101A140000F52DF52E90F800F0A3F05391EF90E629
:101A24005FE04440F090E65EE04440F0D082D08332
:031A3400D0E032CD
:100F4300C0E0C0F0C083C082C0D075D000C000C074
:0D0F530001C002C003C004C005C006C007F5
:100F600090E65EE0547FF090E6A6E020E1F990E69E
:100F70009CE0FE90E69DE07C002400F557EC3EF5F9
:100F800056E55764054556704D90FC00E0B4EE14EC
:100F9000A3E0B4440FA3E0B4880AA3E07006A3E082
:100FA00064336064755800755900C3E5599557E579
:100FB000566480F8E558648098504D74002559F5C2
:100FC0008274FC3558F583E0FF12200D0559E55970
:100FD00070D8055880D4755800755900C3E55995E7
:100FE00057E5566480F8E558648098501B740025D6
:100FF00059F58274FC3558F583E0FF12200D055930
:10100000E55970D8055880D400000090E69CE4F0C3
:1010100090E69DF05391EF90E65FE04480F090E61B
:051020005EE04480F0D9
:10102500D007D006D005D004D003D002D001D0001F
:0B103500D0D0D082D083D0F0D0E032C9
:0120EB0032C2
:0120EC0032C1
:0120ED0032C0
:0120EE0032BF
:0120EF0032BE
:0120F00032BD
:0120F10032BC
:0120F20032BB
:0120F30032BA
:0120F40032B9
:0120F50032B8
:0120F60032B7
:0120F70032B6
:0120F80032B5
:0120F90032B4
:0120FA0032B3
:0120FB0032B2
:0120FC0032B1
:0120FD0032B0
:0120FE0032AF
:0120FF0032AE
:0121000032AC
:0121010032AB
:0121020032AA
:0121030032A9
:0121040032A8
:061121008F6C8C6D8D6ED9
:10112700536C0753A0BF7F0A7E00121B11E4F56FB3
:10113700F570C374029570FFE56CA807088002C3B9
:1011470013D8FC30E00543A020800353A0DF7F0ABB
:101157007E00121B1143A0107F0A7E00121B115341
:10116700A0EF7F0A7E00121B110570E57070020563
:101177006FC39403E56F6480948040B6E4F56FF520
:1011870070C374099570FFE56EAE6DA807088005FA
:10119700CEC313CE13D8F930E00543A02080035304
:1011A700A0DF7F0A7E00121B1143A0107F0A7E007A
:1011B700121B1153A0EF7F0A7E00121B110570E569
:1011C700707002056FC3940AE56F6480948040B124
:1011D70043A0407F0A7E00121B1153A0BF7F0A7EE7
:0411E70000021B11D6
:09207E00AD07AC06E4FF021121DC
:09208700AD07AC067F0402112133
:09209000AD07AC067F0502112129
:09209900AD07AC067F060211211F
:0920A200AD07AC067F010211211B
:0920AB00AD07AC067F0202112111
:0920B400AD07AC067F0302112107
:101FCE009028EBEDF0EFC313FF7A287BEB7D010237
:021FDE001EF4EF
:101DBA009028EB7402F0A37480F07A287BEB7D0202
:101DCA007F28121EF4E49028EBF0A3F07A287BEB2C
:071DDA007D027F28021EF4C8
:101F9700E49028EBF0A3EFF07A287BEB7D027F3CFF
:031FA700021EF423
:101F83009028EB7440F0A3EFF07A287BEB7D027F7F
:041F93003C021EF4FA
:101754007FAE121F977F04121F977F10121F977F6F
:1017640040121F977FB0121F977F81121F977F80AF
:10177400121F977FA1121F977FA6121F977FA8128F
:101784001F977F3F121F977FAD121F977F8B121FEA
:10179400977F30121F977FC8121F977FD3121F970E
:1017A400E4FF121F977FD5121F977F80121F977F28
:1017B400D9121F977F22121F977FDA121F977F0279
:1017C400121F977F8D121F977F14121F977FDB12B2
:0C17D4001F977F40121F977FAF021F97E6
:021AB0008F6A3B
:101AB200E4FF121F977F10121F97E4F56CE56C2468
:101AC200B6FF121F97E4FF121F977F10121F97E4B1
:101AD200F56BAF6A121F83056BE56BC3946040F22E
:091AE200056CE56CC3940240D4CC
:011AEB0022D8
:101AEC007580E27F027E00121B117580EA7F027EF8
:101AFC0000121B117580CA7F027E00121B117580AB
:051B0C00CE7F027E0007
:101B1100EF7803C333CE33CED8F9FFEF4E6007EF32
:071B21001F70F81E80F52281
:0121050022B7
:0121060022B6
:0121070022B5
:0121080022B4
:0420DA007580E32208
:101E5400121AEC7580EC121B037580C6121B0D75EB
:101E640080C7121B0D7580C3121B0D7580E37F02A2
:051E74007E00021B11BD
:101EB900121AEC7580C6121B0D7580C7121B0D75A1
:0F1EC90080C3121B0D7580E37F027E00021B1188
:101FE000E4FDFC121EB90DBD00010CBC0DF5BD04D5
:011FF000F2FE
:011FF10022CD
:0C202700C2867F057E00121B11D28622AB
:0A207400121D9212201A43B120221F
:0920BD0053B1DF121E9902201A32
:10142D0085423A854139854038853F37E53CB401E1
:10143D0002C287122074E53E60030214D1752201A9
:10144D00E47FE87E03FDFCAB3AAA39A938A837C37F
:10145D00120DF14061E5226401705B7FDD7E0312A8
:10146D0015B812186CE53A2418F53AE53934FCF53F
:10147D0039E53834FFF538E53734FFF537E4FFFE4D
:10148D00FDE537FC7818120E0290E7C4EFF0E4FF8B
:10149D00FEE538FDE4FC7810120E02A3EFF0E4FF38
:1014AD00E539FEE4FDFC7808120E02A3EFF0E53AF3
:1014BD00FFA3EFF0808AE522B40112AE39AF3A12E4
:1014CD0015B88009752201E522640160FA1220BD6C
:0814DD00E53CB40102D28722B4
:101CEA00AD07AC06D3ED9400EC9400401E00000052
:101CFA00EE90E6D0F0000000ED90E6D1F000000092
:0C1D0A0075BB04000000E5BB30E7FB22C5
:081B28008C6E8D6FAB07AA065D
:101B3000E4FDFCC3ED956FEC956E5022EA90E6D083
:101B4000F0000000EB90E6D1F000000075BB05004E
:0E1B50000000E5BB30E7FB0DBD00010C80D5A9
:011B5E002264
:101D4100AD07AC06000000ED25E0EC3390E6D0F0E5
:101D5100000000ED25E090E6D1F000000075BB0425
:091D6100000000E5BB30E7FB22A5
:1011EB00C20375450290E7C0E545F01220271214A3
:1011FB002D121FE0121E5475450390E7C0E545F014
:10120B003003030212B3E4F56CF56DC3E56D95285D
:10121B00E56C9527500D121EB9056DE56D70EC054B
:10122B006C80E8E53BD39400400CE53BFD7C00AFC4
:10123B0032AE31121B28D3E5249400E523940040F1
:10124B0007AF24AE23121D41E4F56AF56BC3E56BC2
:10125B00954DE56A954C502C121D16E4F56CF56D09
:10126B00C3E56D95337480F8656C98500D121EB9FB
:10127B00056DE56D70EA056C80E6056BE56B70CD71
:10128B00056A80C9E4F56CF56DC3E56D954AE56CAF
:10129B009549500D121EB9056DE56D70EC056C800E
:0812AB00E8AF44AE43121CEA57
:0112B3002218
:101D1600000000E53225E0E5313390E6D0F0000022
:101D260000E53225E090E6D1F000000075BB040026
:0B1D36000000E5BB20E7033003F822AB
:101F4000E490E608F075C83443985053877FD2ACCC
:071F500075CBFF75CA642286
:0D200000309902C2998F993099FDC2992242
:101DE10090000020981CA3AF82AE83E4FCFD7BFA37
:101DF1007AFFF9F8C3120DDB5004D2008004C2004F
:061E010080E1C298AF99D8
:011E070022B8
:101D6A00E490E608F0D28E53897F5389BF438920D5
:101D7A005389EF438E10758DB243C05043D880C249
:081D8A00C0C2C1D2AED2AF22EB
:0D200D0030C102C2C18FC130C1FDC2C1226D
:101E080090000020C01CA3AF82AE83E4FCFD7BFAE7
:101E18007AFFF9F8C3120DDB5004D2008004C20027
:061E280080E1C2C0AFC161
:011E2E002291
:07203E007FFC7E08121B115C
:0420450075B0092247
:072049007FFC7E08121B1151
:0420500075B0032242
:072054007FFC7E08121B1146
:04205B0075B0062234
:07205F007FFC7E08121B113B
:0420660075B00C2223
:0D201A00E4F5B07525FF90E7CBE525F02239
:101E790012206612203E12204912205412205F7F40
:101E8900FC7E08121B11E4F52590E7CBE525F0222D
:101E990012206612205412204912203E12205F7F20
:101EA900FC7E08121B1175250390E7CBE525F0226E
:101D92001220507FC47E09121B111220457FC47E7F
:101DA20009121B111220667FC47E09121B117525B0
:081DB2000190E7CBE525F022CA
:101BFF001220457FC47E09121B111220507FC47E14
:101C0F0009121B1112205B7FC47E09121B111220B7
:101C1F00667FC47E09121B1175250290E7CBE5255F
:021C2F00F022A1
:0820CE00E4F51DD2E9D2AF22B6
:101B950090E678E020E6F9C2E990E678E04480F046
:101BA500EF25E090E679F090E678E030E0F990E610
:101BB50078E04440F090E678E020E6F990E678E0B9
:061BC50030E1D6D2E92256
:101C3100A90790E678E020E6F9E51D702390E678A3
:101C4100E04480F0E925E090E679F08D18AF03A932
:101C5100077519018A1A891BE4F51C751D01D32228
:021C6100C3229C
:101BCB00A90790E678E020E6F9E51D702590E67808
:101BDB00E04480F0E925E0440190E679F08D18AF00
:101BEB0003A9077519018A1A891BE4F51C751D03D6
:041BFB00D322C3220C
:03004B00020E3B67
:100E3B00C0E0C083C082C085C084C086758600C0F8
:100E4B00D075D000C000C001C002C003C006C007EF
:100E5B0090E678E030E206751D06020F2590E678E5
:100E6B00E020E10CE51D64026006751D07020F25ED
:100E7B00E51D24FE605F14603624FE7003020F161E
:100E8B0024FC7003020F2224086003020F25AB1908
:100E9B00AA1AA91BAF1C051C8F82758300120D8C1F
:100EAB0090E679F0E51C65187070751D05806B90E8
:100EBB00E679E0AB19AA1AA91BAE1C8E82758300CA
:100ECB00120DB9751D02E5186401704E90E678E0BD
:100EDB004420F08045E51824FEB51C0790E678E029
:100EEB004420F0E51814B51C0A90E678E04440F075
:100EFB00751D0090E679E0AB19AA1AA91BAE1C8EE2
:100F0B0082758300120DB9051C800F90E678E044C2
:100F1B0040F0751D008003751D005391DFD007D085
:100F2B0006D003D002D001D000D0D0D086D084D050
:080F3B0085D082D083D0E032A2
:101ED800121BCBE51D24FA600E146006240770F36C
:0C1EE800D322E4F51DD322E4F51DD32223
:101EF400121C31E51D24FA600E146006240770F3E9
:0C1F0400D322E4F51DD322E4F51DD32206
:030000000217E004
:0C17E000787FE4F6D8FD758170021827B0
:100C9600E709F608DFFA8046E709F208DFFA803E40
:100CA60088828C83E709F0A3DFFA8032E309F6082D
:100CB600DFFA8078E309F208DFFA807088828C8395
:100CC600E309F0A3DFFA806489828A83E0A3F60849
:100CD600DFFA805889828A83E0A3F208DFFA804C23
:100CE60080D280FA80C680D4806980F280338010FA
:100CF60080A680EA809A80A880DA80E280CA803363
:100D060089828A83ECFAE493A3C8C582C8CCC583DA
:100D1600CCF0A3C8C582C8CCC583CCDFE9DEE780AA
:100D26000D89828A83E493A3F608DFF9ECFAA9F029
:100D3600EDFB2289828A83ECFAE0A3C8C582C8CC7F
:100D4600C583CCF0A3C8C582C8CCC583CCDFEADE98
:100D5600E880DB89828A83E493A3F208DFF980CCFA
:100D660088F0EF60010E4E60C388F0ED2402B404F3
:100D76000050B9F582EB2402B4040050AF2323459A
:060D86008223900CE673CD
:100D8C00BB010CE58229F582E5833AF583E022501C
:100D9C0006E92582F8E622BBFE06E92582F8E22266
:0D0DAC00E58229F582E5833AF583E4932280
:100DB900F8BB010DE58229F582E5833AF583E8F070
:100DC900225006E92582C8F622BBFE05E92582C81C
:020DD900F22204
:100DDB00EB9FF5F0EA9E42F0E99D42F0EC6480C88F
:060DEB0064809845F0222F
:100DF100EB9FF5F0EA9E42F0E99D42F0E89C45F058
:010E010022CE
:100E0200E8600FECC313FCED13FDEE13FEEF13FFCE
:030E1200D8F122F2
:100E1500D083D082F8E4937012740193700DA3A36C
:100E250093F8740193F5828883E473740293686080
:060E3500EFA3A3A380DF80
:1017EC00020AE9E493A3F8E493A34003F68001F220
:1017FC0008DFF48029E493A3F85407240CC8C333FE
:10180C00C4540F4420C8834004F456800146F6DFCC
:10181C00E4800B0102040810204080901040E47E0C
:10182C00019360BCA3FF543F30E509541FFEE493C1
:10183C00A360010ECF54C025E060A840B8E493A388
:10184C00FAE493A3F8E493A3C8C582C8CAC583CAB3
:10185C00F0A3C8C582C8CAC583CADFE9DEE780BE6B
:0111200000CE
:00000001FF
