:0A2277000001020203030404050540
:100C8400E4F566F565F564F563C20EC20BC20DC2E8
:100C94000C122178120A917E187F008E0A8F0B7530
:100CA400121875131275081875091C75101875112A
:100CB4005175141875157FEE54E07003020DCB7551
:100CC40067007568808E698F6AC374A99FFF741862
:100CD4009ECF2402CF3400FEE48F628E61F560F56E
:100CE4005FF55EF55DF55CF55BAF62AE61AD60AC82
:100CF4005FAB5EAA5DA95CA85BC3120F245026E516
:100D040068255EF582E567355DF58374CDF0E55EB3
:100D14002401F55EE4355DF55DE4355CF55CE435B0
:100D24005BF55B80C4E4F55EF55DF55CF55BAF6295
:100D3400AE61AD60AC5FAB5EAA5DA95CA85BC3129B
:100D44000F245031AE5DAF5EE56A2FF582E5693E52
:100D5400F583E0FDE5682FF582E5673EF583EDF068
:100D6400EF2401F55EE43EF55DE4355CF55CE435C5
:100D74005BF55B80B985670A85680B74002480FF86
:100D8400741834FFFEC3E5139FF513E5129EF512A4
:100D9400C3E50D9FF50DE50C9EF50CC3E50F9FF51E
:100DA4000FE50E9EF50EC3E5099FF509E5089EF5CE
:100DB40008C3E5119FF511E5109EF510C3E5159FD5
:100DC400F515E5149EF514D2E843D82090E668E0C2
:100DD4004409F090E65CE0443DF0D2AFD288D28A78
:100DE400C2A8C2AA43E808D2FB90E680E020E1054D
:100DF400D20F121F8F90E680E054F7F0538EF8C2A2
:100E04000E300C0512045DC20C300E291222B050B3
:100E140024C20E1220E2200B1690E682E030E70492
:100E2400E020E1EF90E682E030E604E020E0E41226
:0A0E340015D41222B21216B880C7BE
:10045D0090E6B9E0700302050E14700302058B24BB
:10046D00FE700302060E24FB7003020508147003D0
:10047D000205021460731460762405600302066D94
:10048D001222B4400302067990E6BBE024FE6022FE
:10049D0014603324FD601114602224067048E50AAF
:1004AD0090E6B3F0E50B8037E51290E6B3F0E51377
:1004BD00802DE50C90E6B3F0E50D8023E50E90E67A
:1004CD00B3F0E50F801990E6BAE0FF121FBEAA0641
:1004DD00A9077B01EA494B600DEE90E6B3F0EF9072
:1004ED00E6B4F00206790206721221FE02067912B6
:1004FD00229C020679121BF10206791221EC0206EA
:10050D00791222B6400302067990E6B8E0247F60A6
:10051D001514601924027063A20BE43325E0FFA2C9
:10052D000DE4334F8041E490E740F0803F90E6BC0E
:10053D00E0547EFF7E00E0D394807C0040047D017A
:10054D0080027D00EC4EFEED4F2477F58274223E45
:10055D00F583E493FF3395E0FEEF24A1FFEE34E63F
:10056D008F82F583E0540190E740F0E4A3F090E62C
:10057D008AF090E68B7402F002067902067212225E
:10058D00B8400302067990E6B8E024FE6016240216
:10059D00600302067990E6BAE0B40105C20B0206CB
:1005AD007902067290E6BAE0705590E6BCE0547E92
:1005BD00FF7E00E0D394807C0040047D0180027DAD
:1005CD0000EC4EFEED4F2477F58274223EF583E468
:1005DD0093FF3395E0FEEF24A1FFEE34E68F82F515
:1005ED0083E054FEF090E6BCE05480131313541FC7
:1005FD00FFE0540F2F90E683F0E04420F0806D80F3
:10060D00641222BA506690E6B8E024FE6019240206
:10061D00705A90E6BAE0B40104D20B804F90E6BA5E
:10062D00E064026047803E90E6BCE0547EFF7E00B1
:10063D00E0D394807C0040047D0180027D00EC4E6F
:10064D00FEED4F2477F58274223EF583E493FF335C
:10065D0095E0FEEF24A1FFEE34E68F82F58380084E
:10066D00120080500790E6A0E04401F090E6A0E073
:03067D004480F0C6
:010680002257
:030033000222ACFA
:0422AC0053D8EF32E2
:10217800758CE0758AC0E58954F04401F589758E3F
:0821880003D28CD2A9D2AF22D0
:03005B0002088B0D
:10088B00C0E0C083C082C0D075D000C004C006C019
:01089B000755
:10089C00AF91530780EF64806003020A8253917F0B
:1008AC00300903020A80E55164047070D3E53A9470
:1008BC00C8E53994005003020A800535E53525E07A
:1008CC002472F582E43424F583E539F0A3E53AF09B
:1008DC00E53525E02470F582E43424F583E0FEA3AD
:1008EC00E0FFD394C8EE9400402FEF25E0FFEE33E9
:1008FC00FEEF24E0FFEE34FCFEE53525E02472F536
:10090C0082E43424F583E0FCA3E0D39FEC9E400901
:10091C00752B01755100753500020A7AE551640199
:10092C0060030209E0D3E53A94C8E539940050031A
:10093C00020A800535E53525E02472F582E434247D
:10094C00F583E539F0A3E53AF0E53525E02470F5BB
:10095C0082E43424F583E0FEA3E0FFD394C8EE9444
:10096C0000406EEF25E0FFEE33FEEF24E0FFEE34A7
:10097C00FCFEE53525E02472F582E43424F583E0B1
:10098C00FCA3E0D39FEC9E40480552E552640270F4
:10099C003DE53514F532752B01E53525E0246EF572
:1009AC0082E43424F583E0FEA3E024C8F537E43E6A
:1009BC00F536E53525E02470F582E43424F583E042
:1009CC00FEA3E024C8F545E43EF5447551007535A9
:1009DC0000020A7AE55164027061C3E53A94C8E5F5
:1009EC003994004048D3E53A94C8E5399400401056
:1009FC00D3E53A9545E53995445005752B0080278C
:100A0C00D3E53A9545E5399544400FD3E53A95370A
:100A1C00E53995365004052B800DD3E53A9537E52D
:100A2C003995364008052B753900753A00E52B656C
:100A3C002C7041F551F539F53A8039E551B405344E
:100A4C00D3E53A9401E53994004029E53525E024B5
:100A5C0072F582E43424F583E539F0A3E53AF00528
:100A6C0035052BE52BB40F06755100752B00753928
:060A7C0000753A00C209FA
:0F0A8200D007D006D004D0D0D082D083D0E032BD
:101800001201000200000040181653690000010296
:1018100000010A0600020000004001000902350034
:1018200001010080FA0904000005FF00000007051F
:101830000102400000070582020002000705810244
:1018400040000007058602000200070508020002AA
:101850000009022E0001010080FA0904000004FFC3
:101860000000000705010240000007058202400059
:101870000007050202000200070581024000000483
:1018800003090410035100480059002D0043004390
:101890000044001603510048005900360039003555
:0B18A00000410020002000200000009C
:1006810060802559030D01030202010700000002E9
:10069100000002001332120A080C0C0800000000CE
:1006A1000000003F030D01030203010700000000E9
:1006B100020002001332120A120C0C0800000000A2
:1006C1000000003F031501030204010700000002BE
:1006D100000002001332120A080C0C08000000008E
:1006E1000000003F031501030204010700000000A0
:1006F100020002001332120A120C0C080000000062
:100701000000003F602425E0000000000000000020
:1007110000000000000000000000000000000000D8
:100721000000000000000000000000004725D98003
:06073100000008CA4E00A2
:1015180090E60174CAF090E6F574FFF09025D9E0E2
:1015280090E6F3F09025DAE090E6C3F09025DBE052
:1015380090E6C1F09025DCE090E6C2F09025DEE070
:1015480090E6C0F09025DFE090E6F4F075AF077400
:1015580025F59A7459F59B759DE4E4F59EFF90E690
:101568007BE090E67CF00FBF80F490E67174FFF0AA
:10157800F5B490E672E04480F043B680000000E4E1
:1015880090E6C4F000000090E6C5F09025E0E090F9
:10159800E6C6F09025E1E090E6C7F09025E2E090FD
:1015A800E6C8F09025E3E090E6C9F09025E4E090E5
:1015B800E6CAF09025E5E090E6CBF09025E6E090CD
:0B15C800E6CCF09025E7E090E6CDF0C7
:0115D30022F5
:03004300021600A2
:0300530002160092
:10160000022190000221D6000221C0000221A80080
:10161000021E8C00021E18000222BC000222BD0025
:101620000222BE000222BF00021F5E000212BE00A4
:101630000222C0000222C100021DD900021C50007B
:101640000222C2000222BD000222C3000222C40004
:101650000222C5000222C6000222C7000222C800E0
:101660000222C9000222BD000222BD000222BD00EA
:101670000222CA000222CB000222CC000222CD00AC
:101680000222CE000222CF000222D0000222D1008C
:101690000222D2000222D3000222D4000222D5006C
:1016A0000222D6000222D7000222D8000222D9004C
:0816B0000222DA000222DB0035
:1015D40090E682E030E004E020E60B90E682E03022
:1015E400E119E030E71590E680E04401F07F147ED5
:0C15F40000121D4D90E680E054FEF02235
:1020E20090E682E044C0F090E681F0438701000070
:0420F20000000022C8
:101F8F00300F0990E680E0440AF0800790E680E089
:101F9F004408F07FDC7E05121D4D90E65D74FFF066
:0F1FAF0090E65FF05391EF90E680E054F7F02258
:021FBE00A90771
:101FC000AE14AF158F828E83A3E064037017AD014A
:101FD00019ED7001228F828E83E07C002FFDEC3E94
:091FE000FEAF0580DF7E007F00EA
:011FE90022D5
:101D4D008E708F7190E600E054187012E5712401C9
:101D5D00FFE43570C313F570EF13F571801590E640
:101D6D0000E05418FFBF100BE57125E0F571E5702B
:101D7D0033F570E5711571AE70700215704E60051A
:061D8D001220F680EE2298
:1020F6007400F58690FDA57C05A3E582458370F9FD
:0121060022B6
:10073700609A24BD18244242424242424224181081
:100747007010101010101010107C3C42424204042C
:10075700081020427E3C42420418040202424438F8
:10076700040C14242444447E04041E7E4040405854
:100777006402024244381C244040586442424224E6
:10078700187E444408081010101010103C424242D2
:100797002418244242423C1824424242261A0202AA
:1007A700243800000000007F000000000038448269
:1007B70082828282B2CA4C38E7424242427E424239
:1007C7004242E7EE44442828101010101038C18226
:1007D70042255700004224B200004224B4000041E1
:1007E700241000412411004124B70002300B16C128
:1007F700000125004124B600C107C104014E0004D1
:100807004600000000043D00000000604024720024
:1008170000000000000000000000000000000000D1
:1008270000000000000000000000000000000000C1
:1008370000000000000000000000000000000000B1
:1008470000000000000000000000000000000001A0
:100857003500015101012CFF012B00023900000175
:10086700320001520002360000024400000150002D
:10087700025700000233C350012A19C189013C0005
:03088700012F003E
:101FEA008F6B9024527403F0E4A3F07A247B527D21
:101FFA00027F411221419024527401F0A3E56BF053
:0B200A007A247B527D027F41022141BD
:0B17F500C2B6C2B48FB1D2B4D2B6228B
:0B226C00D2B6C2B48FB1D2B4D2B622F9
:04215D00AE05AD0717
:10216100E4FCE4FBAF0512226CAF0612226C0BBB40
:0621710060F20CBC40EC22
:012177002245
:10204000AE05AD077F151217F5AF061217F57F5FC6
:102050001217F57F751217F5AF051217F57F3F12AE
:0A20600017F57F2512226C02226C96
:021B8600AE03AC
:101B8800EDC454F0F56BEE75F008A4F56CBF2D04A8
:101B98007A0A8019BF51047A0B8012BF48047A0C64
:101BA800800BBF59047A0D8004EF24D0FAE4FBEAD5
:101BB80075F00BA424BDF582E43424F583E5822B6B
:101BC800F582E43583F583E0F9E4FCE930E70DE5D7
:101BD8006B24032BFFE56C2CFD122040E925E0F96E
:081BE8000CBC08E70BBB0BC7A6
:011BF00022D2
:10139200C2B77FC87E0012210ED2B77FAE1217F5F8
:1013A2007FA01217F57F721217F57FA11217F5E4CD
:1013B200FF1217F57FA21217F5FF1217F57FA4127D
:1013C20017F57FA81217F57F3F1217F57FAD121799
:1013D200F57F8E1217F57FB01217F57F0B1217F5F6
:1013E2007FB11217F57F311217F57FB31217F57F10
:1013F200F01217F57F8A1217F57F641217F57F8BAB
:101402001217F57F781217F57F8C1217F57F641289
:1014120017F57FBB1217F57F3A1217F57FBE121729
:10142200F57F3E1217F57F871217F57F061217F523
:101432007F811217F57F911217F57F821217F57FC0
:10144200501217F57F831217F57F7D1217F57FAFC4
:031452000217F589
:10193700121392E4FDFF12215D7B037D017F51129B
:101947001B867B047D017F48121B867B057D017FFB
:1019570059121B867B067D017F36121B867B077D0E
:10196700017F39121B867B087D017F35121B867B21
:10197700027D027F31121B867B037D027F38121B9B
:10198700867B047D027F2D121B867B057D027F31BE
:10199700121B867B067D027F30121B867B077D022A
:1019A7007F2D121B867B087D027F32121B867B09E7
:0719B7007D027F34021B8654
:100A910090E600E054E74410F000000000000090F0
:100AA100E61074A0F000000090E60B7401F090E6EF
:100AB1001274E0F0000000E490E613F000000090F2
:100AC100E61474E2F000000090E61574A0F0000056
:100AD1000090E6D27402F090E6047480F000000009
:100AE1007402F00000007406F00000007408F000C9
:100AF1000000E4F000000012151890E6187408F0E8
:100B010000000090E619F000000090E61AF00000E5
:100B11000090E61BF0000000E490E671F075B47FF0
:100B210075A07F90E672F075B6FF75B1FF90E67023
:100B3100F075B2FF75B5FFC28CD2B0D2B11222529C
:100B410090E61074A0F000000090E611F0000000A3
:100B510090E65EE04408F0000000E490E68DF000CD
:100B6100000090E65EE04404F0000000E490E7C07D
:100B7100F090E7C4F0A3F0A3F0A3F090E7F0F090B9
:100B8100E68F7440F000000090E65EE04440F00023
:100B910000007E027F0090F800E4F0A3DFFCDEFAA3
:100BA10090E6987402F0000000E490E699F00000ED
:100BB100007E027F0090F800E4F0A3DFFCDEFA90F3
:100BC100E65EE04480F0000000E490E69CF0000066
:100BD1000090E69DF00000007F9AFE1222817527A9
:100BE100007528B47553017554907530107531B87E
:100BF10075550675562C1222A490E67AE054FEF043
:100C0100E4FD7F901222107F647E00121D4D7DFF56
:100C11007F421222107F647E00121D4D7D827F4E25
:100C2100122210753BFF43A020E4F54390E782E5D3
:100C31003BF090E781E543F0122252D20975510150
:100C4100753327753410752A0A121A317F887E137D
:100C510012210E121A317FB87E0B12210E7F887E6F
:100C61001312210E12225F121392D2F9C2F8E4F587
:100C71004E90E7C0E54EF043A01053917F53A0F092
:030C81000219371E
:0E224400EF2401FBE43EFA7D047F48022125D1
:10206A00E543C313FFC374809F902558F0E494009E
:10207A00902557F0E543D394004006753BFF43A0F3
:09208A0020E543700353A0DF229E
:1011D900E4FC9024B9E0FEA3E02400FDEC3EFC9081
:1011E9002410E0FEA3E07A002400FFEA3EFEC3EDEE
:1011F9009FFFEC9EFE9024B2F0A3EFF09024B5E09F
:101209002FF09024B4E03EF0D3EF9450EE64809434
:101219008050129024B2E0FAA3E0FBC394B0EA64D0
:1012290080947F501C9024B3E025E0FE9024B2E026
:1012390033902557F0A3CEF0E49024B4F0A3F080C6
:10124900337C007D14AF03AE02120E8DAC06AD07E0
:101259009024B4E0FEA3E07802C333CE33CED8F9AC
:101269002DFFEC3EFE7C007D0A120E9F902557EE65
:10127900F0A3EFF0D3902558E094FF902557E06450
:101289008094804006E4F0A374FFF0C3902557E0F2
:10129900648094805004E4F0A3F0902557E0FEA305
:1012A900E0FF7C007D02120E9FC3747F9FF0E49ED5
:0412B900902557F035
:0112BD00220E
:101B15007E247FB81222449024B9E090E7C1F0906A
:101B250024BAE090E7C2F0902558E090E7C3F09022
:101B350024B7E0600B43A020753BFF1211D9800349
:101B450012206A902452E53BF07A247B527D017F76
:101B5500211221419024527402F0A37480F07A245A
:101B65007B527D027F28122141E4902452F090257A
:101B750058E0902453F07A247B527D027F2802217D
:011B8500411E
:1016B8000558E558700205570550B5340DE557B57E
:1016C8003308E4F557F558121B1590E7C8E551F0B3
:1016D800A3E52BF0A3E532F0E550652A7023E55128
:1016E800601414600C14600924FD600504700F80F8
:1016F800001222348008E4FF121FEA53A0EFE4F539
:101708005030015C754E0190E7C0E54EF0E5A03021
:10171800E7032007F890F00074AAF0A37411F0A36F
:1017280074CCF0A374EEF0E490E690F090E6917437
:1017380005F0120F9D90F00074AAF0A37411F0A3A5
:1017480074CCF0A374EEF0E490E690F090E6917417
:1017580005F0C201E4F54E90E7C0E54EF012225FB5
:01176800225E
:0222B000D32237
:0222B200D32235
:0222B400D32233
:101BF10090E680E030E73A00000090E6207402F0C1
:101C0100000000E490E621F000000090E624740258
:101C1100F0000000E490E625F000000090E6267454
:101C210002F0000000E490E627F0000000D20280FC
:101C310016000000E490E620F000000090E6217418
:0F1C410040F0000000C20290E6BAE0F54FD32257
:1021EC0090E740E54FF0E490E68AF090E68B04F03F
:0221FC00D322EC
:08229C0090E6BAE0F526D3221A
:1021FE0090E740E526F0E490E68AF090E68B04F056
:02220E00D322D9
:0222B600D32231
:0222B800D3222F
:0222BA00D3222D
:10008000E4FFF56BF56C90E6B9E0244B605F14700B
:100090000302029A24FA70030202D224FA700302C5
:1000A000033624F8700302037E24FA70030203C0AF
:1000B000241D6003020459E490E68AF090E68BF078
:1000C00090E6A0E020E1F990E68BE0E4F5B390E65D
:1000D0000174CAF0D20100000090E6047480F000C0
:1000E00000007402F0000000E4F002045BE490E61B
:1000F0008AF090E68BF090E6A0E020E1F990E68BA4
:10010000E0D3943F4024E4F56B7440256BF582E422
:1001100034E7F583E0FF7412256BF582E43424F5AF
:1001200083EFF0056BE56BB440DF7F8A7E0012221F
:1001300081902412E0FF7E0012228A902413E07541
:10014000F004A4FFAEF0122293902417E0C39402AF
:100150005013902433E090E6C07005744EF0801682
:10016000749CF08011902433E090E6C07005749F79
:10017000F08003749DF0902435E024FF92069024D3
:1001800032E024FF9205902436E024FF9208902468
:1001900040E0754100F542A3E0FEA3E07C002400AE
:1001A000F524EC3EF523902445E09024B6F090240D
:1001B00018E0F538E538700375380190241DE0FE2D
:1001C000A3E07C002400F528EC3EF527A3E0FEA385
:1001D000E02400F554EC3EF553902419E0FEA3E032
:1001E0002400F531EC3EF530A3E0FEA3E02400F559
:1001F00056EC3EF55590244DE0FFE4FDFEFBFAF988
:100200007801120ED5A804A905AA06AB07902423ED
:10021000E0FEA3E07C002400FFEC3EFEE4FDEB2FBB
:10022000FFEA3EFEED39FDEC38FCC004C005C00617
:10023000C00790244EE0FFE4FCFDFEFBFA7901F8D4
:10024000120ED5D003D002D001D000EF2BF54DEE29
:100250003AF54CED39F54BEC38F54A902421E0FEA7
:10026000A3E07C002400F52EEC3EF52DE4FD7F900C
:10027000122210902413E0FCA3E0FDA3E0FEA3E013
:10028000F5498E488D478C46E549F549E548F548DE
:10029000E547F547E4F54602045BE4F56B74122587
:1002A0006BF582E43424F583E0FF7440256BF5821E
:1002B000E434E7F583EFF0056BE56BB440DF000055
:1002C00000E490E68AF000000090E68B7440F002B3
:1002D000045BE490E68AF090E68BF090E6A0E020E4
:1002E000E1F990E6BDE0902452F090E6BCE0902465
:1002F00053F0E4F56B90E6BEE0FFE56BC39F501E44
:100300007440256BF582E434E7F583E0FF745425EF
:100310006BF582E43424F583EFF0056B80D790E62B
:10032000BAE0C313FF90E6BEE02402FD7A247B52BC
:1003300012214102045B90E740742AF0A37418F084
:10034000A3740CF0A37426F0A37407F0A374EEF06A
:10035000A37401F0A37403F0A37453F0300205E416
:10036000A3F0800690E74974FFF0000000E490E6F7
:100370008AF000000090E68B740AF002045B90E6BD
:10038000BCE0902604F07A267B047D017F50122188
:10039000417A267B047D017F5012214190E6BEE028
:1003A000FD7AE77B407F50122125E490E68AF00039
:1003B000000090E6BEE090E68BF000000002045BD7
:1003C000E490E68AF090E68BF090E6A0E020E1F978
:1003D00090E68BE0F56BC29890E740E0C394304024
:1003E00014E532242FFFE433FEE0D39FEE6480F85F
:1003F000748098400B90E740E0F4704AE5517046F5
:1004000043A01090E740E0F4600AE0B4300DE52B23
:1004100064016007D209755104804090E740E0C351
:1004200094314037E532242FFFE433FEE0D39FEED2
:100430006480F87480985023E024D1F52C652B60FB
:100440001A755102801590E740E0B4200EE5517016
:0C0450000A43A0107551058002D322C39E
:01045C00227D
:10219000C0E0C083C082D20C5391EF90E65D740121
:0821A000F0D082D083D0E032C0
:1021C000C0E0C083C0825391EF90E65D7404F0D00C
:0621D00082D083D0E03252
:1021D600C0E0C083C0825391EF90E65D7402F0D0F8
:0621E60082D083D0E0323C
:101E8C00C0E0C083C08285100C85110D850D828544
:101E9C000C83A37402F085080E85090F850F8285CB
:101EAC000E83A37407F05391EF90E65D7410F0D09D
:061EBC0082D083D0E03269
:1021A800C0E0C083C082D20E5391EF90E65D740800
:0821B800F0D082D083D0E032A8
:101E1800C0E0C083C08290E680E030E72085080CEF
:101E280085090D850D82850C83A37402F085100E3B
:101E380085110F850F82850E83A37407F05391EFE8
:0D1E480090E65D7420F0D082D083D0E032AF
:0122BC0032EF
:0122BD0032EE
:0122BE0032ED
:0122BF0032EC
:101F5E00C0E0C083C08290E65EE054FBF00000005B
:101F6E0090E68F7440F00000005391EF90E65FE032
:101F7E004404F090E65EE04404F0D082D083D0E0DA
:011F8E003220
:1012BE00C0E0C0F0C083C082C0D075D000C000C0F6
:0D12CE0001C002C003C004C005C006C00777
:1012DB00755900755A0090E65EE054F7F090E6A160
:1012EB00E020E1F990E780E0FF14601614602624FB
:1012FB00D0603A2434604D1460541470567522003B
:10130B00805190E782E0F53B90E781E0F543902434
:10131B00B7E4F0803E90E782E0902410F090E781F4
:10132B00E0902411F09024B77401F0802690E781AF
:10133B00E07005121A31801B90E781E0B4FF1412A4
:10134B00225F800F90E781E024FF920780057522D2
:10135B0000D20300000090E68DE4F05391EF90E68D
:0C136B005FE04408F090E65EE04408F00B
:10137700D007D006D005D004D003D002D001D000CA
:0B138700D0D0D082D083D0F0D0E03274
:0122C00032EB
:0122C10032EA
:101DD900C0E0C083C08290E65EE054BFF00000001E
:101DE90090E6987402F000000090E699E4F0000093
:101DF9000090F800F0A3F05391EF90E65FE04440C3
:0F1E0900F090E65EE04440F0D082D083D0E0322B
:0F1C5000C0E0C083C082C0D075D000C004C00601
:101C5F0090E65EE0547FF090E6A6E020E1F990E692
:101C6F009CE0FE90E69DE07C002400F55AEC3EF5EA
:101C7F005900000090E69CE4F090E69DF05391EF40
:0E1C8F0090E65FE04480F090E65EE04480F076
:0D1C9D00D006D004D0D0D082D083D0E03269
:0122C20032E9
:0122C30032E8
:0122C40032E7
:0122C50032E6
:0122C60032E5
:0122C70032E4
:0122C80032E3
:0122C90032E2
:0122CA0032E1
:0122CB0032E0
:0122CC0032DF
:0122CD0032DE
:0122CE0032DD
:0122CF0032DC
:0122D00032DB
:0122D10032DA
:0122D20032D9
:0122D30032D8
:0122D40032D7
:0122D50032D6
:0122D60032D5
:0122D70032D4
:0122D80032D3
:0122D90032D2
:0122DA0032D1
:0122DB0032D0
:061769008F6D8C6E8D6F88
:10176F00536D0753B0F712210AE4F570C374029555
:10177F0070FFE56DA807088002C313D8FC30E005A1
:10178F0043800280035380FD12210A1221075380E8
:10179F00FE12210A0570E570C3940340CFE4F57083
:1017AF00C374099570FFE56FAE6EA807088005CE6C
:1017BF00C313CE13D8F930E0054380028003538062
:1017CF00FD12210A1221075380FE12210A0570E52E
:1017DF0070C3940A40CA43B00812210A53B0F77F6E
:0617EF000A7E0002210E3B
:09228100AD07AC06E4FF02176989
:09228A00AD07AC067F04021769E0
:09229300AD07AC067F01021769DA
:10221000902452EDF0EFC313FF7A247B527D01022C
:0222200021415A
:072107004380017F0A7E0006
:10210E00EF7803C333CE33CED8F9FFEF4E6007EF2F
:07211E001F70F81E80F5227E
:0D225200D282C283D287C284D286D2852276
:101D9300C2827F017E0012210ED284D2867F017E11
:101DA3000012210EC2857F017E0012210ED283D242
:101DB300877F017E0012210EC2847F017E001221E3
:101DC3000ED2827F017E0012210EC2837F017E002C
:061DD30012210ED2852250
:1020BC00C284C2867F037E0012210EC283C2877F38
:1020CC00037E0012210EC284D2867F037E00122171
:0620DC000EC283D2872230
:10222200E4FDFC121D930DBD00010CBC08F5BDD4EC
:01223200F2B9
:012233002288
:1014550085494085483F85473E85463DE52E452DD6
:10146500700AC2B17F32FE12210ED2B1300505C21B
:10147500B043A040300603021506752201E47FE85B
:101485007E03FDFCAB40AA3FA93EA83DC3120F2435
:101495004061E5226401705B7FDD7E03121D4D1204
:1014A5001B15E5402418F540E53F34FCF53FE53EC6
:1014B50034FFF53EE53D34FFF53DE4FFFEFDE53D3A
:1014C500FC7818120F3590E7C4EFF0E4FFFEE53E17
:1014D500FDE4FC7810120F35A3EFF0E4FFE53FFEC5
:1014E500E4FDFC7808120F35A3EFF0E540FFA3EF0C
:1014F500F0808AE522B40112AE3FAF40121D4D8047
:1015050009752201E522640160FA300505D2B05360
:03151500A0BF2252
:1019BE008F738E728D718C70E4FFFEFDFCAB73AA7B
:1019CE0072A971A870D3120F244057000000E4FFD3
:1019DE00FEFDE570FC7818120F3590E6CEEFF000A4
:1019EE000000E4FFFEE571FDE4FC7810120F359067
:1019FE00E6CFEFF0000000E4FFE572FEE4FDFC78B8
:101A0E0008120F3590E6D0EFF0000000E573FF905E
:101A1E00E6D1EFF000000075BB04000000E5BB301E
:031A2E00E7FB22B1
:081E55008C708D71AB07AA0629
:101E5D00E4FDFCC3ED9571EC95705022EA90E6D04F
:101E6D00F0000000EB90E6D1F000000075BB05001E
:0E1E7D000000E5BB30E7FB0DBD00010C80D579
:011E8B002234
:10209300AD07AC06000000ED25E0EC3390E6D0F090
:1020A300000000ED25E090E6D1F000000075BB04D0
:0920B300000000E5BB30E7FB2250
:101D0400E47FACFEFDFCAB49AA48A947A846D31220
:101D14000F244026E5492454F549E54834FFF548A5
:101D2400E54734FFF547E54634FFF546121455E51B
:101D34002E452D7011122222800CE52E452D7003A4
:091D44001222221214550220BCE7
:100F9D00C20353A0F043A0047FD07E0712210E534D
:100FAD00A0F043A00C7FD07E0712210E53A0F0437A
:100FBD00A0087FD07E0712210E7FAE1217F5902468
:100FCD00B6E0B40103121AA3754E0290E7C0E54EC8
:100FDD00F0121D04754E0390E7C0E54EF03003038B
:100FED000210D0E4F56DF56EC3E56E9528E56D95AF
:100FFD0027501BE4F56FE56FC395385007121D930D
:10100D00056F80F2056EE56E70DE056D80DAD3E555
:10101D00429400E5419400400BAD42AC41AF31AE7E
:10102D0030121E55D3E5249400E52394004007AFFC
:10103D0024AE23122093E4F56BF56CC3E56C955645
:10104D00E56B9555502C122015E4F56DF56EC3E545
:10105D006E95387480F8656D98500D121D93056E60
:10106D00E56E70EA056D80E6056CE56C70CD056B7F
:10107D0080C9E4F56DF56EC3E56E9554E56D955338
:10108D00501BE4F56FE56FC395385007121D93059E
:10109D006F80F2056EE56E70DE056D80DAD282D25C
:1010AD0083D287D284D286D285AF4DAE4CAD4BACB8
:1010BD004A1219BE9024B6E0B40103121A317FAF63
:0310CD001217F502
:0110D00022FD
:10201500000000E53125E0E5303390E6D0F0000022
:1020250000E53125E090E6D1F000000075BB040025
:0B2035000000E5BB20E7033003F822A9
:101CAA00052FE52FB40803E4F52FE52F70047F080C
:101CBA00803DE52FB401047F0A8034E52FB4020485
:101CCA007F02802BE52FB403047F038022E52FB423
:101CDA0004047F018019E52FB405047F058010E50F
:101CEA002FB406047F048007E52FB4070C7F0C127B
:0A1CFA001FEA7F2D7E0012210E224A
:10223400E551600B053AE53A70020539121CAA22F1
:0D225F0053A0F07525FF90E7CBE525F02298
:101A310053A0F043A0097F287E0A12210E53A0F083
:101A410043A0017F287E0A12210E53A0F043A00378
:101A51007F287E0A12210E53A0F043A0027F287E28
:101A61000A12210E53A0F043A0067F287E0A1221FC
:101A71000E53A0F043A0047F287E0A12210E53A02A
:101A8100F043A00C7F287E0A12210E53A0F043A040
:101A9100087F287E0A12210EE4F52590E7CBE52583
:021AA100F02231
:101AA30053A0F043A0087FC47E0912210E53A0F077
:101AB30043A00C7FC47E0912210E53A0F043A0045F
:101AC3007FC47E0912210E53A0F043A0067FC47E7B
:101AD3000912210E53A0F043A0027FC47E091221F4
:101AE3000E53A0F043A0037FC47E0912210E53A01E
:101AF300F043A0017FC47E0912210E53A0F043A03E
:101B0300097FC47E0912210E75250190E7CBE525D7
:021B1300F022BE
:0822A400E4F51BD2E9D2AF22E0
:101EC20090E678E020E6F9C2E990E678E04480F016
:101ED200EF25E090E679F090E678E030E0F990E6E0
:101EE20078E04440F090E678E020E6F990E678E089
:061EF20030E1D6D2E92226
:101F2C00A90790E678E020E6F9E51B702390E678A7
:101F3C00E04480F0E925E090E679F08D16AF03A936
:101F4C00077517018A188919E4F51A751B01D32234
:021F5C00C3229E
:101EF800A90790E678E020E6F9E51B702590E678DA
:101F0800E04480F0E925E0440190E679F08D16AFD1
:101F180003A9077517018A188919E4F51A751B03AF
:041F2800D322C322DB
:03004B000210D1CF
:1010D100C0E0C083C082C085C084C086758600C060
:1010E100D075D000C000C001C002C003C006C00757
:1010F10090E678E030E206751B060211BB90E678B7
:10110100E020E10CE51B64026006751B070211BBC0
:10111100E51B24FE605F14603624FE70030211ACEF
:1011210024FC70030211B8240860030211BBAB1741
:10113100AA18A919AF1A051A8F82758300120E3EDB
:1011410090E679F0E51A65167070751B05806B9055
:10115100E679E0AB17AA18A919AE1A8E8275830039
:10116100120E6B751B02E5166401704E90E678E075
:101171004420F08045E51624FEB51A0790E678E094
:101181004420F0E51614B51A0A90E678E04440F0E0
:10119100751B0090E679E0AB17AA18A919AE1A8E53
:1011A10082758300120E6B051A800F90E678E04479
:1011B10040F0751B008003751B005391DFD007D0F1
:1011C10006D003D002D001D000D0D0D086D084D0B8
:0811D10085D082D083D0E0320A
:10212500121EF8E51B24FA600E146006240770F3EE
:0C213500D322E4F51BD322E4F51BD322D7
:10214100121F2CE51B24FA600E146006240770F39D
:0C215100D322E4F51BD322E4F51BD322BB
:030000000218AB38
:0C18AB00787FE4F6D8FD7581730218F216
:100E3E00BB010CE58229F582E5833AF583E0225069
:100E4E0006E92582F8E622BBFE06E92582F8E222B3
:0D0E5E00E58229F582E5833AF583E49322CD
:100E6B00F8BB010DE58229F582E5833AF583E8F0BD
:100E7B00225006E92582C8F622BBFE05E92582C869
:020E8B00F22251
:100E8D00EF8DF0A4A8F0CF8CF0A428CE8DF0A42E79
:020E9D00FE2233
:100E9F00C2D5EC30E709B2D5E4C39DFDE49CFCEE6E
:100EAF0030E715B2D5E4C39FFFE49EFE120F48C38F
:100EBF00E49DFDE49CFC8003120F4830D507C3E48A
:060ECF009FFFE49EFE22DD
:100ED500E88FF0A4CC8BF0A42CFCE98EF0A42CFCBC
:100EE5008AF0EDA42CFCEA8EF0A4CDA8F08BF0A43A
:100EF5002DCC3825F0FDE98FF0A42CCD35F0FCEB99
:100F05008EF0A4FEA9F0EB8FF0A4CFC5F02ECD395D
:0F0F1500FEE43CFCEAA42DCE35F0FDE43CFC22CA
:100F2400EB9FF5F0EA9E42F0E99D42F0E89C45F023
:010F3400229A
:100F3500E8600FECC313FCED13FDEE13FEEF13FF9A
:030F4500D8F122BE
:1018B700020C84E493A3F8E493A34003F68001F2B7
:1018C70008DFF48029E493A3F85407240CC8C33332
:1018D700C4540F4420C8834004F456800146F6DF01
:1018E700E4800B0102040810204080900681E47E0A
:1018F700019360BCA3FF543F30E509541FFEE493F6
:10190700A360010ECF54C025E060A840B8E493A3BC
:10191700FAE493A3F8E493A3C8C582C8CAC583CAE7
:10192700F0A3C8C582C8CAC583CADFE9DEE780BE9F
:01088A00006D
:100F4800BC000BBE0029EF8DF084FFADF022E4CC8D
:100F5800F875F008EF2FFFEE33FEEC33FCEE9DEC56
:100F6800984005FCEE9DFE0FD5F0E9E4CEFD22ED9C
:100F7800F8F5F0EE8420D21CFEADF075F008EF2FE6
:100F8800FFED33FD4007985006D5F0F222C398FDD7
:050F98000FD5F0EA2274
:00000001FF
