:0A22E30000010202030304040505D4
:100BDC00E4F565F564F563F562C212C20FC211C289
:100BEC00101221A112081A7E197F008E0A8F0B7524
:100BFC00121975131275081975091C7510197511D0
:100C0C005175141975157FEE54E07003020D2375A0
:100C1C0066007567808E688F69C374A99FFF74190D
:100C2C009ECF2402CF3400FEE48F618E60F55FF519
:100C3C005EF55DF55CF55BF55AAF61AE60AD5FAC32
:100C4C005EAB5DAA5CA95BA85AC3120AB05026E53C
:100C5C0067255DF582E566355CF58374CDF0E55D61
:100C6C002401F55DE4355CF55CE4355BF55BE4355E
:100C7C005AF55A80C4E4F55DF55CF55BF55AAF6145
:100C8C00AE60AD5FAC5EAB5DAA5CA95BA85AC3124B
:100C9C000AB05031AE5CAF5DE5692FF582E5683E78
:100CAC00F583E0FDE5672FF582E5663EF583EDF013
:100CBC00EF2401F55DE43EF55CE4355BF55BE43572
:100CCC005AF55A80B985660A85670B74002480FF33
:100CDC00741934FFFEC3E5139FF513E5129EF5124C
:100CEC00C3E50D9FF50DE50C9EF50CC3E50F9FF5C7
:100CFC000FE50E9EF50EC3E5099FF509E5089EF577
:100D0C0008C3E5119FF511E5109EF510C3E5159F7D
:100D1C00F515E5149EF514D2E843D82090E668E06A
:100D2C004409F090E65CE0443DF0D2AFD288D28A20
:100D3C00C2A8C2AA43E808D2FB90E680E020E105F5
:100D4C00D213121FD390E680E054F7F0538EF8C202
:100D5C00123010051205F6C2103012291218FE506E
:100D6C0024C212122126200F1690E682E030E704EE
:100D7C00E020E1EF90E682E030E604E020E0E412CF
:0A0D8C00200212231C1213EE80C790
:1005F60090E6B9E070030206A714700302072424EC
:10060600FE70030207A724FB70030206A114700301
:1006160002069B14607314607624056003020806C4
:1006260012231E400302081290E6BBE024FE60225D
:1006360014603324FD601114602224067048E50A14
:1006460090E6B3F0E50B8037E51290E6B3F0E513DC
:10065600802DE50C90E6B3F0E50D8023E50E90E6DF
:10066600B3F0E50F801990E6BAE0FF12202EAA0635
:10067600A9077B01EA494B600DEE90E6B3F0EF90D7
:10068600E6B4F002081202080B12224D02081212FA
:100696002308020812121C1A02081212223B020830
:1006A60012122320400302081290E6B8E0247F606D
:1006B6001514601924027063A20FE43325E0FFA22B
:1006C60011E4334F8041E490E740F0803F90E6BC70
:1006D600E0547EFF7E00E0D394807C0040047D01E0
:1006E60080027D00EC4EFEED4F24E3F58274223E3F
:1006F600F583E493FF3395E0FEEF24A1FFEE34E6A5
:100706008F82F583E0540190E740F0E4A3F090E691
:100716008AF090E68B7402F002081202080B12238C
:1007260022400302081290E6B8E024FE6016240276
:10073600600302081290E6BAE0B40105C20F02088F
:100746001202080B90E6BAE0705590E6BCE0547EC3
:10075600FF7E00E0D394807C0040047D0180027D12
:1007660000EC4EFEED4F24E3F58274223EF583E461
:1007760093FF3395E0FEEF24A1FFEE34E68F82F57A
:1007860083E054FEF090E6BCE05480131313541F2C
:10079600FFE0540F2F90E683F0E04420F0806D8058
:1007A60064122324506690E6B8E024FE6019240201
:1007B600705A90E6BAE0B40104D20F804F90E6BAC0
:1007C600E064026047803E90E6BCE0547EFF7E0017
:1007D600E0D394807C0040047D0180027D00EC4ED5
:1007E600FEED4F24E3F58274223EF583E493FF3356
:1007F60095E0FEEF24A1FFEE34E68F82F5838008B4
:10080600120080500790E6A0E04401F090E6A0E0D8
:030816004480F02B
:0108190022BC
:030033000223188D
:0423180053D8EF3275
:1021A100758CE0758AC0E58954F04401F589758E16
:0821B10003D28CD2A9D2AF22A7
:03005B000211D3BC
:0D11D300C0E0C083C082C0D075D000C0074E
:1011E000AF91530780EF648060030212DB53917F5D
:1011F000300D030212D9E55064017043D3E53894F1
:10120000C8E537940050030212D990251CE54FF031
:10121000D394C8E54E9400401DD3E54F94B0E54EFD
:1012200094045012E5389460E53794095008752C01
:1012300001755000D20285374E85384F0212D3E532
:101240005064027061C3E53894C8E53794004048A3
:10125000D3E53894C8E53794004010D3E53894B00E
:10126000E53794045005752C008027D3E53894B0F9
:10127000E5379404400FD3E53894ACE537940D502E
:1012800004052C800DD3E53894ACE537940D400867
:10129000052C753700753800E52C652D703BF55031
:1012A000F537F5388033E550B4022ED3E538940194
:1012B000E53794004023741B2535F582E43425F589
:1012C00083E538F00535052CE52CB40F0675500084
:0B12D000752C00753700753800C20D4A
:0B12DB00D007D0D0D082D083D0E0320A
:101900001201000200000040181615A80000010294
:1019100000010A0600020000004001000902350033
:1019200001010080FA0904000005FF00000007051E
:101930000102400000070582020002000705810243
:1019400040000007058602000200070508020002A9
:101950000009022E0001010080FA0904000004FFC2
:101960000000000705010240000007058202400058
:101970000007050202000200070581024000000482
:1019800003090410035100480059002D004300438F
:10199000004400160351004800590038003100345B
:0B19A00000410020002000200000009B
:100F44006080241002020101020101070000000078
:100F540002000200131232120A0C0C0800000000F6
:100F64000000003F0203010101010107000000002D
:100F7400020002001332120A160C0C0800000000D2
:100F84000000003F03050102010101070000000207
:100F9400000002001332120A080C0C0800000000C2
:100FA4000000003F030501020202010700000000E7
:100FB400020002001332120A120C0808000000009A
:100FC4000000003F6024249700000000000000009F
:100FD400000000000000000000000000000000000D
:100FE4000000000000000000000000004724908082
:060FF400000008CA4E00D7
:10165C0090E60174CAF090E6F574FFF0902490E0E7
:10166C0090E6F3F0902491E090E6C3F0902492E0A1
:10167C0090E6C1F0902493E090E6C2F0902495E0BF
:10168C0090E6C0F0902496E090E6F4F075AF077405
:10169C0024F59A7410F59B759DE4E4F59EFF90E695
:1016AC007BE090E67CF00FBF80F490E67174FFF065
:1016BC00F5B490E672E04480F043B680000000E49C
:1016CC0090E6C4F000000090E6C5F0902497E090FE
:1016DC00E6C6F0902498E090E6C7F0902499E0904C
:1016EC00E6C8F090249AE090E6C9F090249BE09034
:1016FC00E6CAF090249CE090E6CBF090249DE0901C
:0B170C00E6CCF090249EE090E6CDF0CB
:0117170022AF
:03004300021800A0
:0300530002180090
:101800000221B9000221FF000221E9000221D100DA
:10181000021F0400021E900002232600022327005C
:101820000223280002232900021FA2000217180029
:1018300002232A0002232B00021E5100021C790001
:1018400002232C000223270002232D0002232E0056
:1018500002232F0002233000022331000223320032
:10186000022333000223270002232700022327003C
:1018700002233400022335000223360002233700FE
:10188000022338000223390002233A0002233B00DE
:1018900002233C0002233D0002233E0002233F00BE
:1018A000022340000223410002234200022343009E
:0818B00002234400022345005D
:1020020090E682E030E004E020E60B90E682E030E9
:10201200E119E030E71590E680E04401F07F147E9C
:0C202200001218B890E680E054FEF02296
:1021260090E682E044C0F090E681F043870100002B
:042136000000002283
:101FD30030130990E680E0440AF0800790E680E041
:101FE3004408F07FDC7E051218B890E65D74FFF0BC
:0F1FF30090E65FF05391EF90E680E054F7F02214
:02202E00A90700
:10203000AE14AF158F828E83A3E064037017AD01D9
:1020400019ED7001228F828E83E07C002FFDEC3E23
:09205000FEAF0580DF7E007F0079
:012059002264
:1018B8008E6F8F7090E600E054187012E570240166
:1018C800FFE4356FC313F56FEF13F570801590E6DD
:1018D80000E05418FFBF100BE57025E0F570E56FC8
:1018E80033F56FE5701570AE6F7002156F4E6005B9
:0618F80012213A80EE22ED
:10213A007400F58690FDA57C05A3E582458370F9B8
:01214A002272
:100FFA00C18302310B16C100012600C10541255BE0
:10100A0000C109C106014B00044300000000043C72
:10101A00000000006040251B0000000000000000E6
:10102A0000000000000000000000000000000000B6
:10103A0000000000000000000000000000000000A6
:10104A000000000000000000000000000000000096
:10105A000000000000000000013500015001012DD0
:10106A00FF012C0002370000024E0000014D000172
:10107A005700025500000233C350012B19C10BC19E
:0E108A008DC102C10C013B0001390001300094
:10205A008F6A9024FB7403F0E4A3F07A247BFB7D5F
:10206A00027F411221859024FB7401F0A3E56AF0F6
:0B207A007A247BFB7D027F4102218560
:0B22CD00C2B6C2B48FB1D2B4D2B622A8
:0B22D800D2B6C2B48FB1D2B4D2B6228D
:10221500AE05AD077F151222CDAF051222CDAF0653
:032225000222CDC5
:10222800AE05AD077F751222CDAF051222CDAF06E0
:032238000222CDB2
:0420D900AC05AB07A0
:1020DD007D5FE4FF1222157D3FFF122228FEE4FDF5
:1020ED00AF031222D8AF041222D80DBD60F20EBE7E
:0220FD0040ECB5
:0120FF0022BE
:061D2D008B6A8A6B896CD1
:101D3300E4F56DF56E900001120A12FC700C7D5FE4
:101D4300FF1222157D3FFF022228BCFF2DD2B6755C
:101D53006D00756E02C2B4AB6AAA6BA96C856E8204
:101D6300856D83120A12F5B1D2B4056EE56E700269
:0A1D7300056DB482E0E56DB401DBFC
:011D7D002243
:1014D600C2B77FC87E00122152D2B77FAE1222CD8C
:1014E6007FA01222CD7F721222CD7FA11222CDE4DF
:1014F600FF1222CD7FA21222CDFF1222CD7FA4128F
:1015060022CD7FA81222CD7F3F1222CD7FAD12229F
:10151600CD7F8E1222CD7FB01222CD7F0B1222CD2F
:101526007FB11222CD7F311222CD7FB31222CD7F21
:10153600F01222CD7F8A1222CD7F641222CD7F8BBC
:101546001222CD7F781222CD7F8C1222CD7F64129B
:1015560022CD7FBB1222CD7F3A1222CD7FBE122230
:10156600CD7F3E1222CD7F871222CD7F061222CD5D
:101576007F811222CD7F911222CD7F821222CD7FD2
:10158600501222CD7F831222CD7F7D1222CD7FAFD6
:031596000222CD61
:10081A0090E600E054E74410F00000000000009069
:10082A00E61074A0F000000090E60B7401F090E668
:10083A001274E0F0000000E490E613F0000000906B
:10084A00E61474E2F000000090E61574A0F00000CF
:10085A000090E6D27402F090E6047480F000000082
:10086A007402F00000007406F00000007408F00042
:10087A000000E4F000000012165C90E6187408F01C
:10088A0000000090E619F000000090E61AF000005F
:10089A000090E61BF0000000E490E671F075B47F6A
:1008AA0075A07F90E672F075B6FF75B1FF90E6709D
:1008BA00F075B2FF75B5FFC28CD2B0D2B11222B3B5
:1008CA0090E61074A0F000000090E611F00000001D
:1008DA0090E65EE04408F0000000E490E68DF00047
:1008EA00000090E65EE04404F0000000E490E7C0F7
:1008FA00F090E7C4F0A3F0A3F0A3F090E7F0F09033
:10090A00E68F7440F000000090E65EE04440F0009C
:10091A0000007E027F0090F800E4F0A3DFFCDEFA1C
:10092A0090E6987402F0000000E490E699F0000066
:10093A00007E027F0090F800E4F0A3DFFCDEFA906C
:10094A00E65EE04480F0000000E490E69CF00000DF
:10095A000090E69DF00000007F9AFE1222ED7528B5
:10096A00007529B47551017552907531107532B8F8
:10097A0075530675542C12231090E67AE054FEF053
:10098A00E4FD7F9012225F7F647E001218B87DFF1B
:10099A007F4212225F7F647E001218B87D827F4EEA
:1009AA0012225F753AFF43A020E4F54290E782E500
:1009BA003AF090E781E542F01222B3D20D75500168
:1009CA00753327753410752B0A121B367F887E13F0
:1009DA00122152121B367FB87E0B1221527F887E5B
:1009EA00131221521222C01214D67DAA7FAA1220F3
:1009FA00D9D2F9C2F8E4F54B90E7C0E54BF043A031
:070A0A001053917F53A0F08F
:010A110022C2
:0E22A500EF2401FBE43EFA7D047F480221692C
:100D9600E542C313FFC374809FF573E542D3940005
:100DA6004006753AFF43A020E542700353A0DF7E5C
:100DB600257F5C1222A590255DE090E7C1F0902585
:100DC6005EE090E7C2F09024FB74E5F07A247BFBAA
:100DD6007D017F411221857A257B5C7D027F411250
:100DE600216990255CE0FEA3E07C002400FFEC3E38
:100DF600FEE48F728E71F570F56F7F097E3DFDAB57
:100E060072AA71A970A86F120A61780D120AD4EF3E
:100E16002490F572EE34E8F571ED34FFF570EC349C
:100E2600FFF56FE4FB7A01F9F8AF72AE71AD70AC05
:100E36006F121E0D90E7CCEFF0E4FB7A01F9F8AFE4
:100E460072AE71AD70AC6F121E0D90E7CDEBF090E7
:100E560024FB7450F0A3742EF07A247BFB7D027F72
:100E6600411221859024FB74EEF07A247BFB7D01F0
:100E76007F411221857A257B5C7D027F41122169A3
:100E860090255CE0FEA3E07C002400FFEC3EFEE43F
:100E96008F728E71F570F56F9024FB7450F0A37409
:100EA6000FF07A247BFB7D027F41122185E47FCD02
:100EB6007E55FDFCAB72AA71A970A86F120A617803
:100EC6000D120AD4EF24FEF572EE3448F571ED34B6
:100ED600FFF570EC34FFF56FE4FB7A01F9F8AF72B9
:100EE600AE71AD70AC6F121E0D90E7CEEFF0E4FB65
:100EF6007A01F9F8AF72AE71AD70AC6F121E0D903B
:100F0600E7CFEBF09024FBE53AF07A247BFB7D01FA
:100F16007F211221859024FB7402F0A37480F07A5D
:100F2600247BFB7D027F28122185E49024FBF0A31D
:0E0F3600E573F07A247BFB7D027F2802218583
:1013EE000556E55670020555054D0557B5340DE504
:1013FE0055B53308120D96E4F555F55690E7C8E548
:10140E0050F0A3E52CF0A3E539F0E557B40A179098
:10141E00FC00E0B411097B017AFC7900121D2DE469
:10142E0090FC00F0F557E54DB52B20E550601124EA
:10143E00FE6008047012122283800D12229580081D
:10144E00E4FF12205A53A0EFE4F54D90F00074AA79
:10145E00F0A37411F0A374CCF0A374EEF0E490E654
:10146E0090F090E6917405F030015C754B0190E7B9
:10147E00C0E54BF0E5A030E7032009F890F00074CA
:10148E00AAF0A37411F0A374CCF0A374EEF0E49060
:10149E00E690F090E6917405F012109990F00074B9
:1014AE00AAF0A37411F0A374CCF0A374EEF0E49040
:1014BE00E690F090E6917405F0C201E4F54B90E7EA
:0814CE00C0E54BF01222C02220
:0218FE00D322F3
:02231C00D322CA
:02231E00D322C8
:101C1A0090E680E030E73A00000090E6207402F097
:101C2A00000000E490E621F000000090E62474022F
:101C3A00F0000000E490E625F000000090E626742B
:101C4A0002F0000000E490E627F0000000D20380D2
:101C5A0016000000E490E620F000000090E62174EF
:0F1C6A0040F0000000C20390E6BAE0F54CD32230
:10223B0090E740E54CF0E490E68AF090E68B04F0F2
:02224B00D3229C
:0823080090E6BAE0F527D322AC
:10224D0090E740E527F0E490E68AF090E68B04F005
:02225D00D3228A
:02232000D322C6
:02232200D322C4
:02232400D322C2
:10008000E4F56AF56BF56C90E6B9E0120AE800B6A3
:10009000B300EEB5029DB602D5BB0327BC0388C2F0
:1000A00003D0C503EFC60424CA0462CB04D6D0052E
:1000B0009BD2000005F2E490E68AF090E68BF09087
:1000C000E6A0E020E1F990E68BE0F56AE4F5B39074
:1000D000E60174CAF0D20100000090E6047480F0DA
:1000E0000000007402F0000000E4F00205F4E49067
:1000F000E68AF090E68BF090E6A0E020E1F990E649
:100100008BE0F56AD3943F4024E4F56B7440256B93
:10011000F582E434E7F583E0FF74BB256BF582E4F8
:100120003424F583EFF0056BE56BB440DF7F8A7E06
:10013000001222ED9024BBE0FF7E001222F69024F4
:10014000BCE075F004A4FFAEF01222FF9024C0E0E2
:10015000C3940250139024DCE090E6C07005744E06
:10016000F08016749CF080119024DCE090E6C07062
:1001700005749FF08003749DF09024DEE024FF92CC
:10018000089024DBE024FF92079024DFE024FF9214
:100190000A9024E9E0754000F541A3E0FEA3E07C6D
:1001A000002400F525EC3EF5249024EEE090255B3C
:1001B000F09024C1E0F536E53670037536019024E1
:1001C000C6E0FEA3E07C002400F529EC3EF528A360
:1001D000E0FEA3E02400F552EC3EF5519024C2E08D
:1001E000FEA3E02400F532EC3EF531A3E0FEA3E0EF
:1001F0002400F554EC3EF5539024F6E0FFE4FDFEB8
:10020000FBFAF97801120A61A804A905AA06AB074E
:100210009024CCE0FEA3E07C002400FFEC3EFEE452
:10022000FDEB2FFFEA3EFEED39FDEC38FCC004C0CB
:1002300005C006C0079024F7E0FFE4FCFDFEFBFAD2
:100240007901F8120A61D003D002D001D000EF2B5F
:10025000F54AEE3AF549ED39F548EC38F547902482
:10026000CAE0FEA3E07C002400F52FEC3EF52EE46E
:10027000FD7F9012225F9024BCE0FCA3E0FDA3E090
:10028000FEA3E0F5468E458D448C43E546F546E5F4
:1002900045F545E544F544E4F5430205F4E4F56B22
:1002A00074BB256BF582E43424F583E0FF744025AC
:1002B0006BF582E434E7F583EFF0056BE56BB44052
:1002C000DF000000E490E68AF000000090E68B7406
:1002D00040F00205F4E490E68AF090E68BF090E6B8
:1002E000A0E020E1F990E6BCE09024FBF0E4F56B9F
:1002F00090E6BEE0FFE56BC39F501E7440256BF592
:1003000082E434E7F583E0FF74FC256BF582E43486
:1003100024F583EFF0056B80D790E6BAE0C313FFB6
:1003200090E6BEE0048059E490E68AF090E68BF017
:1003300090E6A0E020E1F990E6BDE09024FBF0908B
:10034000E6BCE09024FCF0E4F56B90E6BEE0FFE54F
:100350006BC39F501E7440256BF582E434E7F58330
:10036000E0FF74FD256BF582E43424F583EFF0059E
:100370006B80D790E6BAE0C313FF90E6BEE024029C
:10038000FD7A247BFB0204D090E7407408F0A3744C
:100390000AF0A3740CF0A37426F0A37407F0A374FE
:1003A000EEF0A37401F0A37403F0A37453F03003D0
:1003B00005E4A3F0800690E74974FFF0000000E434
:1003C00090E68AF000000090E68B740AF00205F4D3
:1003D0007AE77B407D047F48122169000000E490A9
:1003E000E68AF000000090E68B7404F00205F4E465
:1003F00090E68AF090E68BF090E6A0E020E1F9909C
:10040000E68BE0F56AD3940150030205F490E741CE
:10041000E0FD7F4212225F90E740E0FD7F4E122216
:100420005F0205F490E6BCE090255CF07A257B5CE9
:100430007D017F501221857A257B5C7D017F5012E2
:10044000218590E6BEE0FD7AE77B407F501221696E
:10045000E490E68AF000000090E6BEE090E68B02B1
:1004600005ECE490E68AF000000090E68BF00000D6
:100470000090E6A0E020E1F990E6BCE0D3940750BC
:10048000030205F4E09024FBF0E4F56B90E6BEE097
:10049000FFE56BC39F501E7440256BF582E434E783
:1004A000F583E0FF74FC256BF582E43424F583EFDB
:1004B000F0056B80D790E6BEE004FD7A247BFB7FDD
:1004C0005012218590E6BEE004FD7A247BFB7F502C
:1004D0001221850205F4E490E68AF090E68BF09014
:1004E000E6A0E020E1F990E68BE0F56BC29890E79A
:1004F00040E0C394304006E0D39437400A90E74090
:10050000E0F46003020587E550707C43A01090E79B
:1005100040E0F4600AE0B43010E52C6401600AD2D7
:100520000D755001C20B0205F490E740E0C3943111
:1005300050030205F4E0D3943740030205F4E024AD
:10054000D1F52D652C70030205F4C20CE0B40A034A
:10055000752D6190E740E0B40B03752D6290E74084
:10056000E0B40C03752D6390E740E0B40D03752DE6
:100570006490E740E0B40E03752D6590E740E0B469
:100580000F03752D66800F90E740E064207065E5ED
:1005900050706143A0107550028059E56CC39414EB
:1005A000503AE56CC313FD241BF582E43425F58332
:1005B0007440256CF582E434E7F583E4F0741B2D78
:1005C000F582E43425F583E0FF7441256CF582E47F
:1005D00034E7F583EFF0056C056C80BF000000E4A4
:1005E00090E68AF000000090E68B7428F00000008E
:0505F0008002D322C3CC
:0105F50022E3
:1021B900C0E0C083C082D2105391EF90E65D7401F4
:0821C900F0D082D083D0E03297
:1021E900C0E0C083C0825391EF90E65D7404F0D0E3
:0621F90082D083D0E03229
:1021FF00C0E0C083C0825391EF90E65D7402F0D0CF
:06220F0082D083D0E03212
:101F0400C0E0C083C08285100C85110D850D8285CB
:101F14000C83A37402F085080E85090F850F828552
:101F24000E83A37407F05391EF90E65D7410F0D024
:061F340082D083D0E032F0
:1021D100C0E0C083C082D2125391EF90E65D7408D3
:0821E100F0D082D083D0E0327F
:101E9000C0E0C083C08290E680E030E72085080C77
:101EA00085090D850D82850C83A37402F085100EC3
:101EB00085110F850F82850E83A37407F05391EF70
:0D1EC00090E65D7420F0D082D083D0E03237
:012326003284
:012327003283
:012328003282
:012329003281
:101FA200C0E0C083C08290E65EE054FBF000000017
:101FB20090E68F7440F00000005391EF90E65FE0EE
:101FC2004404F090E65EE04404F0D082D083D0E096
:011FD20032DC
:10171800C0E0C0F0C083C082C0D075D000C000C097
:0D17280001C002C003C004C005C006C00718
:1017350075580075590090E65EE054F7F090E6A103
:10174500E020E1F990E780E0FF14601324CF601DED
:101755002434603014603714703975230080349058
:10176500E782E0F53A90E781E0F542802690E7814F
:10177500E07005121B36801B90E781E0B4FF141260
:1017850022C0800F90E781E024FF92098005752330
:1017950000D20400000090E68DE4F05391EF90E64E
:0C17A5005FE04408F090E65EE04408F0CD
:1017B100D007D006D005D004D003D002D001D0008C
:0B17C100D0D0D082D083D0F0D0E03236
:01232A003280
:01232B00327F
:101E5100C0E0C083C08290E65EE054BFF0000000A5
:101E610090E6987402F000000090E699E4F000001A
:101E71000090F800F0A3F05391EF90E65FE044404A
:0F1E8100F090E65EE04440F0D082D083D0E032B3
:0F1C7900C0E0C083C082C0D075D000C004C006D8
:101C880090E65EE0547FF090E6A6E020E1F990E669
:101C98009CE0FE90E69DE07C002400F559EC3EF5C2
:101CA8005800000090E69CE4F090E69DF05391EF18
:0E1CB80090E65FE04480F090E65EE04480F04D
:0D1CC600D006D004D0D0D082D083D0E03240
:01232C00327E
:01232D00327D
:01232E00327C
:01232F00327B
:01233000327A
:012331003279
:012332003278
:012333003277
:012334003276
:012335003275
:012336003274
:012337003273
:012338003272
:012339003271
:01233A003270
:01233B00326F
:01233C00326E
:01233D00326D
:01233E00326C
:01233F00326B
:01234000326A
:012341003269
:012342003268
:012343003267
:012344003266
:012345003265
:0619AB008F6D8C6E8D6F44
:1019B100536D0753B0F712214EE4F570C3740295CD
:1019C10070FFE56DA807088002C313D8FC30E0055D
:1019D10043800280035380FD12214E12214B53801C
:1019E100FE12214E0570E570C3940340CFE4F570FB
:1019F100C374099570FFE56FAE6EA807088005CE28
:101A0100C313CE13D8F930E005438002800353801D
:101A1100FD12214E12214B5380FE12214E0570E51D
:101A210070C3940A40CA43B00812214E53B0F77FE5
:061A31000A7E00022152B2
:0922ED00AD07AC06E4FF0219ABD9
:0922F600AD07AC067F040219AB30
:0922FF00AD07AC067F010219AB2A
:10225F009024FBEDF0EFC313FF7A247BFB7D01028B
:02226F002185C7
:07214B004380017F0A7E00C2
:10215200EF7803C333CE33CED8F9FFEF4E6007EFEB
:072162001F70F81E80F5223A
:0D22B300D282C283D287C284D286D2852215
:101DC700C2827F017E00122152D284D2867F017E99
:101DD70000122152C2857F017E00122152D283D286
:101DE700877F017E00122152C2847F017E0012216B
:101DF70052D2827F017E00122152C2837F017E0070
:061E0700122152D28522D7
:10210000C284C2867F037E00122152C283C2877FAF
:10211000037E00122152C284D2867F037E001221E8
:0621200052C283D28722A7
:10227100E4FDFC121DC70DBD00010CBC0AF5BDC873
:01228100F26A
:012282002239
:1015990085463F85453E85443D85433CE52F452E9F
:1015A900700AC2B17F32FE122152D2B1300705C290
:1015B900B043A04030080302164A752301E47FE8CE
:1015C9007E03FDFCAB3FAA3EA93DA83CC3120AB06D
:1015D9004061E5236401705B7FDD7E031218B81258
:1015E9000D96E53F2418F53FE53E34FCF53EE53D13
:1015F90034FFF53DE53C34FFF53CE4FFFEFDE53CF9
:10160900FC7818120AC190E7C4EFF0E4FFFEE53D4B
:10161900FDE4FC7810120AC1A3EFF0E4FFE53EFEF9
:10162900E4FDFC7808120AC1A3EFF0E53FFFA3EF40
:10163900F0808AE523B40112AE3EAF3F1218B8809C
:1016490009752301E523640160FA300705D2B05317
:03165900A0BF220D
:101AC3008F728E718D708C6FE4FFFEFDFCAB72AA7A
:101AD30071A970A86FD3120AB04057000000E4FF49
:101AE300FEFDE56FFC7818120AC190E6CEEFF00018
:101AF3000000E4FFFEE570FDE4FC7810120AC190DB
:101B0300E6CFEFF0000000E4FFE571FEE4FDFC78B2
:101B130008120AC190E6D0EFF0000000E572FF90D2
:101B2300E6D1EFF000000075BB04000000E5BB3018
:031B3300E7FB22AB
:081ECD008C6F8D70AB07AA06B3
:101ED500E4FDFCC3ED9570EC956F5022EA90E6D0D9
:101EE500F0000000EB90E6D1F000000075BB0500A6
:0E1EF5000000E5BB30E7FB0DBD00010C80D501
:011F030022BB
:1020B000AD07AC06000000ED25E0EC3390E6D0F073
:1020C000000000ED25E090E6D1F000000075BB04B3
:0920D000000000E5BB30E7FB2233
:101D7E00E47FACFEFDFCAB46AA45A944A843D312B2
:101D8E000AB04026E5462454F546E54534FFF545B0
:101D9E00E54434FFF544E54334FFF543121599E568
:101DAE002F452E7011122271800CE52F452E7003D7
:091DBE0012227112159902210094
:10109900C20453A0F043A0047FD07E07122152530B
:1010A900A0F043A00C7FD07E0712215253A0F04339
:1010B900A0087FD07E071221527FAE1222CD902543
:1010C9005BE0B40106200503121BA8754B0290E7EB
:1010D900C0E54BF0121D7E754B0390E7C0E54BF060
:1010E9003004030211D2E4F56CF56DC3E56D952961
:1010F900E56C9528501BE4F56EE56EC395365007EF
:10110900121DC7056E80F2056DE56D70DE056C80F8
:10111900DAD3E5419400E5409400400BAD41AC4081
:10112900AF32AE31121ECDD3E5259400E5249400EB
:101139004007AF25AE241220B0E4F56AF56BC3E58C
:101149006B9554E56A9553502C122085E4F56CF59E
:101159006DC3E56D95367480F8656C98500D121D58
:10116900C7056DE56D70EA056C80E6056BE56B708A
:10117900CD056A80C9E4F56CF56DC3E56D9552E559
:101189006C9551501BE4F56EE56EC3953650071208
:101199001DC7056E80F2056DE56D70DE056C80DAA0
:1011A900D282D283D287D284D286D285AF4AAE493F
:1011B900AD48AC47121AC390255BE0B4010620057F
:0911C90003121B367FAF1222CD88
:0111D20022FA
:10208500000000E53225E0E5313390E6D0F00000B0
:1020950000E53225E090E6D1F000000075BB0400B4
:0B20A5000000E5BB20E7033004F82238
:101CD3000530E530B40803E4F530E53070047F08DF
:101CE300803DE530B401047F0A8034E530B402045A
:101CF3007F02802BE530B403047F038022E530B4F8
:101D030004047F018019E530B405047F058010E5E4
:101D130030B406047F048007E530B4070C7F0C124F
:0A1D2300205A7F2D7E00122152226B
:10228300C202E550600B121CD30538E53870020515
:022293003722F0
:10229500E550600B0538E53870020537121CD3226E
:0D22C00053A0F07526FF90E7CBE526F02235
:101B360053A0F043A0097F287E0A12215253A0F039
:101B460043A0017F287E0A12215253A0F043A0032E
:101B56007F287E0A12215253A0F043A0027F287EDE
:101B66000A12215253A0F043A0067F287E0A1221B2
:101B76005253A0F043A0047F287E0A12215253A09C
:101B8600F043A00C7F287E0A12215253A0F043A0F6
:101B9600087F287E0A122152E4F52690E7CBE52637
:021BA600F0222B
:101BA80053A0F043A0087FC47E0912215253A0F02D
:101BB80043A00C7FC47E0912215253A0F043A00415
:101BC8007FC47E0912215253A0F043A0067FC47E31
:101BD8000912215253A0F043A0027FC47E091221AA
:101BE8005253A0F043A0037FC47E0912215253A090
:101BF800F043A0017FC47E0912215253A0F043A0F4
:101C0800097FC47E0912215275260190E7CBE5268B
:021C1800F022B8
:08231000E4F51BD2E9D2AF2273
:101F3A0090E678E020E6F9C2E990E678E04480F09D
:101F4A00EF25E090E679F090E678E030E0F990E667
:101F5A0078E04440F090E678E020E6F990E678E010
:061F6A0030E1D6D2E922AD
:101F7000A90790E678E020E6F9E51B702390E67863
:101F8000E04480F0E925E090E679F08D16AF03A9F2
:101F9000077517018A188919E4F51A751B01D322F0
:021FA000C3225A
:1017CC00A90790E678E020E6F9E51B702590E6780D
:1017DC00E04480F0E925E0440190E679F08D16AF05
:1017EC0003A9077517018A188919E4F51A751B03E3
:0417FC00D322C3220F
:03004B000212E6B8
:1012E600C0E0C083C082C085C084C086758600C049
:1012F600D075D000C000C001C002C003C006C00740
:1013060090E678E030E206751B060213D090E67888
:10131600E020E10CE51B64026006751B070213D092
:10132600E51B24FE605F14603624FE70030213C1C1
:1013360024FC70030213CD240860030213D0AB17FC
:10134600AA18A919AF1A051A8F82758300120A12F4
:1013560090E679F0E51A65167070751B05806B903E
:10136600E679E0AB17AA18A919AE1A8E8275830022
:10137600120A3F751B02E5166401704E90E678E08E
:101386004420F08045E51624FEB51A0790E678E07D
:101396004420F0E51614B51A0A90E678E04440F0C9
:1013A600751B0090E679E0AB17AA18A919AE1A8E3C
:1013B60082758300120A3F051A800F90E678E04492
:1013C60040F0751B008003751B005391DFD007D0DA
:1013D60006D003D002D001D000D0D0D086D084D0A1
:0813E60085D082D083D0E032F3
:102169001217CCE51B24FA600E146006240770F3DD
:0C217900D322E4F51BD322E4F51BD32293
:10218500121F70E51B24FA600E146006240770F315
:0C219500D322E4F51BD322E4F51BD32277
:03000000021A37AA
:0C1A3700787FE4F6D8FD758173021A7EFA
:100A1200BB010CE58229F582E5833AF583E0225099
:100A220006E92582F8E622BBFE06E92582F8E222E3
:0D0A3200E58229F582E5833AF583E49322FD
:100A3F00F8BB010DE58229F582E5833AF583E8F0ED
:100A4F00225006E92582C8F622BBFE05E92582C899
:020A5F00F22281
:100A6100E88FF0A4CC8BF0A42CFCE98EF0A42CFC34
:100A71008AF0EDA42CFCEA8EF0A4CDA8F08BF0A4B2
:100A81002DCC3825F0FDE98FF0A42CCD35F0FCEB11
:100A91008EF0A4FEA9F0EB8FF0A4CFC5F02ECD39D6
:0F0AA100FEE43CFCEAA42DCE35F0FDE43CFC2243
:101E0D00C2D5E830E70FB2D5E4C39BFBE49AFAE400
:101E1D0099F9E498F8EC30E717B2D5121E43120B7E
:101E2D004AE4C39BFBE49AFAE499F9E498F8800339
:101E3D00120B4A30D50DE4C39FFFE49EFEE49DFDD9
:041E4D00E49CFC22F3
:100AB000EB9FF5F0EA9E42F0E99D42F0E89C45F09C
:010AC0002213
:100AC100E8600FECC313FCED13FDEE13FEEF13FF13
:030AD100D8F12237
:100AD400E86010ECA2E713FCED13FDEE13FEEF1338
:040AE400FFD8F02225
:100AE800D083D082F8E4937012740193700DA3A39D
:100AF80093F8740193F5828883E4737402936860B1
:060B0800EFA3A3A380DFB0
:101A4300020BDCE493A3F8E493A34003F68001F2D2
:101A530008DFF48029E493A3F85407240CC8C333A4
:101A6300C4540F4420C8834004F456800146F6DF73
:101A7300E4800B0102040810204080900F44E47EB0
:101A8300019360BCA3FF543F30E509541FFEE49368
:101A9300A360010ECF54C025E060A840B8E493A32F
:101AA300FAE493A3F8E493A3C8C582C8CAC583CA5A
:101AB300F0A3C8C582C8CAC583CADFE9DEE780BE12
:011098000057
:100B0E0075F008758200EF2FFFEE33FECD33CDCC9E
:100B1E0033CCC58233C5829BED9AEC99E582984021
:100B2E000CF582EE9BFEED9AFDEC99FC0FD5F0D6FE
:100B3E00E4CEFBE4CDFAE4CCF9A88222B800C1B928
:100B4E000059BA002DEC8BF084CFCECDFCE5F0CB66
:100B5E00F97818EF2FFFEE33FEED33FDEC33FCEB9F
:100B6E0033FB10D703994004EB99FB0FD8E5E4F95A
:100B7E00FA227818EF2FFFEE33FEED33FDEC33FC47
:100B8E00C933C910D7059BE99A4007EC9BFCE99A3B
:100B9E00F90FD8E0E4C9FAE4CCFB2275F010EF2F80
:100BAE00FFEE33FEED33FDCC33CCC833C810D70780
:100BBE009BEC9AE899400AED9BFDEC9AFCE899F8BB
:0E0BCE000FD5F0DAE4CDFBE4CCFAE4C8F9224E
:00000001FF
