:0A228D00000102020303040405052A
:100C9900E4F567F566F565F564C20EC20BC20DC2CF
:100CA9000C1221A4120A9F7E187F008E0A8F0B75E1
:100CB900121875131275081875091C751018751115
:100CC9005175141875157FEE54E07003020DE07527
:100CD90068007569808E6A8F6BC374A99FFF741849
:100CE9009ECF2402CF3400FEE48F638E62F561F556
:100CF90060F55FF55EF55DF55CAF63AE62AD61AC65
:100D090060AB5FAA5EA95DA85CC3120F395026E5E6
:100D190069255FF582E568355EF58374CDF0E55F99
:100D29002401F55FE4355EF55EE4355DF55DE43596
:100D39005CF55C80C4E4F55FF55EF55DF55CAF6379
:100D4900AE62AD61AC60AB5FAA5EA95DA85CC3127F
:100D59000F395031AE5EAF5FE56B2FF582E56A3E24
:100D6900F583E0FDE5692FF582E5683EF583EDF051
:100D7900EF2401F55FE43EF55EE4355DF55DE435AC
:100D89005CF55C80B985680A85690B74002480FF6D
:100D9900741834FFFEC3E5139FF513E5129EF5128F
:100DA900C3E50D9FF50DE50C9EF50CC3E50F9FF509
:100DB9000FE50E9EF50EC3E5099FF509E5089EF5B9
:100DC90008C3E5119FF511E5109EF510C3E5159FC0
:100DD900F515E5149EF514D2E843D82090E668E0AD
:100DE9004409F090E65CE0443DF0D2AFD288D28A63
:100DF900C2A8C2AA43E808D2FB90E680E020E10538
:100E0900D20F121F8F90E680E054F7F0538EF8C28C
:100E19000E300C0512045DC20C300E291222C65088
:100E290024C20E12210E200B1690E682E030E70450
:100E3900E020E1EF90E682E030E604E020E0E41211
:0A0E49001FBE1222C81216B880C79F
:10045D0090E6B9E0700302050E14700302058B24BB
:10046D00FE700302060E24FB7003020508147003D0
:10047D000205021460731460762405600302066D94
:10048D001222CA400302067990E6BBE024FE6022E8
:10049D0014603324FD601114602224067048E50AAF
:1004AD0090E6B3F0E50B8037E51290E6B3F0E51377
:1004BD00802DE50C90E6B3F0E50D8023E50E90E67A
:1004CD00B3F0E50F801990E6BAE0FF121FEAAA0615
:1004DD00A9077B01EA494B600DEE90E6B3F0EF9072
:1004ED00E6B4F0020679020672122214020679129F
:1004FD0022B2020679121BF10206791222020206BD
:10050D00791222CC400302067990E6B8E0247F6090
:10051D001514601924027063A20BE43325E0FFA2C9
:10052D000DE4334F8041E490E740F0803F90E6BC0E
:10053D00E0547EFF7E00E0D394807C0040047D017A
:10054D0080027D00EC4EFEED4F248DF58274223E2F
:10055D00F583E493FF3395E0FEEF24A1FFEE34E63F
:10056D008F82F583E0540190E740F0E4A3F090E62C
:10057D008AF090E68B7402F002067902067212225E
:10058D00CE400302067990E6B8E024FE6016240200
:10059D00600302067990E6BAE0B40105C20B0206CB
:1005AD007902067290E6BAE0705590E6BCE0547E92
:1005BD00FF7E00E0D394807C0040047D0180027DAD
:1005CD0000EC4EFEED4F248DF58274223EF583E452
:1005DD0093FF3395E0FEEF24A1FFEE34E68F82F515
:1005ED0083E054FEF090E6BCE05480131313541FC7
:1005FD00FFE0540F2F90E683F0E04420F0806D80F3
:10060D00641222D0506690E6B8E024FE60192402F0
:10061D00705A90E6BAE0B40104D20B804F90E6BA5E
:10062D00E064026047803E90E6BCE0547EFF7E00B1
:10063D00E0D394807C0040047D0180027D00EC4E6F
:10064D00FEED4F248DF58274223EF583E493FF3346
:10065D0095E0FEEF24A1FFEE34E68F82F58380084E
:10066D00120080500790E6A0E04401F090E6A0E073
:03067D004480F0C6
:010680002257
:030033000222C2E4
:0422C20053D8EF32CC
:1021A400758CE0758AC0E58954F04401F589758E13
:0821B40003D28CD2A9D2AF22A4
:03005B00020899FF
:10089900C0E0C083C082C0D075D000C004C006C00B
:0108A9000747
:1008AA00AF91530780EF64806003020A9053917FEF
:1008BA00300903020A8EE55264047070D3E53A9453
:1008CA00C8E53994005003020A8E0535E53525E05E
:1008DA002472F582E43424F583E539F0A3E53AF08D
:1008EA00E53525E02470F582E43424F583E0FEA39F
:1008FA00E0FFD394C8EE9400402FEF25E0FFEE33DB
:10090A00FEEF2444FFEE34FDFEE53525E02472F5C2
:10091A0082E43424F583E0FCA3E0D39FEC9E4009F3
:10092A00752B01755200753500020A88E55264017B
:10093A0060030209EED3E53A94C8E53994005003FE
:10094A00020A8E0535E53525E02472F582E4342461
:10095A00F583E539F0A3E53AF0E53525E02470F5AD
:10096A0082E43424F583E0FEA3E0FFD394C8EE9436
:10097A0000406EEF25E0FFEE33FEEF2444FFEE3435
:10098A00FDFEE53525E02472F582E43424F583E0A2
:10099A00FCA3E0D39FEC9E40480553E553640270E4
:1009AA003DE53514F532752B01E53525E0246EF564
:1009BA0082E43424F583E0FEA3E024C8F537E43E5C
:1009CA00F536E53525E02470F582E43424F583E034
:1009DA00FEA3E024C8F546E43EF545755200753598
:1009EA0000020A88E55264027061C3E53A94C8E5D8
:1009FA003994004048D3E53A94C8E5399400401048
:100A0A00D3E53A9546E53995455005752B0080277B
:100A1A00D3E53A9546E5399545400FD3E53A9537FA
:100A2A00E53995365004052B800DD3E53A9537E51F
:100A3A003995364008052B753900753A00E52B655E
:100A4A002C7041F552F539F53A8039E552B405343E
:100A5A00D3E53A9401E53994004029E53525E024A7
:100A6A0072F582E43424F583E539F0A3E53AF0051A
:100A7A0035052BE52BB41406755200752B00753914
:060A8A0000753A00C209EC
:0F0A9000D007D006D004D0D0D082D083D0E032AF
:101800001201000200000040181615A80000010295
:1018100000010A0600020000004001000902350034
:1018200001010080FA0904000005FF00000007051F
:101830000102400000070582020002000705810244
:1018400040000007058602000200070508020002AA
:101850000009022E0001010080FA0904000004FFC3
:101860000000000705010240000007058202400059
:101870000007050202000200070581024000000483
:1018800003090410035100480059002D0043004390
:10189000004400160351004800590038003100345C
:0B18A00000410020002000200000009C
:1006810060802564030503030202010700000002E4
:10069100000002001332120A080C080800000000D2
:1006A1000000003F030503020202010700000000F1
:1006B100020002001312320A120C0C0800000000A2
:1006C1000000003F030F03030303010700000002C2
:1006D100000002001332120A080C08080000000092
:1006E1000000003F030C03020302010700000000A9
:1006F100020002001332120A120C0C080000000062
:100701000000003F602425EB000000000000000015
:1007110000000000000000000000000000000000D8
:100721000000000000000000000000004725E480F8
:06073100000010CA4E009A
:10152D0090E60174CAF090E6F574FFF09025E4E0C2
:10153D0090E6F3F09025E5E090E6C3F09025E6E027
:10154D0090E6C1F09025E7E090E6C2F09025E9E045
:10155D0090E6C0F09025EAE090E6F4F075AF0774E0
:10156D0025F59A7464F59B759DE4E4F59EFF90E670
:10157D007BE090E67CF00FBF80F490E67174FFF095
:10158D00F5B490E672E04480F043B680000000E4CC
:10159D0090E6C4F000000090E6C5F09025EBE090D9
:1015AD00E6C6F09025ECE090E6C7F09025EDE090D2
:1015BD00E6C8F09025EEE090E6C9F09025EFE090BA
:1015CD00E6CAF09025F0E090E6CBF09025F1E090A2
:0B15DD00E6CCF09025F2E090E6CDF0A7
:0115E80022E0
:03004300021600A2
:0300530002160092
:101600000221BC000221EC000215E9000221D400F5
:10161000021E8C00021E18000215FF000222D200DA
:101620000222D3000222D400021F5E000212D30065
:101630000222D5000222D600021DD900021C500051
:101640000222D7000222D2000222D8000222D900B0
:101650000222DA000222DB000222DC000222DD008C
:101660000222DE000222D2000222D2000222D20096
:101670000222DF000222E0000222E1000222E20058
:101680000222E3000222E4000222E5000222E60038
:101690000222E7000222E8000222E9000222EA0018
:1016A0000222EB000222EC000222ED000222EE00F8
:0816B0000222EF000222F0000B
:101FBE0090E682E030E004E020E60B90E682E0302E
:101FCE00E119E030E71590E680E04401F07F147EE1
:0C1FDE0000121D4D90E680E054FEF02241
:10210E0090E682E044C0F090E681F0438701000043
:04211E00000000229B
:101F8F00300F0990E680E0440AF0800790E680E089
:101F9F004408F07FDC7E05121D4D90E65D74FFF066
:0F1FAF0090E65FF05391EF90E680E054F7F02258
:021FEA00A90745
:101FEC00AE14AF158F828E83A3E064037017AD011E
:101FFC0019ED7001228F828E83E07C002FFDEC3E68
:09200C00FEAF0580DF7E007F00BD
:0120150022A8
:101D4D008E718F7290E600E054187012E5722401C6
:101D5D00FFE43571C313F571EF13F572801590E63D
:101D6D0000E05418FFBF100BE57225E0F572E57128
:101D7D0033F571E5721572AE71700215714E600515
:061D8D0012212280EE226B
:102122007400F58690FDA57C05A3E582458370F9D0
:01213200228A
:1007370060A524BD18244242424242424224181076
:100747007010101010101010107C3C42424204042C
:10075700081020427E3C42420418040202424438F8
:10076700040C14242444447E04041E7E4040405854
:100777006402024244381C244040586442424224E6
:10078700187E444408081010101010103C424242D2
:100797002418244242423C1824424242261A0202AA
:1007A700243800000000007F000000000038448269
:1007B70082828282B2CA4C38E7424242427E424239
:1007C7004242E7EE44442828101010101038101049
:1007D700182828243C444242E7C18242256200008F
:1007E7004224B200004224B40000412410004124F6
:1007F70011004124B70002300B16C100012500414A
:1008070024B600C107C104014F00044700000000DF
:10081700043E000000006040247200000000000059
:1008270000000000000000000000000000000000C1
:1008370000000000000000000000000000000000B1
:1008470000000000000000000000000000000000A1
:100857000000000000000000000001350001520107
:10086700012CFF012B000239000001320001530067
:100877000236000002450000015100025800000244
:1008870033C350012A19C189013D00013B00012FE3
:010897000060
:102016008F6C9024527403F0E4A3F07A247B527DF3
:10202600027F4112216D9024527401F0A3E56CF0F9
:0B2036007A247B527D027F4102216D65
:0B17F500C2B6C2B48FB1D2B4D2B6228B
:0B228200D2B6C2B48FB1D2B4D2B622E3
:04218900AE05AD07EB
:10218D00E4FCE4FBAF05122282AF061222820BBBE8
:06219D0060F20CBC40ECF6
:0121A3002219
:10206C00AE05AD077F151217F5AF061217F57F5F9A
:10207C001217F57F751217F5AF051217F57F3F1282
:0A208C0017F57F251222820222823E
:021B8600AE03AC
:101B8800EDC454F0F56CEE75F008A4F56DBF2D04A6
:101B98007A0A8019BF51047A0B8012BF48047A0C64
:101BA800800BBF59047A0D8004EF24D0FAE4FBEAD5
:101BB80075F00BA424BDF582E43424F583E5822B6B
:101BC800F582E43583F583E0F9E4FCE930E70DE5D7
:101BD8006C24032BFFE56D2CFD12206CE925E0F940
:081BE8000CBC08E70BBB0BC7A6
:011BF00022D2
:1013A700C2B77FC87E0012213AD2B77FAE1217F5B7
:1013B7007FA01217F57F721217F57FA11217F5E4B8
:1013C700FF1217F57FA21217F5FF1217F57FA41268
:1013D70017F57FA81217F57F3F1217F57FAD121784
:1013E700F57F8E1217F57FB01217F57F0B1217F5E1
:1013F7007FB11217F57F311217F57FB31217F57FFB
:10140700F01217F57F8A1217F57F641217F57F8B95
:101417001217F57F781217F57F8C1217F57F641274
:1014270017F57FBB1217F57F3A1217F57FBE121714
:10143700F57F3E1217F57F871217F57F061217F50E
:101447007F811217F57F911217F57F821217F57FAB
:10145700501217F57F831217F57F7D1217F57FAFAF
:031467000217F574
:101937001213A7E4FDFF1221897B037D017F51125A
:101947001B867B047D017F48121B867B057D017FFB
:1019570059121B867B067D017F38121B867B077D0C
:10196700017F31121B867B087D017F34121B867B2A
:10197700027D027F31121B867B037D027F36121B9D
:10198700867B047D027F2D121B867B057D027F31BE
:10199700121B867B067D027F32121B867B077D0228
:1019A7007F2D121B867B087D027F32121B867B09E7
:0719B7007D027F30021B8658
:100A9F0090E600E054E74410F000000000000090E2
:100AAF00E61074A0F000000090E60B7401F090E6E1
:100ABF001274E0F0000000E490E613F000000090E4
:100ACF00E61474E2F000000090E61574A0F0000048
:100ADF000090E6D27402F090E6047480F0000000FB
:100AEF007402F00000007406F00000007408F000BB
:100AFF000000E4F000000012152D90E6187408F0C5
:100B0F0000000090E619F000000090E61AF00000D7
:100B1F000090E61BF0000000E490E671F075B47FE2
:100B2F0075A07F90E672F075B6FF75B1FF90E67015
:100B3F00F075B2FF75B5FFC28CD2B0D2B112226878
:100B4F0090E61074A0F000000090E611F000000095
:100B5F0090E65EE04408F0000000E490E68DF000BF
:100B6F00000090E65EE04404F0000000E490E7C06F
:100B7F00F090E7C4F0A3F0A3F0A3F090E7F0F090AB
:100B8F00E68F7440F000000090E65EE04440F00015
:100B9F0000007E027F0090F800E4F0A3DFFCDEFA95
:100BAF0090E6987402F0000000E490E699F00000DF
:100BBF00007E027F0090F800E4F0A3DFFCDEFA90E5
:100BCF00E65EE04480F0000000E490E69CF0000058
:100BDF000090E69DF00000007F9AFE122297752785
:100BEF00007528B47554017555907530107531B86E
:100BFF0075560675572C1222BA90E67AE054FEF01D
:100C0F00E4FD7F901222267F647E00121D4D7DFF32
:100C1F007F421222267F647E00121D4D7D827F4E01
:100C2F00122226753CFF43A020E4F54490E782E5AD
:100C3F003CF090E781E544F0122268D20975520129
:100C4F00753327753410752A0A121A317F887E136F
:100C5F0012213A121A317FB87E0B12213A7F887E09
:100C6F001312213A1222751213A77DAA7FAA1221FD
:100C7F0089D2F9C2F8E4F54F90E7C0E54FF043A0F1
:0A0C8F001053917F53A0F0021937B3
:0E225A00EF2401FBE43EFA7D047F480221518F
:10209600E544C313FFC374809F902563F0E4940066
:1020A600902562F0E544D394004006753CFF43A0BA
:0920B60020E544700353A0DF2271
:1011EE00E4FC9024B9E0FEA3E02400FDEC3EFC906C
:1011FE002410E0FEA3E07A002400FFEA3EFEC3EDD9
:10120E009FFFEC9EFE9024B2F0A3EFF09024B5E089
:10121E002FF09024B4E03EF0D3EF9450EE6480941F
:10122E008050129024B2E0FAA3E0FBC394B0EA64BB
:10123E0080947F501C9024B3E025E0FE9024B2E011
:10124E0033902562F0A3CEF0E49024B4F0A3F080A6
:10125E00337C007D14AF03AE02120EA2AC06AD07B6
:10126E009024B4E0FEA3E07802C333CE33CED8F997
:10127E002DFFEC3EFE7C007D0A120EB4902562EE30
:10128E00F0A3EFF0D3902563E094FF902562E06425
:10129E008094804006E4F0A374FFF0C3902562E0D2
:1012AE00648094805004E4F0A3F0902562E0FEA3E5
:1012BE00E0FF7C007D02120EB4C3747F9FF0E49EAB
:0412CE00902562F015
:0112D20022F9
:101B15007E247FB812225A9024B9E090E7C1F09054
:101B250024BAE090E7C2F0902563E090E7C3F09017
:101B350024B7E0600B43A020753CFF1211EE800333
:101B4500122096902452E53CF07A247B527D017F49
:101B55002112216D9024527402F0A37480F07A242E
:101B65007B527D027F2812216DE4902452F090254E
:101B750063E0902453F07A247B527D027F28022172
:011B85006DF2
:1016B8000559E559700205580551B5340DE558B579
:1016C8003308121B15E4F558F55990E7C8E552F0B0
:1016D800A3E52BF0A3E53BF0E551652A7023E5521D
:1016E800601414600C14600924FD600504700F80F8
:1016F8000012224A8008E4FF12201653A0EFE4F5F6
:101708005130015C754F0190E7C0E54FF0E5A0301E
:10171800E7032007F890F00074AAF0A37411F0A36F
:1017280074CCF0A374EEF0E490E690F090E6917437
:1017380005F0120FB290F00074AAF0A37411F0A390
:1017480074CCF0A374EEF0E490E690F090E6917417
:1017580005F0C201E4F54F90E7C0E54FF01222759D
:01176800225E
:0222C600D32221
:0222C800D3221F
:0222CA00D3221D
:101BF10090E680E030E73A00000090E6207402F0C1
:101C0100000000E490E621F000000090E624740258
:101C1100F0000000E490E625F000000090E6267454
:101C210002F0000000E490E627F0000000D20280FC
:101C310016000000E490E620F000000090E6217418
:0F1C410040F0000000C20290E6BAE0F550D32256
:1022020090E740E550F0E490E68AF090E68B04F027
:02221200D322D5
:0822B20090E6BAE0F526D32204
:1022140090E740E526F0E490E68AF090E68B04F03F
:02222400D322C3
:0222CC00D3221B
:0222CE00D32219
:0222D000D32217
:10008000E4FFF56CF56D90E6B9E0244B605F147009
:100090000302029A24FA70030202D224FA700302C5
:1000A000033624F8700302037E24FA70030203C0AF
:1000B000241D6003020459E490E68AF090E68BF078
:1000C00090E6A0E020E1F990E68BE0E4F5B390E65D
:1000D0000174CAF0D20100000090E6047480F000C0
:1000E00000007402F0000000E4F002045BE490E61B
:1000F0008AF090E68BF090E6A0E020E1F990E68BA4
:10010000E0D3943F4024E4F56C7440256CF582E420
:1001100034E7F583E0FF7412256CF582E43424F5AE
:1001200083EFF0056CE56CB440DF7F8A7E0012221D
:1001300097902412E0FF7E001222A0902413E07515
:10014000F004A4FFAEF01222A9902417E0C3940299
:100150005013902433E090E6C07005744EF0801682
:10016000749CF08011902433E090E6C07005749F79
:10017000F08003749DF0902435E024FF92069024D3
:1001800032E024FF9205902436E024FF9208902468
:1001900040E0754200F543A3E0FEA3E07C002400AC
:1001A000F524EC3EF523902445E09024B6F090240D
:1001B00018E0F538E538700375380190241DE0FE2D
:1001C000A3E07C002400F528EC3EF527A3E0FEA385
:1001D000E02400F555EC3EF554902419E0FEA3E030
:1001E0002400F531EC3EF530A3E0FEA3E02400F559
:1001F00057EC3EF55690244DE0FFE4FDFEFBFAF986
:100200007801120EEAA804A905AA06AB07902423D8
:10021000E0FEA3E07C002400FFEC3EFEE4FDEB2FBB
:10022000FFEA3EFEED39FDEC38FCC004C005C00617
:10023000C00790244EE0FFE4FCFDFEFBFA7901F8D4
:10024000120EEAD003D002D001D000EF2BF54EEE13
:100250003AF54DED39F54CEC38F54B902421E0FEA4
:10026000A3E07C002400F52EEC3EF52DE4FD7F900C
:10027000122226902413E0FCA3E0FDA3E0FEA3E0FD
:10028000F54A8E498D488C47E54AF54AE549F549D6
:10029000E548F548E4F54702045BE4F56C74122583
:1002A0006CF582E43424F583E0FF7440256CF5821C
:1002B000E434E7F583EFF0056CE56CB440DF000053
:1002C00000E490E68AF000000090E68B7440F002B3
:1002D000045BE490E68AF090E68BF090E6A0E020E4
:1002E000E1F990E6BDE0902452F090E6BCE0902465
:1002F00053F0E4F56C90E6BEE0FFE56CC39F501E42
:100300007440256CF582E434E7F583E0FF745425EE
:100310006CF582E43424F583EFF0056C80D790E629
:10032000BAE0C313FF90E6BEE02402FD7A247B52BC
:1003300012216D02045B90E740740CF0A37414F07A
:10034000A3740CF0A37426F0A37407F0A374EEF06A
:10035000A37401F0A37403F0A37453F0300205E416
:10036000A3F0800690E74974FFF0000000E490E6F7
:100370008AF000000090E68B740AF002045B90E6BD
:10038000BCE090260FF07A267B0F7D017F50122172
:100390006D7A267B0F7D017F5012216D90E6BEE0C5
:1003A000FD7AE77B407F50122151E490E68AF0000D
:1003B000000090E6BEE090E68BF000000002045BD7
:1003C000E490E68AF090E68BF090E6A0E020E1F978
:1003D00090E68BE0F56CC29890E740E0C394304023
:1003E00014E532242FFFE433FEE0D39FEE6480F85F
:1003F000748098400B90E740E0F4704AE5527046F4
:1004000043A01090E740E0F4600AE0B4300DE52B23
:1004100064016007D209755204804090E740E0C350
:1004200094314037E532242FFFE433FEE0D39FEED2
:100430006480F87480985023E024D1F52C652B60FB
:100440001A755202801590E740E0B4200EE5527014
:0C0450000A43A0107552058002D322C39D
:01045C00227D
:1021BC00C0E0C083C082D20C5391EF90E65D7401F5
:0821CC00F0D082D083D0E03294
:1015E900C0E0C083C0825391EF90E65D7404F0D0EF
:0615F90082D083D0E03235
:1021EC00C0E0C083C0825391EF90E65D7402F0D0E2
:0621FC0082D083D0E03226
:101E8C00C0E0C083C08285100C85110D850D828544
:101E9C000C83A37402F085080E85090F850F8285CB
:101EAC000E83A37407F05391EF90E65D7410F0D09D
:061EBC0082D083D0E03269
:1021D400C0E0C083C082D20E5391EF90E65D7408D4
:0821E400F0D082D083D0E0327C
:101E1800C0E0C083C08290E680E030E72085080CEF
:101E280085090D850D82850C83A37402F085100E3B
:101E380085110F850F82850E83A37407F05391EFE8
:0D1E480090E65D7420F0D082D083D0E032AF
:0115FF0032B9
:0122D20032D9
:0122D30032D8
:0122D40032D7
:101F5E00C0E0C083C08290E65EE054FBF00000005B
:101F6E0090E68F7440F00000005391EF90E65FE032
:101F7E004404F090E65EE04404F0D082D083D0E0DA
:011F8E003220
:1012D300C0E0C0F0C083C082C0D075D000C000C0E1
:0D12E30001C002C003C004C005C006C00762
:1012F000755A00755B0090E65EE054F7F090E6A149
:10130000E020E1F990E780E0FF14601614602624E5
:10131000D0603A2434604D14605414705675220025
:10132000805190E782E0F53C90E781E0F54490241D
:10133000B7E4F0803E90E782E0902410F090E781DF
:10134000E0902411F09024B77401F0802690E7819A
:10135000E07005121A31801B90E781E0B4FF14128F
:101360002275800F90E781E024FF920780057522A7
:1013700000D20300000090E68DE4F05391EF90E678
:0C1380005FE04408F090E65EE04408F0F6
:10138C00D007D006D005D004D003D002D001D000B5
:0B139C00D0D0D082D083D0F0D0E0325F
:0122D50032D6
:0122D60032D5
:101DD900C0E0C083C08290E65EE054BFF00000001E
:101DE90090E6987402F000000090E699E4F0000093
:101DF9000090F800F0A3F05391EF90E65FE04440C3
:0F1E0900F090E65EE04440F0D082D083D0E0322B
:0F1C5000C0E0C083C082C0D075D000C004C00601
:101C5F0090E65EE0547FF090E6A6E020E1F990E692
:101C6F009CE0FE90E69DE07C002400F55BEC3EF5E9
:101C7F005A00000090E69CE4F090E69DF05391EF3F
:0E1C8F0090E65FE04480F090E65EE04480F076
:0D1C9D00D006D004D0D0D082D083D0E03269
:0122D70032D4
:0122D80032D3
:0122D90032D2
:0122DA0032D1
:0122DB0032D0
:0122DC0032CF
:0122DD0032CE
:0122DE0032CD
:0122DF0032CC
:0122E00032CB
:0122E10032CA
:0122E20032C9
:0122E30032C8
:0122E40032C7
:0122E50032C6
:0122E60032C5
:0122E70032C4
:0122E80032C3
:0122E90032C2
:0122EA0032C1
:0122EB0032C0
:0122EC0032BF
:0122ED0032BE
:0122EE0032BD
:0122EF0032BC
:0122F00032BB
:061769008F6E8C6F8D7085
:10176F00536E0753B0F7122136E4F571C374029527
:10177F0071FFE56EA807088002C313D8FC30E0059F
:10178F0043800280035380FD122136122133538090
:10179F00FE1221360571E571C3940340CFE4F57154
:1017AF00C374099571FFE570AE6FA807088005CE69
:1017BF00C313CE13D8F930E0054380028003538062
:1017CF00FD1221361221335380FE1221360571E5A9
:1017DF0071C3940A40CA43B00812213653B0F77F41
:0617EF000A7E0002213A0F
:09229700AD07AC06E4FF02176973
:0922A000AD07AC067F04021769CA
:0922A900AD07AC067F01021769C4
:10222600902452EDF0EFC313FF7A247B527D010216
:02223600216D18
:072133004380017F0A7E00DA
:10213A00EF7803C333CE33CED8F9FFEF4E6007EF03
:07214A001F70F81E80F52252
:0D226800D282C283D287C284D286D2852260
:101D9300C2827F017E0012213AD284D2867F017EE5
:101DA3000012213AC2857F017E0012213AD283D2EA
:101DB300877F017E0012213AC2847F017E001221B7
:101DC3003AD2827F017E0012213AC2837F017E00D4
:061DD30012213AD2852224
:1020E800C284C2867F037E0012213AC283C2877FE0
:1020F800037E0012213AC284D2867F037E00122119
:062108003AC283D28722D7
:10223800E4FDFC121D930DBD00010CBC0AF5BDC8E0
:01224800F2A3
:012249002272
:10146A00854A4185494085483F85473EE52E452DB9
:10147A00700AC2B17F32FE12213AD2B1300505C2DA
:10148A00B043A04030060302151B752201E47FE831
:10149A007E03FDFCAB41AA40A93FA83EC3120F3907
:1014AA004061E5226401705B7FDD7E03121D4D12EF
:1014BA001B15E5412418F541E54034FCF540E53FAC
:1014CA0034FFF53FE53E34FFF53EE4FFFEFDE53E21
:1014DA00FC7818120F4A90E7C4EFF0E4FFFEE53FEC
:1014EA00FDE4FC7810120F4AA3EFF0E4FFE540FE9A
:1014FA00E4FDFC7808120F4AA3EFF0E541FFA3EFE1
:10150A00F0808AE522B40112AE40AF41121D4D802F
:10151A0009752201E522640160FA300505D2B0534B
:03152A00A0BF223D
:1019BE008F748E738D728C71E4FFFEFDFCAB74AA76
:1019CE0073A972A871D3120F394057000000E4FFBB
:1019DE00FEFDE571FC7818120F4A90E6CEEFF0008E
:1019EE000000E4FFFEE572FDE4FC7810120F4A9051
:1019FE00E6CFEFF0000000E4FFE573FEE4FDFC78B7
:101A0E0008120F4A90E6D0EFF0000000E574FF9048
:101A1E00E6D1EFF000000075BB04000000E5BB301E
:031A2E00E7FB22B1
:081E55008C718D72AB07AA0627
:101E5D00E4FDFCC3ED9572EC95715022EA90E6D04D
:101E6D00F0000000EB90E6D1F000000075BB05001E
:0E1E7D000000E5BB30E7FB0DBD00010C80D579
:011E8B002234
:1020BF00AD07AC06000000ED25E0EC3390E6D0F064
:1020CF00000000ED25E090E6D1F000000075BB04A4
:0920DF00000000E5BB30E7FB2224
:101D0400E47FD2FEFDFCAB4AAA49A948A847D312F6
:101D14000F394026E54A242EF54AE54934FFF549B2
:101D2400E54834FFF548E54734FFF54712146AE502
:101D34002E452D7011122238800CE52E452D70038E
:091D440012223812146A0220E890
:100FB200C20353A0F043A0047FD07E0712213A530C
:100FC200A0F043A00C7FD07E0712213A53A0F04339
:100FD200A0087FD07E0712213A7FAE1217F5902427
:100FE200B6E0B40103121AA3754F0290E7C0E54FB1
:100FF200F0121D04754F0390E7C0E54FF030030374
:101002000210E5E4F56EF56FC3E56F9528E56E9580
:1010120027501BE4F570E570C395385007121D93F5
:10102200057080F2056FE56F70DE056E80DAD3E53C
:10103200439400E5429400400BAD43AC42AF31AE65
:1010420030121E55D3E5249400E52394004007AFE7
:1010520024AE231220BFE4F56CF56DC3E56D955700
:10106200E56C9556502C122041E4F56EF56FC3E500
:101072006F95387480F8656E98500D121D93056F48
:10108200E56F70EA056E80E6056DE56D70CD056C65
:1010920080C9E4F56EF56FC3E56F9555E56E95541D
:1010A200501BE4F570E570C395385007121D930587
:1010B2007080F2056FE56F70DE056E80DAD282D243
:1010C20083D287D284D286D285AF4EAE4DAD4CACA0
:1010D2004B1219BE9024B6E0B40103121A317FAF4D
:0310E2001217F5ED
:0110E50022E8
:10204100000000E53125E0E5303390E6D0F00000F6
:1020510000E53125E090E6D1F000000075BB0400F9
:0B2061000000E5BB20E7033003F8227D
:101CAA00052FE52FB40803E4F52FE52F70047F080C
:101CBA00803DE52FB401047F0A8034E52FB4020485
:101CCA007F02802BE52FB403047F038022E52FB423
:101CDA0004047F018019E52FB405047F058010E50F
:101CEA002FB406047F048007E52FB4070C7F0C127B
:0A1CFA0020167F2D7E0012213A22F1
:10224A00E552600B053AE53A70020539121CAA22DA
:0D22750053A0F07525FF90E7CBE525F02282
:101A310053A0F043A0097F287E0A12213A53A0F057
:101A410043A0017F287E0A12213A53A0F043A0034C
:101A51007F287E0A12213A53A0F043A0027F287EFC
:101A61000A12213A53A0F043A0067F287E0A1221D0
:101A71003A53A0F043A0047F287E0A12213A53A0D2
:101A8100F043A00C7F287E0A12213A53A0F043A014
:101A9100087F287E0A12213AE4F52590E7CBE52557
:021AA100F02231
:101AA30053A0F043A0087FC47E0912213A53A0F04B
:101AB30043A00C7FC47E0912213A53A0F043A00433
:101AC3007FC47E0912213A53A0F043A0067FC47E4F
:101AD3000912213A53A0F043A0027FC47E091221C8
:101AE3003A53A0F043A0037FC47E0912213A53A0C6
:101AF300F043A0017FC47E0912213A53A0F043A012
:101B0300097FC47E0912213A75250190E7CBE525AB
:021B1300F022BE
:0822BA00E4F51BD2E9D2AF22CA
:101EC20090E678E020E6F9C2E990E678E04480F016
:101ED200EF25E090E679F090E678E030E0F990E6E0
:101EE20078E04440F090E678E020E6F990E678E089
:061EF20030E1D6D2E92226
:101F2C00A90790E678E020E6F9E51B702390E678A7
:101F3C00E04480F0E925E090E679F08D16AF03A936
:101F4C00077517018A188919E4F51A751B01D32234
:021F5C00C3229E
:101EF800A90790E678E020E6F9E51B702590E678DA
:101F0800E04480F0E925E0440190E679F08D16AFD1
:101F180003A9077517018A188919E4F51A751B03AF
:041F2800D322C322DB
:03004B000210E6BA
:1010E600C0E0C083C082C085C084C086758600C04B
:1010F600D075D000C000C001C002C003C006C00742
:1011060090E678E030E206751B060211D090E6788C
:10111600E020E10CE51B64026006751B070211D096
:10112600E51B24FE605F14603624FE70030211C1C5
:1011360024FC70030211CD240860030211D0AB1702
:10114600AA18A919AF1A051A8F82758300120E53B1
:1011560090E679F0E51A65167070751B05806B9040
:10116600E679E0AB17AA18A919AE1A8E8275830024
:10117600120E80751B02E5166401704E90E678E04B
:101186004420F08045E51624FEB51A0790E678E07F
:101196004420F0E51614B51A0A90E678E04440F0CB
:1011A600751B0090E679E0AB17AA18A919AE1A8E3E
:1011B60082758300120E80051A800F90E678E0444F
:1011C60040F0751B008003751B005391DFD007D0DC
:1011D60006D003D002D001D000D0D0D086D084D0A3
:0811E60085D082D083D0E032F5
:10215100121EF8E51B24FA600E146006240770F3C2
:0C216100D322E4F51BD322E4F51BD322AB
:10216D00121F2CE51B24FA600E146006240770F371
:0C217D00D322E4F51BD322E4F51BD3228F
:030000000218AB38
:0C18AB00787FE4F6D8FD7581740218F215
:100E5300BB010CE58229F582E5833AF583E0225054
:100E630006E92582F8E622BBFE06E92582F8E2229E
:0D0E7300E58229F582E5833AF583E49322B8
:100E8000F8BB010DE58229F582E5833AF583E8F0A8
:100E9000225006E92582C8F622BBFE05E92582C854
:020EA000F2223C
:100EA200EF8DF0A4A8F0CF8CF0A428CE8DF0A42E64
:020EB200FE221E
:100EB400C2D5EC30E709B2D5E4C39DFDE49CFCEE59
:100EC40030E715B2D5E4C39FFFE49EFE120F5DC365
:100ED400E49DFDE49CFC8003120F5D30D507C3E460
:060EE4009FFFE49EFE22C8
:100EEA00E88FF0A4CC8BF0A42CFCE98EF0A42CFCA7
:100EFA008AF0EDA42CFCEA8EF0A4CDA8F08BF0A425
:100F0A002DCC3825F0FDE98FF0A42CCD35F0FCEB83
:100F1A008EF0A4FEA9F0EB8FF0A4CFC5F02ECD3948
:0F0F2A00FEE43CFCEAA42DCE35F0FDE43CFC22B5
:100F3900EB9FF5F0EA9E42F0E99D42F0E89C45F00E
:010F49002285
:100F4A00E8600FECC313FCED13FDEE13FEEF13FF85
:030F5A00D8F122A9
:1018B700020C99E493A3F8E493A34003F68001F2A2
:1018C70008DFF48029E493A3F85407240CC8C33332
:1018D700C4540F4420C8834004F456800146F6DF01
:1018E700E4800B0102040810204080900681E47E0A
:1018F700019360BCA3FF543F30E509541FFEE493F6
:10190700A360010ECF54C025E060A840B8E493A3BC
:10191700FAE493A3F8E493A3C8C582C8CAC583CAE7
:10192700F0A3C8C582C8CAC583CADFE9DEE780BE9F
:01089800005F
:100F5D00BC000BBE0029EF8DF084FFADF022E4CC78
:100F6D00F875F008EF2FFFEE33FEEC33FCEE9DEC41
:100F7D00984005FCEE9DFE0FD5F0E9E4CEFD22ED87
:100F8D00F8F5F0EE8420D21CFEADF075F008EF2FD1
:100F9D00FFED33FD4007985006D5F0F222C398FDC2
:050FAD000FD5F0EA225F
:00000001FF
