:0A2692000001020203030404050521
:100F2B00E4F56DF56CF56BF56AC209C206C208C231
:100F3B00071224C2120B3C7E1B7F008E0A8F0B758F
:100F4B00121B75131275081B75091C75101B751177
:100F5B005175161B75177FEE54E0700302107275F6
:100F6B006E00756F808E708F71C374A99FFF741B99
:100F7B009ECF2402CF3400FEE48F698E68F567F5AF
:100F8B0066F565F564F563F562AF69AE68AD67ACA0
:100F9B0066AB65AA64A963A862C312078F5026E5E6
:100FAB006F2565F582E56E3564F58374CDF0E565E7
:100FBB002401F565E43564F564E43563F563E435E4
:100FCB0062F56280C4E4F565F564F563F562AF69BB
:100FDB00AE68AD67AC66AB65AA64A963A862C312C1
:100FEB00078F5031AE64AF65E5712FF582E5703E2A
:100FFB00F583E0FDE56F2FF582E56E3EF583EDF0B1
:10100B00EF2401F565E43EF564E43563F563E435FF
:10101B0062F56280B9856E0A856F0B74002480FFC0
:10102B00741B34FFFEC3E5139FF513E5129EF512F7
:10103B00C3E50D9FF50DE50C9EF50CC3E50F9FF574
:10104B000FE50E9EF50EC3E5099FF509E5089EF524
:10105B0008C3E5119FF511E5109EF510C3E5179F29
:10106B00F517E5169EF516D2E843D82090E668E012
:10107B004409F090E65CE0443DF0D2AFD288D28ACE
:10108B00C2A8C2AA43E808D2FB90E680E020E105A3
:10109B00D20A12220F90E680E054F7F0538EF8C27A
:1010AB0009300705120918C20730092912273550D4
:1010BB0024C2091223B320061690E682E030E7041F
:1010CB00E020E1EF90E682E030E604E020E0E4127D
:0A10DB00223E12273712169E80C72E
:1009180090E6B9E070030209C9147003020A46247C
:10092800FE7003020AC924FB70030209C314700392
:100938000209BD14607314607624056003020B2855
:100948001227394003020B3490E6BBE024FE6022F4
:1009580014603324FD601114602224067048E50AEF
:1009680090E6B3F0E50B8037E51290E6B3F0E513B7
:10097800802DE50C90E6B3F0E50D8023E50E90E6BA
:10098800B3F0E50F801990E6BAE0FF12226AAA06D2
:10099800A9077B01EA494B600DEE90E6B3F0EF90B2
:1009A800E6B4F0020B34020B2D12255F020B341251
:1009B80026DB020B34121E45020B3412254D020BA6
:1009C8003412273B4003020B3490E6B8E0247F60E2
:1009D8001514601924027063A206E43325E0FFA20F
:1009E80008E4334F8041E490E740F0803F90E6BC54
:1009F800E0547EFF7E00E0D394807C0040047D01BB
:100A080080027D00EC4EFEED4F2492F58274263E66
:100A1800F583E493FF3395E0FEEF24A1FFEE34E67F
:100A28008F82F583E0540190E740F0E4A3F090E66C
:100A38008AF090E68B7402F0020B34020B2D122719
:100A48003D4003020B3490E6B8E024FE6016240211
:100A58006003020B3490E6BAE0B40105C206020B4B
:100A680034020B2D90E6BAE0705590E6BCE0547E57
:100A7800FF7E00E0D394807C0040047D0180027DED
:100A880000EC4EFEED4F2492F58274263EF583E489
:100A980093FF3395E0FEEF24A1FFEE34E68F82F555
:100AA80083E054FEF090E6BCE05480131313541F07
:100AB800FFE0540F2F90E683F0E04420F0806D8033
:100AC8006412273F506690E6B8E024FE60192402BD
:100AD800705A90E6BAE0B40104D206804F90E6BAA4
:100AE800E064026047803E90E6BCE0547EFF7E00F2
:100AF800E0D394807C0040047D0180027D00EC4EB0
:100B0800FEED4F2492F58274263EF583E493FF337D
:100B180095E0FEEF24A1FFEE34E68F82F58380088E
:100B2800120080500790E6A0E04401F090E6A0E0B3
:030B38004480F006
:010B3B002297
:030033000226FFA3
:0426FF0053D8EF328B
:1024C200758CE0758AC0E58954F04401F589758EF2
:0824D20003D28CD2A9D2AF2283
:03003B00021D7C27
:101D7C00C0E0C083C082C0D075D000C006C00730A0
:101D8C00C041C2C085C114052EE52E7002052DD3AD
:101D9C00E52E94F4E52D648094814006752D007534
:101DAC002E00AE2DAF2EEE90F800F0AE2DAF2EEF34
:101DBC00A3F0AE2DAF2E74012FF58274F83EF5838F
:101DCC00E514F030C105C2C185C114D007D006D0CE
:081DDC00D0D082D083D0E032A8
:03002300021EFEBC
:101EFE00C0E0C083C082C0D075D000C00730983615
:101F0E00C298859915052CE52C7002052BD3E52C6E
:101F1E00940EE52B648094804006752B00752C0082
:101F2E00AF2C90E7F0EFF0AF2C74F02FF582E43485
:101F3E00E7F583E515F0D007D0D0D082D083D0E07E
:011F4E003260
:03005B00021C5331
:0D1C5300C0E0C083C082C0D075D000C007C3
:101C6000AF91530780EF6480707B53917F9029235D
:101C7000E06401606B902922E0FFB4013590291ED9
:101C8000E0B401109028B17430F0902922E4F09073
:101C900028B204F0D39028FBE094D09028FAE09486
:101CA00007500690291E7401F09028FAE4F0A3F082
:101CB000802EEF64027029902921E0B4012290283F
:101CC000B1E004F0E0B438037430F09028B3E0FFE2
:101CD0009028B1E0B50709902922E4F0902921F07D
:051CE000902923E4F04F
:0B1CE500D007D0D0D082D083D0E032F6
:101B000012010002000000401816218300000102AB
:101B100000010A0600020000004001000902350031
:101B200001010080FA0904000005FF00000007051C
:101B30000102400000070582020002000705810241
:101B400040000007058602000200070508020002A7
:101B50000009022E0001010080FA0904000004FFC0
:101B60000000000705010240000007058202400056
:101B70000007050202000200070581024000000480
:101B800003090410035100480059002D004300438D
:101B9000004400160351004800590041004C004C1D
:0B1BA0000020002000200020000000BA
:1012910060802800030A0303020203070000000222
:1012A100000002000A2B0B131115111100000000A0
:1012B1000000003F020A03030303030700000002CA
:1012C100000002000A2B130B111511110000000080
:1012D1000000003F032D0303030303070000000286
:1012E100000002000A2B0B13111511110000000060
:1012F1000000003F030A0A0A0A0A0A070000000266
:10130100000002000A2B130B11151111000000003F
:101311000000003F6024288700000000000000005A
:1013210000000000000000000000000000000000BC
:10133100000000000000000000000000472880803D
:06134100000011CA4E007D
:1018480090E60174CAF090E6F574FFF0902880E005
:1018580090E6F3F0902881E090E6C3F0902882E0CB
:1018680090E6C1F0902883E090E6C2F0902885E0E9
:1018780090E6C0F0902886E090E6F4F075AF077423
:1018880028F59A7400F59B759DE4E4F59EFF90E6B3
:101898007BE090E67CF00FBF80F490E67174FFF077
:1018A800F5B490E672E04480F043B680000000E4AE
:1018B80090E6C4F000000090E6C5F0902887E0901C
:1018C800E6C6F0902888E090E6C7F0902889E09076
:1018D800E6C8F090288AE090E6C9F090288BE0905E
:1018E800E6CAF090288CE090E6CBF090288DE09046
:0B18F800E6CCF090288EE090E6CDF0EA
:0119030022C1
:03004300021A009E
:03005300021A008E
:101A00000224DA0002253700022521000224F20018
:101A10000220D80002202800021AFF0002274100FD
:101A20000227420002274300022065000210E50061
:101A30000227440002274500021FE5000214C000EF
:101A400002274600022741000227470002274800DC
:101A50000227490002274A0002274B0002274C00B8
:101A600002274D00022741000227410002274100C2
:101A700002274E0002274F00022750000227510084
:101A80000227520002275300022754000227550064
:101A90000227560002275700022758000227590044
:101AA00002275A0002275B0002275C0002275D0024
:081AB00002275E0002275F001F
:10223E0090E682E030E004E020E60B90E682E030AB
:10224E00E119E030E71590E680E04401F07F147E5E
:0C225E0000121F9F90E680E054FEF0226A
:1023B30090E682E044C0F090E681F043870100009C
:0423C30000000022F4
:10220F00300A0990E680E0440AF0800790E680E00B
:10221F004408F07FDC7E05121F9F90E65D74FFF08F
:0F222F0090E65FF05391EF90E680E054F7F022D5
:02226A00A907C2
:10226C00AE16AF178F828E83A3E064037017AD0197
:10227C0019ED7001228F828E83E07C002FFDEC3EE5
:09228C00FEAF0580DF7E007F003B
:012295002226
:101F9F008E768F7790E600E054187012E577240163
:101FAF00FFE43576C313F576EF13F577801590E6DA
:101FBF0000E05418FFBF100BE57725E0F577E576C5
:101FCF0033F576E5771577AE76700215764E6005A8
:061FDF001223C780EE2270
:1023C7007400F58690FDA57C05A3E582458370F929
:0123D70022E3
:10134700C18202331040C100014A00C105C1040433
:101357005000000000014700012500044100000083
:10136700000439000000000137004129220141280B
:10137700B3FF4128B1304228FA000042291F00007C
:101387004428AB000000004428F60000C350422860
:10139700AF001941291E00412923014128B200410C
:1013A70029210041291D004128FC004228F40000A2
:0421DE00AF30AE2F41
:1021E2008E7B8F7C9028FD7403F0E4A3F07A287B29
:1021F200FD7D027F4112248D9028FD7401F0A3E53C
:0D2202007CF07A287BFD7D027F4102248D57
:0525950012259AAF05BC
:0B259A00C2B6C2B58FB1D2B5D2B622D6
:0B268700D2B6C2B58FB1D2B5D2B622D8
:0C260300AE077FA012259AAF0602259AB0
:0C260F00AE077FA112259AAF0602259AA3
:0C261B00AE077FA212259AAF0602259A96
:0726EB00EF44A4FF02259A51
:0726F200EF44AEFF02259A40
:0C262700AE077FAD12259AAF0602259A7F
:0C263300AE077FA812259AAF0602259A78
:0C263F00AE077FB012259AAF0602259A64
:0C264B00AE077FB112259AAF0602259A57
:0C265700AE077FBB12259AAF0602259A41
:0C266300AE077FB312259AAF0602259A3D
:10241B00AE07AC037F8A12259AAF0612259A7F8BE3
:0D242B001225957F8C12259AAF0402259A88
:0C266F00AE077F8712259AAF0602259A5D
:10243800AE07AC037F8112259AAF0612259A7F82D8
:0D2448001225957F8312259AAF0402259A74
:0C267B00AE077FBE12259AAF0602259A1A
:0E25A500AE05AD077F15122595AF0602259AEB
:0E25B300AE05AD077F75122595AF0602259A7D
:04233E00AC05AB0738
:102342007D5FE4FF1225A57D3FFF1225B3FEE4FD6C
:10235200AF03122687AF041226870DBD60F20EBEB0
:0223620040EC4D
:012364002256
:061AB8008B5D8A5E895F70
:101ABE00E4F560F561EF4E700C7D5FFF1225A57D9C
:101ACE003FFF0225B3E4F560F561AB5DAA5EA95F49
:101ADE008561828560831206DBFF1226870561E52C
:101AEE006170020560C39480E5606480948140DA81
:011AFE0022C5
:101DE400C2B47FC87E00121F88D2B4E4FF1226F268
:101DF4007F72122603E4FF12260FFF12261BFF1226
:101E040026EB7F3F1226337F8E1226277F0B122666
:101E14003F7F3112264B7FF01226637B647D787FEF
:101E24006412241B7F3A1226577F3E12267B7F06BC
:101E340012266F7B7D7D507F911224387F0102260C
:011E4400F2AB
:100B3C0090E600E054E74410F00000000000009044
:100B4C00E61074A0F000000090E60B7401F090E643
:100B5C001274E0F0000000E490E613F00000009046
:100B6C00E61474E2F000000090E61574A0F00000AA
:100B7C000090E6D27402F090E6047480F00000005D
:100B8C007402F00000007406F00000007408F0001D
:100B9C000000E4F000000012184890E6187408F009
:100BAC0000000090E619F000000090E61AF000003A
:100BBC000090E61BF0000000E490E671F075B4FFC5
:100BCC0075A0FF90E672F075B6FF75B1FF90E670F8
:100BDC00F075B2FF75B5FFC28CD2B01226F990E653
:100BEC001074A0F000000090E611F000000090E6F8
:100BFC005EE04408F0000000E490E68DF000000098
:100C0C0090E65EE04404F0000000E490E7C0F09051
:100C1C00E7C4F0A3F0A3F0A3F090E7F0F090E68F18
:100C2C007440F000000090E65EE04440F0000000EC
:100C3C007E027F0090F800E4F0A3DFFCDEFA90E681
:100C4C00987402F0000000E490E699F00000007E39
:100C5C00027F0090F800E4F0A3DFFCDEFA90E65E81
:100C6C00E04480F0000000E490E69CF0000000906E
:100C7C00E69DF00000007F9AFE12269C75270075F9
:100C8C0028B4754B01754C907533107534B8754E8E
:100C9C0006754F2C1226E390E67AE054FEF0E4FD44
:100CAC007F901225717F647E00121F9F7DFF7F4213
:100CBC001225717F647E00121F9F7D827F4E12254C
:100CCC00717538FF752F007530F41221DEE4F53F95
:100CDC0090E782E538F090E781E53FF012250AE4D1
:100CEC00F52BF52C122316E4F52DF52E1226F99082
:100CFC0029237401F0902922F09028F61207C700DE
:100D0C00030D409028AFE4F0A37464F0121EA47F8E
:100D1C00887E13121F88121EA47FB87E0B121F88A8
:100D2C007F887E13121F881225E9121DE4E4FD7FD3
:100D3C00F812233ED2F9C2F8E4F54790E7C0E54734
:0B0D4C00F04330FCAF30AE2F0221E27C
:0E25C100EF2401FBE43EFA7D047F4802247102
:100D5700E53FC313FFC374809FF57AE53FD3940043
:100D670040097538FF4330F41221DEE53F70085320
:100D770030FBF52F1221DE7E297F241225C1902911
:100D870025E090E7C1F0902926E090E7C2F090288F
:100D9700FD74E5F07A287BFD7D017F4112248D7E6D
:100DA700007F0A7D007B017AE7794012081E7A29C5
:100DB7007B247D027F41122471902924E0FEA3E069
:100DC7007C002400FFEC3EFEE48F798E78F577F502
:100DD700767F097E3DFDAB79AA78A977A8761207B9
:100DE7002A780D1207B3EF2490F579EE34E8F578F9
:100DF700ED34FFF577EC34FFF576E4FB7A01F9F88B
:100E0700AF79AE78AD77AC761219BC90E7CCEFF03E
:100E1700E4FB7A01F9F8AF79AE78AD77AC761219C1
:100E2700BC90E7CDEBF09028FD7450F0A3742EF042
:100E37007A287BFD7D027F4112248D9028FD74EE78
:100E4700F07A287BFD7D017F4112248D7E007F0A89
:100E57007D007B017A29792412081E7A297B247D5B
:100E6700027F41122471902924E0FEA3E07C002434
:100E770000FFEC3EFEE48F798E78F577F5769028C3
:100E8700FD7450F0A3740FF07A287BFD7D027F413B
:100E970012248DE47FCD7E55FDFCAB79AA78A97726
:100EA700A87612072A780D1207B3EF24FEF579EE1C
:100EB7003448F578ED34FFF577EC34FFF576E4FB4D
:100EC7007A01F9F8AF79AE78AD77AC761219BC90A4
:100ED700E7CEEFF0E4FB7A01F9F8AF79AE78AD77BA
:100EE700AC761219BC90E7CFEBF09028FDE538F00F
:100EF7007A287BFD7D017F2112248D9028FD7402C5
:100F0700F0A37480F07A287BFD7D027F2812248D60
:100F1700E49028FDF0A3E57AF07A287BFD7D027F37
:040F27002802248DEB
:10169E00E5532401F553E43552F552E43551F55135
:1016AE00E43550F550902920E004F0700690291F83
:1016BE00E004F09028F6E0FCA3E0FDA3E0FEA3E03A
:1016CE00FFAB53AA52A951A850C312078F700C1228
:1016DE000D57E4F553F552F551F550902922E0FFE0
:1016EE0090E7C8F09028B1E090E7C9F09028FCE0B0
:1016FE0090E7CAF09028AFE0FCA3E0FD90291FE030
:10170E00B5042CA3E0B50527EF601124FE60080494
:10171E0070161223D88011122144800C53A00F533F
:10172E0030F7752F001221DEE490291FF0A3F03060
:10173E00013D75470190E7C0E547F0E5B130E7039D
:10174E002005F81215BDC201E4F54790E7C0E54744
:10175E00F0121EA47FB87E0B121F88121EA47F8863
:10176E007E13121F887F887E13121F881225E9228E
:02273500D322AD
:02273700D322AB
:02273900D322A9
:101E450090E680E030E73A00000090E6207402F06A
:101E5500000000E490E621F000000090E624740202
:101E6500F0000000E490E625F000000090E62674FE
:101E750002F0000000E490E627F0000000D20280A6
:101E850016000000E490E620F000000090E62174C2
:0F1E950040F0000000C20290E6BAE0F548D32208
:10254D0090E740E548F0E490E68AF090E68B04F0E1
:02255D00D32287
:0826DB0090E6BAE0F526D322D7
:10255F0090E740E526F0E490E68AF090E68B04F0F1
:02256F00D32275
:02273B00D322A7
:02273D00D322A5
:02273F00D322A3
:10008000E4F572F57390E6B9E01207F800B4B30036
:10009000ECB50269B602A1BB02E8BC0391C10349F9
:1000A000C2040FC5042EC60463CA04A5CB0511D033
:1000B000000005E1E490E68AF090E68BF090E6A07F
:1000C000E020E1F990E68BE0F572E4F5B390E6010B
:1000D00074CAF0D20100000090E6047480F00000C1
:1000E000007402F0000000E4F00205E3E490E68A08
:1000F000F090E68BF090E6A0E020E1F990E68BE04E
:10010000F572D3943F4024E4F57374402573F5826F
:10011000E434E7F583E0FF74B42573F582E4342812
:10012000F583EFF00573E573B440DF7F8A7E00123C
:10013000269C9028B4E0FF7E001226A59028B4E00B
:10014000FF7E001226AE9028B4E0FF7E001226B794
:100150009028B5E075F004A4FFAEF01226C09028F8
:10016000B5E075F004A4FFAEF01226C99028B5E002
:1001700075F004A4FFAEF01226D29028B9E0C39423
:100180000250139028D5E090E6C07005744EF080C0
:1001900016749CF080119028D5E090E6C07005742C
:1001A0009FF08003749DF09028D7E0F5409028D40C
:1001B000E0F53E9028D8E0F5499028E2E0F53DA32F
:1001C000E0FEA3E07C002400F524EC3EF52390281B
:1001D000BAE0F535E53570037535019028BFE0FECE
:1001E000A3E07C002400F528EC3EF527A3E0FEA365
:1001F000E02400F54CEC3EF54B9028BBE0FEA3E07C
:100200002400F534EC3EF533A3E0FEA3E02400F532
:100210004FEC3EF54E9028C5E0FEA3E02400F546E5
:10022000EC3EF5459028C3E0FEA3E02400F532EC57
:100230003EF5319028E9E0540FF537E4FD7F901248
:1002400025719028B5E0FCA3E0FDA3E0FEA3E0F556
:10025000448E438D428C41E544F544E543F543E546
:1002600042F542E4F5410205E3E4F57374B4257305
:10027000F582E43428F583E0FF74402573F582E4C9
:1002800034E7F583EFF00573E573B440DF00000059
:10029000E490E68AF000000090E68B7440F00205DE
:1002A000E3E490E68AF090E68BF090E6A0E020E1AF
:1002B000F978FD7C287D017B017AE679BC7E007FA0
:1002C000011206B590E6BEE0FF7E0078FE7C287D38
:1002D000017B017AE779401206B590E6BAE0C313D4
:1002E000FF90E6BEE0048059E490E68AF090E68B49
:1002F000F090E6A0E020E1F978FD7C287D017B010B
:100300007AE679BD7E007F011206B578FE7C287DF5
:10031000017B017AE679BC7E007F011206B590E68A
:10032000BEE0FF7E0078FF7C287D017B017AE779C3
:10033000401206B590E6BAE0C313FF90E6BEE02493
:1003400002FD7A287BFD02050B90E74074F4F0A3D0
:100350007417F0A3740CF0A37426F0A37407F0A331
:1003600074EEF0A37401F0A37403F0A37453F0309F
:100370000205E4A3F0800690E74974FFF000000056
:10038000E490E68AF000000090E68B740AF0020523
:10039000E3E490E68AF090E68BF090E6A0E020E1BE
:1003A000F990E68BE0F572C298D3940050030205F1
:1003B000E390E740E0940A5007E02430FF1225CF95
:1003C00090E740E0B40A057F611225CF90E740E056
:1003D000B40B057F621225CF90E740E0B40C057F97
:1003E000631225CF90E740E0B40D057F641225CF5E
:1003F00090E740E0B40E057F651225CF90E740E01E
:10040000640F60030205E37F661225CF0205E37ADD
:10041000E77B407D047F48122471000000E490E6F1
:100420008AF000000090E68B7404F00205E3E4908B
:10043000E68AF090E68BF090E6A0E020E1F990E605
:100440008BE0F572D3940150030205E390E741E09D
:10045000FD7F4212257190E740E0FD7F4E1225712D
:100460000205E390E6BCE0902924F07A297B247D04
:10047000017F5012248D7A297B247D017F50122424
:100480008D90E6BEE0FD7AE77B407F50122471E458
:1004900090E68AF000000090E6BEE090E68BF00067
:1004A00000000205E3E490E68AF000000090E68B8D
:1004B000F000000090E6A0E020E1F990E6BCE0D377
:1004C000940750030205E378FD7C287D017B017AC7
:1004D000E679BC7E007F011206B590E6BEE0FF7EA5
:1004E0000078FE7C287D017B017AE779401206B511
:1004F00090E6BEE004FD7A287BFD7F5012248D90AB
:10050000E6BEE004FD7A287BFD7F5012248D0205B3
:10051000E3E490E68AF090E68BF090E6A0E020E13C
:10052000F990E68BE0F573C29890E740E0C3943011
:100530004006E0D39438400A90E740E0F4600302BC
:1005400005E3902922E060030205E34330F812211D
:10055000DE90E740E0B4FF1753A0F043A04090299D
:10056000237401F0902922F0E490291EF080749009
:10057000E740E09028B3F0E0FF9028B1E06F6063BF
:1005800053A0F043A040E4902921F090E740E0B46C
:100590000A069028B37461F090E740E0B40B06902F
:1005A00028B37462F090E740E0B40C069028B3746E
:1005B00063F090E740E0B40D069028B37464F090C7
:1005C000E740E0B40E069028B37465F090E740E091
:1005D000B40F069028B37466F09029227402F0805C
:0405E00002D322C35D
:0105E40022F4
:1024DA00C0E0C083C082D2075391EF90E65D7401D9
:0824EA00F0D082D083D0E03273
:10252100C0E0C083C0825391EF90E65D7404F0D0A7
:0625310082D083D0E032ED
:10253700C0E0C083C0825391EF90E65D7402F0D093
:0625470082D083D0E032D7
:1020D800C0E0C083C08285100C85110D850D8285F6
:1020E8000C83A37402F085080E85090F850F82857D
:1020F8000E83A37407F05391EF90E65D7410F0D04F
:0621080082D083D0E0321A
:1024F200C0E0C083C082D2095391EF90E65D7408B8
:08250200F0D082D083D0E0325A
:10202800C0E0C083C08290E680E030E72085080CDD
:1020380085090D850D82850C83A37402F085100E29
:1020480085110F850F82850E83A37407F05391EFD6
:0D20580090E65D7420F0D082D083D0E0329D
:011AFF0032B4
:012741003265
:012742003264
:012743003263
:10206500C0E0C083C08290E65EE054FBF000000053
:1020750090E68F7440F0000000752B00752C0090E1
:10208500E7F0E4F05391EF90E65FE04404F090E66A
:0C2095005EE04404F0D082D083D0E03242
:1010E500C0E0C0F0C083C082C0D075D000C000C0D1
:0D10F50001C002C003C004C005C006C00752
:10110200755B00755C0090E65EE054F7F090E6A136
:10111200E020E1F990E780E0FF1207F8113D0011AD
:10112200430111523011863111CA3212063312377D
:1011320034124EFE1258FF0000125D752200021298
:101142005D90E782E0F53890E781E0F53F02125DBD
:10115200755900755A0190E68DE0FFC3E55A9F74F8
:1011620080F8655998400302125D7480255AF58211
:10117200E434E7F583E0FF1225DC055AE55A70D620
:10118200055980D290E781E07006758DB202125D3A
:1011920090E781E0B40106758D6402125D90E781EB
:1011A200E0B40206758DD902125D90E781E0B403C6
:1011B20006758DE602125D90E781E0640460030229
:1011C200125D758DF302125D90E781E07006121ECA
:1011D200A402125D90E781E0B401051224A9807B8C
:1011E20090E781E0B40205122455806F90E781E018
:1011F200B403051225F6806390E781E0F4705C1277
:1012020025E98057755900755A0190E68DE0FFC3B4
:10121200E55A9F7480F865599850407480255AF5B4
:1012220082E434E7F583E0FF1225CF055AE55A70D0
:10123200D9055980D590E781E0755B00F55C7B01AB
:101242007AE77982FFAE5B121AB8800F90E781E0ED
:1012520024FF92058005752200D20300000090E66B
:101262008DE4F05391EF90E65FE04408F090E65E83
:04127200E04408F05C
:10127600D007D006D005D004D003D002D001D000CC
:0B128600D0D0D082D083D0F0D0E03276
:012744003262
:012745003261
:101FE500C0E0C083C08290E65EE054BFF000000010
:101FF50090E6987402F000000090E699E4F0000085
:1020050000F52DF52E90F800F0A3F05391EF90E632
:102015005FE04440F090E65EE04440F0D082D0833B
:03202500D0E032D6
:1014C000C0E0C0F0C083C082C0D075D000C000C0F2
:0D14D00001C002C003C004C005C006C00773
:1014DD0090E65EE0547FF090E6A6E020E1F990E61C
:1014ED009CE0FE90E69DE07C002400F55AEC3EF574
:1014FD0059E55A64054559704D90FC00E0B4EE1461
:10150D00A3E0B4440FA3E0B4880AA3E07006A3E0FF
:10151D0064336064755B00755C00C3E55C955AE5EA
:10152D00596480F8E55B648098504D7400255CF536
:10153D008274FC355BF583E0FF1225DC055CE55C10
:10154D0070D8055B80D4755B00755C00C3E55C9558
:10155D005AE5596480F8E55B648098501B7400254A
:10156D005CF58274FC355BF583E0FF1225DC055CD0
:10157D00E55C70D8055B80D400000090E69CE4F03B
:10158D0090E69DF05391EF90E65FE04480F090E699
:05159D005EE04480F057
:1015A200D007D006D005D004D003D002D001D0009D
:0B15B200D0D0D082D083D0F0D0E03247
:012746003260
:01274700325F
:01274800325E
:01274900325D
:01274A00325C
:01274B00325B
:01274C00325A
:01274D003259
:01274E003258
:01274F003257
:012750003256
:012751003255
:012752003254
:012753003253
:012754003252
:012755003251
:012756003250
:01275700324F
:01275800324E
:01275900324D
:01275A00324C
:01275B00324B
:01275C00324A
:01275D003249
:01275E003248
:01275F003247
:06177E008F748C758D765E
:1017840053740753B0F77F0A7E00121F88E4F5777D
:10179400F578C374029578FFE574A807088002C33E
:1017A40013D8FC30E00543800280035380FD7F0A98
:1017B4007E00121F884380017F0A7E00121F885317
:1017C40080FE7F0A7E00121F880578E57870020586
:1017D40077C39403E5776480948040B6E4F577F5A5
:1017E40078C374099578FFE576AE75A80708800577
:1017F400CEC313CE13D8F930E005438002800353DF
:1018040080FD7F0A7E00121F884380017F0A7E00CC
:10181400121F885380FE7F0A7E00121F880578E518
:101824007870020577C3940AE5776480948040B1A8
:1018340043B0087F0A7E00121F8853B0F77F0A7EE8
:0418440000021F88F7
:09269C00AD07AC06E4FF02177E55
:0926A500AD07AC067F0402177EAC
:0926AE00AD07AC067F0502177EA2
:0926B700AD07AC067F0602177E98
:0926C000AD07AC067F0102177E94
:0926C900AD07AC067F0202177E8A
:0926D200AD07AC067F0302177E80
:102571009028FDEDF0EFC313FF7A287BFD7D01026A
:02258100248DA7
:101F4F0012271F7FC47E09121F8812271B7FC47E92
:101F5F0009121F881227177FC47E09121F881227A4
:101F6F00137FC47E09121F8812270F7FC47E0912A8
:091F7F001F8812270B7FC47E09A4
:101F8800EF7803C333CE33CED8F9FFEF4E6007EFB7
:071F98001F70F81E80F52206
:03272300C284224B
:03272600D2842238
:03272900C2832246
:03272C00D2832233
:0626F90012272C02272627
:1023FA001227297F027E00121F8812272312272CF8
:10240A007F027E00121F881227267F027E00021F8B
:01241A008839
:10258300E4FDFC1223FA0DBD00010CBC0DF5BDF6F4
:01259300F255
:012594002224
:03272F000224A9D8
:032732000225F687
:1019040085443C85433B85423A854139E53EB401F3
:1019140002C2B012272FE54060030219A875220104
:10192400E47FE87E03FDFCAB3CAA3BA93AA839C39B
:1019340012078F4061E5226401705B7FDD7E031234
:101944001F9F120D57E53C2418F53CE53B34FCF58C
:101954003BE53A34FFF53AE53934FFF539E4FFFE67
:10196400FDE539FC78181207A090E7C4EFF0E4FF16
:10197400FEE53AFDE4FC78101207A0A3EFF0E4FFC3
:10198400E53BFEE4FDFC78081207A0A3EFF0E53C7C
:10199400FFA3EFF0808AE522B40112AE3BAF3C1204
:1019A4001F9F8009752201E522640160FA12273223
:0819B400E53EB40102D2B022AD
:10229600AD07AC06D3ED9400EC9400401E000000A0
:1022A600EE90E6D0F0000000ED90E6D1F0000000E0
:0C22B60075BB04000000E5BB30E7FB2214
:0820A1008C768D77AB07AA06CF
:1020A900E4FDFCC3ED9577EC95765022EA90E6D0F5
:1020B900F0000000EB90E6D1F000000075BB0500D0
:0E20C9000000E5BB30E7FB0DBD00010C80D52B
:0120D70022E6
:1022ED00AD07AC06000000ED25E0EC3390E6D0F034
:1022FD00000000ED25E090E6D1F000000075BB0474
:09230D00000000E5BB30E7FB22F3
:1015BD00C2031227177FD07E07121F8812271B7FA9
:1015CD00D07E07121F8812271F7FD07E07121F881B
:1015DD0012258375470290E7C0E547F0121904758F
:1015ED00470390E7C0E547F030030302169DE4F58D
:1015FD0074F575C3E5759528E5749527500D12237F
:10160D00FA0575E57570EC057480E8E53DD3940039
:10161D00400CE53DFD7C00AF34AE331220A1D3E587
:10162D00249400E52394004007AF24AE231222ED4D
:10163D00E4F572F573C3E573954FE572954E502C35
:10164D001222C2E4F574F575C3E57595357480F80D
:10165D00657498500D1223FA0575E57570EA0574D9
:10166D0080E60573E57370CD057280C9E4F574F5F8
:10167D0075C3E575954CE574954B500D1223FA0520
:10168D0075E57570EC057480E8AF46AE451222968F
:01169D00222A
:1022C200000000E53425E0E5333390E6D0F000006D
:1022D20000E53425E090E6D1F000000075BB040073
:0B22E2000000E5BB20E7033003F822FA
:10250A00E490E608F075C83443985053877FD2ACFC
:07251A0075CBFF75CA6422B6
:0D25CF00309902C2998F993099FDC299226E
:1023650090000020981CA3AF82AE83E4FCFD7BFAAD
:102375007AFFF9F8C31207795004D2008004C2002D
:0623850080E1C298AF994F
:01238B00222F
:10231600E490E608F0D28E53897F5389BF43892023
:102326005389EF438E10758DB243C05043D880C297
:08233600C0C2C1D2AED2AF2239
:0D25DC0030C102C2C18FC130C1FDC2C12299
:10238C0090000020C01CA3AF82AE83E4FCFD7BFA5E
:10239C007AFFF9F8C31207795004D2008004C20006
:0623AC0080E1C2C0AFC1D8
:0123B2002208
:0427030075A0092292
:0427070075A0012296
:04270B0075A0032290
:04270F0075A002228D
:0427130075A0062285
:0427170075A0042283
:04271B0075A00C2277
:04271F0075A0082277
:0D25E900E4F5A07525FF90E7CBE525F02275
:101EA4001227037F287E0A121F881227077F287EA5
:101EB4000A121F8812270B7F287E0A121F881227F6
:101EC4000F7F287E0A121F881227137F287E0A128A
:101ED4001F881227177F287E0A121F8812271B7F4C
:101EE400287E0A121F8812271F7F287E0A121F8845
:0A1EF400E4F52590E7CBE525F02288
:0D25F600121F4F75250390E7CBE525F0225D
:1024A900121F4F122707121F84122703121F847548
:0924B900250190E7CBE525F02296
:10245500122703121F84122707121F7A12270F1241
:0C2465001F8475250290E7CBE525F022CE
:101BAB009028F5E004F070069028F4E004F09028FB
:101BBB00F4E07004A3E0640870069028F4F0A3F03E
:101BCB009028F4E0FEA3E0FF4E700843A01053A052
:101BDB00DF805DEF64014E700543A0108009EF6458
:101BEB00024E700B53A0EF53A0DF43A0408055EF84
:101BFB0064034E700B53A0EF53A0DF43A040802033
:101C0B00EF64044E700B53A0EF53A0DF53A0BF80C3
:101C1B000FEF64054E700D53A0EF43A02053A0BFF0
:101C2B0043A08022EF64064E700B53A0EF43A0201D
:101C3B0053A0BF800FEF64074E700C43A01043A05E
:081C4B002053A0BF53A07F222B
:1023D800E49028B2F0902922E0FF601564056011AE
:1023E800121BAB9028FBE004F070069028FAE0047A
:0223F800F022D1
:10214400902922E0FF602C640560289028FBE004BD
:10215400F070069028FAE004F0121BAB9028FAE025
:102164007004A3E064A0700B9028FAF0A3F0902907
:042174002104F02230
:0826E300E4F51DD2E9D2AF229B
:10210E0090E678E020E6F9C2E990E678E04480F0C7
:10211E00EF25E090E679F090E678E030E0F990E691
:10212E0078E04440F090E678E020E6F990E678E03A
:06213E0030E1D6D2E922D7
:1021AC00A90790E678E020E6F9E51D702390E67823
:1021BC00E04480F0E925E090E679F08D18AF03A9B2
:1021CC00077519018A1A891BE4F51C751D01D322A8
:0221DC00C3221C
:10217800A90790E678E020E6F9E51D702590E67855
:10218800E04480F0E925E0440190E679F08D18AF4D
:1021980003A9077519018A1A891BE4F51C751D0323
:0421A800D322C32259
:03004B000213B8E5
:1013B800C0E0C083C082C085C084C086758600C076
:1013C800D075D000C000C001C002C003C006C0076D
:1013D80090E678E030E206751D060214A290E678E1
:1013E800E020E10CE51D64026006751D070214A2E9
:1013F800E51D24FE605F14603624FE70030214931A
:1014080024FC700302149F240860030214A2AB1981
:10141800AA1AA91BAF1C051C8F827583001206DB54
:1014280090E679F0E51C65187070751D05806B9065
:10143800E679E0AB19AA1AA91BAE1C8E8275830047
:10144800120708751D02E5186401704E90E678E0F1
:101458004420F08045E51824FEB51C0790E678E0A6
:101468004420F0E51814B51C0A90E678E04440F0F2
:10147800751D0090E679E0AB19AA1AA91BAE1C8E5F
:1014880082758300120708051C800F90E678E044F7
:1014980040F0751D008003751D005391DFD007D003
:1014A80006D003D002D001D000D0D0D086D084D0CE
:0814B80085D082D083D0E03220
:10247100122178E51D24FA600E146006240770F31A
:0C248100D322E4F51DD322E4F51DD32284
:10248D001221ACE51D24FA600E146006240770F3CA
:0C249D00D322E4F51DD322E4F51DD32268
:03000000021CF0EF
:0C1CF000787FE4F6D8FD75817C021D377A
:1005E500E709F608DFFA8046E709F208DFFA803EF8
:1005F50088828C83E709F0A3DFFA8032E309F608E5
:10060500DFFA8078E309F208DFFA807088828C834C
:10061500E309F0A3DFFA806489828A83E0A3F60800
:10062500DFFA805889828A83E0A3F208DFFA804CDA
:1006350080D280FA80C680D4806980F280338010B1
:1006450080A680EA809A80A880DA80E280CA80331A
:1006550089828A83ECFAE493A3C8C582C8CCC58392
:10066500CCF0A3C8C582C8CCC583CCDFE9DEE78062
:100675000D89828A83E493A3F608DFF9ECFAA9F0E1
:10068500EDFB2289828A83ECFAE0A3C8C582C8CC37
:10069500C583CCF0A3C8C582C8CCC583CCDFEADE50
:1006A500E880DB89828A83E493A3F208DFF980CCB2
:1006B50088F0EF60010E4E60C388F0ED2402B404AB
:1006C5000050B9F582EB2402B4040050AF23234552
:0606D5008223900635733C
:1006DB00BB010CE58229F582E5833AF583E02250D4
:1006EB0006E92582F8E622BBFE06E92582F8E2221E
:0D06FB00E58229F582E5833AF583E4932238
:10070800F8BB010DE58229F582E5833AF583E8F027
:10071800225006E92582C8F622BBFE05E92582C8D3
:02072800F222BB
:10072A00E88FF0A4CC8BF0A42CFCE98EF0A42CFC6E
:10073A008AF0EDA42CFCEA8EF0A4CDA8F08BF0A4EC
:10074A002DCC3825F0FDE98FF0A42CCD35F0FCEB4B
:10075A008EF0A4FEA9F0EB8FF0A4CFC5F02ECD3910
:0F076A00FEE43CFCEAA42DCE35F0FDE43CFC227D
:1019BC00C2D5E830E70FB2D5E4C39BFBE49AFAE456
:1019CC0099F9E498F8EC30E717B2D51219F212082D
:1019DC0086E4C39BFBE49AFAE499F9E498F8800353
:1019EC0012088630D50DE4C39FFFE49EFEE49DFDF6
:0419FC00E49CFC2249
:10077900EB9FF5F0EA9E42F0E99D42F0EC6480C8F7
:0607890064809845F02297
:10078F00EB9FF5F0EA9E42F0E99D42F0E89C45F0C0
:01079F002237
:1007A000E8600FECC313FCED13FDEE13FEEF13FF37
:0307B000D8F1225B
:1007B300E86010ECA2E713FCED13FDEE13FEEF135C
:0407C300FFD8F02249
:1007C700A8828583F0D083D0821207DE1207DE125B
:1007D70007DE1207DEE473E493A3C583C5F0C58380
:1007E700C8C582C8F0A3C583C5F0C583C8C582C87C
:0107F70022DF
:1007F800D083D082F8E4937012740193700DA3A390
:1008080093F8740193F5828883E4737402936860A3
:06081800EFA3A3A380DFA3
:10081E00EF4E6012EF60010EEDBB010B89828A83F1
:10082E00F0A3DFFCDEFA2289F05007F709DFFCA9FE
:0C083E00F022BBFEFCF309DFFCA9F02255
:101CFC00020F2BE493A3F8E493A34003F68001F2C4
:101D0C0008DFF48029E493A3F85407240CC8C333E8
:101D1C00C4540F4420C8834004F456800146F6DFB7
:101D2C00E4800B0102040810204080901291E47EA4
:101D3C00019360BCA3FF543F30E509541FFEE493AC
:101D4C00A360010ECF54C025E060A840B8E493A373
:101D5C00FAE493A3F8E493A3C8C582C8CAC583CA9E
:101D6C00F0A3C8C582C8CAC583CADFE9DEE780BE56
:0113B7000035
:10084A0075F008758200EF2FFFEE33FECD33CDCC65
:10085A0033CCC58233C5829BED9AEC99E5829840E8
:10086A000CF582EE9BFEED9AFDEC99FC0FD5F0D6C5
:10087A00E4CEFBE4CDFAE4CCF9A88222B800C1B9EF
:10088A000059BA002DEC8BF084CFCECDFCE5F0CB2D
:10089A00F97818EF2FFFEE33FEED33FDEC33FCEB66
:1008AA0033FB10D703994004EB99FB0FD8E5E4F921
:1008BA00FA227818EF2FFFEE33FEED33FDEC33FC0E
:1008CA00C933C910D7059BE99A4007EC9BFCE99A02
:1008DA00F90FD8E0E4C9FAE4CCFB2275F010EF2F47
:1008EA00FFEE33FEED33FDCC33CCC833C810D70747
:1008FA009BEC9AE899400AED9BFDEC9AFCE899F882
:0E090A000FD5F0DAE4CDFBE4CCFAE4C8F92214
:00000001FF
