:0A2848000001020203030404050569
:100FA600E4F56BF56AF569F568C209C206C208C2BE
:100FB60007122653120BA37E1C7F008E0A8F0B7519
:100FC600121C75131275081C75091C75101C7511F9
:100FD6005175161C75177FEE54E070030210ED75FF
:100FE6006C00756D808E6E8F6FC374A99FFF741C25
:100FF6009ECF2402CF3400FEE48F678E66F565F53A
:1010060064F563F562F561F560AF67AE66AD65AC34
:1010160064AB63AA62A961A860C31207F65026E50D
:101026006D2563F582E56C3562F58374CDF0E56375
:101036002401F563E43562F562E43561F561E43572
:1010460060F56080C4E4F563F562F561F560AF674D
:10105600AE66AD65AC64AB63AA62A961A860C31253
:1010660007F65031AE62AF63E56F2FF582E56E3E4F
:10107600F583E0FDE56D2FF582E56C3EF583EDF039
:10108600EF2401F563E43EF562E43561F561E4358C
:1010960060F56080B9856C0A856D0B74002480FF4D
:1010A600741C34FFFEC3E5139FF513E5129EF5127B
:1010B600C3E50D9FF50DE50C9EF50CC3E50F9FF5F9
:1010C6000FE50E9EF50EC3E5099FF509E5089EF5A9
:1010D60008C3E5119FF511E5109EF510C3E5179FAE
:1010E600F517E5169EF516D2E843D82090E668E097
:1010F6004409F090E65CE0443DF0D2AFD288D28A53
:10110600C2A8C2AA43E808D2FB90E680E020E10527
:10111600D20A12236D90E680E054F7F0538EF8C29F
:101126000930070512097FC2073009291228DC5049
:1011360024C20912253820061690E682E030E7041C
:10114600E020E1EF90E682E030E604E020E0E41201
:0A115600239C1228DE12162D80C71C
:10097F0090E6B9E07003020A30147003020AAD2446
:10098F00FE7003020B3024FB7003020A2A1470035B
:10099F00020A2414607314607624056003020B8F1F
:1009AF001228E04003020B9B90E6BBE024FE60227E
:1009BF0014603324FD601114602224067048E50A88
:1009CF0090E6B3F0E50B8037E51290E6B3F0E51350
:1009DF00802DE50C90E6B3F0E50D8023E50E90E653
:1009EF00B3F0E50F801990E6BAE0FF1223C8AA060C
:1009FF00A9077B01EA494B600DEE90E6B3F0EF904B
:100A0F00E6B4F0020B9B020B94122717020B9B12FA
:100A1F002891020B9B121EB9020B9B122705020B8A
:100A2F009B1228E24003020B9B90E6B8E0247F6004
:100A3F001514601924027063A206E43325E0FFA2A7
:100A4F0008E4334F8041E490E740F0803F90E6BCEC
:100A5F00E0547EFF7E00E0D394807C0040047D0153
:100A6F0080027D00EC4EFEED4F2448F58274283E47
:100A7F00F583E493FF3395E0FEEF24A1FFEE34E618
:100A8F008F82F583E0540190E740F0E4A3F090E605
:100A9F008AF090E68B7402F0020B9B020B941228E3
:100AAF00E44003020B9B90E6B8E024FE601624029C
:100ABF006003020B9B90E6BAE0B40105C206020B7D
:100ACF009B020B9490E6BAE0705590E6BCE0547E22
:100ADF00FF7E00E0D394807C0040047D0180027D86
:100AEF0000EC4EFEED4F2448F58274283EF583E46A
:100AFF0093FF3395E0FEEF24A1FFEE34E68F82F5EE
:100B0F0083E054FEF090E6BCE05480131313541F9F
:100B1F00FFE0540F2F90E683F0E04420F0806D80CB
:100B2F00641228E6506690E6B8E024FE60192402AD
:100B3F00705A90E6BAE0B40104D206804F90E6BA3C
:100B4F00E064026047803E90E6BCE0547EFF7E008A
:100B5F00E0D394807C0040047D0180027D00EC4E48
:100B6F00FEED4F2448F58274283EF583E493FF335E
:100B7F0095E0FEEF24A1FFEE34E68F82F583800827
:100B8F00120080500790E6A0E04401F090E6A0E04C
:030B9F004480F09F
:010BA2002230
:03003300021BFCB1
:041BFC0053D8EF3299
:10265300758CE0758AC0E58954F04401F589758E5F
:0826630003D28CD2A9D2AF22F0
:03003B00021DF0B3
:101DF000C0E0C083C082C0D075D000C006C007302C
:101E0000C041C2C085C114052EE52E7002052DD338
:101E1000E52E94F4E52D648094814006752D0075BF
:101E20002E00AE2DAF2EEE90F800F0AE2DAF2EEFBF
:101E3000A3F0AE2DAF2E74012FF58274F83EF5831A
:101E4000E514F030C105C2C185C114D007D006D059
:081E5000D0D082D083D0E03233
:03002300021F7247
:101F7200C0E0C083C082C0D075D000C007309836A0
:101F8200C298859915052CE52C7002052BD3E52CFA
:101F9200940EE52B648094804006752B00752C000E
:101FA200AF2C90E7F0EFF0AF2C74F02FF582E43411
:101FB200E7F583E515F0D007D0D0D082D083D0E00A
:011FC20032EC
:03005B00021D5330
:0D1D5300C0E0C083C082C0D075D000C007C2
:101D6000AF91530780EF6480707B53917F9029235C
:101D7000E06401606B902922E0FFB4013590291ED8
:101D8000E0B401109028B17430F0902922E4F09072
:101D900028B204F0D39028FBE094409028FAE09415
:101DA00006500690291E7401F09028FAE4F0A3F082
:101DB000802EEF64027029902921E0B4012290283E
:101DC000B1E004F0E0B438037430F09028B3E0FFE1
:101DD0009028B1E0B50709902922E4F0902921F07C
:051DE000902923E4F04E
:0B1DE500D007D0D0D082D083D0E032F5
:101C00001201000200000040181621160000010217
:101C100000010A0600020000004001000902350030
:101C200001010080FA0904000005FF00000007051B
:101C30000102400000070582020002000705810240
:101C400040000007058602000200070508020002A6
:101C50000009022E0001010080FA0904000004FFBF
:101C60000000000705010240000007058202400055
:101C7000000705020200020007058102400000047F
:101C800003090410035100480059002D004300438C
:101C90000044001603510048005900410050005311
:0B1CA0000020002000200020000000B9
:1013010060802800030A03030202030700000002B1
:10131100000002000A2B0B1311151111000000002F
:101321000000003F020A0303030303070000000259
:10133100000002000A2B130B11151111000000000F
:101341000000003F032D0303030303070000000215
:10135100000002000A2B0B131115111100000000EF
:101361000000003F030A0A0A0A0A0A0700000002F5
:10137100000002000A2B130B1115111100000000CF
:101381000000003F602428870000000000000000EA
:10139100000000000000000000000000000000004C
:1013A10000000000000000000000000047288080CD
:0613B100000011CA4E000D
:1018B10090E60174CAF090E6F574FFF0902880E09C
:1018C10090E6F3F0902881E090E6C3F0902882E062
:1018D10090E6C1F0902883E090E6C2F0902885E080
:1018E10090E6C0F0902886E090E6F4F075AF0774BA
:1018F10028F59A7400F59B759DE4E4F59EFF90E64A
:101901007BE090E67CF00FBF80F490E67174FFF00D
:10191100F5B490E672E04480F043B680000000E444
:1019210090E6C4F000000090E6C5F0902887E090B2
:10193100E6C6F0902888E090E6C7F0902889E0900C
:10194100E6C8F090288AE090E6C9F090288BE090F4
:10195100E6CAF090288CE090E6CBF090288DE090DC
:0B196100E6CCF090288EE090E6CDF080
:01196C002258
:03004300021A009E
:03005300021A008E
:101A000002266B000226C8000226B20002268300CE
:101A100002220200022116000228E8000228E90042
:101A20000228EA000228EB000221530002116000A4
:101A30000228EC000228ED0002209400021530007C
:101A40000228EE000228E9000228EF000228F00038
:101A50000228F1000228F2000228F3000228F40014
:101A60000228F5000228E9000228E9000228E9001E
:101A70000228F6000228F7000228F8000228F900E0
:101A80000228FA000228FB000228FC000228FD00C0
:101A90000228FE000228FF0002290000022901009E
:101AA000022902000229030002290400022905007C
:081AB0000229060002290700CB
:10239C0090E682E030E004E020E60B90E682E0304C
:1023AC00E119E030E71590E680E04401F07F147EFF
:0C23BC000012200A90E680E054FEF0229F
:1025380090E682E044C0F090E681F0438701000015
:04254800000000226D
:10236D00300A0990E680E0440AF0800790E680E0AC
:10237D004408F07FDC7E0512200A90E65D74FFF0C4
:0F238D0090E65FF05391EF90E680E054F7F02276
:0223C800A90763
:1023CA00AE16AF178F828E83A3E064037017AD0138
:1023DA0019ED7001228F828E83E07C002FFDEC3E86
:0923EA00FEAF0580DF7E007F00DC
:0123F30022C7
:10200A008E748F7590E600E054187012E5752401FD
:10201A00FFE43574C313F574EF13F575801590E674
:10202A0000E05418FFBF100BE57525E0F575E5745F
:10203A0033F574E5751575AE74700215744E600546
:06204A0012254C80EE227D
:10254C007400F58690FDA57C05A3E582458370F9A2
:01255C00225C
:1013B700C18202331040C100014A00C105C10404C3
:1013C7005000000000014700012500044100000013
:1013D700000439000000000137004129220141289B
:1013E700B3FF4128B1304228FA000042291F00000C
:1013F7004428AB000000004428F60000C3504228F0
:10140700AF001941291E00412923014128B200419B
:1014170029210041291D004128FC004228F4000031
:04233C00AF30AE2FE1
:102340008E798F7A9028FD7403F0E4A3F07A287BCD
:10235000FD7D027F411226379028FD7401F0A3E530
:0D2360007AF07A287BFD7D027F410226374E
:05274D00122752AF0548
:0B275200C2B6C2B58FB1D2B5D2B6221C
:0B283200D2B6C2B58FB1D2B5D2B6222B
:0C27AE00AE077FA0122752AF0602275290
:0C27BA00AE077FA1122752AF0602275283
:0C27C600AE077FA2122752AF0602275276
:0719F900EF44A4FF02275296
:0728A100EF44AEFF022752D5
:0C27D200AE077FAD122752AF060227525F
:0C27DE00AE077FA8122752AF0602275258
:0C27EA00AE077FB0122752AF0602275244
:0C27F600AE077FB1122752AF0602275237
:0C280200AE077FBB122752AF0602275220
:0C280E00AE077FB3122752AF060227521C
:1025C500AE07AC037F8A122752AF061227527F8BC4
:0D25D50012274D7F8C122752AF04022752AF
:0C281A00AE077F87122752AF060227523C
:1025E200AE07AC037F81122752AF061227527F82B9
:0D25F20012274D7F83122752AF040227529B
:0C282600AE077FBE122752AF06022752F9
:0E275D00AE05AD077F1512274DAF06022752BD
:0E276B00AE05AD077F7512274DAF060227524F
:04249C00AC05AB07D9
:1024A0007D5FE4FF12275D7D3FFF12276BFEE4FD99
:1024B000AF03122832AF041228320DBD60F20EBEF7
:0224C00040ECEE
:0124C20022F7
:061FC3008B5B8A5C895D66
:101FC900E4F55EF55FEF4E700C7D5FFF12275D7DD6
:101FD9003FFF02276BE4F55EF55FAB5BAA5CA95D89
:101FE900855F82855E83120742FF122832055FE50D
:101FF9005F7002055EC39480E55E6480948140DA77
:0120090022B4
:101E5800C2B47FC87E0012256BD2B4E4FF1228A159
:101E68007F721227AEE4FF1227BAFF1227C6FF12AD
:101E780019F97F3F1227DE7F8E1227D27F0B122798
:101E8800EA7F311227F67FF012280E7B647D787F77
:101E9800641225C57F3A1228027F3E1228267F0643
:101EA80012281A7B7D7D507F911225E27F0102283E
:011EB800A188
:100BA30090E600E054E74410F000000000000090DD
:100BB300E61074A0F000000090E60B7401F090E6DC
:100BC3001274E0F0000000E490E613F000000090DF
:100BD300E61474E2F000000090E61574A0F0000043
:100BE3000090E6D27402F090E6047480F0000000F6
:100BF3007402F00000007406F00000007408F000B6
:100C03000000E4F00000001218B190E6187408F038
:100C130000000090E619F000000090E61AF00000D2
:100C23000090E61BF0000000E490E671F075B4FF5D
:100C330075A0FF90E672F075B6FF75B1FF90E67090
:100C4300F075B2FF75B5FFC28CD2B01228A890E63A
:100C53001074A0F000000090E611F000000090E690
:100C63005EE04408F0000000E490E68DF000000030
:100C730090E65EE04404F0000000E490E7C0F090EA
:100C8300E7C4F0A3F0A3F0A3F090E7F0F090E68FB1
:100C93007440F000000090E65EE04440F000000085
:100CA3007E027F0090F800E4F0A3DFFCDEFA90E61A
:100CB300987402F0000000E490E699F00000007ED2
:100CC300027F0090F800E4F0A3DFFCDEFA90E65E1A
:100CD300E04480F0000000E490E69CF00000009007
:100CE300E69DF00000007F9AFE12285275270075DA
:100CF30028B4754B01754C907533107534B8754E27
:100D030006754F2C12289990E67AE054FEF0E4FD24
:100D13007F901227297F647E0012200A7DFF7F4285
:100D23001227297F647E0012200A7D827F4E1227BC
:100D3300297538FF752F007530F412233CE4F53F15
:100D430090E782E538F090E781E53FF012269BE4D7
:100D5300F52BF52C122474E4F52DF52E1228A8900A
:100D630029237401F0902922F09028F612082E000E
:100D7300030D409028AFE4F0A37464F0121F187FB2
:100D8300887E1312256B121F187F887E1312256B22
:100D93007FB87E0B12256B1227A1121E587DFF7F91
:100DA300FF12249CD2F9C2F8E4F54790E7C0E54767
:0E0DB300F0752F007530FFAF30AE2F022340D9
:0E277900EF2401FBE43EFA7D047F4802261B9C
:100DC100E53FC313FFC374809FF578E53FD39400DB
:100DD10040097538FF4330F412233CE53F70085356
:100DE10030FBF52F12233C7E297F2412277990298D
:100DF10025E090E7C1F0902926E090E7C2F0902825
:100E0100FD74E5F07A287BFD7D017F411226377E56
:100E1100007F0A7D007B017AE779401208857A29F3
:100E21007B247D027F4112261B902924E0FEA3E052
:100E31007C002400FFEC3EFEE48F778E76F575F59D
:100E4100747F097E3DFDAB77AA76A975A874120758
:100E510091780D12081AEF2490F577EE34E8F576C3
:100E6100ED34FFF575EC34FFF574E4FB7A01F9F824
:100E7100AF77AE76AD75AC7412205090E7CCEFF041
:100E8100E4FB7A01F9F8AF77AE76AD75AC74122058
:100E91005090E7CDEBF09028FD7450F0A3742EF044
:100EA1007A287BFD7D027F411226379028FD74EE62
:100EB100F07A287BFD7D017F411226377E007F0A73
:100EC1007D007B017A2979241208857A297B247D8A
:100ED100027F4112261B902924E0FEA3E07C00241E
:100EE10000FFEC3EFEE48F778E76F575F574902861
:100EF100FD7450F0A3740FF07A287BFD7D027F41D1
:100F0100122637E47FCD7E55FDFCAB77AA76A97515
:100F1100A874120791780D12081AEF24FEF577EEE6
:100F21003448F576ED34FFF575EC34FFF574E4FBE8
:100F31007A01F9F8AF77AE76AD75AC7412205090A6
:100F4100E7CEEFF0E4FB7A01F9F8AF77AE76AD7555
:100F5100AC7412205090E7CFEBF09028FDE538F00B
:100F61007A287BFD7D017F211226379028FDE53807
:100F7100F07A287BFD7D017F211226379028FD74B0
:100F810002F0A37480F07A287BFD7D027F2812266F
:100F910037E49028FDF0A3E578F07A287BFD7D0207
:050FA1007F2802263745
:10162D00E5532401F553E43552F552E43551F551A6
:10163D00E43550F550902920E004F0700690291FF4
:10164D00E004F09028F6E0FCA3E0FDA3E0FEA3E0AB
:10165D00FFAB53AA52A951A850C31207F6700C1232
:10166D000DC1E4F553F552F551F550902922E0FFE7
:10167D0090E7C8F09028B1E090E7C9F09028FCE021
:10168D0090E7CAF09028AFE0FCA3E0FD90291FE0A1
:10169D00B5042CA3E0B50527EF601124FE60080406
:1016AD00701612258280111222A2800C53A00F53A6
:1016BD0030F7752F0012233CE490291FF0A3F03072
:1016CD00013D75470190E7C0E547F0E5B130E7030F
:1016DD002005F812170DC201E4F54790E7C0E54764
:1016ED00F0121F187FB87E0B12256B121F187F8802
:1016FD007E1312256B7F887E1312256B1227A12274
:0228DC00D32205
:0228DE00D32203
:0228E000D32201
:101EB90090E680E030E73A00000090E6207402F0F6
:101EC900000000E490E621F000000090E62474028E
:101ED900F0000000E490E625F000000090E626748A
:101EE90002F0000000E490E627F0000000D2028032
:101EF90016000000E490E620F000000090E621744E
:0F1F090040F0000000C20290E6BAE0F548D32293
:1027050090E740E548F0E490E68AF090E68B04F027
:02271500D322CD
:0828910090E6BAE0F526D3221F
:1027170090E740E526F0E490E68AF090E68B04F037
:02272700D322BB
:0228E200D322FF
:0228E400D322FD
:0228E600D322FB
:10008000E4F570F57190E6B9E012085F05F532000D
:10009000BAB300F2B5026FB602A7BB02EEBC03977B
:1000A000C1034FC20415C5041FC60454C70473CA54
:1000B00004B5CB0521D000000648E490E68AF09014
:1000C000E68BF090E6A0E020E1F990E68BE0F57099
:1000D000E4F5B390E60174CAF0D20100000090E6A6
:1000E000047480F00000007402F0000000E4F002EC
:1000F000064AE490E68AF090E68BF090E6A0E020D5
:10010000E1F990E68BE0F570D3943F4024E4F5717B
:1001100074402571F582E434E7F583E0FF74B4257B
:1001200071F582E43428F583EFF00571E571B44090
:10013000DF7F8A7E001228529028B4E0FF7E0012F2
:10014000285B9028B4E0FF7E001228649028B4E079
:10015000FF7E0012286D9028B5E075F004A4FFAE74
:10016000F01228769028B5E075F004A4FFAEF012E6
:10017000287F9028B5E075F004A4FFAEF01228881F
:100180009028B9E0C3940250139028D5E090E6C0BF
:100190007005744EF08016749CF080119028D5E0A4
:1001A00090E6C07005749FF08003749DF09028D78E
:1001B000E0F5409028D4E0F53E9028D8E0F549904D
:1001C00028E2E0F53DA3E0FEA3E07C002400F52456
:1001D000EC3EF5239028BAE0F535E535700375352A
:1001E000019028BFE0FEA3E07C002400F528EC3E4F
:1001F000F527A3E0FEA3E02400F54CEC3EF54B9080
:1002000028BBE0FEA3E02400F534EC3EF533A3E088
:10021000FEA3E02400F54FEC3EF54E9028C5E0FE2D
:10022000A3E02400F546EC3EF5459028C3E0FEA38C
:10023000E02400F532EC3EF5319028E9E0540FF56A
:1002400037E4FD7F901227299028B5E0FCA3E0FD5C
:10025000A3E0FEA3E0F5448E438D428C41E544F5D6
:1002600044E543F543E542F542E4F54102064AE43C
:10027000F57174B42571F582E43428F583E0FF74D8
:10028000402571F582E434E7F583EFF00571E571FF
:10029000B440DF000000E490E68AF000000090E641
:1002A0008B7440F002064AE490E68AF090E68BF008
:1002B00090E6A0E020E1F978FD7C287D017B017AC1
:1002C000E679BC7E007F0112071C90E6BEE0FF7E4F
:1002D0000078FE7C287D017B017AE7794012071CBB
:1002E00090E6BAE0C313FF90E6BEE0048059E490C4
:1002F000E68AF090E68BF090E6A0E020E1F978FD48
:100300007C287D017B017AE679BD7E007F011207A2
:100310001C78FE7C287D017B017AE679BC7E007F1B
:100320000112071C90E6BEE0FF7E0078FF7C287D6E
:10033000017B017AE7794012071C90E6BAE0C3130B
:10034000FF90E6BEE02402FD7A287BFD02051B90AB
:10035000E74074F4F0A37417F0A3740CF0A37426B0
:10036000F0A37407F0A374EEF0A37401F0A3740378
:10037000F0A37453F0300205E4A3F0800690E7493F
:1003800074FFF0000000E490E68AF000000090E6C0
:100390008B740AF002064AE490E68AF090E68BF04D
:1003A00090E6A0E020E1F990E68BE0F570C298D3EA
:1003B0009400500302064A90E740E0940A5007E098
:1003C0002430FF12278790E740E0B40A057F6112CE
:1003D000278790E740E0B40B057F6212278790E7FC
:1003E00040E0B40C057F6312278790E740E0B40D2E
:1003F000057F6412278790E740E0B40E057F651201
:10040000278790E740E0640F600302064A7F661288
:10041000278702064A7AE77B407D047F48803DE4D7
:1004200090E68AF090E68BF090E6A0E020E1F9906B
:10043000E68BE0F570D39401500302064A90E74141
:10044000E0FD7F4212272990E740E0FD7F4E122712
:100450002902064A7A287BFD7D027F4112261B0075
:100460000000E490E68AF000000090E68B7404F04F
:1004700002064A90E6BCE0902924F07A297B247D8C
:10048000017F501226377A297B247D017F50122666
:100490003790E6BEE0FD7AE77B407F5012261BE4F2
:1004A00090E68AF000000090E6BEE090E68BF00057
:1004B000000002064AE490E68AF000000090E68B15
:1004C000F000000090E6A0E020E1F990E6BCE0D367
:1004D0009407500302064A78FD7C287D017B017A4F
:1004E000E679BC7E007F0112071C90E6BEE0FF7E2D
:1004F0000078FE7C287D017B017AE7794012071C99
:1005000090E6BEE004FD7A287BFD7F5012263790EE
:10051000E6BEE004FD7A287BFD7F501226370206F6
:100520004AE490E68AF090E68BF090E6A0E020E1C5
:10053000F990E68BE0F571C29890E740E0C3943003
:100540004006E0D39438400A90E740E0F4600302AC
:10055000064A902922E0600302064A4330F812233B
:100560003C90E740E0B4FF1853A0F043A04090292E
:10057000237401F0902922F0E490291EF002064A2B
:1005800090E740E09028B3F0E0FF9028B1E06F7072
:100590000302064A53A0F043A040E4902921F090C2
:1005A000E740E0B40A069028B37461F090E740E0B9
:1005B000B40B069028B37462F090E740E0B40C06E8
:1005C0009028B37463F090E740E0B40D069028B330
:1005D0007464F090E740E0B40E069028B37465F0C0
:1005E00090E740E0B40F069028B37466F09029229B
:1005F0007402F08055E490E68AF090E68BF090E685
:10060000A0E020E1F990E68BE0F571C29890E74117
:10061000E07005121F18803290E741E0B401051226
:10062000226E802690E741E0B402051225FF801A71
:1006300090E741E0B403051220D7800E90E741E037
:0B064000B4FF071227A18002D322C3E1
:01064B00228C
:10266B00C0E0C083C082D2075391EF90E65D740146
:08267B00F0D082D083D0E032E0
:1026B200C0E0C083C0825391EF90E65D7404F0D015
:0626C20082D083D0E0325B
:1026C800C0E0C083C0825391EF90E65D7402F0D001
:0626D80082D083D0E03245
:10220200C0E0C083C08285100C85110D850D8285CA
:102212000C83A37402F085080E85090F850F828551
:102222000E83A37407F05391EF90E65D7410F0D023
:0622320082D083D0E032EF
:10268300C0E0C083C082D2095391EF90E65D740825
:08269300F0D082D083D0E032C8
:10211600C0E0C083C08290E680E030E72085080CEE
:1021260085090D850D82850C83A37402F085100E3A
:1021360085110F850F82850E83A37407F05391EFE7
:0D21460090E65D7420F0D082D083D0E032AE
:0128E80032BD
:0128E90032BC
:0128EA0032BB
:0128EB0032BA
:10215300C0E0C083C08290E65EE054FBF000000064
:1021630090E68F7440F0000000752B00752C0090F2
:10217300E7F0E4F05391EF90E65FE04404F090E67B
:0C2183005EE04404F0D082D083D0E03253
:10116000C0E0C0F0C083C082C0D075D000C000C055
:0D11700001C002C003C004C005C006C007D6
:10117D0090E65EE054F7F090E6A1E020E1F990E70B
:10118D0080E0FF12085F11B20011B80111C73011D4
:10119D00FB31123F32127B3312AC3412BEFE12C839
:1011AD00FF000012CD7522000212CD90E782E0F50E
:1011BD003890E781E0F53F0212CD755900755A015F
:1011CD0090E68DE0FFC3E55A9F7480F8655998400D
:1011DD00030212CD7480255AF582E434E7F583E0DD
:1011ED00FF122794055AE55A70D6055980D290E71B
:1011FD0081E07006758DB20212CD90E781E0B401E9
:10120D0006758D640212CD90E781E0B40206758DEE
:10121D00D90212CD90E781E0B40306758DE6021276
:10122D00CD90E781E0640460030212CD758DF30269
:10123D0012CD90E781E07006121F180212CD90E7D3
:10124D0081E0B4010512226E807690E781E0B40250
:10125D00051225FF806A90E781E0B403051220D7BF
:10126D00805E90E781E0F470571227A18052755986
:10127D0000755A0190E68DE0FFC3E55A9F7480F822
:10128D00655998503B7480255AF582E434E7F5830F
:10129D00E0FF122787055AE55A70D9055980D59078
:1012AD00E781E0FF7E007B017AE77982121FC38020
:1012BD000F90E781E024FF92058005752200D2038F
:1012CD0000000090E68DE4F05391EF90E65FE0446E
:0912DD0008F090E65EE04408F020
:1012E600D007D006D005D004D003D002D001D0005C
:0B12F600D0D0D082D083D0F0D0E03206
:0128EC0032B9
:0128ED0032B8
:10209400C0E0C083C08290E65EE054BFF000000060
:1020A40090E6987402F000000090E699E4F00000D5
:1020B40000F52DF52E90F800F0A3F05391EF90E683
:1020C4005FE04440F090E65EE04440F0D082D0838C
:0320D400D0E03227
:10153000C0E0C0F0C083C082C0D075D000C000C081
:0D15400001C002C003C004C005C006C00702
:10154D0090E65EE0547FF090E6A6E020E1F990E6AB
:10155D009CE0FE90E69DE07C002400F55AEC3EF503
:10156D0059E55A64054559704D90FC00E0B4EE14F0
:10157D00A3E0B4440FA3E0B4880AA3E07006A3E08F
:10158D0064336064755B00755C00C3E55C955AE57A
:10159D00596480F8E55B648098504D7400255CF5C6
:1015AD008274FC355BF583E0FF122794055CE55CE6
:1015BD0070D8055B80D4755B00755C00C3E55C95E8
:1015CD005AE5596480F8E55B648098501B740025DA
:1015DD005CF58274FC355BF583E0FF122794055CA6
:1015ED00E55C70D8055B80D400000090E69CE4F0CB
:1015FD0090E69DF05391EF90E65FE04480F090E629
:05160D005EE04480F0E6
:10161200D007D006D005D004D003D002D001D0002C
:0B162200D0D0D082D083D0F0D0E032D6
:0128EE0032B7
:0128EF0032B6
:0128F00032B5
:0128F10032B4
:0128F20032B3
:0128F30032B2
:0128F40032B1
:0128F50032B0
:0128F60032AF
:0128F70032AE
:0128F80032AD
:0128F90032AC
:0128FA0032AB
:0128FB0032AA
:0128FC0032A9
:0128FD0032A8
:0128FE0032A7
:0128FF0032A6
:0129000032A4
:0129010032A3
:0129020032A2
:0129030032A1
:0129040032A0
:01290500329F
:01290600329E
:01290700329D
:0617E7008F728C738D74FB
:1017ED0053720753B0F77F0A7E0012256BE4F5752F
:1017FD00F576C374029576FFE572A807088002C3DB
:10180D0013D8FC30E00543800280035380FD7F0A2E
:10181D007E0012256B4380017F0A7E0012256B53DB
:10182D0080FE7F0A7E0012256B0576E57670020537
:10183D0075C39403E5756480948040B6E4F575F541
:10184D0076C374099576FFE574AE73A80708800515
:10185D00CEC313CE13D8F930E00543800280035375
:10186D0080FD7F0A7E0012256B4380017F0A7E007A
:10187D0012256B5380FE7F0A7E0012256B0576E5DF
:10188D007670020575C3940AE5756480948040B145
:10189D0043B0087F0A7E0012256B53B0F77F0A7E96
:0418AD000002256BA5
:09285200AD07AC06E4FF0217E734
:09285B00AD07AC067F040217E78B
:09286400AD07AC067F050217E781
:09286D00AD07AC067F060217E777
:09287600AD07AC067F010217E773
:09287F00AD07AC067F020217E769
:09288800AD07AC067F030217E75F
:102729009028FDEDF0EFC313FF7A287BFD7D0102B0
:02273900263741
:1024C3009028FD7402F0A37480F07A287BFD7D02CE
:1024D3007F28122637E49028FDF0A3F07A287BFDAD
:0724E3007D027F280226376D
:1026F200E49028FDF0A3EFF07A287BFD7D027F3C79
:0327020002263775
:1026DE009028FD7440F0A3EFF07A287BFD7D027FF9
:0426EE003C0226374D
:10196D007FAE1226F27F041226F27F101226F27F2E
:10197D00401226F27FB01226F27F811226F27F806E
:10198D001226F27FA11226F27FA61226F27FA8124E
:10199D0026F27F3F1226F27FAD1226F27F8B1226A2
:1019AD00F27F301226F27FC81226F27FD31226F272
:1019BD00E4FF1226F27FD51226F27F801226F27FE7
:1019CD00D91226F27F221226F27FDA1226F27F0238
:1019DD001226F27F8D1226F27F141226F27FDB1271
:0C19ED0026F27F401226F27FAF0226F2A5
:02218F008F7B44
:10219100E4FF1226F27F101226F2E4F57DE57D249C
:1021A100B6FF1226F2E4FF1226F27F101226F2E4A5
:1021B100F57CAF7B1226DE057CE57CC3946040F2A2
:0921C100057DE57DC3940240D4C4
:0121CA0022F2
:0E255D007FC47E0912256B1228BA7FC47E0946
:10256B00EF7803C333CE33CED8F9FFEF4E6007EFCE
:07257B001F70F81E80F5221D
:0328CA00C28422A3
:0328CD00D2842290
:0328D000C283229E
:0328D300D283228B
:0628A8001228D30228CD26
:1025A4001228D07F027E0012256B1228CA1228D36B
:1025B4007F027E0012256B1228CD7F027E00022549
:0125C4006BAB
:10273B00E4FDFC1225A40DBD00010CBC0EF5BD740F
:01274B00F29B
:01274C00226A
:0328D60002226E6D
:0328D9000220D703
:101AB80085443C85433B85423A854139E53EB4013E
:101AC80002C2B01228D6E5406003021B5C752201F1
:101AD800E47FE87E03FDFCAB3CAA3BA93AA839C3E6
:101AE8001207F64061E5226401705B7FDD7E031218
:101AF800200A120DC1E53C2418F53CE53B34FCF501
:101B08003BE53A34FFF53AE53934FFF539E4FFFEB1
:101B1800FDE539FC781812080790E7C4EFF0E4FFF8
:101B2800FEE53AFDE4FC7810120807A3EFF0E4FFA5
:101B3800E53BFEE4FDFC7808120807A3EFF0E53C5E
:101B4800FFA3EFF0808AE522B40112AE3BAF3C124E
:101B5800200A8009752201E522640160FA1228D959
:081B6800E53EB40102D2B022F7
:1023F400AD07AC06D3ED9400EC9400401E00000041
:10240400EE90E6D0F0000000ED90E6D1F000000080
:0C24140075BB04000000E5BB30E7FB22B4
:0821CB008C748D75AB07AA06A8
:1021D300E4FDFCC3ED9575EC95745022EA90E6D0CE
:1021E300F0000000EB90E6D1F000000075BB0500A5
:0E21F3000000E5BB30E7FB0DBD00010C80D500
:0122010022BA
:10244B00AD07AC06000000ED25E0EC3390E6D0F0D4
:10245B00000000ED25E090E6D1F000000075BB0414
:09246B00000000E5BB30E7FB2294
:10170D00C2031228C212283D7FD07E0712256B120C
:10171D0028C67FD07E0712256B12273B7547029096
:10172D00E7C0E547F0121AB875470390E7C0E547E3
:10173D00F03003030217E6E4F572F573C3E5739514
:10174D0028E5729527500D1225A40573E57370ECED
:10175D00057280E8E53DD39400400CE53DFD7C002D
:10176D00AF34AE331221CBD3E5249400E52394009E
:10177D004007AF24AE2312244BE4F570F571C3E599
:10178D0071954FE570954E502C122420E4F572F5AD
:10179D0073C3E57395357480F8657298500D1225F5
:1017AD00A40573E57370EA057280E60571E5717045
:1017BD00CD057080C9E4F572F573C3E573954CE5FD
:1017CD0072954B500D1225A40573E57370EC0572DF
:0917DD0080E8AF46AE451223F48A
:0117E60022E0
:10242000000000E53425E0E5333390E6D0F000000D
:1024300000E53425E090E6D1F000000075BB040013
:0B2440000000E5BB20E7033003F8229A
:10269B00E490E608F075C83443985053877FD2AC6A
:0726AB0075CBFF75CA642224
:0D278700309902C2998F993099FDC29922B4
:1024EA0090000020981CA3AF82AE83E4FCFD7BFA27
:1024FA007AFFF9F8C31207E05004D2008004C20040
:06250A0080E1C298AF99C8
:0125100022A8
:10247400E490E608F0D28E53897F5389BF438920C4
:102484005389EF438E10758DB243C05043D880C238
:08249400C0C2C1D2AED2AF22DA
:0D27940030C102C2C18FC130C1FDC2C122DF
:1025110090000020C01CA3AF82AE83E4FCFD7BFAD7
:102521007AFFF9F8C31207E05004D2008004C20018
:0625310080E1C2C0AFC151
:012537002281
:0428AE0075A00922E6
:0428B20075A00122EA
:0428B60075A00322E4
:0428BA0075A00222E1
:0428BE0075A00622D9
:0428C20075A00422D7
:07283D007FD07E0712256B1E
:0428440075A00C224D
:0428C60075A00822CF
:0D27A100E4F5A07525FF90E7CBE525F022BB
:101F18001228AE7F287E0A12256B1228B27F287EEF
:101F28000A12256B1228B67F287E0A12256B122802
:101F3800BA7F287E0A12256B1228BE7F287E0A12D5
:101F4800256B1228C27F287E0A12256B1228447F2F
:101F5800287E0A12256B1228C67F287E0A12256B56
:0A1F6800E4F52590E7CBE525F02213
:1020D7001228C612283D7FD07E0712256B1228C210
:1020E7007FD07E0712256B1228BE7FD07E07122570
:1020F7006B1228BA7FD07E0712256B1228B67FD0C5
:0F2107007E0712256B75250390E7CBE525F022A7
:10226E001228C61225671228441225671228C21298
:10227E0025671228BE12255D1228B6122567122870
:10228E00B21225671228AE12256775250190E7CB8D
:04229E00E525F02220
:1025FF001228AE1225671228B21225671228B612BA
:0C260F00255D75250290E7CBE525F02243
:101CAB009028F5E004F070069028F4E004F09028FA
:101CBB00F4E07004A3E0640870069028F4F0A3F03D
:101CCB009028F4E0FEA3E0FF4E700843A01053A051
:101CDB00DF805DEF64014E700543A0108009EF6457
:101CEB00024E700B53A0EF53A0DF43A0408055EF83
:101CFB0064034E700B53A0EF53A0DF43A040802032
:101D0B00EF64044E700B53A0EF53A0DF53A0BF80C2
:101D1B000FEF64054E700D53A0EF43A02053A0BFEF
:101D2B0043A08022EF64064E700B53A0EF43A0201C
:101D3B0053A0BF800FEF64074E700C43A01043A05D
:081D4B002053A0BF53A07F222A
:10258200E49028B2F0902922E0FF60156405601102
:10259200121CAB9028FBE004F070069028FAE004CD
:0225A200F02225
:1022A200902922E0FF602C640560289028FBE0045E
:1022B200F070069028FAE004F0121CAB9028FAE0C5
:1022C2007004A3E064A0700B9028FAF0A3F09029A8
:0422D2002104F022D1
:08289900E4F51DD2E9D2AF22E3
:1022380090E678E020E6F9C2E990E678E04480F09C
:10224800EF25E090E679F090E678E030E0F990E666
:1022580078E04440F090E678E020E6F990E678E00F
:0622680030E1D6D2E922AC
:10230A00A90790E678E020E6F9E51D702390E678C3
:10231A00E04480F0E925E090E679F08D18AF03A952
:10232A00077519018A1A891BE4F51C751D01D32248
:02233A00C322BC
:1022D600A90790E678E020E6F9E51D702590E678F6
:1022E600E04480F0E925E0440190E679F08D18AFEE
:1022F60003A9077519018A1A891BE4F51C751D03C4
:04230600D322C322F9
:03004B0002142874
:10142800C0E0C083C082C085C084C086758600C005
:10143800D075D000C000C001C002C003C006C007FC
:1014480090E678E030E206751D0602151290E678FF
:10145800E020E10CE51D64026006751D0702151207
:10146800E51D24FE605F14603624FE700302150338
:1014780024FC700302150F24086003021512AB192F
:10148800AA1AA91BAF1C051C8F827583001207427C
:1014980090E679F0E51C65187070751D05806B90F5
:1014A800E679E0AB19AA1AA91BAE1C8E82758300D7
:1014B80012076F751D02E5186401704E90E678E01A
:1014C8004420F08045E51824FEB51C0790E678E036
:1014D8004420F0E51814B51C0A90E678E04440F082
:1014E800751D0090E679E0AB19AA1AA91BAE1C8EEF
:1014F8008275830012076F051C800F90E678E04420
:1015080040F0751D008003751D005391DFD007D092
:1015180006D003D002D001D000D0D0D086D084D05D
:0815280085D082D083D0E032AF
:10261B001222D6E51D24FA600E146006240770F30F
:0C262B00D322E4F51DD322E4F51DD322D8
:1026370012230AE51D24FA600E146006240770F3BE
:0C264700D322E4F51DD322E4F51DD322BC
:03000000021B7070
:0C1B7000787FE4F6D8FD75817D021BB77C
:10064C00E709F608DFFA8046E709F208DFFA803E90
:10065C0088828C83E709F0A3DFFA8032E309F6087D
:10066C00DFFA8078E309F208DFFA807088828C83E5
:10067C00E309F0A3DFFA806489828A83E0A3F60899
:10068C00DFFA805889828A83E0A3F208DFFA804C73
:10069C0080D280FA80C680D4806980F2803380104A
:1006AC0080A680EA809A80A880DA80E280CA8033B3
:1006BC0089828A83ECFAE493A3C8C582C8CCC5832B
:1006CC00CCF0A3C8C582C8CCC583CCDFE9DEE780FB
:1006DC000D89828A83E493A3F608DFF9ECFAA9F07A
:1006EC00EDFB2289828A83ECFAE0A3C8C582C8CCD0
:1006FC00C583CCF0A3C8C582C8CCC583CCDFEADEE9
:10070C00E880DB89828A83E493A3F208DFF980CC4A
:10071C0088F0EF60010E4E60C388F0ED2402B40443
:10072C000050B9F582EB2402B4040050AF232345EA
:06073C00822390069C736D
:10074200BB010CE58229F582E5833AF583E022506C
:1007520006E92582F8E622BBFE06E92582F8E222B6
:0D076200E58229F582E5833AF583E49322D0
:10076F00F8BB010DE58229F582E5833AF583E8F0C0
:10077F00225006E92582C8F622BBFE05E92582C86C
:02078F00F22254
:10079100E88FF0A4CC8BF0A42CFCE98EF0A42CFC07
:1007A1008AF0EDA42CFCEA8EF0A4CDA8F08BF0A485
:1007B1002DCC3825F0FDE98FF0A42CCD35F0FCEBE4
:1007C1008EF0A4FEA9F0EB8FF0A4CFC5F02ECD39A9
:0F07D100FEE43CFCEAA42DCE35F0FDE43CFC2216
:10205000C2D5E830E70FB2D5E4C39BFBE49AFAE4BB
:1020600099F9E498F8EC30E717B2D51220861208F7
:10207000EDE4C39BFBE49AFAE499F9E498F8800351
:102080001208ED30D50DE4C39FFFE49EFEE49DFDF4
:04209000E49CFC22AE
:1007E000EB9FF5F0EA9E42F0E99D42F0EC6480C890
:0607F00064809845F02230
:1007F600EB9FF5F0EA9E42F0E99D42F0E89C45F059
:0108060022CF
:10080700E8600FECC313FCED13FDEE13FEEF13FFCF
:03081700D8F122F3
:10081A00E86010ECA2E713FCED13FDEE13FEEF13F4
:04082A00FFD8F022E1
:10082E00A8828583F0D083D0821208451208451223
:10083E000845120845E473E493A3C583C5F0C58348
:10084E00C8C582C8F0A3C583C5F0C583C8C582C814
:01085E002277
:10085F00D083D082F8E4937012740193700DA3A328
:10086F0093F8740193F5828883E47374029368603C
:06087F00EFA3A3A380DF3C
:10088500EF4E6012EF60010EEDBB010B89828A838A
:10089500F0A3DFFCDEFA2289F05007F709DFFCA997
:0C08A500F022BBFEFCF309DFFCA9F022EE
:101B7C00020FA6E493A3F8E493A34003F68001F2CA
:101B8C0008DFF48029E493A3F85407240CC8C3336A
:101B9C00C4540F4420C8834004F456800146F6DF39
:101BAC00E4800B0102040810204080901301E47EB5
:101BBC00019360BCA3FF543F30E509541FFEE4932E
:101BCC00A360010ECF54C025E060A840B8E493A3F5
:101BDC00FAE493A3F8E493A3C8C582C8CAC583CA20
:101BEC00F0A3C8C582C8CAC583CADFE9DEE780BED8
:0114270000C4
:1008B10075F008758200EF2FFFEE33FECD33CDCCFE
:1008C10033CCC58233C5829BED9AEC99E582984081
:1008D1000CF582EE9BFEED9AFDEC99FC0FD5F0D65E
:1008E100E4CEFBE4CDFAE4CCF9A88222B800C1B988
:1008F1000059BA002DEC8BF084CFCECDFCE5F0CBC6
:10090100F97818EF2FFFEE33FEED33FDEC33FCEBFE
:1009110033FB10D703994004EB99FB0FD8E5E4F9B9
:10092100FA227818EF2FFFEE33FEED33FDEC33FCA6
:10093100C933C910D7059BE99A4007EC9BFCE99A9A
:10094100F90FD8E0E4C9FAE4CCFB2275F010EF2FDF
:10095100FFEE33FEED33FDCC33CCC833C810D707DF
:100961009BEC9AE899400AED9BFDEC9AFCE899F81A
:0E0971000FD5F0DAE4CDFBE4CCFAE4C8F922AD
:00000001FF
