:021B3C00EFF8C0
:061B1E00000000D8FB22CC
:061B2400F07814021B1E04
:10192300908000E521D2E0121B246403121B24647F
:0B19330003121B24DFEFC2E0021B24A4
:10119400C243EE2F604A0ED3121973303A00908086
:1011A40000E521203A05D2E0121B246403121B241B
:1011B4006403121B24203A05C2E0121B24EFBE0173
:1011C40005C3940440045CB40112C3121973A9301A
:1011D4007840121B1ED9F9DFBEDEBC22DFC3DEC19C
:0711E400908002E523F022D8
:10185C00EE2F601E0E908000E521D2E0121B246456
:10186C0003121B246403121B24C2E0121B24DFEAA4
:03187C00DEE82281
:1016FF00A243923FC24312113AEE2F60140E908014
:10170F0000E5216403121B246403121B24DFF4DEA3
:0B171F00F21211EBC239A23F924322EC
:1011EB00E523908002D2E4F07828121B1EC2E4F0B3
:0511FB007828021B1E14
:10113A00D3121973908000E521D2E1F07817121BBF
:10114A001E204B25C2E0C2AFF0E523908002C2E028
:10115A00F0D2AF780C121B1ED2E0C2AFF090800022
:10116A00E521D2E1F0D2AF8013E523908002D2E1EB
:10117A00F0780C121B1EC2E1F09080007812121B4C
:0A118A001EE521F0D239C3021973EB
:101A8000908000E5216403121B246403121B24DFF1
:021A9000F4223E
:0C1AFE00908003E524C2E6F0D2E6F0225E
:10197300E5254004D2E68002C2E6908004F0F52516
:081983004001227805021B1E41
:100E3900907DC1E054F0B4F0061212A9020EBBB4C1
:100E49000005120D14806BB410051215DB8063B414
:100E59002005121393805BB430051217F08053B448
:100E690040051218A1804BB45005120FA88043B455
:100E79006005121A92803BB470051215A58033B42F
:100E89008005121014802BB49005120EC28023B471
:100E9900A005121AD3801BB4B0051215318013B402
:100EA900C00512193E800BB4D00512193E800312F9
:090EB9000F37907FC97400F0228C
:051B2A007406021940E1
:051B2F007415021940CD
:10193E007418C252753400901B4C858331858232E7
:0B194E00F0A37400F0F52C752D0122B1
:10187F00C252753400901B4C85833185823274A51A
:10188F00F0A3E516F0540F240354FE03F52D752C29
:02189F00002225
:101A9200901B4E7462F5167402F0A37441F00218A2
:011AA2007FC4
:0F1AC400901B4E7400F0A3F074E2F51602187F29
:1012A900A3E0A3B403030213E1B40A030213DFB4F6
:1012B9000003021AA3B401030213E1B402030213E7
:1012C900E3B40403021754B405030212F9B4060384
:1012D900021346B4070302172AB40805E0FF021AED
:1012E9006DB4090BE0FFA3E0FD12146D021B2A2265
:101A6D00121675901B4E74F2F5167408F0A3EFF074
:031A7D0002187FCD
:101AA3001217A4E0F512FEA3E0F513FF050A021BCB
:011AB3002A08
:1013DF00050A050A1217A4E0FEF512A3E0FFF513A4
:1013EF00C3E51D9420E51C9400500A204807E4B57E
:1013FF000A0302193ED252907DC2E0B40302800369
:10140F00B40A0F7C00907DC7E0FD14250AF50A127F
:07141F0010DA8E2C8F2D2244
:101754007400F50AE51C451D601B30480F9080009D
:1017640078007900E030E104D8FAD9F8121AFE754D
:081774001C00751D00021B2A78
:1012F9001217A4E0FCA3E0FDA3E0F8A3E0F9A3E042
:10130900FAA3E0FB901B4BECF0E525D2E1D2E0BC5F
:101319000306C2E0D2E18007BC0204C2E1D2E0F5D3
:1013290025908004F0901B48EDF0901B49E8F0A34C
:0D133900E9F0901B46EAF0A3EBF0021B2A3E
:10172A00907DC6E0FEA3E0FF907DC3E0B4000D30DB
:10173A003A051216FF801012185C800B3038051219
:0A174A001A42800312177C021B2ACA
:10134600907DC4E0FF7E00A3A3A3E0FCA3E0FD1212
:1013560010DA907DC3E0B40020303A08203905C287
:101366004312113A7C07907DC1E0907DC9540FB4B9
:101376000802E0FC121194801130380B203D031254
:0D138600160F1217CB800312177C021B2AD2
:1017A400907DC3E0B40009204A19D24A7D408007E5
:1017B400304A10C24A7D207F1012146D7DD87F00FC
:0717C40012146D907DC42298
:100F3700A3E0A3C3B400028038B401028011B40255
:100F470002802FB403028008B40403021AC422D318
:100F5700120F9D907DC6500CE584F8E0A3F608DFDC
:100F6700FA021B2AE0A30586F0A30586DFF6021B1B
:100F77002AD3120F9D901B4E7516E8500CE584F886
:100F8700E608F0A3DFFA02187F0586E0A30586F0DE
:100F9700A3DFF602187FE0FFA3E0F584A3E0F58561
:010FA7002227
:1016A600907F98E0C2E3F0C2E5F0F879C77B027A52
:1016B60008E933F9E8C2E45002D2E4F0D2E3F0C21A
:0D16C600E3F0DAEDEFF9DBE7E8D2E5F02222
:10142600907F98E0C2E3F0C2E5F0FB79A77A08E97D
:1014360033F9EBC2E45002D2E4F0D2E3F0C2E3F0B7
:10144600DAED7828000000D8FB7A087F00907F9BB1
:10145600E0C372E2EF33FF907F98EBD2E3F0C2E392
:07146600F0DAEAD2E5F02202
:10146D00C2AF907F98E0D2E3F0908003E524D2E400
:10147D00F0F524EFF9907F98E0F87B027A08E933D4
:10148D00F9E8C2E45002D2E4F0C2E3F0D2E3F0DABC
:10149D00EDEDF9DBE7908003E524C2E4F0F524D20D
:0214AD00AF226C
:1014AF00C2AFE520907F97FA7809EAC2E6F0791E7D
:1014BF00D9FEEAD2E6F0D3EF00007907D9FE33CA9E
:1014CF004008C2E6F0CAD8F28006D2E6F0CAD8EADF
:1014DF00D2AF907F997A03E030E105D8FADAF8C3FA
:0114EF0022DA
:10167500907F96E020E0047E0180027E008E0CEFD4
:101685006009907F96E054FEF0800B907F96E044D1
:1016950001F0A23A9243E50C70047F0180027F00BD
:0116A5002222
:100D1400C246907DC5E0540CF50CE030E424907D8F
:100D2400C3E0F539A3E0F53CE53854F34404F53861
:100D3400D24CE50C7047C24CE53854F34408F538FE
:100D4400803B907DC2E0F50BA3E0F511A3E0F5171D
:100D5400E53854FC4401F538D24FE50C700AC24F13
:100D6400E53854FC4402F538A23A9243C251C24ECB
:100D7400303A0AAF14EF651460FB1211EBE50CB4C2
:100D84000403121643E50CB4080312156B121B2A54
:100D9400C2AF907DC5E030E706D23CD251D24EA21C
:060DA40051B39246D2AFEC
:010DAA002226
:1015DB00C246907DC2E030E014E538540C602053D5
:1015EB0038F3304C1A12156B43380C8012E5385413
:1015FB0003600C5338FC304F0612156B433803D283
:04160B0046021B2A4E
:10139300C2AF907DC2E030E407E0A2E3925B803706
:1013A300C25BC255907DC3E0901B5CF0907DC2E0B0
:1013B30030E10BA3E0F510E4901B43F08019907D1E
:1013C300C2E030E00CD255907DC4E0901B43F08026
:0C13D30006901B437401F0D2AF021B2AED
:1017F000E4901B4EF030550204F0901B5CE0901B0F
:101800004FF0A3E515F0A37480F0A3E53AF0751648
:041810003502187F06
:1018A100C2AF907DC2E0F50DA3E0F508A3E0F50E0F
:1018B100A3E0F509C253A3E030E002D253D2AF0254
:0218C1001B2AE0
:100FA800121B2AC2AF907DC2E0F50C7F02C28E9060
:100FB8007DC4E0F4F58B907DC3E0F4F58DE58954AC
:100FC8000F4410F58953883FC28FC206907F97E57A
:100FD80020F0D28E308FFDDFD47F02D206907F972B
:100FE800E520F0C28E907DC6E0F4F58B907DC5E0DB
:100FF800F4F58DC28FD28E308FFDDFDFD50CACE5D6
:0B10080089540F4430F589C28ED2AF2E
:0110130022BA
:1015A500907DC2E02410547FF50CE030E715907D66
:1015B500C4E0FFAD0C121838901B4EEFF075167194
:1015C50002187F907DC4E0FF907DC3E0FBAD0C1257
:0615D500000E121B2A2289
:10101400121B2A907DC2E0FFC454C0F516E4F535D6
:10102400E516B44004D2058015E5167004C20580A7
:101034000DE516B4800575353F800375350FE53829
:10104400543F4516F538C204907DC2E030E402D224
:1010540004907F97E520F0907DC2E05403F516B428
:101064000103121643E516B4020312156BE516B418
:061074000303120DAB2284
:100EC200C2AFE53854CF901B4EF0305904E04410C5
:100ED200F0305707901B4EE04420F0305607901B2D
:100EE2004EE04430F0A204E433901B4FF0907F991F
:100EF200E020E107901B4FE04404F0E50D6007900D
:100F02001B4FE04410F0E5086007901B4FE04420BF
:100F1200F0E50E6007901B4FE04440F0E5096007E2
:100F2200901B4FE04480F0901B50E52FF0D2AF753C
:050F3200169302187F78
:10153100907DC2E0F50CE4F516F50C907DC2E0FF5C
:10154100E50CC39F501874C3250CF582E4347DF576
:1015510083E0FF1214AF50020516050C80DD901BCD
:0A1561004EE516F07516B102187F72
:0F1AD300121B2AC23E907DC2E030E002D23E22BA
:10107A001201000100000040970D01010100010268
:10108A00000109022000010100A000090400000279
:10109A00FF00000007058202400000070502024027
:1010AA000000040309040A035300420049004700F0
:1010BA001E035500530042002D00430041004D001D
:1010CA00200045006E00670069006E0065000000A0
:041B3800010204089A
:10052200901B6712110900000000C25DC23BC25459
:10053200C2401208AF7E107F7A8E188F19751A107A
:10054200751B8C751E10751FACEE54E0700302060D
:1005520086901B6BE4F0A37480F0A3EEF0A3EFF09F
:10056200C374D89FFF74109ECF2402CF3400FEE4E0
:10057200FCFD901B631210FD901B5D12110900001F
:100582000000901B63E0FCA3E0FDA3E0FEA3E0FFFC
:10059200901B5DE0F8A3E0F9A3E0FAA3E0FBC3122D
:1005A20010EC503A901B5FE0FEA3E0FF901B6BE063
:1005B200FCA3E02FF582EC3EF58374CDF0901B5D39
:1005C200E0FCA3E0FDA3E0FEA3E02401FFE43EFE85
:1005D200E43DFDE43CFC901B5D1210FD80A4901BE9
:1005E2005D12110900000000901B63E0FCA3E0FD16
:1005F200A3E0FEA3E0FF901B5DE0F8A3E0F9A3E017
:10060200FAA3E0FBC31210EC5049901B5FE0FEA37B
:10061200E0FF901B6DE0FCA3E02FF582EC3EF5833A
:10062200E0FD901B6BE0FAA3E02FF582EA3EF58332
:10063200EDF0901B5DE0FCA3E0FDA3E0FEA3E0244F
:1006420001FFE43EFEE43DFDE43CFC901B5D121024
:10065200FD8095901B6BE0F518A3E0F519747A24E0
:1006620080FF741034FFFE901B61F0A3EFF0C3E52E
:100672001B9FF51BE51A9EF51AC3E51F9FF51FE5A3
:100682001E9EF51ED2E843D820907F95E044C0F02C
:10069200907FAFE04401F0907FAEE0441DF0907F88
:1006A200ADE04404F0D2AF1207372040522040059B
:1006B200D25E121258901B67121109000000007FCF
:1006C200407E927D047C00901B67E0F8A3E0F9A3D2
:1006D200E0FAA3E0FBC31210EC50CF2040CC901BF9
:1006E20067E0FCA3E0FDA3E0FEA3E02401FFE43EFB
:1006F200FEE43DFDE43CFC901B671210FD80C0E56A
:100702008E54F84401F58E304005120302C2403087
:100712005D12C25D1218E5203B07907FD6E020E70C
:10072200F3121959120C47120C47120C47120C47BC
:05073200120C4780D20B
:10030200907FE9E070030203E114700302045524B4
:10031200FE70030204C424FB70030203DB147003A7
:100322000203D51470030203C91470030203CF241D
:10033200056003020513907FEBE024FE6016146053
:100342004224027078E518907FD4F0E519907FD5A9
:10035200F002051A907FEAE0FF1214F0AA06A9073C
:100362007B018B3D8A3E893FEA49600DEE907FD446
:10037200F0EF907FD5F002051A907FB4E04401F0CF
:1003820002051A907FEAE0FF1216D3AA06A9077B9C
:10039200018B3D8A3E893FEA496018EE907FD4F096
:1003A200EF907FD5F0E4907FB5F0907FB47402F0C7
:1003B20002051A907FB4E04401F002051A907FB45E
:1003C200E04401F002051A121AF002051A121B1675
:1003D20002051A12000302051A121AE202051A9005
:1003E2007FE8E0247F60241460312402705BA23B2A
:1003F200E433FF25E0FFA254E4334F907F00F0E4A2
:10040200A3F0907FB57402F002051AE4907F00F029
:10041200A3F0907FB57402F002051A907FECE0F42D
:100422005480FFC4540FFFE054072F25E024B4F595
:1004320082E4347FF583E05401907F00F0E4A3F07E
:10044200907FB57402F002051A907FB4E04401F087
:1004520002051A907FE8E024FE601D240260030278
:10046200051A907FEAE0B40105C23B02051A907FAB
:10047200B4E04401F002051A907FEAE0703B907FFD
:10048200ECE0F45480FFC4540FFFE054072F25E042
:1004920024B4F582E4347FF583E4F0907FECE054F9
:1004A20080FF131313541FFFE054072F907FD7F0E0
:0304B200E4F5402E
:1004B500E04420F0805F907FB4E04401F0805690E6
:1004C5007FE8E024FE60182402704A907FEAE0B4D9
:1004D5000104D23B803F907FB4E04401F080369028
:1004E5007FEAE07020907FECE0F45480FFC4540F65
:1004F500FFE054072F25E024B4F582E4347FF5832B
:100505007401F08010907FB4E04401F08007907F83
:0C051500B4E04401F0907FB4E04402F038
:0105210022B7
:03003300021B3479
:041B340053D8EF3261
:0D00360000170B0907070605090A0A0CFF51
:10181400052E7E00E52E54032438F582EE341BF5A4
:1018240083E493FFE52454F0FEEF4EF52490800307
:04183400E524F02295
:100DAB00753503C249D227908003E524F0E4F5168C
:100DBB00F536752FFF7D64E516C3947050481218F5
:100DCB001485140CC3E514950CC39D40F77D05E504
:100DDB00366013FF0536EFC3940340DBE52E20E0AE
:100DEB00D6752F098020908000E0139259AF16051D
:100DFB0016EFC3940C40083044053059020536A257
:100E0B0059B3924480B1532EFED259C244C257C239
:100E1B00567536FFD249C227908003E524F0E5369C
:0D0E2B0070FCE4F535D205907F97E520F0CE
:010E38002297
:10164300C249305604D25A8026C25A305921D25741
:10165300C259E52E5403901B3893FFE52454F0FE42
:10166300EF4EF524908003E524F0E4F536F537D208
:0216730049220A
:10156B00C249305704D24D802EC24D304429D25639
:10157B00C244C207907F97E520F0E52E5403901BE1
:10158B003893FFE52454F0FEEF4EF524908003E5ED
:0A159B0024F0E4F536F537D24922BA
:03000B00020046AA
:10004600C0E0C0F0C083C082C0D075D000C000C080
:0D00560001C002C003C004C005C006C00701
:10006300901B42E004F0E0540760030202C72049FA
:100073000302012F20570620560302011F20560FAB
:10008300E537700B901B44E06409600302012FE520
:10009300367071908000E0139245E5377005750F57
:1000A300FF801C302719A245304201B3501130574D
:1000B3000830420B85370F800620420385370FC275
:1000C30027A24592421218140537E537900036935C
:1000D300F536E537640C7054908003E524F0850F02
:1000E3002F305714D244C257D207907F97E520F0A0
:1000F300304D3912156B8034D259C256305A2D12F5
:10010300164380281536E536B40121E537C3940735
:10011300401AD227908003E524F08010E536600C66
:10012300D536095324F0908003E524F0303E75C2A0
:100133002E908004E525F09080027401F0741DF088
:100143007419F09080007474F0908001747FF075DE
:100153003D04908000748FF09080017441F0908092
:10016300027419F0D53DEB753D04908001E4F090E5
:1001730080027410F0D53DF29080007474F090808A
:1001830001747FF09080027401F0908000E521F00B
:10019300908001E522F0908002E523F0D22E90803A
:1001A30004E525F0305117303C07C23C1211EB80B7
:1001B3000DAF171517EF7006C251D2468063901B1F
:1001C30044E004F0E0640A60030202C7F00514E5AA
:1001D300147006901B45E004F0D25020460302023F
:1001E30073E5385403FFBF01082059033044020567
:1001F30038E5385403FFBF021DAF171517EF70160C
:10020300AF111511EF700FAF0B150BEF7008304FD7
:100213001012156B0538E5385403FFBF030E305930
:100223000B304E05C24312113A5338FCE538540CD7
:10023300FFBF040C20440330590674042538F538F5
:10024300E538540CFFBF081AAF3C153CEF7013AFF1
:10025300391539EF700C304C1412156B74042538B2
:10026300F538E538540CFFBF0C063059035338F307
:10027300305306E514540F7035753D00E50D6005E8
:10028300433D01150DE5086005433D021508E50EE4
:100293006005433D04150EE5096005433D08150956
:1002A300E52054F0453DF520907F97E520F0E535B6
:1002B300600655147002B205907F97E520F0E514AF
:1002C300543F600330581D30431AB208B20990807E
:1002D30000E521F0753D04D53DFDB208B2099080DB
:0402E30000E521F021
:1002E700D007D006D005D004D003D002D001D0006B
:0B02F700D0D0D082D083D0F0D0E03215
:101AB400040103000505000301000200FFFFFEFE10
:1008AF00D23B907F92E054FDF0E4907FE2F0F5862A
:1008BF00907F9574C3F0907F9E74FBF0907F93743C
:1008CF0028F0E4907F94F0907F9C747DF0907F9659
:1008DF007401F0907F9D74FFF0907F977430F090CB
:1008EF007FDD7409F0907FA1E04401F0907FB27436
:1008FF0000F0A37446F0907FAFE04406F0758C06CD
:10090F00E58954F84402F589538EF7D28CD2A97534
:10091F002460908003E524F0AF3A1216A6D2069019
:10092F007F97E520F0753840D24675230175217405
:10093F0075227F752503908000E521F0908001E5F9
:10094F0022F0908002E523F0908004E525F090805E
:10095F0010E526F0901B487401F07D0C7F401214B7
:10096F006DE4FD7F7012146D7DD8E4FF12146D7D60
:10097F00407F1012146DD24A7D0C7F2012146D7DB2
:10098F001E7F5012146D7D1E7F3012146DE4FD7F9B
:04099F006002146D71
:10073700908006E4F0A3740AF0908008E4F0A374B4
:1007470009F090800AE4F0A304F0D22E908004E52B
:1007570025F0D22FE525F085140C908000E030E1DC
:100767000AC3E514950CD3940A40EF121AFE120D32
:10077700AB7F01121675753304E4901B49F0A3F0A3
:10078700750C02E50C2410FD7FA0121838901B4A47
:10079700E02FF0901B49E03400F0050CE50CC39402
:1007A7002040E07D117FA0121838EFFE901B4AE031
:1007B7002400F0901B49E03EF07D107FA01218380E
:1007C700901B4AE02FF0901B49E03400F0E0F470F2
:1007D70003A3E0F4702F7D137FA01218388F337DA9
:1007E700167FA01218388F0D7D1A7FA01218388F28
:1007F7000E7D247FA01218388F0CE50C139238E574
:100807000CA2E2924BE53324FB601524FB6016240F
:10081700FE6017146021146023800075301880254E
:100827007530308020753010801B753046D22D9082
:100837008004E525F0800E7530208009753034D2AC
:100847003AD208D243E50C30E50A901B5C746FF08E
:10085700D2558008121426901B5CEFF0E4F50CE5E6
:100867000EC394804003750C01E50C2450FFE50E80
:1008770025E0FD12146DE4F50CE50DC394804003EB
:10088700750C01E50C2460FFE50D25E0FD12146DE4
:10089700E4F50EF50DA238922A908004E525F0D2F2
:0808A70004907F97E520F02288
:100B73001214268F15205503020C1BE4FD901B5CF9
:100B8300E0FCC3951540027DFFE514547FFFBF04CD
:100B930017ED600C901B43E0F4600DE004F0800857
:100BA300901B43E0600214F0E5145407707CED6081
:100BB30030ECC39515F53EE49400F53DE53EAE3DBE
:100BC3007803C333CE33CED8F9F53E8E3D901B4325
:100BD300E0FB7E00253EEE353D7039EB253EFD8082
:100BE30033ECFFE515C39FF53EE49400F53DE53E88
:100BF300AE3D7803C333CE33CED8F9F53E8E3D9068
:100C03001B43E0FFFBC3E53E9BE53D94005005C35A
:100C1300EF953EFD8D108012901B43E0600CE514B0
:100C230054077006E51060021510E510D3953A409D
:100C330002053AE510C3953A5002153AAF3A121637
:030C4300A6C250F6
:010C4600228B
:100C4700305C3F907DC0E0F50CA3E0FFC4540FF586
:100C570016E50CB4A509E516901AB493B4FF05126E
:100C6700193E801CE516901AB493FF907DC1E0549D
:100C77000F6F6004EFB4FE05120E398003121B2FAD
:100C8700C25C30522FE534702BC3E52D951DE52C42
:100C9700951C5011E52DAE2C7805CEC313CE13D875
:100CA700F9F534800FE51DAE1C7805CEC313CE13BE
:100CB700D8F9F534538EF8120A92058E30480F1280
:100CC70009A3A24792475021C248C247801BE50AA1
:100CD7006017E51D2513FFE51C3512FED3EF9400C1
:100CE700EE94105004D248150A305006205B0312C8
:100CF7000B73E5385403FFBF0210E511D39400507E
:0D0D070006E50B94004003C25822D258228A
:08000300907FEAE0F544D322EE
:0E1AE200907F00E544F0907FB57401F0D322B0
:081B1600907FEAE0F543D322C1
:0E1AF000907F00E543F0907FB57401F0D322A3
:10198B00C0E0C083C082D2405391EF907FAB740113
:08199B00F0D082D083D0E032CD
:1019EA00C0E0C083C0825391EF907FAB7404F0D003
:0619FA0082D083D0E03230
:101A0000C0E0C083C0825391EF907FAB7402F0D0EE
:061A100082D083D0E03219
:101A1600C0E0C083C0825391EF907FAB7410F0D0CA
:061A260082D083D0E03203
:1019A300C0E0C083C082D25D5391EF907FAB7408D7
:0819B300F0D082D083D0E032B5
:1019BB00C0E0C083C082D25C5391EF907FAA7404C5
:0819CB00F0D082D083D0E0329D
:100A9200907FB8E020E114E53460081534792078BD
:100AA200208026E52D7005E52C7001227820E52DA9
:100AB200C398E52C94005002A82DE8F9305270E555
:100AC2001DC398E51C940040E2907FE27450F074DC
:100AD20000907FE4F0747E907FE3F0907FE57420D5
:100AE20098702C7802C2AFF0F0F0F0F0F0F0F0F075
:100AF200F0F0F0F0F0F0F0F0F0F0F0F0F0F0F0F0F4
:100B0200F0F0F0F0F0F0F0D8DED2AF8008C2AFF033
:100B1200F0D8FCD2AF907FE27400F0907FB9E9295F
:100B2200F0C3E51D99F51DE51C9400F51C802F8589
:100B320032848531857400907FE4F0747E907FE387
:100B4200F0907FE5C2AF0586E0A30586F00586E05A
:100B5200A30586F0D8F0D2AF907FB9E929F0858459
:100B620032858531E52DC399F52DE52C9400F52CC0
:010B72002260
:011B3E003274
:1009A300E53B24F97003020A5D24076003020A9100
:1009B300204803020A91C2AFC22F908004E525F0BC
:1009C3007F05121B3CC22E908004E525F0304A1FA0
:1009D300303A12C243304E031211EB901B48E0FF32
:1009E300121A80801F901B48E0FF121923801530D4
:1009F300380A901B48E0FF121A2C8008901B48E02D
:100A0300FF121906901B49E0FEA3E0FF8E45F54651
:100A1300901B46E0FCA3E0FDEF2DFBEE3CCB251342
:100A2300F546EB3512F545908006F0A3E546F0C395
:100A33009FF546E5459EF545908008F0A3E546F011
:100A430090800AECF0A3EDF0D22E908004E525F01F
:100A5300D22FE525F0D2AF753B07908000E020E16F
:100A63002DE513251DF51DE512351CF51CE50A6062
:100A730018E51D2513FFE51C3512FED3EF9400EE98
:0E0A830094105005150A0209B9E4F53BD2475C
:010A91002242
:101A5800C3907FA57800E020E003D8FA2220E2FCBA
:051A680030E1F9D3227A
:1018C300C2AF907FA57480F0907FA6EF54FEF01214
:1018D3001A58500D7400F0907FA6EDF0121A58506C
:0218E3000022E1
:10000E001218C35009907FA6EBF0121A58C3907FB6
:10001E00A57440F05008907FA6E0FF907FA5E020E9
:05002E00E6FCD2AF2248
:101838001218C3501B7480F0907FA6EF54FE440129
:10184800F0121A58500A7420F0907FA6E0121A5825
:04185800D302001C9B
:101A2C00908001E522C2E4F06403C2E4F0D2E4F059
:061A3C00DFF8E522F022B4
:1017CB00EF2E601DD3121973908001E5220E641861
:1017DB00F06403F06418F06403F0DFF2DEF0E5224E
:0517EB00F0C3021973B8
:101A4200908002E523D2E3F07805121B1EC2E3F078
:061A520012160FC23D2236
:10160F00908001E5227D7D7C0B7B10C2AF6BF06C6F
:10161F00F06BF06CF06BF06CF06BF06CF06BF06CDF
:10162F00F06BF06CF06BF06CF06BF06CF0DDDED209
:04163F00AFD23D22C7
:10177C00EE2F6020D3121973908001E5220EC2E582
:10178C00F0C2E3F06403F0D2E3F06403F0DFF2DEC6
:08179C00F0E522F0C30219730D
:10190600908001E522C2E5F0C2E3F06403F030E323
:0D19160003C2E3F0D2E3F0DFF5E522F0229A
:10195900907FD6E030E712E04401F07F147E001258
:0A19690019D3907FD6E054FEF0225F
:1018E500907FD6E04480F04387010000000000228D
:07125800907FD6E04408F08E
:03125F00E4F53D76
:04126200E054FBF069
:03126600E4F53D6F
:10126900E04408F0305E04E04402F07FDC7E0512C1
:1012790019D3907F92E030E3077FDC7E051219D302
:10128900907FAB74FFF0907FA9F0907FAAF0539103
:08129900EF907FD6E054F7F05E
:0312A100E4F53D34
:0512A400E04404F0220B
:0216D300A90765
:1016D500AE1EAF1F8F828E83A3E064037017AD012A
:1016E50019ED7001228F828E83E07C002FFDEC3E88
:0916F500FEAF0580DF7E007F00DE
:0116FE0022C9
:0214F000AD0746
:1014F200E4FCAE1AAF1B8F828E83A3E06402702AD3
:10150200AB040CEBB50501228F828E83A3A3E0FA14
:10151200A3E08A41F5426241E5416242E54262410D
:0E1522002FFBE5413EFEAF0380CC7E007F0034
:011530002298
:1019D3008E3E8F3FE53F153FAE3E7002153E4E6093
:0719E300051218F580EE2249
:1018F5007400F58690FDA57C05A3E582458370F906
:0119050022BF
:03004300021200A6
:1012000002198B00021A00000219EA000219A30059
:10121000021A1600021B3E00021B3E00021B3E008B
:10122000021B3E00021B3E00021B3E000219BB00D7
:10123000021B3E00021B3E00021B3E00021B3E0042
:10124000021B3E00021B3E00021B3E00021B3E0032
:08125000021B3E00021B3E00E0
:03000000021B0AD6
:0C1B0A00787FE4F6D8FD758146020522C4
:1010DA00EF8DF0A4A8F0CF8CF0A428CE8DF0A42E2A
:0210EA00FE22E4
:1010EC00EB9FF5F0EA9E42F0E99D42F0E89C45F05A
:0110FC0022D1
:0C10FD00ECF0A3EDF0A3EEF0A3EFF02266
:10110900A8828583F0D083D0821211201211201277
:101119001120121120E473E493A3C583C5F0C5839C
:10112900C8C582C8F0A3C583C5F0C583C8C582C830
:011139002293
:00000001FF
