:021B1D00EFF8DF
:061AFF00000000D8FB22EC
:061B0500F0A83C021AFFEB
:1018E800908000E521D2E16403121B056403121BFA
:1018F80005DFF42043056403121B0554FC021B0595
:10117800C240EE2F604D0ED312193D304B009080C7
:1011880000E521204B05D2E0121B056403121B0564
:101198002043086403121B05204B0554FC121B0551
:1011A800EFBE0105C3940440045CB40112C31219D4
:1011B8003DA9307840121AFFD9F9DFBBDEB922DF2A
:0A11C800C0DEBE908002E524F02294
:10178800EE2F60210E908000E521D2E0121B056447
:1017980003121B052043056403121B0554FC121B8E
:0617A80005DFE7DEE5228B
:10173500A240923CC24012104BEE2F60140E9080D6
:1017450000E5216403121B056403121B05DFF4DEAB
:0B175500F2121A22C24AA23C9240226B
:101A2200E524908002D2E4F07828121AFFC2E4F092
:051A32007828021AFFF4
:10104B00C2AFD312193D908000E521204204D2E1BA
:10105B008002D2E0F0783A121AFF203F2B20420494
:10106B00C2E08002C2E1F0E524908002C2E0F07899
:10107B0008121AFFD2E0F0908000E521204204D242
:10108B00E18002D2E0F08013E524908002D2E1F0FF
:10109B007808121AFFC2E1F09080007812121AFF42
:0B10AB00E521F0D24AD2AFC302193D8C
:101A5F00908000E5216403121B056403121B05DF50
:021A6F00F4225F
:0C1ADF00908003E525C2E6F0D2E6F0227C
:10193D00E5264004D2E68002C2E6908004F0F5264A
:08194D004001227805021AFF97
:100ECA00907DC1E054F0B4F0061211D2020F4CB476
:100EDA000005120D99806BB410051215AF8063B42A
:100EEA002005121358805BB430051217D38053B40F
:100EFA004005121883804BB45005121B0B8043B473
:100F0A006005121A71803BB470051212CA8033B49C
:100F1A008005120E38802BB49005120F538023B42B
:100F2A00A005121617801BB4B00512153B8013B426
:100F3A00C005121908800BB4D005121908800312D3
:090F4A000FD2907FC97400F0225F
:051B0B00740602190A36
:051B1000741502190A22
:101908007418C252753300901B4B8583318582321F
:0B191800F0A37400F0F52C752D0122E7
:10183F00C252753300901B4B85833185823274A55C
:10184F00F0A3E516F0540F240354FE03F52D752C69
:02185F00002265
:101A7100901B4D7462F5167402F0A37409F00218FC
:011A81003F25
:0F1AB400901B4D7400F0A3F074E2F51602183F7A
:1011D200A3E0A3B403030213A6B40A030213A4B444
:1011E2000003021A93B401030213A6B4020302130A
:1011F200A8B40403021760B4050302127DB4060307
:10120200021432B40703021861B40805E0FF021A9F
:101212004CB4090BE0FFA3E0FD121477021B0BB4E0
:0A1222000B04E0021A8202190822F0
:101A4C0012167C901B4D74F2F5167408F0A3EFF08F
:031A5C0002183F2E
:101A8200B40007A24B9240021B0BA24B925E021BB8
:011A92000B48
:101A93001216ADE0F511FEA3E0F512FF050B021BD4
:011AA3000B37
:1013A400050B050B1216ADE0FEF511A3E0FFF512D7
:1013B400C3E51D9420E51C9400500A204707E4B5BA
:1013C4000B03021908D252907DC2E0B403028003D9
:1013D400B40A0F7C00907DC7E0FD14250BF50B12B9
:0713E40011188E2C8F2D2241
:101760007400F50BE51C451D601B30470F90800091
:1017700078007900E030E104D8FAD9F8121ADF7560
:081780001C00751D00021B0B8B
:10127D001216ADE0FCA3E0FDA3E0F8A3E0F9A3E0B6
:10128D00FAA3E0FB901B4AECF0E526D2E1D2E0BCDC
:10129D000306C2E0D2E18007BC0204C2E1D2E0F550
:1012AD0026908004F0901B47EDF0901B48E8F0A3CA
:0D12BD00E9F0901B45EAF0A3EBF0021B0BDB
:10186100907DC6E0FEA3E0FF907DC3E0B4000D30A3
:101871004B0512173580081217888003121A0C02C3
:021881001B0B3F
:10143200907DC4E0FF7E00A3A3A3E0FCA3E0FD1225
:101442001118907DC3E0B40020304B08204A05C239
:101452004012104B7C07907DC1E0907DC9540FB4BF
:101462000802E0FC1211788009203A031215E312F7
:0514720017AE021B0B88
:1016AD00907DC3E0B52E028022F52EB40006D249FE
:1016BD007D40800BC249B401047D2080027D107FE6
:0F16CD00101214777DD87F00121477907DC422FD
:100FD200A3E0A3C3B40002803CB401028011B402B6
:100FE200028033B403028008B40403021AB422D389
:100FF200121040907DC6500CE584F8E0A3F608DF9D
:10100200FA021B0BC2AFE0A30586F0A30586DFF64A
:10101200D2AF021B0BD3121040901B4D7516E85035
:101022000CE584F8E608F0A3DFFA02183FC2AF0528
:1010320086E0A30586F0A3DFF6D2AF02183FE0FFF9
:09104200A3E0F584A3E0F585228A
:1016DC00907F98E0C2E3F0C2E5F0F879C77B027A1C
:1016EC0008E933F9E8C2E45002D2E4F0D2E3F0C2E4
:0D16FC00E3F0DAEDEFF9DBE7E8D2E5F022EC
:1013EB00907F98E0C2E3F0C2E5F0FB79A77A08E9B9
:1013FB0033F9EBC2E45002D2E4F0D2E3F0C2E3F0F3
:10140B00DAED7828000000D8FB7A087F00907F9BEC
:10141B00E0C372E2EF33FF907F98EBD2E3F0C2E3CD
:07142B00F0DAEAD2E5F0223D
:10147700C2AF907F98E0D2E3F0908003E525D2E4F5
:10148700F0F525EFF9907F98E0F87B027A08E933C9
:10149700F9E8C2E45002D2E4F0C2E3F0D2E3F0DAB2
:1014A700EDEDF9DBE7908003E525C2E4F0F525D201
:0214B700AF2262
:1014B900C2AFE520907F97FA7809EAC2E6F0791E73
:1014C900D9FEEAD2E6F0D3EF00007907D9FE33CA94
:1014D9004008C2E6F0CAD8F28006D2E6F0CAD8EAD5
:1014E900D2AF907F997A03E030E105D8FADAF8C3F0
:0114F90022D0
:10167C00907F96E020E0047E0180027E008E0DEFCC
:10168C006009907F96E054FEF0800B907F96E044CA
:10169C0001F0A24B9240E50D70047F0180027F00A7
:0116AC00221B
:100D9900C244907DC5E0540CF50DE030E42C907D03
:100DA900C3E0F538A3E0F53DE53754F34404F537DE
:100DB900D24CA3E030E603E4F50DE50D7047C24CD3
:100DC900E53754F34408F537803BA24B9240907DB8
:100DD900C2E0F50CA3E0F510A3E0F517E53754FCE4
:100DE9004401F537D24FE50D700AC24FE53754FC7F
:100DF9004402F537C251C24E304B0AAF13EF6513A7
:100E090060FB121A22E50DB4040312164AE50DB46B
:100E19000803121575121B0BC2AF907DC5E030E7B0
:0E0E290006D239D251D24EA251B39244D2AF6A
:010E37002298
:1015AF00C244907DC2E030E014E537540C60205304
:1015BF0037F3304C1A12157543370C8012E5375438
:1015CF0003600C5337FC304F06121575433703D2A7
:0415DF0044021B0B9C
:10135800C2AF907DC2E030E407E0A2E3925B803741
:10136800C25BC255907DC3E0901B5BF0907DC2E0EC
:1013780030E10BA3E0F53AE4901B43F08019907D2F
:10138800C2E030E00CD255907DC4E0901B43F08061
:0C13980006901B437401F0D2AF021B0B47
:1017D300E4901B4DF030550204F0901B5BE0901B2E
:1017E3004EF0A3E515F0A37480F0A3E53AF0751667
:0417F3003502183F64
:10188300C2AF907DC2E0F50EA3E0F508A3E0F50F2B
:10189300A3E0F509C253A3E030E002D253D2AF0272
:0218A3001B0B1D
:1012CA00907DC2E02410547FF50DE030E715907D43
:1012DA00C4E0FFAD0D12181B901B4DEFF07516718F
:1012EA0002183F907DC4E0FF907DC3E0FBAD0D1274
:0612FA00000E121B0B2286
:100E3800121B0B907DC2E0FFC454C0F516E4F534D4
:100E4800E516B44004D2058015E5167004C2058085
:100E58000DE516B4800575343F800375340FE5370A
:100E6800543F4516F537C204907DC2E030E402D203
:100E780004907F97E520F0907DC2E05403F516B406
:100E8800010312164AE516B40203121575E516B4E5
:100E98000303120CEB907DC2E0FFC4135403F51654
:100EA80064016005E516B4030B301708C21790807B
:100EB80010E522F0E516B40208D217908010E5225A
:020EC800F02216
:100F5300C2AFE53754CF901B4DF0305904E0441035
:100F6300F0305707901B4DE04420F0305607901B9C
:100F73004DE04430F0A204E433901B4EF0907F998F
:100F8300E020E107901B4EE04404F0301707901B6C
:100F93004EE04408F0E50E6007901B4EE04410F06D
:100FA300E5086007901B4EE04420F0E50F600790D2
:100FB3001B4EE04440F0E5096007901B4EE044807F
:0F0FC300F0901B4FE50AF0D2AF75169302183F5E
:10153B00907DC2E0F50DE4F516F50D907DC2E0FF50
:10154B00E50DC39F501874C3250DF582E4347DF56A
:10155B0083E0FF1214B950020516050D80DD901BB8
:0A156B004DE516F07516B102183FA9
:10161700121B0BC23B907DC2E030E002D23B907DB3
:10162700C2E030E314E52F5403901B1993FFE5251F
:1016370054F0FEEF4EF52580035325F0908003E527
:0316470025F02269
:1010B6001201000100000040970D0101010001022C
:1010C600000109022000010100A00009040000023D
:1010D600FF000000070582024000000705020240EB
:1010E6000000040309040A035300420049004700B4
:1010F60020035500530042002D00430041004D00DF
:10110600200045006E00670069006E006500320031
:021116000000D7
:041B190001020408B9
:1004FD00901B6612114700000000C25DC238C25445
:10050D00C23D12088C7E107FB68E188F19751A1089
:10051D00751BC8751E10751FE8EE54E070030206BA
:10052D0061901B6AE4F0A37480F0A3EEF0A3EFF0EA
:10053D00C374169FFF74119ECF2402CF3400FEE4C6
:10054D00FCFD901B6212113B901B5C1211470000C9
:10055D000000901B62E0FCA3E0FDA3E0FEA3E0FF22
:10056D00901B5CE0F8A3E0F9A3E0FAA3E0FBC31253
:10057D00112A503A901B5EE0FEA3E0FF901B6AE04B
:10058D00FCA3E02FF582EC3EF58374CDF0901B5C5F
:10059D00E0FCA3E0FDA3E0FEA3E02401FFE43EFEAA
:1005AD00E43DFDE43CFC901B5C12113B80A4901BD0
:1005BD005C12114700000000901B62E0FCA3E0FDFF
:1005CD00A3E0FEA3E0FF901B5CE0F8A3E0F9A3E03D
:1005DD00FAA3E0FBC312112A5049901B5EE0FEA363
:1005ED00E0FF901B6CE0FCA3E02FF582EC3EF58361
:1005FD00E0FD901B6AE0FAA3E02FF582EA3EF58359
:10060D00EDF0901B5CE0FCA3E0FDA3E0FEA3E02475
:10061D0001FFE43EFEE43DFDE43CFC901B5C121149
:10062D003B8095901B6AE0F518A3E0F51974B6248C
:10063D0080FF741034FFFE901B60F0A3EFF0C3E554
:10064D001B9FF51BE51A9EF51AC3E51F9FF51FE5C8
:10065D001E9EF51ED2E843D820907F95E044C0F051
:10066D00907FAFE04401F0907FAEE0441DF0907FAD
:10067D00ADE04404F0D2AF120712203D52203D05EB
:10068D00D25F12122C901B66121147000000007FE2
:10069D00407E927D047C00901B66E0F8A3E0F9A3F8
:1006AD00E0FAA3E0FBC312112A50CF203DCC901BE2
:1006BD0066E0FCA3E0FDA3E0FEA3E02401FFE43E21
:1006CD00FEE43DFDE43CFC901B6612113B80C0E551
:1006DD008E54F84401F58E303D051202DDC23D30D9
:1006ED005D12C25D1218C7203807907FD6E020E753
:1006FD00F3121923120C21120C21120C21120C21B0
:05070D00120C2180D256
:1002DD00907FE9E070030203BC1470030204302424
:1002ED00FE700302049F24FB70030203B614700317
:1002FD000203B01470030203A41470030203AA24B2
:10030D000560030204EE907FEBE024FE601614609E
:10031D004224027078E518907FD4F0E519907FD5CE
:10032D00F00204F5907FEAE0FF1214FAAA06A9077D
:10033D007B018B3E8A3F8940EA49600DEE907FD468
:10034D00F0EF907FD5F00204F5907FB4E04401F01A
:10035D000204F5907FEAE0FF121709AA06A9077BB0
:10036D00018B3E8A3F8940EA496018EE907FD4F0B8
:10037D00EF907FD5F0E4907FB5F0907FB47402F0EC
:10038D000204F5907FB4E04401F00204F5907FB4CF
:10039D00E04401F00204F5121AD10204F5121AF725
:1003AD000204F51200030204F5121AC30204F590BB
:1003BD007FE8E0247F60241460312402705BA23852
:1003CD00E433FF25E0FFA254E4334F907F00F0E4C7
:1003DD00A3F0907FB57402F00204F5E4907F00F075
:1003ED00A3F0907FB57402F00204F5907FECE0F479
:1003FD005480FFC4540FFFE054072F25E024B4F5BB
:10040D0082E4347FF583E05401907F00F0E4A3F0A3
:10041D00907FB57402F00204F5907FB4E04401F0D2
:10042D000204F5907FE8E024FE601D2402600302C3
:10043D0004F5907FEAE0B40105C2380204F5907F1F
:10044D00B4E04401F00204F5907FEAE0703B907F48
:10045D00ECE0F45480FFC4540FFFE054072F25E067
:10046D0024B4F582E4347FF583E4F0907FECE0541E
:10047D0080FF131313541FFFE054072F907FD7F005
:03048D00E4F54152
:10049000E04420F0805F907FB4E04401F08056900B
:1004A0007FE8E024FE60182402704A907FEAE0B4FE
:1004B0000104D238803F907FB4E04401F080369050
:1004C0007FEAE07020907FECE0F45480FFC4540F8A
:1004D000FFE054072F25E024B4F582E4347FF58350
:1004E0007401F08010907FB4E04401F08007907FA9
:0C04F000B4E04401F0907FB4E04402F05E
:0104FC0022DD
:03003300021B1598
:041B150053D8EF3280
:0D00360000110C080707070707070C12FF51
:1017F700052F7E00E52F54032419F582EE341BF5DF
:1018070083E493FFE52554F0FEEF4EF52590800322
:04181700E525F022B1
:100CEB00753403C248D22F908003E525F0E4F51646
:100CFB007D64750AFF1217F785130DC3E513950D68
:100D0B00C39D40F7E516C39470505B1217F7901B09
:100D1B0042E0F50D901B42E0C3950DC3948040F467
:100D2B00152F7E00E52F54032419F582EE341BF5A5
:100D3B0083E493FFE52554F0FEEF4EF525908003F9
:100D4B00E525F0901B42E0C3950DC394F040F412DF
:100D5B0017F7AF160516EFC3940C40A8908000E070
:100D6B0030E0A1750A09532FFED259C241C257C2B6
:100D7B00567535FFD248C22F908003E525F0E53537
:0D0D8B0070FCE4F534D205907F97E520F070
:010D98002238
:10164A00C248305604D25A8026C25A305921D2573B
:10165A00C259E52F5403901B1993FFE52554F0FE58
:10166A00EF4EF525908003E525F0E4F535F536D201
:02167A00482204
:10157500C248305704D24D802EC24D304129D25633
:10158500C241C207907F97E520F0E52F5403901BD9
:101595001993FFE52554F0FEEF4EF525908003E500
:0A15A50025F0E4F535F536D24822B2
:03000B00020046AA
:10004600C0E0C0F0C083C082C0D075D000C000C080
:0D00560001C002C003C004C005C006C00701
:10006300901B42E004F0E05407600302029730461D
:1000730019908000E030E005750A098003750AFFD6
:10008300C22F908003E525F0C24630487320570302
:1000930030565D20560CE5367008901B44E0640929
:1000A300705EE53570461217F70536E53690003673
:1000B30093F535E536640C7047908003E525F03001
:1000C3005714D241C257D207907F97E520F0304DA5
:1000D3002F121575802AD259D22F908003E525F06F
:1000E300D246C256305A1912164A8014153580105A
:1000F300E535600CD535095325F0908003E525F0EF
:10010300303B75C236908004E526F090800274017E
:10011300F0741DF07419F09080007474F0908001F5
:10012300747FF0753E04908000748FF090800174AA
:1001330041F09080027419F0D53EEB753E04908037
:1001430001E4F09080027410F0D53EF290800074C8
:1001530074F0908001747FF09080027401F09080BD
:1001630000E521F0908001E523F0908002E524F082
:10017300D236908004E526F0305117303907C23962
:10018300121A22800DAF171517EF7006C251D24411
:10019300805F901B44E004F0E0640A60030202976E
:1001A300F00513E51370020514D250204403020234
:1001B30043E5375403FFBF010820590330410205CB
:1001C30037E5375403FFBF021DAF171517EF70163E
:1001D300AF101510EF700FAF0C150CEF7008304F08
:1001E300101215750537E5375403FFBF030E305959
:1001F3000B304E05C24012104B5337FCE537540CFD
:10020300FFBF040C20410330590674042537F5372A
:10021300E537540CFFBF081AAF3D153DEF7013AF20
:10022300381538EF700C304C1412157574042537DB
:10023300F537E537540CFFBF0C063059035337F33A
:10024300305306E513540F7035753E00E50E600517
:10025300433E01150EE5086005433E021508E50F10
:100263006005433E04150FE5096005433E08150983
:10027300E52054F0453EF520907F97E520F0E534E6
:10028300600655137002B205907F97E520F0E513E1
:10029300543F6003305828304025305E22B208B204
:1002A30009753E04153EE53ED39400400890800056
:0F02B300E521F080EFB208B209908000E521F05C
:1002C200D007D006D005D004D003D002D001D00090
:0B02D200D0D0D082D083D0F0D0E0323A
:101AA400040103000505000301000200FFFFFEFE20
:10088C00D238907F92E054FDF0E4907FE2F0F58650
:10089C00907F9574C3F0907F9E74FBF0907F93745F
:1008AC0028F0E4907F94F0907F9C742DF0907F96CC
:1008BC007401F0907F9D74FFF0907F977430F090EE
:1008CC007FDD7409F0907FA1E04401F0907FB27459
:1008DC0000F0A37446F0907FAFE04406F0758C06F0
:1008EC00E58954F84402F589538EF7D28CD2A97558
:1008FC002560908003E525F0AF3A1216DCD2069005
:10090C007F97E520F0753740D2447524017521742A
:10091C0075237F752607908000E521F0908001E516
:10092C0023F0908002E524F0908004E526F090807E
:10093C0010E522F0901B477401F07D1E7F401214CD
:10094C0077E4FD7F701214777DD8E4FF1214777D65
:10095C00407F10121477D2497D0C7F201214777DC2
:10096C001E7F501214777D1E7F30121477E4FD7FAA
:04097C00600214778A
:10071200908006E4F0A3740AF0908008E4F0A374D9
:1007220009F090800AE4F0A304F0D236908004E548
:1007320026F0D237E526F07513F5908000E030E11F
:1007420004E51370F5121ADF120CEB7F0112167C0E
:10075200E4F539901B48F0A3F0750D02E50D241065
:10076200FD7FA012181B901B49E02FF0901B48E060
:100772003400F0050DE50DC3942040E07D117FA00B
:1007820012181BEFFE901B49E02400F0901B48E07A
:100792003EF07D107FA012181B901B49E02FF090B5
:1007A2001B48E03400F0E0F47003A3E0F4702A7D0B
:1007B200157FA012181B8F397D167FA012181B8F70
:1007C2000E7D1A7FA012181B8F0F7D247FA0121896
:1007D2001B8F0DE50DA2E2923F753C0FE5391460C7
:1007E2001414601C24FE601F1460248000753C23D6
:1007F200753021801D753080D20BD242D24B8012CF
:10080200753043D24B800B753C2375306280037583
:100812003029304208D235908004E526F0304B0D65
:10082200304204D2098002D208D240D25E908000C7
:10083200E521F0E4F50DE50FC394804003750D0149
:10084200E50D2450FFE50F25E0FD121477E4F50DC8
:10085200E50EC394804003750D01E50D2460FFE5AC
:100862000E25E0FD121477E50D2470FFE50E25E05C
:10087200FD121477E4F50FF50ED204907F97E52070
:0A088200F01213EB901B5BEFF02265
:100B49001213EB8F15205503020BF1E4FD901B5B8B
:100B5900E0FCC3951540027DFFE513547FFFBF04F8
:100B690017ED600C901B43E0F4600DE004F0800881
:100B7900901B43E0600214F0E5135407707CED60AC
:100B890030ECC39515F53FE49400F53EE53FAE3EE4
:100B99007803C333CE33CED8F9F53F8E3E901B434D
:100BA900E0FB7E00253FEE353E7039EB253FFD80A9
:100BB90033ECFFE515C39FF53FE49400F53EE53FAF
:100BC900AE3E7803C333CE33CED8F9F53F8E3E908F
:100BD9001B43E0FFFBC3E53F9BE53E94005005C383
:100BE900EF953FFD8D3A8012901B43E0600CE513B1
:100BF90054077006E53A6002153AAF3A1216DCE579
:100C09003A600AD216908010E522F08008C2169048
:070C19008010E522F0C2503B
:010C200022B1
:100C2100305C3F907DC0E0F50DA3E0FFC4540FF5AB
:100C310016E50DB4A509E516901AA493B4FF0512A3
:100C41001908801CE516901AA493FF907DC1E05409
:100C51000F6F6004EFB4FE05120ECA8003121B1061
:100C6100C25C30522FE533702BC3E52D951DE52C69
:100C7100951C5011E52DAE2C7805CEC313CE13D89B
:100C8100F9F533800FE51DAE1C7805CEC313CE13E5
:100C9100D8F9F533538EF8120A68058E30470C12D5
:100CA1000980304521C247C245801BE50B6017E52D
:100CB1001D2512FFE51C3511FED3EF9400EE9420A3
:100CC1005004D247150B305006205B03120B49E547
:100CD100375403FFBF0210E510D394005006E50C12
:0A0CE10094004003C25822D25822AA
:08000300907FEAE0F545D322ED
:0E1AC300907F00E545F0907FB57401F0D322CE
:081AF700907FEAE0F544D322E0
:0E1AD100907F00E544F0907FB57401F0D322C1
:10195500C0E0C083C082D23D5391EF907FAB74014C
:08196500F0D082D083D0E03203
:1019B400C0E0C083C0825391EF907FAB7404F0D039
:0619C40082D083D0E03266
:1019CA00C0E0C083C0825391EF907FAB7402F0D025
:0619DA0082D083D0E03250
:1019E000C0E0C083C0825391EF907FAB7410F0D001
:0619F00082D083D0E0323A
:011B1F003293
:10196D00C0E0C083C082D25D5391EF907FAB74080D
:08197D00F0D082D083D0E032EB
:10198500C0E0C083C082D25C5391EF907FAA7404FB
:08199500F0D082D083D0E032D3
:100A6800907FB8E020E114E53360081533792078E9
:100A7800208026E52D7005E52C7001227820E52DD3
:100A8800C398E52C94005002A82DE8F9305270E57F
:100A98001DC398E51C940040E2907FE27450F07406
:100AA80000907FE4F0747E907FE3F0907FE57420FF
:100AB80098702C7802C2AFF0F0F0F0F0F0F0F0F09F
:100AC800F0F0F0F0F0F0F0F0F0F0F0F0F0F0F0F01E
:100AD800F0F0F0F0F0F0F0D8DED2AF8008C2AFF05E
:100AE800F0D8FCD2AF907FE27400F0907FB9E9298A
:100AF800F0C3E51D99F51DE51C9400F51C802F85B4
:100B080032848531857400907FE4F0747E907FE3B1
:100B1800F0907FE5C2AF0586E0A30586F00586E084
:100B2800A30586F0D8F0D2AF907FB9E929F0858483
:100B380032858531E52DC399F52DE52C9400F52CEA
:010B4800228A
:011B20003292
:10098000E53B24F97003020A2F24076003020A677B
:10099000204703020A67C2AFC237908004E526F001
:1009A0007F05121B1DC236908004E526F030491FDA
:1009B000304B12C240304E03121A22901B47E0FF08
:1009C000121A5F8014901B47E0FF1218E8800AC2D9
:1009D0005E901B47E0FF1219F6901B48E0FEA3E073
:1009E000FF8E46F547901B45E0FCA3E0FDEF2DFB95
:1009F000EE3CCB2512F547EB3511F546908006F01D
:100A0000A3E547F0C39FF547E5469EF5469080086D
:100A1000F0A3E547F090800AECF0A3EDF0D2369019
:100A20008004E526F0D237E526F0D2AF753B07907B
:100A30008000E020E131E512251DF51DE511351C92
:100A4000F51CE50B6018E51D2512FFE51C3511FEB0
:100A5000D3EF9400EE94205005150B020996E4F5AF
:070A60003BD245A24B925E60
:010A6700226C
:101A3700C3907FA57800E020E003D8FA2220E2FCDB
:051A470030E1F9D3229B
:1018A500C2AF907FA57480F0907FA6EF54FEF01232
:1018B5001A37500D7400F0907FA6EDF0121A3750CC
:0218C5000022FF
:10000E001218A55009907FA6EBF0121A37C3907FF5
:10001E00A57440F05008907FA6E0FF907FA5E020E9
:05002E00E6FCD2AF2248
:10181B001218A5501B7480F0907FA6EF54FE440164
:10182B00F0121A37500A7420F0907FA6E0121A3784
:04183B00D302001CB8
:1019F600908001E523C2E4F06403C2E4F0D2E4F08F
:061A0600DFF8E523F022E9
:1017AE00EF2E601DD312193D908001E5230E6410BB
:1017BE00F0640BF06410F0640BF0DFF2DEF0E52362
:0517CE00F0C302193D0B
:101A0C00908002E524D2E3F07805121AFFC2E3F0CD
:061A1C001215E3C23A229C
:1015E300908001E5237D7D7C0B7B10C2AF6BF06C9B
:1015F300F06BF06CF06BF06CF06BF06CF06BF06C0C
:10160300F06BF06CF06BF06CF06BF06CF0DDDED235
:04161300AFD23A22F6
:10192300907FD6E030E712E04401F07F147E00128E
:0A193300199D907FD6E054FEF022CB
:1018C700907FD6E04480F0438701000000000022AB
:07122C00907FD6E04408F0BA
:03123300E4F53EA1
:04123600E054FBF095
:03123A00E4F53E9A
:10123D00E04408F0305F04E04402F07FDC7E0512EC
:10124D00199D907F92E030E3077FDC7E0512199D9A
:10125D00907FAB74FFF0907FA9F0907FAAF053912F
:08126D00EF907FD6E054F7F08A
:03127500E4F53E5F
:05127800E04404F02237
:02170900A9072E
:10170B00AE1EAF1F8F828E83A3E064037017AD01F3
:10171B0019ED7001228F828E83E07C002FFDEC3E51
:09172B00FEAF0580DF7E007F00A7
:011734002292
:0214FA00AD073C
:1014FC00E4FCAE1AAF1B8F828E83A3E06402702AC9
:10150C00AB040CEBB50501228F828E83A3A3E0FA0A
:10151C00A3E08A42F5436242E5426243E5436242FC
:0E152C002FFBE5423EFEAF0380CC7E007F0029
:01153A00228E
:10199D008E3F8F40E5401540AE3F7002153F4E60C3
:0719AD00051218D780EE229D
:1018D7007400F58690FDA57C05A3E582458370F924
:0118E70022DE
:03004300021300A5
:10130000021955000219CA000219B40002196D0031
:101310000219E000021B1F00021B2000021B20001C
:10132000021B2000021B2000021B20000219850066
:10133000021B2000021B2000021B2000021B2000B9
:10134000021B2000021B2000021B2000021B2000A9
:08135000021B2000021B20001B
:03000000021AEBF6
:0C1AEB00787FE4F6D8FD7581470204FD09
:10111800EF8DF0A4A8F0CF8CF0A428CE8DF0A42EEB
:02112800FE22A5
:10112A00EB9FF5F0EA9E42F0E99D42F0E89C45F01B
:01113A002292
:0C113B00ECF0A3EDF0A3EEF0A3EFF02227
:10114700A8828583F0D083D08212115E12115E12BD
:10115700115E12115EE473E493A3C583C5F0C583E2
:10116700C8C582C8F0A3C583C5F0C583C8C582C8F2
:011177002255
:00000001FF
