:0E1DDB000102040800010202030304040505CE
:10063C00E4F557F556F555F554C25EC23DC256C2A7
:10064C004112082A7E0E7FB88E3D8F3E75450E7581
:10065C0046CA753B0E753CD475430E7544FC754A01
:10066C000F754B2490E680E030E70E853B3F853CD0
:10067C0040854341854442800C85433F85444085F9
:10068C003B41853C42EE54E070030207AD755800C7
:10069C007559807E0E7FB88E5A8F5BC374529FFF44
:1006AC00740F9ECF2402CF3400FEE48F538E52F58C
:1006BC0051F550F54FF54EF54DF54CAF53AE52ADDF
:1006CC0051AC50AB4FAA4EA94DA84CC3121B69504C
:1006DC002AE559254FF582E558354EF58374CDF052
:1006EC00E4FAF9F8E54F2401F54FEA354EF54EE9F9
:1006FC00354DF54DE8354CF54C80C0E4F54FF54ED5
:10070C00F54DF54CAF53AE52AD51AC50AB4FAA4E6C
:10071C00A94DA84CC3121B695035AE4EAF4FE55BCB
:10072C002FF582E55A3EF583E0FDE5592FF582E57C
:10073C00583EF583EDF0E4FAF9F8EF2401F54FEAB1
:10074C003EF54EE9354DF54DE8354CF54C80B5850B
:10075C00583D85593E74B82480FF740E34FFFEC397
:10076C00E5469FF546E5459EF545C3E5409FF540BA
:10077C00E53F9EF53FC3E5429FF542E5419EF541BD
:10078C00C3E53C9FF53CE53B9EF53BC3E5449FF53B
:10079C0044E5439EF543C3E54B9FF54BE54A9EF577
:1007AC004AD2E843D82090E668E04409F090E65C31
:1007BC00E0443DF090E65EE04408F0D2AF12096FE1
:1007CC0090E680E020E105D25F1218DC90E680E034
:1007DC0054F7F0538EF8C25E304105120382C241C9
:1007EC00305E29121E2B5024C25E12000E203D16C4
:1007FC0090E682E030E704E020E1EF90E682E03022
:10080C00E604E020E0E4121938121E2D120D1D1220
:0D081C000D1D120D1D120D1D120D1D80BBB6
:0108290022AC
:1003820090E6B9E0700302047E147003020527248C
:10039200FE70030205BC24FB700302047814700390
:1003A20002047214700302046614700302046C24C3
:1003B200056003020628121E2F400302063490E64F
:1003C200BBE024FE603B14606224FD601F146046A3
:1003D2002406600302045CE53D90E6B3F0000000F1
:1003E200E53E90E6B4F0000000020634E54590E6F2
:1003F200B3F0000000E54690E6B4F000000002060B
:1004020034E53F90E6B3F0000000E54090E6B4F03A
:10041200000000020634E54190E6B3F0000000E57A
:100422004290E6B4F000000002063490E6BAE0FF23
:10043200121964AA06A9077B01EA496013EE90E645
:10044200B3F0000000EF90E6B4F0000000020634C2
:1004520090E6A0E04401F002063490E6A0E04401F8
:10046200F0020634121D67020634121E0A02063416
:10047200120003020634121D55020634121E3140C8
:100482000302063490E6B8E0247F602B14603C241B
:1004920002600302051DA23DE433FF25E0FFA256E0
:1004A200E4334F90E740F0E4A3F090E68AF090E660
:1004B2008B7402F0020634E490E740F0A3F090E679
:1004C2008AF090E68B7402F002063490E6BCE054A7
:1004D2007EFF7E00E0D3948040067C007D01800494
:1004E2007C007D00EC4EFEED4F24DFF582741D3E54
:1004F200F583E493FF3395E0FEEF24A1FFEE34E6AB
:100502008F82F583E0540190E740F0E4A3F090E697
:100512008AF090E68B7402F002063490E6A0E04482
:1005220001F0020634121E33400302063490E6B88C
:10053200E024FE601D2402600302063490E6BAE065
:10054200B40105C23D02063490E6A0E04401F00287
:10055200063490E6BAE0705990E6BCE0547EFF7E25
:1005620000E0D3948040067C007D0180047C007D05
:1005720000EC4EFEED4F24DFF582741D3EF583E460
:1005820093FF3395E0FEEF24A1FFEE34E68F82F570
:1005920083E054FEF090E6BCE05480FF1313135442
:1005A2001FFFE0540F2F90E683F0E04420F0020694
:1005B2003490E6A0E04401F08078121E355073902A
:1005C200E6B8E024FE60202402706790E6BAE0B448
:1005D2000104D23D805C90E6BAE06402605490E689
:1005E200A0E04401F0804B90E6BCE0547EFF7E0028
:1005F200E0D3948040067C007D0180047C007D0075
:10060200EC4EFEED4F24DFF582741D3EF583E4933C
:10061200FF3395E0FEEF24A1FFEE34E68F82F583EF
:10062200E04401F0800C121E37500790E6A0E0442F
:0906320001F090E6A0E04480F024
:01063B00229C
:03003300021E2783
:041E270053D8EF326B
:101DAD00040103000505000301000200FFFFFEFE14
:10082A0090E682E04410F090E600E054E74410F0CD
:10083A00D23D1213B390E61274E2F000000090E683
:10084A0018740CF000000090E680E030E71090E6A3
:10085A00207402F0000000E490E621F0800EE4909B
:10086A00E620F000000090E6217440F0000000E469
:10087A0090E6CEF000000090E6CFF000000090E68F
:10088A00D0F000000090E6D1F000000090E610746D
:10089A00A0F090E611F0000000E490E68DF0000070
:1008AA0000F58690E601E04402F075B2FF75B4EFF8
:1008BA0075B5FF75B6FF75A0E0E4F5B17C00EC9064
:1008CA00E606F090E6077456F090E605E04406F076
:1008DA00758C06E58954F84402F589538EF7D28C53
:1008EA00D2A9752460908003E524F0AF19121BBECB
:1008FA00D2068520B1751440D2457523017521773A
:10090A0075227F752503908000E521F0908001E52E
:10091A0022F0908002E523F0908004E525F0908093
:10092A0010E526F090E0917401F07D0C7F401218DA
:10093A00ACE4FD7F701218AC7DD8E4FF1218AC7DD0
:10094A00407F101218ACD24B7D0C7F201218AC7D60
:10095A00327F501218AC7D1E7F301218AC7D327F68
:05096A00601218AC2230
:10096F007F01121A0BE4F51390E092F0A3F07530AB
:10097F0002E5302410FD7FA0121AED90E093E02FD6
:10098F00F090E092E03400F00530E530C394204061
:10099F00E07D107FA0121AED90E093E02FF090E031
:1009AF0092E03400F07D117FA0121AEDEFFE90E07F
:1009BF0093E02400F090E092E03EF0E0F47003A3A7
:1009CF00E0F470387D157FA0121AED8F137D167F1E
:1009DF00A0121AED8F317D1A7FA0121AED8F327D82
:1009EF00247FA0121AED8F30E53013923AE530A232
:1009FF00E2924DC41313540390E08EF0E51314608C
:100A0F000F1460111460138000750B18D24F8015EE
:100A1F00750B308010750B10800B750B46D22D9017
:100A2F008004E525F0E4F530E532C394804003758A
:100A3F003001E5302450FFE53225E0FD1218ACE41B
:100A4F00F530E531C394804003753001E530246003
:100A5F00FFE53125E0FD1218ACE4F532F531A23A8D
:100A6F00922A908004E525F0121A591216C7121D0A
:0A0A7F00BD12187B90E0A5EFF022F5
:100C5B0012187B8F38205703020D03E4FD90E0A59B
:100C6B00E0FCC3953840027DFFE536547FFFBF049F
:100C7B0017ED600C90E08AE0F4600DE004F0800862
:100C8B0090E08AE0600214F0E5365407707CED606A
:100C9B0030ECC39538F55DE49400F55CE55DAE5C36
:100CAB007803C333CE33CED8F9F55D8E5C90E08AF2
:100CBB00E0FB7E00255DEE355C7039EB255DFD803C
:100CCB0033ECFFE538C39FF55DE49400F55CE55D1F
:100CDB00AE5C7803C333CE33CED8F9F55D8E5C9022
:100CEB00E08AE0FFFBC3E55D9BE55C94005005C328
:100CFB00EF955DFD8D19801290E08AE0600CE53672
:100D0B0054077006E51960021519AF19121BBEC204
:010D1B005384
:010D1C0022B4
:100D1D00305D3F90E780E0F530A3E0FFC4540FF560
:100D2D0039E530B4A509E539901DAD93B4FF051231
:100D3D001C95801CE539901DAD93FF90E781E05423
:100D4D000F6F6004EFB4FE051211918003121E2285
:100D5D00C25D30542D85080E85090FC3E549950FE9
:100D6D00E548950E500685480E85490FD3E50F943D
:100D7D0000E50E94014006750E01750F001212F07C
:100D8D00800312135530490F120B74A2479247502E
:100D9D0021C249C247801BE52E6017E5492535FF65
:100DAD00E5483534FED3EF94FFEE940E5004D2494E
:0C0DBD00152E305306205C03120C5B2244
:021E2B00D322C0
:021E2D00D322BE
:021E2F00D322BC
:0800030090E6BAE0F55FD3229C
:101D550090E740E55FF0E490E68AF090E68B04F0CA
:021D6500D32287
:081E0A0090E6BAE0F55ED32278
:101D670090E740E55EF0E490E68AF090E68B04F0B9
:021D7700D32275
:021E3100D322BA
:021E3300D322B8
:021E3500D322B6
:021E3700D322B4
:101C3500C0E0C083C082D2415391EF90E65D74014C
:081C4500F0D082D083D0E03220
:101CAD00C0E0C083C0825391EF90E65D7404F0D024
:061CBD0082D083D0E0326A
:101CC300C0E0C083C0825391EF90E65D7402F0D010
:061CD30082D083D0E03254
:100DC900C0E0C083C08290E680E030E70E853B3FFB
:100DD900853C40854341854442800C85433F854499
:100DE90040853B41853C425391EF90E65D7410F09C
:070DF900D082D083D0E0326C
:101C4D00C0E0C083C082D25E5391EF90E65D740810
:081C5D00F0D082D083D0E03208
:10173D00C0E0C083C08290E680E030E70E853B3F7D
:10174D00853C40854341854442800C85433F85441B
:10175D0040853B41853C425391EF90E65D7420F00E
:07176D00D082D083D0E032EE
:101C6500C0E0C083C082D25D5391EF90E65F7408F7
:081C7500F0D082D083D0E032F0
:01005200327B
:100EB8001201000200000040970D0101010001022B
:100EC80000010A0600020000004001000902270094
:100ED800010100A0000904000003FF00000007054D
:100EE80081020002000705010200020007058202D4
:100EF8000002000009022700010100A00009040007
:100F08000003FF00000007058102400000070501FB
:100F180002400000070582024000000004030904A3
:100F28000A035300420049004700200355005300BC
:100F3800420046002D00430041004D0020004500BE
:0D0F48006E00670069006E0065000000008B
:1019380090E682E030E004E020E60B90E682E030BA
:10194800E119E030E71590E680E04401F07F147E6D
:0C1958000012168690E680E054FEF0229B
:10000E0090E682E044C0F090E681F0438701000064
:04001E0000000022BC
:1018DC00305F0990E680E0440AF0800790E680E0F3
:1018EC004408F07FDC7E0512168690E65D74FFF0EE
:0F18FC0090E65FF05391EF90E680E054F7F02212
:02196400A907D1
:10196600AE4AAF4B8F828E83A3E064037017AD013E
:1019760019ED7001228F828E83E07C002FFDEC3EF4
:09198600FEAF0580DF7E007F004A
:01198F002235
:101686008E5C8F5D90E600E05418700DE55CC31328
:10169600F55CE55D13F55D801590E600E05418FFF6
:1016A600BF100BE55D25E0F55DE55C33F55CE55DBA
:1016B600155DAE5C7002155C4E600512002280EE70
:0116C6002201
:100022007400F58690FDA57C05A3E582458370F9F1
:0100320022AB
:0A1DF500AE47C3E5369EC39F40F8D9
:011DFF0022C1
:1016C700E490800DF0908006F0A3740AF0908008F3
:1016D700E4F0A37409F090800AE4F0A304F0D22E9A
:1016E700908004E525F0C22F7F0A121DF5E525F04D
:0C16F700D22FE525F0121DF5121DE9228E
:101A5900908000E521F0908001E522F0908003E577
:101A690024F0908002E523F0908003E524F0908033
:051A790004E525F02248
:101A0B00E5A020E5047E0180027E008E30EF6005AC
:101A1B0053A0DF800743A020A23C9243E530700423
:071A2B007F0180027F002211
:10110800C24590E785E0540CF530E030E42E90E7D6
:1011180083E0F517A3E0F51BC242A3E05403600285
:10112800D242E51454F34404F514D24EE53070432A
:10113800C24EE51454F34408F514803790E782E072
:10114800F52FA3E0F533A3E0F53AE51454FC440188
:10115800F514D251E530700AC251E51454FC44022A
:10116800F514A23C9243303C0AAF36EF653660FB7B
:10117800121D05E530B404031217E0E530B4080386
:08118800121703D245121E1DCF
:01119000223C
:1017AB00C24590E782E030E014E514540C602053FE
:1017BB0014F3304E1A12170343140C8012E5145411
:1017CB0003600C5314FC305106121703431403D25D
:0517DB0045121E1D2255
:10156200C2AF90E782E030E407E0A2E3925C80370A
:10157200C25CC25790E783E090E0A5F090E782E07A
:1015820030E10BA3E0F519E490E08AF0801990E7CE
:1015920082E030E00CD25790E784E090E08AF0805D
:0D15A2000690E08A7401F0D2AF121E1D22E7
:101A7E00E490E097F030570204F090E0A5E090E09B
:101A8E0098F0A3E538F0A37480F0A3E519F075394A
:051A9E0035121BDE22E1
:101B1100C2AF90E782E0F531A3E0F52CA3E0F53206
:101B2100A3E0F52DC255A3E030E002D255D2AF12A9
:031B31001E1D2254
:10190B0090E783E07023A3E0701F90E786E0C39419
:10191B00014016E0D394075010204F04E0B40709A0
:0C192B0090E786E0F518120F55121E1D03
:01193700228D
:1017740090E782E02410547FF530E030E71690E7DC
:1017840084E0FFAD30121AED90E097EFF0753971F7
:10179400121BDE2290E784E0FF90E783E0FBAD308C
:0717A400121AC8121E1D22DB
:10140E00121E1D90E782E0FFC454C0F539E4F510BA
:10141E00E539B44004C2058015E5397004D2058063
:10142E000DE539B4800575103F800375100FE51476
:10143E00543F4539F5148520B190E782E05403F509
:10144E0039B401031217E0E539B40203121703E5AC
:08145E0039B40303121DBD2285
:10121A00C2AFE51454CF90E097F0305A04E044107E
:10122A00F030590790E097E04420F030580790E0FA
:10123A0097E04430F090E0987401F0E5316004E002
:10124A004410F0E52C600790E098E04420F0E53285
:10125A00600790E098E04440F0E52D600790E09840
:10126A00E04480F0E51C540790E099F0205204E035
:0C127A004408F0D2AF753993121BDE223D
:0C004600E490E097F07539B1121BDE2247
:10164300121E1DC23F90E782E030E002D23F90E7D6
:1016530082E054186023E50A5403901DDB93FFE5F1
:101663002454F0FEEF4EF52490E782E030E40DD2EF
:101673003990E08FE537F080035324F0908003E541
:0316830024F0222E
:0D003600070F0606070D1E0A07070A010A3C
:101B7A00305204050A8002150AE50A5403901DDB57
:101B8A0093FFE52454F0FEEF4EF524908003E524FC
:021B9A00F02237
:0F1DBD00C24A751806120F55751807120F5522D6
:1017E000C24A305804D25B8029C25B305A24D25995
:1017F000C25AE50A5403901DDB93FFE52454F0FE22
:10180000EF4EF524908003E524F0E4F511F5127510
:051810001607D24A2278
:10170300C24A305904D250802EC250304429D25894
:10171300C244C2078520B1E50A5403901DDB93FF41
:10172300E52454F0FEEF4EF524908003E524F0E425
:0A173300F511F512751607D24A22CF
:03000B000200569A
:10005600C0E0C0F0C083C082C0D075D000C000C070
:0D00660001C002C003C004C005C006C007F1
:1000730090E089E004F0304315E030E011B208B2BB
:1000830009908000E521F0B208B209E521F090E083
:1000930089E0540F60030202630547304A73205915
:1000A3000330585A20580CE512700890E08BE06436
:1000B30009705EE5117043121B7A204F08E512B4F4
:1000C3000203D516020512E51290003693F511E5E9
:1000D300126406703C305914D244C259205202D2E1
:1000E300078520B130502A1217038025D25AC258EF
:1000F300B252305B1C1217E0801715118013E51103
:10010300600FD5110C2039095324F0908003E524A6
:10011300F0303F129080007474F0755C10D55CFD74
:10012300908000E521F090E08BE004F0E0640A6049
:1001330003020263F00536E53670020537D2533009
:10014300451AE514540C6014304211C216C21590BE
:100153008001E522F0D216D215E522F020450302F4
:1001630001F4E5145403FFBF0108205A033044028D
:100173000514E5145403FFBF021DAF3A153AEF709F
:1001830016AF331533EF700FAF2F152FEF70083005
:1001930051101217030514E5145403FFBF030E3067
:1001A3005A0B303C05C2431212865314FCE5145417
:1001B3000CFFBF040C204403305A0674042514F5C5
:1001C30014E514540CFFBF081AAF1B151BEF701373
:1001D300AF171517EF700C304E1412170374042564
:1001E30014F514E514540CFFBF0C06305A035314D2
:1001F300F3305506E536540F7032755C00E5316017
:1002030005435C041531E52C6005435C08152CE5BA
:10021300326005435C011532E52D6005435C021530
:100223002DE52054F0455CF5208520B1E5106006EE
:1002330055367002B2058520B1303924205921206A
:10024300581EE51DB51C1990E08FE0FFC3E5379FED
:10025300D39402400BC2395324F0908003E524F079
:1002630090E089E0540F64086003020367204803A9
:10027300020367E51D651C7003020367900036E403
:1002830093B51F0EE51DB407095324F0908003E5D1
:1002930024F0AF1F151FEF60030203670515E51573
:1002A300B4010A90003EE493F51F020364E515B41C
:1002B300020990003FE493F51F801AE515B4031A71
:1002C300E51DB40709900040E493F51F80079000F3
:1002D30041E493F51FB252020364E51564067026E8
:1002E300F510C2058520B1851D1CA2389252D24A51
:1002F300E51C6407706E751C02751D02C258C25955
:10030300C244D25A805EE51564056030E51D64077A
:10031300703F20463CE51ED394045035E50A540350
:10032300FF90E08EE06F7029204611304F047F0C60
:1003330080027F048F1ED246B252801B203909539C
:1003430024F0908003E524F090003CE493F51F80B3
:1003530013151EE51E60F175150190003EE493F53B
:040363001F121B7AD0
:10036700D007D006D005D004D003D002D001D000EA
:0B037700D0D0D082D083D0F0D0E03294
:100B7400E51A24F97003020C2824076003020C5AB6
:100B8400204903020C5AC2AFC22F908004E525F01D
:100B94007F05121E18C22E908004E525F0304B19F3
:100BA400303C0CC24390E091E0FF121D79801F900D
:100BB400E091E0FF121C1A8015303A0A90E091E0AF
:100BC400FF121CD9800890E091E0FF121BFD90E019
:100BD40092E0FEA3E0FF8E60F56190E08CE0FCA360
:100BE400E0FDEF2DFBEE3CCB2535F561EB3534F51F
:100BF40060908006F0A3E561F0C39FF561E5609E17
:100C0400F560908008F0A3E561F090800AECF0A311
:100C1400EDF0D22E908004E525F0D22FE525F0D218
:100C2400AF751A07121DCC502DE5352549F549E558
:100C3400343548F548E52E6018E5492535FFE54883
:100C44003534FED3EF94FFEE940E5005152E020BAF
:060C54008AE4F51AD24704
:010C5A002277
:1019BB00EE2F6020D3121C7D908001E5220EC2E534
:1019CB00F0C2E3F06403F0D2E3F06403F0DFF2DE85
:0819DB00F0E522F0C3021C7DBF
:101BFD00908001E522C2E5F0C2E3F06403F030E32A
:0D1C0D0003C2E3F0D2E3F0DFF5E522F022A0
:101CD900908001E522C2E4F06403C2E4F0D2E4F0AA
:061CE900DFF8E522F02205
:101AA300EF2E601DD3121C7D908001E5220E641879
:101AB300F06403F06418F06403F0DFF2DEF0E52273
:051AC300F0C3021C7DD0
:101CEF00908002E523D2E3F07805121E00C2E3F0E4
:061CFF00121815C23E227E
:10181500908001E5227D7D7C0B7B10C2AF6BF06C67
:10182500F06BF06CF06BF06CF06BF06CF06BF06CD7
:10183500F06BF06CF06BF06CF06BF06CF0DDDED201
:04184500AFD23E22BE
:0A1E0000D80008D8000800D8F72227
:051E1800EFF8021E00BE
:061E1200F0780A021E0038
:101C1A00908000E521C2E0121E126403121E1264B3
:0B1C2A0003121E12DFEFD2E0021E12B8
:10146600C243EE2F604A0ED3121C7D303C009080A2
:1014760000E521203C05C2E0121E126403121E1272
:101486006403121E12203C05D2E0121E12EFBE01AA
:1014960005C3940440045CB40112C3121C7DA90B5D
:1014A6007840121E00D9F9DFBEDEBC22DFC3DEC1E2
:0714B600908002E523F02203
:101B3400EE2F601E0E908000E521C2E0121E12649A
:101B440003121E126403121E12D2E0121E12DFEAE6
:031B5400DEE822A6
:10199000A2439240C243121286EE2F60140E908032
:1019A00000E5216403121E126403121E12DFF4DE2E
:0B19B000F2121D05C23BA24092432230
:101D0500E523908002D2E4F07828121E00C2E4F0A8
:051D15007828021E0009
:10128600D3121C7D908000E521C2E1F07817121E72
:1012960000204D25D2E0C2AFF0E523908002C2E0E7
:1012A600F0D2AF780C121E00D2E0C2AFF0908000F0
:1012B600E521C2E1F0D2AF8023D231E5269080103D
:1012C600F0E523908002D2E1F0780C121E00C2E114
:1012D600F0C231E526908010F09080007812121E40
:0A12E60000E521F0D23BC3021C7D9D
:101D7900908000E5216403121E126403121E12DF13
:021D8900F42242
:0C1DE900908003E524C2E6F0D2E6F02270
:101C7D00E5254004D2E68002C2E6908004F0F52509
:081C8D004001227805021E004F
:0F1DCC00C2AF908000E0E0D330E101C3D2AF227C
:1011910090E781E054F0B4F006121512021213B474
:1011A1000005121108806BB410051217AB8063B4EF
:1011B1002005121562805BB43005121A7E8053B48B
:1011C1004005121B11804BB4500512190B8043B41A
:1011D1006005121D8B803BB470051217748033B407
:1011E100800512140E802BB4900512121A8023B4BC
:1011F100A005121643801BB4B0051200468013B43B
:10120100C005121C95800BB4D005121C95800312E9
:091211000A8990E68D7400F022B8
:051E1D007406021C9791
:051E22007415021C977D
:101C95007418C25490E09585830C85820DF0A37469
:081CA50000F0F50875090122A9
:101BDE00C25490E09585830C85820D74A5F0A3E523
:0F1BEE0039F0540F240354FE03F5097508002243
:101D8B0090E0977462F5397402F0A37409F0021BAA
:011D9B00DE69
:101D2F007E007F0090E09774E2F539EEF0A3EFF0BC
:031D3F00021BDEA6
:10151200A3E0A3B403030215FEB40A030215FCB44C
:101522000003021D9CB401030215FEB4020302165D
:1015320000B404030219E3B405030215AFB40603B1
:101542000214BDB40703021849B40805E0FF021DE6
:1015520042B4090BE0FFA3E0FD1218AC021E1D22EB
:101D4200121A0B90E09774F2F5397408F0A3EFF0D1
:031D5200021BDE93
:101D9C00121A32E0F534FEA3E0F535FF052E021ED3
:011DAC001D19
:1015FC00052E052E121A32E0FEF534A3E0FFF53568
:10160C00C3E5499420E5489400500A204907E4B505
:10161C002E03021C95D25490E782E0B4030280039F
:10162C00B40A0F7C0090E787E0FD14252EF52E12EE
:07163C001B578E088F0922E5
:1019E3007400F52EE5484549601B30490F9080008F
:1019F30078007900E030E104D8FAD9F8121DE975CE
:081A03004800754900021E1D98
:1015AF00121A32E0FCA3E0FDA3E0F8A3E0F9A3E0F8
:1015BF00FAA3E0FB90E094ECF0E525D2E1D2E0BC99
:1015CF000306C2E0D2E18007BC0204C2E1D2E0F51B
:1015DF0025908004F090E091EDF090E092E8F0A378
:0D15EF00E9F090E08CEAF0A3EBF0021E1D85
:1018490090E786E0FEA3E0FF90E783E0B4000D3067
:101859003C051219908010121B34800B303A051286
:101869001CEF80031219BBD230E526908010F002DC
:021879001E1D32
:1014BD00C230E526908010F090E784E0FF7E00A317
:1014CD00A3A3E0FCA3E0FD121B5790E783E0B4005B
:1014DD0020303C08203B05C2431212867C0790E762
:1014ED0081E090E789540FB40802E0FC1214668085
:1014FD0011303A0B203E03121815121AA380031255
:05150D0019BB021E1DC8
:101A320090E783E0B40009204B19D24B7D40800728
:101A4200304B10C24B7D207F101218AC7DD87F0026
:071A52001218AC90E784229A
:100A8900A3E0A3C3B40002804DB401028022B402E2
:100A9900028044B403028019B40403021D2FB40573
:100AA900028067B40603020B3AB40703020B432220
:100AB900D3120B0890E786500CE584F8E0A3F608FA
:100AC900DFFA021E1DC2AFE0A30586F0A30586DF8B
:100AD900F6D2AF021E1DD3120B0890E0977539E8C4
:100AE900500CE584F8E608F0A3DFFA021BDEC2AF7A
:100AF9000586E0A30586F0A3DFF6D2AF021BDEE090
:100B0900FFA3E0F584A3E0F58522E0900B24F090A3
:100B19000B31F090E784E0FFC2AFE5A090E097F0D9
:100B29005F90E785FFE04FF5A0D2AF7539E1021B71
:100B3900DE121A591216C7021E1DE0B40402801FE4
:100B49005403C2AFF50A24DBF582E4341DF583E4CE
:100B590093F8E52454F048F524908003F0D2AF903F
:0B0B6900E097E50AF07539E1021BDEA1
:101D1A00C390E6787800E020E003D8FA2220E2FCBB
:051D2A0030E1F9D322B5
:101B9C00C2AF90E6787480F090E679EF54FEF012C4
:101BAC001D1A500D7400F090E679EDF0121D1A50CC
:021BBC00002205
:101AC800121B9C500990E679EBF0121D1AC390E6A0
:101AD800787440F0500890E679E0FF90E678E020CE
:051AE800E6FCD2AF2274
:101AED00121B9C501B7480F090E679EF54FE44015C
:101AFD00F0121D1A500A7420F090E679E0121D1AAA
:041B0D00D3021AD60F
:101BBE00C2A3C2A779C77B027A08E933F9C2A25041
:101BCE0002D2A2D2A3C2A3DAF1EFF9DBEBD2A722A3
:10187B00C2A3C2A779A77A08E933F9C2A25002D250
:10188B00A2D2A3C2A3DAF17840000000D8FB7A08F9
:10189B007F00C372A4EF33FFD2A3C2A3DAF4D2A7A3
:0118AB00221A
:1018AC00C2AFD2A0E520D2E4F5B1F520EFF97B026E
:1018BC007A08E933F9C2A15002D2A1C2A0D2A0DAAF
:1018CC00F1EDF9DBEBE520C2E4F520F5B1D2AF2266
:1013550090E6A2E020E108E5097005E508700122A4
:101365007820E509C398E50894005002A809E8F932
:10137500850D84850C8574C0F59B74E7F59A90E618
:101385007BC2AF0586E0A30586F00586E0A305864A
:10139500F0D8F0D2AF90E68FE929F085840D8585E8
:0E13A5000CE509C399F509E5089400F5082246
:1012F000000000E5BB20E70122304C1590E6D0E06D
:10130000700E90E6D1E07008C24C90E6487402F08E
:1013100022E50F7005E50E700122C3E50F250F9041
:10132000E6D1F0000000E50E350E90E6D0F0740432
:10133000F5BBC3E549950FF549E548950EF548C35A
:10134000E509950FF509E508950EF5087006E5091C
:051350007002D24C22E6
:011E39003276
:100FED006080E00008013F010101010701000300DD
:100FFD0000001000FFFEFEFFFFFFFFFF01090000D4
:10100D00002D123F0803013F0101010701020401F8
:10101D0000000000FFFDFFFFFFFFFFFF0909121297
:10102D00002D363F0E03013F01013607010002017D
:10103D0000001100FFFEFEFEFFFFFFFF0009121270
:10104D00002D123F0803013F0101010701020001BC
:10105D0000000000FFFDFFFFFFFFFFFF0909121257
:0E106D00002D363F47E080800000FF06E411B2
:1013B30090E60174CAF090E6F574FFF090E080E0E7
:1013C30090E6F3F090E081E090E6C3F090E082E0F5
:1013D30090E6C1F090E083E090E6C2F090E085E013
:1013E30090E6C0F090E086E090E6F4F075AF077405
:1013F300E0F59A7400F59B759DE4E4F59EFF90E695
:0A1403007BE090E67CF00FBF80F460
:01140D0022BC
:100F5500C248E518B4061BE51C6003020FEA751CC0
:100F650006303903020FEA5324F0908003E524F09C
:100F75008073E51C606F6518606B85181DE5186446
:100F8500076005E51CB4060C751D07D252C23875FD
:100F95001E388026A2529238E518D3951C400EE5DE
:100FA50018951C75F00CA4F51EC252800DC3E51CE6
:100FB500951875F00CA4F51ED252C246751003E4BF
:100FC500F51C90003D93F51FE4F515E50A540390D3
:100FD5001DDB93FFE52454F0FEEF4EF524908003CE
:080FE500E524F0C24AD24822C3
:03004300020E00AA
:03005300020E009A
:100E0000021C3500021CC300021CAD00021C4D0078
:100E1000020DC90002173D000200520002005200FC
:100E2000021E39000200520002005200021C65003E
:100E30000200520002005200020052000200520062
:100E40000200520002005200020052000200520052
:100E50000200520002005200020052000200520042
:100E60000200520002005200020052000200520032
:100E70000200520002005200020052000200520022
:100E80000200520002005200020052000200520012
:100E90000200520002005200020052000200520002
:100EA00002005200020052000200520002005200F2
:080EB000020052000200520092
:0300000002107C6F
:0C107C00787FE4F6D8FD7581610210C396
:101B5700EF8DF0A4A8F0CF8CF0A428CE8DF0A42EA2
:021B6700FE225C
:101B6900EB9FF5F0EA9E42F0E99D42F0E89C45F0D2
:011B79002249
:1010880002063CE493A3F8E493A34003F68001F23C
:1010980008DFF48029E493A3F85407240CC8C33369
:1010A800C4540F4420C8834004F456800146F6DF38
:1010B800E4800B0102040810204080900FEDE47ECC
:1010C800019360BCA3FF543F30E509541FFEE4932D
:1010D800A360010ECF54C025E060A840B8E493A3F4
:1010E800FAE493A3F8E493A3C8C582C8CAC583CA1F
:1010F800F0A3C8C582C8CAC583CADFE9DEE780BED7
:01107B000074
:00000001FF
